{
  "contractName": "ActionAuction",
  "abi": [
    {
      "constant": true,
      "inputs": [
        {
          "name": "",
          "type": "uint256"
        }
      ],
      "name": "bidderAddresses",
      "outputs": [
        {
          "name": "",
          "type": "address"
        }
      ],
      "payable": false,
      "stateMutability": "view",
      "type": "function"
    },
    {
      "constant": true,
      "inputs": [],
      "name": "endTime",
      "outputs": [
        {
          "name": "",
          "type": "uint256"
        }
      ],
      "payable": false,
      "stateMutability": "view",
      "type": "function"
    },
    {
      "constant": true,
      "inputs": [],
      "name": "startTime",
      "outputs": [
        {
          "name": "",
          "type": "uint256"
        }
      ],
      "payable": false,
      "stateMutability": "view",
      "type": "function"
    },
    {
      "constant": true,
      "inputs": [],
      "name": "owner",
      "outputs": [
        {
          "name": "",
          "type": "address"
        }
      ],
      "payable": false,
      "stateMutability": "view",
      "type": "function"
    },
    {
      "constant": true,
      "inputs": [],
      "name": "charity",
      "outputs": [
        {
          "name": "",
          "type": "address"
        }
      ],
      "payable": false,
      "stateMutability": "view",
      "type": "function"
    },
    {
      "constant": true,
      "inputs": [],
      "name": "enigma",
      "outputs": [
        {
          "name": "",
          "type": "address"
        }
      ],
      "payable": false,
      "stateMutability": "view",
      "type": "function"
    },
    {
      "constant": true,
      "inputs": [],
      "name": "state",
      "outputs": [
        {
          "name": "",
          "type": "uint8"
        }
      ],
      "payable": false,
      "stateMutability": "view",
      "type": "function"
    },
    {
      "constant": true,
      "inputs": [],
      "name": "winner",
      "outputs": [
        {
          "name": "",
          "type": "address"
        }
      ],
      "payable": false,
      "stateMutability": "view",
      "type": "function"
    },
    {
      "constant": true,
      "inputs": [
        {
          "name": "",
          "type": "address"
        }
      ],
      "name": "bidders",
      "outputs": [
        {
          "name": "hasBidded",
          "type": "bool"
        },
        {
          "name": "bidValue",
          "type": "bytes"
        }
      ],
      "payable": false,
      "stateMutability": "view",
      "type": "function"
    },
    {
      "inputs": [
        {
          "name": "_owner",
          "type": "address"
        },
        {
          "name": "_charity",
          "type": "address"
        },
        {
          "name": "_auctionLength",
          "type": "uint256"
        },
        {
          "name": "_enigma",
          "type": "address"
        }
      ],
      "payable": false,
      "stateMutability": "nonpayable",
      "type": "constructor"
    },
    {
      "anonymous": false,
      "inputs": [
        {
          "indexed": false,
          "name": "bidder",
          "type": "address"
        }
      ],
      "name": "Bid",
      "type": "event"
    },
    {
      "anonymous": false,
      "inputs": [
        {
          "indexed": false,
          "name": "winner",
          "type": "address"
        },
        {
          "indexed": false,
          "name": "bidValue",
          "type": "uint256"
        }
      ],
      "name": "Winner",
      "type": "event"
    },
    {
      "constant": false,
      "inputs": [
        {
          "name": "_bidValue",
          "type": "bytes"
        }
      ],
      "name": "bid",
      "outputs": [],
      "payable": false,
      "stateMutability": "nonpayable",
      "type": "function"
    },
    {
      "constant": false,
      "inputs": [],
      "name": "endAuction",
      "outputs": [],
      "payable": false,
      "stateMutability": "nonpayable",
      "type": "function"
    },
    {
      "constant": true,
      "inputs": [
        {
          "name": "_bidders",
          "type": "address[]"
        },
        {
          "name": "_bidAmounts",
          "type": "uint256[]"
        }
      ],
      "name": "getHighestBidder",
      "outputs": [
        {
          "name": "",
          "type": "address"
        },
        {
          "name": "",
          "type": "uint256"
        }
      ],
      "payable": false,
      "stateMutability": "pure",
      "type": "function"
    },
    {
      "constant": false,
      "inputs": [
        {
          "name": "_highestBidder",
          "type": "address"
        },
        {
          "name": "_highestBidAmount",
          "type": "uint256"
        }
      ],
      "name": "updateWinner",
      "outputs": [],
      "payable": false,
      "stateMutability": "nonpayable",
      "type": "function"
    },
    {
      "constant": true,
      "inputs": [
        {
          "name": "_bidder",
          "type": "address"
        }
      ],
      "name": "hasBidded",
      "outputs": [
        {
          "name": "",
          "type": "bool"
        }
      ],
      "payable": false,
      "stateMutability": "view",
      "type": "function"
    },
    {
      "constant": true,
      "inputs": [],
      "name": "getAllBidders",
      "outputs": [
        {
          "name": "",
          "type": "address[]"
        }
      ],
      "payable": false,
      "stateMutability": "view",
      "type": "function"
    },
    {
      "constant": true,
      "inputs": [],
      "name": "getExpirationTime",
      "outputs": [
        {
          "name": "",
          "type": "uint256"
        }
      ],
      "payable": false,
      "stateMutability": "view",
      "type": "function"
    },
    {
      "constant": true,
      "inputs": [],
      "name": "getAuctionState",
      "outputs": [
        {
          "name": "",
          "type": "uint8"
        }
      ],
      "payable": false,
      "stateMutability": "view",
      "type": "function"
    },
    {
      "constant": true,
      "inputs": [
        {
          "name": "_bidder",
          "type": "address"
        }
      ],
      "name": "getBidValueForBidder",
      "outputs": [
        {
          "name": "",
          "type": "bytes"
        }
      ],
      "payable": false,
      "stateMutability": "view",
      "type": "function"
    },
    {
      "constant": true,
      "inputs": [],
      "name": "getWinner",
      "outputs": [
        {
          "name": "",
          "type": "address"
        }
      ],
      "payable": false,
      "stateMutability": "view",
      "type": "function"
    }
  ],
  "bytecode": "0x608060405234801561001057600080fd5b50604051608080610c0f833981016040908152815160208301519183015160609093015160008054600160a060020a03938416600160a060020a031991821617825560048054958516958216959095179094554260018190559094016002556007805492909116919092161760a060020a60ff0219169055610b7790819061009890396000f3006080604052600436106101065763ffffffff7c010000000000000000000000000000000000000000000000000000000060003504166308bfc300811461010b5780632fb3c48f146101445780633197cbb61461017857806331e375301461019f5780633a79d2e5146101c15780634e8ce26c1461022657806378e97925146102d75780638da5cb5b146102ec5780638e7ea5b214610301578063934aa02314610316578063b24fd5c51461032b578063c19d93fb14610340578063cb1e17cf14610355578063d390b2d114610379578063dfbf53ae1461040f578063e23a845a14610424578063ef4cec1f14610439578063fcc8f7931461046e578063fe67a54b14610512575b600080fd5b34801561011757600080fd5b50610120610527565b6040518082600281111561013057fe5b60ff16815260200191505060405180910390f35b34801561015057600080fd5b5061015c600435610538565b60408051600160a060020a039092168252519081900360200190f35b34801561018457600080fd5b5061018d610560565b60408051918252519081900360200190f35b3480156101ab57600080fd5b506101bf6004803560248101910135610566565b005b3480156101cd57600080fd5b506101d661065a565b60408051602080825283518183015283519192839290830191858101910280838360005b838110156102125781810151838201526020016101fa565b505050509050019250505060405180910390f35b34801561023257600080fd5b50604080516020600480358082013583810280860185019096528085526102b495369593946024949385019291829185019084908082843750506040805187358901803560208181028481018201909552818452989b9a9989019892975090820195509350839250850190849080828437509497506106bc9650505050505050565b60408051600160a060020a03909316835260208301919091528051918290030190f35b3480156102e357600080fd5b5061018d610734565b3480156102f857600080fd5b5061015c61073a565b34801561030d57600080fd5b5061015c610749565b34801561032257600080fd5b5061015c61077f565b34801561033757600080fd5b5061015c61078e565b34801561034c57600080fd5b5061012061079d565b34801561036157600080fd5b506101bf600160a060020a03600435166024356107ad565b34801561038557600080fd5b5061039a600160a060020a036004351661084b565b6040805160208082528351818301528351919283929083019185019080838360005b838110156103d45781810151838201526020016103bc565b50505050905090810190601f1680156104015780820380516001836020036101000a031916815260200191505b509250505060405180910390f35b34801561041b57600080fd5b5061015c610971565b34801561043057600080fd5b5061018d610980565b34801561044557600080fd5b5061045a600160a060020a0360043516610986565b604080519115158252519081900360200190f35b34801561047a57600080fd5b5061048f600160a060020a03600435166109a4565b604051808315151515815260200180602001828103825283818151815260200191508051906020019080838360005b838110156104d65781810151838201526020016104be565b50505050905090810190601f1680156105035780820380516001836020036101000a031916815260200191505b50935050505060405180910390f35b34801561051e57600080fd5b506101bf610a52565b60075460a060020a900460ff165b90565b600680548290811061054657fe5b600091825260209091200154600160a060020a0316905081565b60025481565b61056f33610986565b156105db57604080517f08c379a000000000000000000000000000000000000000000000000000000000815260206004820152601860248201527f55736572206861732062696464656420616c72656164792e0000000000000000604482015290519081900360640190fd5b60025442106105e957600080fd5b336000908152600560205260409020610606906001018383610ab3565b5033600081815260056020908152604091829020805460ff19166001179055815192835290517f417bd604b82c3fa277680a27ba0a50c43772789bdafa274544181c0a2b1e8ab59281900390910190a15050565b606060068054806020026020016040519081016040528092919081815260200182805480156106b257602002820191906000526020600020905b8154600160a060020a03168152600190910190602001808311610694575b5050505050905090565b6000808080805b8651811015610728578186828151811015156106db57fe5b9060200190602002015111156107205785818151811015156106f957fe5b906020019060200201519150868181518110151561071357fe5b9060200190602002015192505b6001016106c3565b50909590945092505050565b60015481565b600054600160a060020a031681565b6000600260075460a060020a900460ff16600281111561076557fe5b1461076f57600080fd5b50600354600160a060020a031690565b600454600160a060020a031681565b600754600160a060020a031681565b60075460a060020a900460ff1681565b6003805473ffffffffffffffffffffffffffffffffffffffff1916600160a060020a0384169081179091556007805474ff0000000000000000000000000000000000000000191674020000000000000000000000000000000000000000179055604080519182526020820183905280517f9c2270628a9b29d30ae96b6c4c14ed646ee134febdce38a5b77f2bde9cea2e209281900390910190a15050565b606061085682610986565b15156108c357604080517f08c379a000000000000000000000000000000000000000000000000000000000815260206004820152601860248201527f5573657220686173206e6f7420626964646564207965742e0000000000000000604482015290519081900360640190fd5b600160a060020a038216600090815260056020908152604091829020600190810180548451600293821615610100026000190190911692909204601f8101849004840283018401909452838252909290918301828280156109655780601f1061093a57610100808354040283529160200191610965565b820191906000526020600020905b81548152906001019060200180831161094857829003601f168201915b50505050509050919050565b600354600160a060020a031681565b60025490565b600160a060020a031660009081526005602052604090205460ff1690565b6005602090815260009182526040918290208054600180830180548651600261010094831615949094026000190190911692909204601f810186900486028301860190965285825260ff909216949293909290830182828015610a485780601f10610a1d57610100808354040283529160200191610a48565b820191906000526020600020905b815481529060010190602001808311610a2b57829003601f168201915b5050505050905082565b600054600160a060020a03163314610a6957600080fd5b600060075460a060020a900460ff166002811115610a8357fe5b14610a8d57600080fd5b6007805474ff0000000000000000000000000000000000000000191660a060020a179055565b828054600181600116156101000203166002900490600052602060002090601f016020900481019282601f10610af45782800160ff19823516178555610b21565b82800160010185558215610b21579182015b82811115610b21578235825591602001919060010190610b06565b50610b2d929150610b31565b5090565b61053591905b80821115610b2d5760008155600101610b375600a165627a7a723058201169d2dc1d9ee0b3a1a91d955de72b0f83db218ebd01e94206e66734b65049db0029",
  "source": "// Auction.sol, Andrew Tam\n// Need to add claimReward function\n\npragma solidity ^0.4.24;\n\nimport \"./Enigma.sol\";\n\ncontract ActionAuction {\n\n  enum AuctionState { IN_PROGRESS, CALCULATING, COMPLETED }\n\n  struct Bidder {\n    bool hasBidded;\n    bytes bidValue;\n  }\n\n  address public owner;\n  uint public startTime;\n  uint public endTime;\n  address public winner;\n  address public charity;\n  mapping(address => Bidder) public bidders;\n  address[] public bidderAddresses;\n  Enigma public enigma;\n  AuctionState public state;\n\n  event Bid(address bidder);\n  event Winner(address winner, uint bidValue);\n\n  constructor(address _owner, address _charity, uint _auctionLength, address _enigma) public {\n    owner = _owner;\n    charity = _charity;\n    startTime = now;\n    endTime = startTime + _auctionLength * 1 seconds;\n    enigma = Enigma(_enigma);\n    state = AuctionState.IN_PROGRESS;  // redundant\n  }\n\n  function bid(bytes _bidValue) external {\n    require(!hasBidded(msg.sender), \"User has bidded already.\");\n    require(now < endTime);\n    bidders[msg.sender].bidValue = _bidValue;\n    bidders[msg.sender].hasBidded = true;\n    emit Bid(msg.sender);\n  }\n\n  function endAuction() external {\n    require(msg.sender == owner);\n    require(state == AuctionState.IN_PROGRESS);\n    //require(now >= endTime);\n    state = AuctionState.CALCULATING;\n  }\n\n  //callable\n  // in the event of a tie, we're just taking the first bidder\n  function getHighestBidder(address[] _bidders, uint[] _bidAmounts) public pure returns (address, uint) {\n    address highestBidder;\n    uint highestBidAmount;\n    for (uint i = 0; i < _bidders.length; i++) {\n      if (_bidAmounts[i] > highestBidAmount) {\n        highestBidAmount = _bidAmounts[i];\n        highestBidder = _bidders[i];\n      }\n    }\n    return (highestBidder, highestBidAmount);\n  }\n\n  // callback\n  function updateWinner(address _highestBidder, uint _highestBidAmount) public\n    //onlyEnigma() comment this out for testing\n    {\n    winner = _highestBidder;\n    state = AuctionState.COMPLETED;\n    emit Winner(_highestBidder, _highestBidAmount);\n  }\n\n  /*\n   * Modifier that checks that the contract caller is the Enigma contract.\n   */\n  modifier onlyEnigma() {\n    require(msg.sender == address(enigma));\n    _;\n  }\n\n  function hasBidded(address _bidder) public view returns (bool) {\n    return bidders[_bidder].hasBidded;\n  }\n\n  function getAllBidders() public view returns (address[]) {\n    return bidderAddresses;\n  }\n\n  function getExpirationTime() public view returns (uint) {\n    return endTime;\n  }\n\n  function getAuctionState() public view returns (AuctionState) {\n    return state;\n  }\n\n  function getBidValueForBidder(address _bidder) public view returns (bytes) {\n    require(hasBidded(_bidder), \"User has not bidded yet.\");\n    return bidders[_bidder].bidValue;\n  }\n\n  function getWinner() public view returns(address) {\n    require(state == AuctionState.COMPLETED);\n    return winner;\n  }\n\n}\n",
  "sourcePath": "/Users/andrew/Desktop/Andrew/secret-contracts/secret-contracts/contracts/ActionAuction.sol",
  "compiler": {
    "name": "solc",
    "version": "0.4.24+commit.e67f0147.Emscripten.clang"
  },
  "schemaVersion": "2.0.1",
  "updatedAt": "2018-08-14T19:10:19.189Z"
}