{
  "contractName": "Auction",
  "abi": [
    {
      "constant": true,
      "inputs": [
        {
          "name": "",
          "type": "uint256"
        }
      ],
      "name": "bidderAddresses",
      "outputs": [
        {
          "name": "",
          "type": "address"
        }
      ],
      "payable": false,
      "stateMutability": "view",
      "type": "function"
    },
    {
      "constant": true,
      "inputs": [],
      "name": "endTime",
      "outputs": [
        {
          "name": "",
          "type": "uint256"
        }
      ],
      "payable": false,
      "stateMutability": "view",
      "type": "function"
    },
    {
      "constant": true,
      "inputs": [],
      "name": "startTime",
      "outputs": [
        {
          "name": "",
          "type": "uint256"
        }
      ],
      "payable": false,
      "stateMutability": "view",
      "type": "function"
    },
    {
      "constant": true,
      "inputs": [],
      "name": "owner",
      "outputs": [
        {
          "name": "",
          "type": "address"
        }
      ],
      "payable": false,
      "stateMutability": "view",
      "type": "function"
    },
    {
      "constant": true,
      "inputs": [],
      "name": "enigma",
      "outputs": [
        {
          "name": "",
          "type": "address"
        }
      ],
      "payable": false,
      "stateMutability": "view",
      "type": "function"
    },
    {
      "constant": true,
      "inputs": [],
      "name": "state",
      "outputs": [
        {
          "name": "",
          "type": "uint8"
        }
      ],
      "payable": false,
      "stateMutability": "view",
      "type": "function"
    },
    {
      "constant": true,
      "inputs": [],
      "name": "winner",
      "outputs": [
        {
          "name": "",
          "type": "address"
        }
      ],
      "payable": false,
      "stateMutability": "view",
      "type": "function"
    },
    {
      "constant": true,
      "inputs": [
        {
          "name": "",
          "type": "address"
        }
      ],
      "name": "bidders",
      "outputs": [
        {
          "name": "hasBidded",
          "type": "bool"
        },
        {
          "name": "bidValue",
          "type": "bytes"
        }
      ],
      "payable": false,
      "stateMutability": "view",
      "type": "function"
    },
    {
      "inputs": [
        {
          "name": "_owner",
          "type": "address"
        },
        {
          "name": "_auctionLength",
          "type": "uint256"
        },
        {
          "name": "_enigma",
          "type": "address"
        }
      ],
      "payable": false,
      "stateMutability": "nonpayable",
      "type": "constructor"
    },
    {
      "anonymous": false,
      "inputs": [
        {
          "indexed": false,
          "name": "bidder",
          "type": "address"
        }
      ],
      "name": "Bid",
      "type": "event"
    },
    {
      "anonymous": false,
      "inputs": [
        {
          "indexed": false,
          "name": "winner",
          "type": "address"
        },
        {
          "indexed": false,
          "name": "bidValue",
          "type": "uint256"
        }
      ],
      "name": "Winner",
      "type": "event"
    },
    {
      "constant": false,
      "inputs": [
        {
          "name": "_bidValue",
          "type": "bytes"
        }
      ],
      "name": "bid",
      "outputs": [],
      "payable": false,
      "stateMutability": "nonpayable",
      "type": "function"
    },
    {
      "constant": false,
      "inputs": [],
      "name": "endAuction",
      "outputs": [],
      "payable": false,
      "stateMutability": "nonpayable",
      "type": "function"
    },
    {
      "constant": true,
      "inputs": [
        {
          "name": "_bidders",
          "type": "address[]"
        },
        {
          "name": "_bidAmounts",
          "type": "uint256[]"
        }
      ],
      "name": "getHighestBidder",
      "outputs": [
        {
          "name": "",
          "type": "address"
        },
        {
          "name": "",
          "type": "uint256"
        }
      ],
      "payable": false,
      "stateMutability": "pure",
      "type": "function"
    },
    {
      "constant": false,
      "inputs": [
        {
          "name": "_highestBidder",
          "type": "address"
        },
        {
          "name": "_highestBidAmount",
          "type": "uint256"
        }
      ],
      "name": "updateWinner",
      "outputs": [],
      "payable": false,
      "stateMutability": "nonpayable",
      "type": "function"
    },
    {
      "constant": true,
      "inputs": [
        {
          "name": "_bidder",
          "type": "address"
        }
      ],
      "name": "hasBidded",
      "outputs": [
        {
          "name": "",
          "type": "bool"
        }
      ],
      "payable": false,
      "stateMutability": "view",
      "type": "function"
    },
    {
      "constant": true,
      "inputs": [],
      "name": "getAllBidders",
      "outputs": [
        {
          "name": "",
          "type": "address[]"
        }
      ],
      "payable": false,
      "stateMutability": "view",
      "type": "function"
    },
    {
      "constant": true,
      "inputs": [],
      "name": "getExpirationTime",
      "outputs": [
        {
          "name": "",
          "type": "uint256"
        }
      ],
      "payable": false,
      "stateMutability": "view",
      "type": "function"
    },
    {
      "constant": true,
      "inputs": [],
      "name": "getAuctionState",
      "outputs": [
        {
          "name": "",
          "type": "uint8"
        }
      ],
      "payable": false,
      "stateMutability": "view",
      "type": "function"
    },
    {
      "constant": true,
      "inputs": [
        {
          "name": "_bidder",
          "type": "address"
        }
      ],
      "name": "getBidValueForBidder",
      "outputs": [
        {
          "name": "",
          "type": "bytes"
        }
      ],
      "payable": false,
      "stateMutability": "view",
      "type": "function"
    },
    {
      "constant": true,
      "inputs": [],
      "name": "getWinner",
      "outputs": [
        {
          "name": "",
          "type": "address"
        }
      ],
      "payable": false,
      "stateMutability": "view",
      "type": "function"
    }
  ],
  "bytecode": "0x608060405234801561001057600080fd5b50604051606080610bce83398101604090815281516020830151919092015160008054600160a060020a0319908116600160a060020a039586161782554260018190559093016002556006805460a060020a60ff021994169490921693909317919091169055610b4890819061008690396000f3006080604052600436106100fb5763ffffffff7c010000000000000000000000000000000000000000000000000000000060003504166308bfc30081146101005780632fb3c48f146101395780633197cbb61461016d57806331e37530146101945780633a79d2e5146101b65780634e8ce26c1461021b57806378e97925146102cc5780638da5cb5b146102e15780638e7ea5b2146102f6578063b24fd5c51461030b578063c19d93fb14610320578063cb1e17cf14610335578063d390b2d114610359578063dfbf53ae146103ef578063e23a845a14610404578063ef4cec1f14610419578063fcc8f7931461044e578063fe67a54b146104f2575b600080fd5b34801561010c57600080fd5b50610115610507565b6040518082600281111561012557fe5b60ff16815260200191505060405180910390f35b34801561014557600080fd5b50610151600435610518565b60408051600160a060020a039092168252519081900360200190f35b34801561017957600080fd5b50610182610540565b60408051918252519081900360200190f35b3480156101a057600080fd5b506101b46004803560248101910135610546565b005b3480156101c257600080fd5b506101cb61063a565b60408051602080825283518183015283519192839290830191858101910280838360005b838110156102075781810151838201526020016101ef565b505050509050019250505060405180910390f35b34801561022757600080fd5b50604080516020600480358082013583810280860185019096528085526102a995369593946024949385019291829185019084908082843750506040805187358901803560208181028481018201909552818452989b9a99890198929750908201955093508392508501908490808284375094975061069c9650505050505050565b60408051600160a060020a03909316835260208301919091528051918290030190f35b3480156102d857600080fd5b50610182610714565b3480156102ed57600080fd5b5061015161071a565b34801561030257600080fd5b50610151610729565b34801561031757600080fd5b5061015161075f565b34801561032c57600080fd5b5061011561076e565b34801561034157600080fd5b506101b4600160a060020a036004351660243561077e565b34801561036557600080fd5b5061037a600160a060020a036004351661081c565b6040805160208082528351818301528351919283929083019185019080838360005b838110156103b457818101518382015260200161039c565b50505050905090810190601f1680156103e15780820380516001836020036101000a031916815260200191505b509250505060405180910390f35b3480156103fb57600080fd5b50610151610942565b34801561041057600080fd5b50610182610951565b34801561042557600080fd5b5061043a600160a060020a0360043516610957565b604080519115158252519081900360200190f35b34801561045a57600080fd5b5061046f600160a060020a0360043516610975565b604051808315151515815260200180602001828103825283818151815260200191508051906020019080838360005b838110156104b657818101518382015260200161049e565b50505050905090810190601f1680156104e35780820380516001836020036101000a031916815260200191505b50935050505060405180910390f35b3480156104fe57600080fd5b506101b4610a23565b60065460a060020a900460ff165b90565b600580548290811061052657fe5b600091825260209091200154600160a060020a0316905081565b60025481565b61054f33610957565b156105bb57604080517f08c379a000000000000000000000000000000000000000000000000000000000815260206004820152601860248201527f55736572206861732062696464656420616c72656164792e0000000000000000604482015290519081900360640190fd5b60025442106105c957600080fd5b3360009081526004602052604090206105e6906001018383610a84565b5033600081815260046020908152604091829020805460ff19166001179055815192835290517f417bd604b82c3fa277680a27ba0a50c43772789bdafa274544181c0a2b1e8ab59281900390910190a15050565b6060600580548060200260200160405190810160405280929190818152602001828054801561069257602002820191906000526020600020905b8154600160a060020a03168152600190910190602001808311610674575b5050505050905090565b6000808080805b8651811015610708578186828151811015156106bb57fe5b9060200190602002015111156107005785818151811015156106d957fe5b90602001906020020151915086818151811015156106f357fe5b9060200190602002015192505b6001016106a3565b50909590945092505050565b60015481565b600054600160a060020a031681565b6000600260065460a060020a900460ff16600281111561074557fe5b1461074f57600080fd5b50600354600160a060020a031690565b600654600160a060020a031681565b60065460a060020a900460ff1681565b6003805473ffffffffffffffffffffffffffffffffffffffff1916600160a060020a0384169081179091556006805474ff0000000000000000000000000000000000000000191674020000000000000000000000000000000000000000179055604080519182526020820183905280517f9c2270628a9b29d30ae96b6c4c14ed646ee134febdce38a5b77f2bde9cea2e209281900390910190a15050565b606061082782610957565b151561089457604080517f08c379a000000000000000000000000000000000000000000000000000000000815260206004820152601860248201527f5573657220686173206e6f7420626964646564207965742e0000000000000000604482015290519081900360640190fd5b600160a060020a038216600090815260046020908152604091829020600190810180548451600293821615610100026000190190911692909204601f8101849004840283018401909452838252909290918301828280156109365780601f1061090b57610100808354040283529160200191610936565b820191906000526020600020905b81548152906001019060200180831161091957829003601f168201915b50505050509050919050565b600354600160a060020a031681565b60025490565b600160a060020a031660009081526004602052604090205460ff1690565b6004602090815260009182526040918290208054600180830180548651600261010094831615949094026000190190911692909204601f810186900486028301860190965285825260ff909216949293909290830182828015610a195780601f106109ee57610100808354040283529160200191610a19565b820191906000526020600020905b8154815290600101906020018083116109fc57829003601f168201915b5050505050905082565b600054600160a060020a03163314610a3a57600080fd5b600060065460a060020a900460ff166002811115610a5457fe5b14610a5e57600080fd5b6006805474ff0000000000000000000000000000000000000000191660a060020a179055565b828054600181600116156101000203166002900490600052602060002090601f016020900481019282601f10610ac55782800160ff19823516178555610af2565b82800160010185558215610af2579182015b82811115610af2578235825591602001919060010190610ad7565b50610afe929150610b02565b5090565b61051591905b80821115610afe5760008155600101610b085600a165627a7a723058209f3f2ef797caa26e9bf52705a703a1e0fd1ae23a9b5302df617c9b9d771482d30029",
  "source": "// Auction.sol, Andrew Tam\n// Need to add claimReward function\n\npragma solidity ^0.4.24;\n\nimport \"./Enigma.sol\";\n\ncontract Auction {\n\n  enum AuctionState { IN_PROGRESS, CALCULATING, COMPLETED }\n\n  struct Bidder {\n    bool hasBidded;\n    bytes bidValue;\n  }\n\n  address public owner;\n  uint public startTime;\n  uint public endTime;\n  address public winner;\n  mapping(address => Bidder) public bidders;\n  address[] public bidderAddresses;\n  Enigma public enigma;\n  AuctionState public state;\n\n  event Bid(address bidder);\n  event Winner(address winner, uint bidValue);\n\n  constructor(address _owner, uint _auctionLength, address _enigma) public {\n    owner = _owner;\n    startTime = now;\n    endTime = startTime + _auctionLength * 1 seconds;\n    enigma = Enigma(_enigma);\n    state = AuctionState.IN_PROGRESS;  // redundant\n  }\n\n  function bid(bytes _bidValue) external {\n    require(!hasBidded(msg.sender), \"User has bidded already.\");\n    require(now < endTime);\n    bidders[msg.sender].bidValue = _bidValue;\n    bidders[msg.sender].hasBidded = true;\n    emit Bid(msg.sender);\n  }\n\n  function endAuction() external {\n    require(msg.sender == owner);\n    require(state == AuctionState.IN_PROGRESS);\n    //require(now >= endTime);\n    state = AuctionState.CALCULATING;\n  }\n\n  //callable\n  // in the event of a tie, we're just taking the first bidder\n  function getHighestBidder(address[] _bidders, uint[] _bidAmounts) public pure returns (address, uint) {\n    address highestBidder;\n    uint highestBidAmount;\n    for (uint i = 0; i < _bidders.length; i++) {\n      if (_bidAmounts[i] > highestBidAmount) {\n        highestBidAmount = _bidAmounts[i];\n        highestBidder = _bidders[i];\n      }\n    }\n    return (highestBidder, highestBidAmount);\n  }\n\n  // callback\n  function updateWinner(address _highestBidder, uint _highestBidAmount) public\n    //onlyEnigma() comment this out for testing\n    {\n    winner = _highestBidder;\n    state = AuctionState.COMPLETED;\n    emit Winner(_highestBidder, _highestBidAmount);\n  }\n\n  /*\n   * Modifier that checks that the contract caller is the Enigma contract.\n   */\n  modifier onlyEnigma() {\n    require(msg.sender == address(enigma));\n    _;\n  }\n\n  function hasBidded(address _bidder) public view returns (bool) {\n    return bidders[_bidder].hasBidded;\n  }\n\n  function getAllBidders() public view returns (address[]) {\n    return bidderAddresses;\n  }\n\n  function getExpirationTime() public view returns (uint) {\n    return endTime;\n  }\n\n  function getAuctionState() public view returns (AuctionState) {\n    return state;\n  }\n\n  function getBidValueForBidder(address _bidder) public view returns (bytes) {\n    require(hasBidded(_bidder), \"User has not bidded yet.\");\n    return bidders[_bidder].bidValue;\n  }\n\n  function getWinner() public view returns(address) {\n    require(state == AuctionState.COMPLETED);\n    return winner;\n  }\n\n}\n",
  "sourcePath": "/Users/andrew/Desktop/Andrew/secret-contracts/secret-contracts/contracts/Auction.sol",
  "compiler": {
    "name": "solc",
    "version": "0.4.24+commit.e67f0147.Emscripten.clang"
  },
  "schemaVersion": "2.0.1",
  "updatedAt": "2018-08-10T20:05:31.403Z"
}