{
  "contractName": "AuctionFactory",
  "abi": [
    {
      "constant": true,
      "inputs": [],
      "name": "enigmaAddress",
      "outputs": [
        {
          "name": "",
          "type": "address"
        }
      ],
      "payable": false,
      "stateMutability": "view",
      "type": "function"
    },
    {
      "constant": true,
      "inputs": [
        {
          "name": "",
          "type": "uint256"
        }
      ],
      "name": "auctions",
      "outputs": [
        {
          "name": "",
          "type": "address"
        }
      ],
      "payable": false,
      "stateMutability": "view",
      "type": "function"
    },
    {
      "constant": true,
      "inputs": [
        {
          "name": "",
          "type": "uint256"
        }
      ],
      "name": "actionAuctions",
      "outputs": [
        {
          "name": "",
          "type": "address"
        }
      ],
      "payable": false,
      "stateMutability": "view",
      "type": "function"
    },
    {
      "inputs": [
        {
          "name": "_enigmaAddress",
          "type": "address"
        }
      ],
      "payable": false,
      "stateMutability": "nonpayable",
      "type": "constructor"
    },
    {
      "anonymous": false,
      "inputs": [
        {
          "indexed": false,
          "name": "auction",
          "type": "address"
        }
      ],
      "name": "newAuction",
      "type": "event"
    },
    {
      "anonymous": false,
      "inputs": [
        {
          "indexed": false,
          "name": "auction",
          "type": "address"
        }
      ],
      "name": "newActionAuction",
      "type": "event"
    },
    {
      "constant": false,
      "inputs": [
        {
          "name": "_auctionLength",
          "type": "uint256"
        }
      ],
      "name": "createAuction",
      "outputs": [
        {
          "name": "",
          "type": "address"
        }
      ],
      "payable": false,
      "stateMutability": "nonpayable",
      "type": "function"
    },
    {
      "constant": false,
      "inputs": [
        {
          "name": "_charity",
          "type": "address"
        },
        {
          "name": "_auctionLength",
          "type": "uint256"
        }
      ],
      "name": "createActionAuction",
      "outputs": [
        {
          "name": "",
          "type": "address"
        }
      ],
      "payable": false,
      "stateMutability": "nonpayable",
      "type": "function"
    },
    {
      "constant": true,
      "inputs": [],
      "name": "getAuctionAddresses",
      "outputs": [
        {
          "name": "",
          "type": "address[]"
        }
      ],
      "payable": false,
      "stateMutability": "view",
      "type": "function"
    },
    {
      "constant": true,
      "inputs": [],
      "name": "getActionAuctionAddresses",
      "outputs": [
        {
          "name": "",
          "type": "address[]"
        }
      ],
      "payable": false,
      "stateMutability": "view",
      "type": "function"
    }
  ],
  "bytecode": "0x608060405234801561001057600080fd5b50604051602080611d3b8339810160405251600160a060020a038116158015906100435750600154600160a060020a0316155b151561004e57600080fd5b60018054600160a060020a031916600160a060020a0392909216919091179055611cbe8061007d6000396000f3006080604052600436106100825763ffffffff7c010000000000000000000000000000000000000000000000000000000060003504166344f9799581146100875780634802ae24146100b8578063571a26a01461011d5780637d4eb821146101355780639698429d1461014d578063c688034214610162578063d5563f3114610186575b600080fd5b34801561009357600080fd5b5061009c61019e565b60408051600160a060020a039092168252519081900360200190f35b3480156100c457600080fd5b506100cd6101ad565b60408051602080825283518183015283519192839290830191858101910280838360005b838110156101095781810151838201526020016100f1565b505050509050019250505060405180910390f35b34801561012957600080fd5b5061009c60043561020f565b34801561014157600080fd5b5061009c600435610237565b34801561015957600080fd5b506100cd610245565b34801561016e57600080fd5b5061009c600160a060020a03600435166024356102a5565b34801561019257600080fd5b5061009c6004356103a3565b600154600160a060020a031681565b6060600080548060200260200160405190810160405280929190818152602001828054801561020557602002820191906000526020600020905b8154600160a060020a031681526001909101906020018083116101e7575b5050505050905090565b600080548290811061021d57fe5b600091825260209091200154600160a060020a0316905081565b600280548290811061021d57fe5b6060600280548060200260200160405190810160405280929190818152602001828054801561020557602002820191906000526020600020908154600160a060020a031681526001909101906020018083116101e7575050505050905090565b6001546000908190339085908590600160a060020a03166102c4610495565b600160a060020a03948516815292841660208401526040808401929092529092166060820152905190819003608001906000f080158015610309573d6000803e3d6000fd5b50600280546001810182556000919091527f405787fa12a823e0f2b7631cc41b3ba8828b3321ca811111fa75cd3aa3bb5ace018054600160a060020a03831673ffffffffffffffffffffffffffffffffffffffff19909116811790915560408051918252519192507fe6d7f7ab3b9e565497c4a7a89bb46bb2c2262e2208c68b86f1c97c381751d98e919081900360200190a15092915050565b600154600090819033908490600160a060020a03166103c06104a5565b600160a060020a03938416815260208101929092529091166040808301919091525190819003606001906000f0801580156103ff573d6000803e3d6000fd5b50600080546001810182559080527f290decd9548b62a8d60345a988386fc84ba6bc95484008f6362f93160ef3e563018054600160a060020a03831673ffffffffffffffffffffffffffffffffffffffff19909116811790915560408051918252519192507f9dc2853fa05a54e1c31cb87878685b663faa3f2d8e0d88ea64903bfa5c4fa5af919081900360200190a150919050565b604051610c0f806104b683390190565b604051610bce806110c5833901905600608060405234801561001057600080fd5b50604051608080610c0f833981016040908152815160208301519183015160609093015160008054600160a060020a03938416600160a060020a031991821617825560048054958516958216959095179094554260018190559094016002556007805492909116919092161760a060020a60ff0219169055610b7790819061009890396000f3006080604052600436106101065763ffffffff7c010000000000000000000000000000000000000000000000000000000060003504166308bfc300811461010b5780632fb3c48f146101445780633197cbb61461017857806331e375301461019f5780633a79d2e5146101c15780634e8ce26c1461022657806378e97925146102d75780638da5cb5b146102ec5780638e7ea5b214610301578063934aa02314610316578063b24fd5c51461032b578063c19d93fb14610340578063cb1e17cf14610355578063d390b2d114610379578063dfbf53ae1461040f578063e23a845a14610424578063ef4cec1f14610439578063fcc8f7931461046e578063fe67a54b14610512575b600080fd5b34801561011757600080fd5b50610120610527565b6040518082600281111561013057fe5b60ff16815260200191505060405180910390f35b34801561015057600080fd5b5061015c600435610538565b60408051600160a060020a039092168252519081900360200190f35b34801561018457600080fd5b5061018d610560565b60408051918252519081900360200190f35b3480156101ab57600080fd5b506101bf6004803560248101910135610566565b005b3480156101cd57600080fd5b506101d661065a565b60408051602080825283518183015283519192839290830191858101910280838360005b838110156102125781810151838201526020016101fa565b505050509050019250505060405180910390f35b34801561023257600080fd5b50604080516020600480358082013583810280860185019096528085526102b495369593946024949385019291829185019084908082843750506040805187358901803560208181028481018201909552818452989b9a9989019892975090820195509350839250850190849080828437509497506106bc9650505050505050565b60408051600160a060020a03909316835260208301919091528051918290030190f35b3480156102e357600080fd5b5061018d610734565b3480156102f857600080fd5b5061015c61073a565b34801561030d57600080fd5b5061015c610749565b34801561032257600080fd5b5061015c61077f565b34801561033757600080fd5b5061015c61078e565b34801561034c57600080fd5b5061012061079d565b34801561036157600080fd5b506101bf600160a060020a03600435166024356107ad565b34801561038557600080fd5b5061039a600160a060020a036004351661084b565b6040805160208082528351818301528351919283929083019185019080838360005b838110156103d45781810151838201526020016103bc565b50505050905090810190601f1680156104015780820380516001836020036101000a031916815260200191505b509250505060405180910390f35b34801561041b57600080fd5b5061015c610971565b34801561043057600080fd5b5061018d610980565b34801561044557600080fd5b5061045a600160a060020a0360043516610986565b604080519115158252519081900360200190f35b34801561047a57600080fd5b5061048f600160a060020a03600435166109a4565b604051808315151515815260200180602001828103825283818151815260200191508051906020019080838360005b838110156104d65781810151838201526020016104be565b50505050905090810190601f1680156105035780820380516001836020036101000a031916815260200191505b50935050505060405180910390f35b34801561051e57600080fd5b506101bf610a52565b60075460a060020a900460ff165b90565b600680548290811061054657fe5b600091825260209091200154600160a060020a0316905081565b60025481565b61056f33610986565b156105db57604080517f08c379a000000000000000000000000000000000000000000000000000000000815260206004820152601860248201527f55736572206861732062696464656420616c72656164792e0000000000000000604482015290519081900360640190fd5b60025442106105e957600080fd5b336000908152600560205260409020610606906001018383610ab3565b5033600081815260056020908152604091829020805460ff19166001179055815192835290517f417bd604b82c3fa277680a27ba0a50c43772789bdafa274544181c0a2b1e8ab59281900390910190a15050565b606060068054806020026020016040519081016040528092919081815260200182805480156106b257602002820191906000526020600020905b8154600160a060020a03168152600190910190602001808311610694575b5050505050905090565b6000808080805b8651811015610728578186828151811015156106db57fe5b9060200190602002015111156107205785818151811015156106f957fe5b906020019060200201519150868181518110151561071357fe5b9060200190602002015192505b6001016106c3565b50909590945092505050565b60015481565b600054600160a060020a031681565b6000600260075460a060020a900460ff16600281111561076557fe5b1461076f57600080fd5b50600354600160a060020a031690565b600454600160a060020a031681565b600754600160a060020a031681565b60075460a060020a900460ff1681565b6003805473ffffffffffffffffffffffffffffffffffffffff1916600160a060020a0384169081179091556007805474ff0000000000000000000000000000000000000000191674020000000000000000000000000000000000000000179055604080519182526020820183905280517f9c2270628a9b29d30ae96b6c4c14ed646ee134febdce38a5b77f2bde9cea2e209281900390910190a15050565b606061085682610986565b15156108c357604080517f08c379a000000000000000000000000000000000000000000000000000000000815260206004820152601860248201527f5573657220686173206e6f7420626964646564207965742e0000000000000000604482015290519081900360640190fd5b600160a060020a038216600090815260056020908152604091829020600190810180548451600293821615610100026000190190911692909204601f8101849004840283018401909452838252909290918301828280156109655780601f1061093a57610100808354040283529160200191610965565b820191906000526020600020905b81548152906001019060200180831161094857829003601f168201915b50505050509050919050565b600354600160a060020a031681565b60025490565b600160a060020a031660009081526005602052604090205460ff1690565b6005602090815260009182526040918290208054600180830180548651600261010094831615949094026000190190911692909204601f810186900486028301860190965285825260ff909216949293909290830182828015610a485780601f10610a1d57610100808354040283529160200191610a48565b820191906000526020600020905b815481529060010190602001808311610a2b57829003601f168201915b5050505050905082565b600054600160a060020a03163314610a6957600080fd5b600060075460a060020a900460ff166002811115610a8357fe5b14610a8d57600080fd5b6007805474ff0000000000000000000000000000000000000000191660a060020a179055565b828054600181600116156101000203166002900490600052602060002090601f016020900481019282601f10610af45782800160ff19823516178555610b21565b82800160010185558215610b21579182015b82811115610b21578235825591602001919060010190610b06565b50610b2d929150610b31565b5090565b61053591905b80821115610b2d5760008155600101610b375600a165627a7a723058201169d2dc1d9ee0b3a1a91d955de72b0f83db218ebd01e94206e66734b65049db0029608060405234801561001057600080fd5b50604051606080610bce83398101604090815281516020830151919092015160008054600160a060020a0319908116600160a060020a039586161782554260018190559093016002556006805460a060020a60ff021994169490921693909317919091169055610b4890819061008690396000f3006080604052600436106100fb5763ffffffff7c010000000000000000000000000000000000000000000000000000000060003504166308bfc30081146101005780632fb3c48f146101395780633197cbb61461016d57806331e37530146101945780633a79d2e5146101b65780634e8ce26c1461021b57806378e97925146102cc5780638da5cb5b146102e15780638e7ea5b2146102f6578063b24fd5c51461030b578063c19d93fb14610320578063cb1e17cf14610335578063d390b2d114610359578063dfbf53ae146103ef578063e23a845a14610404578063ef4cec1f14610419578063fcc8f7931461044e578063fe67a54b146104f2575b600080fd5b34801561010c57600080fd5b50610115610507565b6040518082600281111561012557fe5b60ff16815260200191505060405180910390f35b34801561014557600080fd5b50610151600435610518565b60408051600160a060020a039092168252519081900360200190f35b34801561017957600080fd5b50610182610540565b60408051918252519081900360200190f35b3480156101a057600080fd5b506101b46004803560248101910135610546565b005b3480156101c257600080fd5b506101cb61063a565b60408051602080825283518183015283519192839290830191858101910280838360005b838110156102075781810151838201526020016101ef565b505050509050019250505060405180910390f35b34801561022757600080fd5b50604080516020600480358082013583810280860185019096528085526102a995369593946024949385019291829185019084908082843750506040805187358901803560208181028481018201909552818452989b9a99890198929750908201955093508392508501908490808284375094975061069c9650505050505050565b60408051600160a060020a03909316835260208301919091528051918290030190f35b3480156102d857600080fd5b50610182610714565b3480156102ed57600080fd5b5061015161071a565b34801561030257600080fd5b50610151610729565b34801561031757600080fd5b5061015161075f565b34801561032c57600080fd5b5061011561076e565b34801561034157600080fd5b506101b4600160a060020a036004351660243561077e565b34801561036557600080fd5b5061037a600160a060020a036004351661081c565b6040805160208082528351818301528351919283929083019185019080838360005b838110156103b457818101518382015260200161039c565b50505050905090810190601f1680156103e15780820380516001836020036101000a031916815260200191505b509250505060405180910390f35b3480156103fb57600080fd5b50610151610942565b34801561041057600080fd5b50610182610951565b34801561042557600080fd5b5061043a600160a060020a0360043516610957565b604080519115158252519081900360200190f35b34801561045a57600080fd5b5061046f600160a060020a0360043516610975565b604051808315151515815260200180602001828103825283818151815260200191508051906020019080838360005b838110156104b657818101518382015260200161049e565b50505050905090810190601f1680156104e35780820380516001836020036101000a031916815260200191505b50935050505060405180910390f35b3480156104fe57600080fd5b506101b4610a23565b60065460a060020a900460ff165b90565b600580548290811061052657fe5b600091825260209091200154600160a060020a0316905081565b60025481565b61054f33610957565b156105bb57604080517f08c379a000000000000000000000000000000000000000000000000000000000815260206004820152601860248201527f55736572206861732062696464656420616c72656164792e0000000000000000604482015290519081900360640190fd5b60025442106105c957600080fd5b3360009081526004602052604090206105e6906001018383610a84565b5033600081815260046020908152604091829020805460ff19166001179055815192835290517f417bd604b82c3fa277680a27ba0a50c43772789bdafa274544181c0a2b1e8ab59281900390910190a15050565b6060600580548060200260200160405190810160405280929190818152602001828054801561069257602002820191906000526020600020905b8154600160a060020a03168152600190910190602001808311610674575b5050505050905090565b6000808080805b8651811015610708578186828151811015156106bb57fe5b9060200190602002015111156107005785818151811015156106d957fe5b90602001906020020151915086818151811015156106f357fe5b9060200190602002015192505b6001016106a3565b50909590945092505050565b60015481565b600054600160a060020a031681565b6000600260065460a060020a900460ff16600281111561074557fe5b1461074f57600080fd5b50600354600160a060020a031690565b600654600160a060020a031681565b60065460a060020a900460ff1681565b6003805473ffffffffffffffffffffffffffffffffffffffff1916600160a060020a0384169081179091556006805474ff0000000000000000000000000000000000000000191674020000000000000000000000000000000000000000179055604080519182526020820183905280517f9c2270628a9b29d30ae96b6c4c14ed646ee134febdce38a5b77f2bde9cea2e209281900390910190a15050565b606061082782610957565b151561089457604080517f08c379a000000000000000000000000000000000000000000000000000000000815260206004820152601860248201527f5573657220686173206e6f7420626964646564207965742e0000000000000000604482015290519081900360640190fd5b600160a060020a038216600090815260046020908152604091829020600190810180548451600293821615610100026000190190911692909204601f8101849004840283018401909452838252909290918301828280156109365780601f1061090b57610100808354040283529160200191610936565b820191906000526020600020905b81548152906001019060200180831161091957829003601f168201915b50505050509050919050565b600354600160a060020a031681565b60025490565b600160a060020a031660009081526004602052604090205460ff1690565b6004602090815260009182526040918290208054600180830180548651600261010094831615949094026000190190911692909204601f810186900486028301860190965285825260ff909216949293909290830182828015610a195780601f106109ee57610100808354040283529160200191610a19565b820191906000526020600020905b8154815290600101906020018083116109fc57829003601f168201915b5050505050905082565b600054600160a060020a03163314610a3a57600080fd5b600060065460a060020a900460ff166002811115610a5457fe5b14610a5e57600080fd5b6006805474ff0000000000000000000000000000000000000000191660a060020a179055565b828054600181600116156101000203166002900490600052602060002090601f016020900481019282601f10610ac55782800160ff19823516178555610af2565b82800160010185558215610af2579182015b82811115610af2578235825591602001919060010190610ad7565b50610afe929150610b02565b5090565b61051591905b80821115610afe5760008155600101610b085600a165627a7a723058209f3f2ef797caa26e9bf52705a703a1e0fd1ae23a9b5302df617c9b9d771482d30029a165627a7a723058208b13c0fb743cc7ab2bbf821bece67c672679aa5a1d0d1b61273cb855ca4658b70029",
  "source": "// AuctionFactory.sol, Andrew Tam\n\npragma solidity ^0.4.24;\n\nimport \"./Auction.sol\";\nimport \"./ActionAuction.sol\";\n\ncontract AuctionFactory {\n\n  event newAuction(address auction);\n  event newActionAuction(address auction);\n\n  address[] public auctions;\n  address public enigmaAddress;\n\n  // action auctions\n  address[] public actionAuctions;\n\n  constructor(address _enigmaAddress) public {\n    require(_enigmaAddress != 0 && address(enigmaAddress) == 0);\n    enigmaAddress = _enigmaAddress;\n  }\n\n  function createAuction(uint _auctionLength) external returns (address) {\n    Auction auction = new Auction(msg.sender, _auctionLength, enigmaAddress);\n    auctions.push(auction);\n    emit newAuction(auction);\n  }\n\n  function createActionAuction(address _charity, uint _auctionLength) external returns (address) {\n    ActionAuction auction = new ActionAuction(msg.sender, _charity, _auctionLength, enigmaAddress);\n    actionAuctions.push(auction);\n    emit newActionAuction(auction);\n  }\n\n  function getAuctionAddresses() public view returns (address[]) {\n    return auctions;\n  }\n\n  function getActionAuctionAddresses() public view returns (address[]) {\n    return actionAuctions;\n  }\n\n}\n",
  "sourcePath": "/Users/andrew/Desktop/Andrew/secret-contracts/secret-contracts/contracts/AuctionFactory.sol",
  "compiler": {
    "name": "solc",
    "version": "0.4.24+commit.e67f0147.Emscripten.clang"
  },
  "schemaVersion": "2.0.1",
  "updatedAt": "2018-08-14T19:10:28.159Z"
}