{
  "contractName": "Auction",
  "abi": [
    {
      "constant": true,
      "inputs": [
        {
          "name": "",
          "type": "uint256"
        }
      ],
      "name": "bidderAddresses",
      "outputs": [
        {
          "name": "",
          "type": "address"
        }
      ],
      "payable": false,
      "stateMutability": "view",
      "type": "function"
    },
    {
      "constant": true,
      "inputs": [],
      "name": "endTime",
      "outputs": [
        {
          "name": "",
          "type": "uint256"
        }
      ],
      "payable": false,
      "stateMutability": "view",
      "type": "function"
    },
    {
      "constant": true,
      "inputs": [],
      "name": "startTime",
      "outputs": [
        {
          "name": "",
          "type": "uint256"
        }
      ],
      "payable": false,
      "stateMutability": "view",
      "type": "function"
    },
    {
      "constant": true,
      "inputs": [],
      "name": "owner",
      "outputs": [
        {
          "name": "",
          "type": "address"
        }
      ],
      "payable": false,
      "stateMutability": "view",
      "type": "function"
    },
    {
      "constant": true,
      "inputs": [],
      "name": "enigma",
      "outputs": [
        {
          "name": "",
          "type": "address"
        }
      ],
      "payable": false,
      "stateMutability": "view",
      "type": "function"
    },
    {
      "constant": true,
      "inputs": [],
      "name": "state",
      "outputs": [
        {
          "name": "",
          "type": "uint8"
        }
      ],
      "payable": false,
      "stateMutability": "view",
      "type": "function"
    },
    {
      "constant": true,
      "inputs": [],
      "name": "winningPrice",
      "outputs": [
        {
          "name": "",
          "type": "uint256"
        }
      ],
      "payable": false,
      "stateMutability": "view",
      "type": "function"
    },
    {
      "constant": true,
      "inputs": [],
      "name": "startingPrice",
      "outputs": [
        {
          "name": "",
          "type": "uint256"
        }
      ],
      "payable": false,
      "stateMutability": "view",
      "type": "function"
    },
    {
      "constant": true,
      "inputs": [],
      "name": "winner",
      "outputs": [
        {
          "name": "",
          "type": "address"
        }
      ],
      "payable": false,
      "stateMutability": "view",
      "type": "function"
    },
    {
      "constant": true,
      "inputs": [
        {
          "name": "",
          "type": "address"
        }
      ],
      "name": "bidders",
      "outputs": [
        {
          "name": "hasBidded",
          "type": "bool"
        },
        {
          "name": "bidValue",
          "type": "bytes"
        }
      ],
      "payable": false,
      "stateMutability": "view",
      "type": "function"
    },
    {
      "inputs": [
        {
          "name": "_owner",
          "type": "address"
        },
        {
          "name": "_auctionLength",
          "type": "uint256"
        },
        {
          "name": "_startingPrice",
          "type": "uint256"
        },
        {
          "name": "_enigma",
          "type": "address"
        }
      ],
      "payable": false,
      "stateMutability": "nonpayable",
      "type": "constructor"
    },
    {
      "anonymous": false,
      "inputs": [
        {
          "indexed": false,
          "name": "bidder",
          "type": "address"
        }
      ],
      "name": "Bid",
      "type": "event"
    },
    {
      "anonymous": false,
      "inputs": [
        {
          "indexed": false,
          "name": "winner",
          "type": "address"
        },
        {
          "indexed": false,
          "name": "bidValue",
          "type": "uint256"
        }
      ],
      "name": "Winner",
      "type": "event"
    },
    {
      "constant": false,
      "inputs": [],
      "name": "stake",
      "outputs": [],
      "payable": true,
      "stateMutability": "payable",
      "type": "function"
    },
    {
      "constant": false,
      "inputs": [
        {
          "name": "_amount",
          "type": "uint256"
        }
      ],
      "name": "withdraw",
      "outputs": [],
      "payable": false,
      "stateMutability": "nonpayable",
      "type": "function"
    },
    {
      "constant": false,
      "inputs": [
        {
          "name": "_bidValue",
          "type": "bytes"
        }
      ],
      "name": "bid",
      "outputs": [],
      "payable": false,
      "stateMutability": "nonpayable",
      "type": "function"
    },
    {
      "constant": false,
      "inputs": [],
      "name": "endAuction",
      "outputs": [],
      "payable": false,
      "stateMutability": "nonpayable",
      "type": "function"
    },
    {
      "constant": true,
      "inputs": [
        {
          "name": "_bidders",
          "type": "address[]"
        },
        {
          "name": "_bidAmounts",
          "type": "uint256[]"
        },
        {
          "name": "_stakeAmounts",
          "type": "uint256[]"
        }
      ],
      "name": "getHighestBidder",
      "outputs": [
        {
          "name": "",
          "type": "address"
        },
        {
          "name": "",
          "type": "uint256"
        }
      ],
      "payable": false,
      "stateMutability": "pure",
      "type": "function"
    },
    {
      "constant": false,
      "inputs": [
        {
          "name": "_highestBidder",
          "type": "address"
        },
        {
          "name": "_highestBidAmount",
          "type": "uint256"
        }
      ],
      "name": "updateWinner",
      "outputs": [],
      "payable": false,
      "stateMutability": "nonpayable",
      "type": "function"
    },
    {
      "constant": false,
      "inputs": [],
      "name": "claimReward",
      "outputs": [],
      "payable": false,
      "stateMutability": "nonpayable",
      "type": "function"
    },
    {
      "constant": true,
      "inputs": [
        {
          "name": "_bidder",
          "type": "address"
        }
      ],
      "name": "hasBidded",
      "outputs": [
        {
          "name": "",
          "type": "bool"
        }
      ],
      "payable": false,
      "stateMutability": "view",
      "type": "function"
    },
    {
      "constant": true,
      "inputs": [
        {
          "name": "_bidder",
          "type": "address"
        }
      ],
      "name": "getBidValueForBidder",
      "outputs": [
        {
          "name": "",
          "type": "bytes"
        }
      ],
      "payable": false,
      "stateMutability": "view",
      "type": "function"
    },
    {
      "constant": true,
      "inputs": [
        {
          "name": "_bidder",
          "type": "address"
        }
      ],
      "name": "getStakeOfBidder",
      "outputs": [
        {
          "name": "",
          "type": "uint256"
        }
      ],
      "payable": false,
      "stateMutability": "view",
      "type": "function"
    },
    {
      "constant": true,
      "inputs": [],
      "name": "getWinner",
      "outputs": [
        {
          "name": "",
          "type": "address"
        }
      ],
      "payable": false,
      "stateMutability": "view",
      "type": "function"
    }
  ],
  "bytecode": "0x608060405234801561001057600080fd5b50604051608080610cf2833981016040908152815160208301519183015160609093015160008054600160a060020a03938416600160a060020a03199182161782556004959095554260018190559093016002556008805492909116919093161760a060020a60ff021916909155610c6490819061008e90396000f30060806040526004361061011c5763ffffffff7c01000000000000000000000000000000000000000000000000000000006000350416632e1a7d4d81146101215780632fb3c48f1461013b5780633197cbb61461016f57806331e37530146101965780633a4b66f1146101b657806378e97925146101be57806388901205146101d35780638da5cb5b146102bd5780638e7ea5b2146102d2578063b24fd5c5146102e7578063b88a802f146102fc578063c19d93fb14610311578063c1f526041461034a578063cb1e17cf1461035f578063d390b2d114610383578063d6fbf20214610419578063dfbf53ae1461042e578063ef4cec1f14610443578063f7b6d1a814610478578063fcc8f79314610499578063fe67a54b1461053d575b600080fd5b34801561012d57600080fd5b50610139600435610552565b005b34801561014757600080fd5b506101536004356105fb565b60408051600160a060020a039092168252519081900360200190f35b34801561017b57600080fd5b50610184610623565b60408051918252519081900360200190f35b3480156101a257600080fd5b506101396004803560248101910135610629565b6101396106de565b3480156101ca57600080fd5b50610184610719565b3480156101df57600080fd5b506040805160206004803580820135838102808601850190965280855261029a95369593946024949385019291829185019084908082843750506040805187358901803560208181028481018201909552818452989b9a998901989297509082019550935083925085019084908082843750506040805187358901803560208181028481018201909552818452989b9a99890198929750908201955093508392508501908490808284375094975061071f9650505050505050565b60408051600160a060020a03909316835260208301919091528051918290030190f35b3480156102c957600080fd5b506101536107d2565b3480156102de57600080fd5b506101536107e1565b3480156102f357600080fd5b50610153610818565b34801561030857600080fd5b50610139610827565b34801561031d57600080fd5b50610326610864565b6040518082600281111561033657fe5b60ff16815260200191505060405180910390f35b34801561035657600080fd5b50610184610874565b34801561036b57600080fd5b50610139600160a060020a036004351660243561087a565b34801561038f57600080fd5b506103a4600160a060020a036004351661091d565b6040805160208082528351818301528351919283929083019185019080838360005b838110156103de5781810151838201526020016103c6565b50505050905090810190601f16801561040b5780820380516001836020036101000a031916815260200191505b509250505060405180910390f35b34801561042557600080fd5b50610184610a43565b34801561043a57600080fd5b50610153610a49565b34801561044f57600080fd5b50610464600160a060020a0360043516610a58565b604080519115158252519081900360200190f35b34801561048457600080fd5b50610184600160a060020a0360043516610a76565b3480156104a557600080fd5b506104ba600160a060020a0360043516610a91565b604051808315151515815260200180602001828103825283818151815260200191508051906020019080838360005b838110156105015781810151838201526020016104e9565b50505050905090810190601f16801561052e5780820380516001836020036101000a031916815260200191505b50935050505060405180910390f35b34801561054957600080fd5b50610139610b3f565b600260085460a060020a900460ff16600281111561056c57fe5b1461057657600080fd5b600354600160a060020a03163314156105ae5760055433600090815260096020526040902054038111156105a957600080fd5b6105ca565b336000908152600960205260409020548111156105ca57600080fd5b604051339082156108fc029083906000818181858888f193505050501580156105f7573d6000803e3d6000fd5b5050565b600780548290811061060957fe5b600091825260209091200154600160a060020a0316905081565b60025481565b600254421061063757600080fd5b60045433600090815260096020526040902054101561065557600080fd5b336000908152600660205260409020610672906001018383610ba0565b503360009081526006602052604090205460ff1615156106a757336000908152600660205260409020805460ff191660011790555b6040805133815290517f417bd604b82c3fa277680a27ba0a50c43772789bdafa274544181c0a2b1e8ab59181900360200190a15050565b600060085460a060020a900460ff1660028111156106f857fe5b1461070257600080fd5b336000908152600960205260409020805434019055565b60015481565b6000808080805b87518110156107c55781878281518110151561073e57fe5b906020019060200201511180156107835750858181518110151561075e57fe5b90602001906020020151878281518110151561077657fe5b9060200190602002015111155b156107bd57868181518110151561079657fe5b90602001906020020151915087818151811015156107b057fe5b9060200190602002015192505b600101610726565b5090969095509350505050565b600054600160a060020a031681565b6000600260085460a060020a900460ff1660028111156107fd57fe5b1461080757600080fd5b50600354600160a060020a03165b90565b600854600160a060020a031681565b600260085460a060020a900460ff16600281111561084157fe5b1461084b57600080fd5b600354600160a060020a0316331461086257600080fd5b565b60085460a060020a900460ff1681565b60055481565b6003805473ffffffffffffffffffffffffffffffffffffffff1916600160a060020a03841690811790915560058290556008805474ff0000000000000000000000000000000000000000191674020000000000000000000000000000000000000000179055604080519182526020820183905280517f9c2270628a9b29d30ae96b6c4c14ed646ee134febdce38a5b77f2bde9cea2e209281900390910190a15050565b606061092882610a58565b151561099557604080517f08c379a000000000000000000000000000000000000000000000000000000000815260206004820152601860248201527f5573657220686173206e6f7420626964646564207965742e0000000000000000604482015290519081900360640190fd5b600160a060020a038216600090815260066020908152604091829020600190810180548451600293821615610100026000190190911692909204601f810184900484028301840190945283825290929091830182828015610a375780601f10610a0c57610100808354040283529160200191610a37565b820191906000526020600020905b815481529060010190602001808311610a1a57829003601f168201915b50505050509050919050565b60045481565b600354600160a060020a031681565b600160a060020a031660009081526006602052604090205460ff1690565b600160a060020a031660009081526009602052604090205490565b6006602090815260009182526040918290208054600180830180548651600261010094831615949094026000190190911692909204601f810186900486028301860190965285825260ff909216949293909290830182828015610b355780601f10610b0a57610100808354040283529160200191610b35565b820191906000526020600020905b815481529060010190602001808311610b1857829003601f168201915b5050505050905082565b600054600160a060020a03163314610b5657600080fd5b600060085460a060020a900460ff166002811115610b7057fe5b14610b7a57600080fd5b6008805474ff0000000000000000000000000000000000000000191660a060020a179055565b828054600181600116156101000203166002900490600052602060002090601f016020900481019282601f10610be15782800160ff19823516178555610c0e565b82800160010185558215610c0e579182015b82811115610c0e578235825591602001919060010190610bf3565b50610c1a929150610c1e565b5090565b61081591905b80821115610c1a5760008155600101610c245600a165627a7a72305820d1216224a209089074d9585a278a127de8d97d50d9a41797615dc8814257c5350029",
  "source": "// Auction.sol, Andrew Tam\n// Need to add claimReward function\n// add starting price\n// add token bank\n\npragma solidity ^0.4.24;\n\nimport \"./Enigma.sol\";\n\ncontract Auction {\n\n  /* Determine the state of the auction. */\n  enum AuctionState { IN_PROGRESS, CALCULATING, COMPLETED }\n\n  /* EVENTS */\n  event Bid(address bidder);\n  event Winner(address winner, uint bidValue);\n\n  /* BIDDER */\n  struct Bidder {\n    bool hasBidded;\n    bytes bidValue;\n  }\n\n  /* STATE VARIABLES */\n  address public owner;\n  uint public startTime;\n  uint public endTime;\n  address public winner;\n  uint public startingPrice;\n  uint public winningPrice;\n  mapping(address => Bidder) public bidders;\n  address[] public bidderAddresses;\n  Enigma public enigma;\n  AuctionState public state;\n\n  // testing\n  mapping(address => uint) stakeAmounts;\n\n  /* CONSTRUCTOR */\n  constructor(address _owner, uint _auctionLength, uint _startingPrice, address _enigma) public {\n    owner = _owner;\n    startingPrice = _startingPrice;\n    startTime = now;\n    endTime = startTime + _auctionLength * 1 seconds;\n    enigma = Enigma(_enigma);\n    state = AuctionState.IN_PROGRESS;  // redundant\n  }\n\n  /*\n   * Stake Ether in the contract to create a binding commitment. You can increase stake anytime within the bidding period.\n   */\n  function stake() payable external {\n    require(state == AuctionState.IN_PROGRESS);\n    stakeAmounts[msg.sender] += msg.value;\n  }\n\n  /*\n   * Withdraw Ether after the bidding period has ended.\n   */\n  function withdraw(uint _amount) external {\n    require(state == AuctionState.COMPLETED);\n    if (msg.sender == winner) {\n      require(_amount <= stakeAmounts[msg.sender] - winningPrice);\n    }\n    else {\n      require(_amount <= stakeAmounts[msg.sender]);\n    }\n    msg.sender.transfer(_amount);\n  }\n\n  /*\n   * Bid in the auction. The value of the bid is encrypted and is denoted in wei.\n   * NOTE: A user can bid multiple times as long as it's within the bidding period.\n   */\n  function bid(bytes _bidValue) external {\n    require(now < endTime);  // a user can only bid within the time period\n    require(stakeAmounts[msg.sender] >= startingPrice);  // a user can only bid if they have enough stake to fill the initial starting value\n    bidders[msg.sender].bidValue = _bidValue;\n    if (!(bidders[msg.sender].hasBidded)) {\n      bidders[msg.sender].hasBidded = true;\n    }\n    emit Bid(msg.sender);\n  }\n\n  /*\n   * End the auction. Only the creator of the auction can end the auction(when the bidding period has expired).\n   */\n  function endAuction() external {\n    require(msg.sender == owner);\n    require(state == AuctionState.IN_PROGRESS);\n    //require(now >= endTime);\n    state = AuctionState.CALCULATING;\n  }\n\n  /*\n   * The callable function. Gets the highest bidder and bid amount for the auction.\n   * NOTE: In the event of a tie, we're just taking the first bidder.\n   */\n  function getHighestBidder(address[] _bidders, uint[] _bidAmounts, uint[] _stakeAmounts) public pure returns (address, uint) {\n    address highestBidder;\n    uint highestBidAmount;\n    for (uint i = 0; i < _bidders.length; i++) {\n      if ((_bidAmounts[i] > highestBidAmount) && (_bidAmounts[i] <= _stakeAmounts[i])) {\n        highestBidAmount = _bidAmounts[i];\n        highestBidder = _bidders[i];\n      }\n    }\n    return (highestBidder, highestBidAmount);\n  }\n\n  /*\n   * The callback function. Updates the contract state.\n   */\n  function updateWinner(address _highestBidder, uint _highestBidAmount) public\n    //onlyEnigma() comment this out for testing\n    {\n    winner = _highestBidder;\n    winningPrice = _highestBidAmount;\n    state = AuctionState.COMPLETED;\n    emit Winner(_highestBidder, _highestBidAmount);\n  }\n\n  /*\n   * Allow a user to claim their reward.\n   * Need a flag on whether the winner has withdrawn the reward\n   */\n  function claimReward() external {\n    require(state == AuctionState.COMPLETED);\n    require(msg.sender == winner);\n    // insert reward transfer here.\n  }\n\n  /*\n   * Modifier that checks that the contract caller is the Enigma contract.\n   */\n  modifier onlyEnigma() {\n    require(msg.sender == address(enigma));\n    _;\n  }\n\n  /*\n   * Check that a user has bidded.\n   */\n  function hasBidded(address _bidder) public view returns (bool) {\n    return bidders[_bidder].hasBidded;\n  }\n\n  /*\n   * Get the encrypted bid value for a bidder.\n   */\n  function getBidValueForBidder(address _bidder) public view returns (bytes) {\n    require(hasBidded(_bidder), \"User has not bidded yet.\");\n    return bidders[_bidder].bidValue;\n  }\n\n  /*\n   * Get the staked amount of Ether for a given bidder.\n   */\n  function getStakeOfBidder(address _bidder) public view returns (uint) {\n    return stakeAmounts[_bidder];\n  }\n\n  /*\n   * Get the winner of the auction (if available).\n   */\n  function getWinner() public view returns(address) {\n    require(state == AuctionState.COMPLETED);\n    return winner;\n  }\n\n}\n",
  "sourcePath": "/Users/andrew/Desktop/Andrew/secret-contracts/secret-contracts/contracts/Auction.sol",
  "compiler": {
    "name": "solc",
    "version": "0.4.24+commit.e67f0147.Emscripten.clang"
  },
  "schemaVersion": "2.0.1",
  "updatedAt": "2018-08-15T21:02:56.510Z"
}