{
  "contractName": "Auction",
  "abi": [
    {
      "constant": true,
      "inputs": [],
      "name": "endTime",
      "outputs": [
        {
          "name": "",
          "type": "uint256"
        }
      ],
      "payable": false,
      "stateMutability": "view",
      "type": "function"
    },
    {
      "constant": true,
      "inputs": [
        {
          "name": "",
          "type": "address"
        }
      ],
      "name": "bids",
      "outputs": [
        {
          "name": "",
          "type": "bytes"
        }
      ],
      "payable": false,
      "stateMutability": "view",
      "type": "function"
    },
    {
      "constant": true,
      "inputs": [],
      "name": "startTime",
      "outputs": [
        {
          "name": "",
          "type": "uint256"
        }
      ],
      "payable": false,
      "stateMutability": "view",
      "type": "function"
    },
    {
      "constant": true,
      "inputs": [],
      "name": "owner",
      "outputs": [
        {
          "name": "",
          "type": "address"
        }
      ],
      "payable": false,
      "stateMutability": "view",
      "type": "function"
    },
    {
      "constant": true,
      "inputs": [],
      "name": "enigma",
      "outputs": [
        {
          "name": "",
          "type": "address"
        }
      ],
      "payable": false,
      "stateMutability": "view",
      "type": "function"
    },
    {
      "constant": true,
      "inputs": [],
      "name": "state",
      "outputs": [
        {
          "name": "",
          "type": "uint8"
        }
      ],
      "payable": false,
      "stateMutability": "view",
      "type": "function"
    },
    {
      "constant": true,
      "inputs": [
        {
          "name": "",
          "type": "uint256"
        }
      ],
      "name": "bidders",
      "outputs": [
        {
          "name": "",
          "type": "address"
        }
      ],
      "payable": false,
      "stateMutability": "view",
      "type": "function"
    },
    {
      "constant": true,
      "inputs": [],
      "name": "winner",
      "outputs": [
        {
          "name": "",
          "type": "address"
        }
      ],
      "payable": false,
      "stateMutability": "view",
      "type": "function"
    },
    {
      "inputs": [
        {
          "name": "_owner",
          "type": "address"
        },
        {
          "name": "_auctionLength",
          "type": "uint256"
        },
        {
          "name": "_enigma",
          "type": "address"
        }
      ],
      "payable": false,
      "stateMutability": "nonpayable",
      "type": "constructor"
    },
    {
      "anonymous": false,
      "inputs": [
        {
          "indexed": false,
          "name": "bidder",
          "type": "address"
        }
      ],
      "name": "Bid",
      "type": "event"
    },
    {
      "anonymous": false,
      "inputs": [
        {
          "indexed": false,
          "name": "winner",
          "type": "address"
        }
      ],
      "name": "Winner",
      "type": "event"
    },
    {
      "constant": false,
      "inputs": [
        {
          "name": "_bidAmount",
          "type": "bytes"
        }
      ],
      "name": "bid",
      "outputs": [],
      "payable": false,
      "stateMutability": "nonpayable",
      "type": "function"
    },
    {
      "constant": false,
      "inputs": [],
      "name": "endAuction",
      "outputs": [],
      "payable": false,
      "stateMutability": "nonpayable",
      "type": "function"
    },
    {
      "constant": true,
      "inputs": [
        {
          "name": "_bidders",
          "type": "address[]"
        },
        {
          "name": "_bidAmounts",
          "type": "uint256[]"
        }
      ],
      "name": "getHighestBidder",
      "outputs": [
        {
          "name": "",
          "type": "address"
        },
        {
          "name": "",
          "type": "uint256"
        }
      ],
      "payable": false,
      "stateMutability": "pure",
      "type": "function"
    },
    {
      "constant": false,
      "inputs": [
        {
          "name": "_highestBidder",
          "type": "address"
        },
        {
          "name": "_highestBidAmount",
          "type": "uint256"
        }
      ],
      "name": "updateWinner",
      "outputs": [],
      "payable": false,
      "stateMutability": "nonpayable",
      "type": "function"
    },
    {
      "constant": true,
      "inputs": [
        {
          "name": "_bidder",
          "type": "address"
        }
      ],
      "name": "hasBidded",
      "outputs": [
        {
          "name": "",
          "type": "bool"
        }
      ],
      "payable": false,
      "stateMutability": "view",
      "type": "function"
    },
    {
      "constant": true,
      "inputs": [],
      "name": "getAllBidders",
      "outputs": [
        {
          "name": "",
          "type": "address[]"
        }
      ],
      "payable": false,
      "stateMutability": "view",
      "type": "function"
    },
    {
      "constant": true,
      "inputs": [],
      "name": "getExpirationTime",
      "outputs": [
        {
          "name": "",
          "type": "uint256"
        }
      ],
      "payable": false,
      "stateMutability": "view",
      "type": "function"
    },
    {
      "constant": true,
      "inputs": [],
      "name": "getAuctionState",
      "outputs": [
        {
          "name": "",
          "type": "uint8"
        }
      ],
      "payable": false,
      "stateMutability": "view",
      "type": "function"
    },
    {
      "constant": true,
      "inputs": [
        {
          "name": "_bidder",
          "type": "address"
        }
      ],
      "name": "getBidValueForBidder",
      "outputs": [
        {
          "name": "",
          "type": "bytes"
        }
      ],
      "payable": false,
      "stateMutability": "view",
      "type": "function"
    },
    {
      "constant": true,
      "inputs": [],
      "name": "getWinner",
      "outputs": [
        {
          "name": "",
          "type": "address"
        }
      ],
      "payable": false,
      "stateMutability": "view",
      "type": "function"
    }
  ],
  "bytecode": "0x608060405234801561001057600080fd5b50604051606080610b2d83398101604090815281516020830151919092015160008054600160a060020a0319908116600160a060020a039586161782554260018190559093016002556006805460a060020a60ff021994169490921693909317919091169055610aa790819061008690396000f3006080604052600436106100fb5763ffffffff7c010000000000000000000000000000000000000000000000000000000060003504166308bfc30081146101005780633197cbb61461013957806331e37530146101605780633a79d2e5146101825780634e8ce26c146101e757806362ea82db1461029857806378e979251461032e5780638da5cb5b146103435780638e7ea5b214610374578063b24fd5c514610389578063c19d93fb1461039e578063cb1e17cf146103b3578063cff29dfd146103d7578063d390b2d1146103ef578063dfbf53ae14610410578063e23a845a14610425578063ef4cec1f1461043a578063fe67a54b1461046f575b600080fd5b34801561010c57600080fd5b50610115610484565b6040518082600281111561012557fe5b60ff16815260200191505060405180910390f35b34801561014557600080fd5b5061014e610495565b60408051918252519081900360200190f35b34801561016c57600080fd5b50610180600480356024810191013561049b565b005b34801561018e57600080fd5b50610197610570565b60408051602080825283518183015283519192839290830191858101910280838360005b838110156101d35781810151838201526020016101bb565b505050509050019250505060405180910390f35b3480156101f357600080fd5b506040805160206004803580820135838102808601850190965280855261027595369593946024949385019291829185019084908082843750506040805187358901803560208181028481018201909552818452989b9a9989019892975090820195509350839250850190849080828437509497506105d29650505050505050565b60408051600160a060020a03909316835260208301919091528051918290030190f35b3480156102a457600080fd5b506102b9600160a060020a036004351661064a565b6040805160208082528351818301528351919283929083019185019080838360005b838110156102f35781810151838201526020016102db565b50505050905090810190601f1680156103205780820380516001836020036101000a031916815260200191505b509250505060405180910390f35b34801561033a57600080fd5b5061014e6106e5565b34801561034f57600080fd5b506103586106eb565b60408051600160a060020a039092168252519081900360200190f35b34801561038057600080fd5b506103586106fa565b34801561039557600080fd5b50610358610730565b3480156103aa57600080fd5b5061011561073f565b3480156103bf57600080fd5b50610180600160a060020a036004351660243561074f565b3480156103e357600080fd5b506103586004356107e5565b3480156103fb57600080fd5b506102b9600160a060020a036004351661080d565b34801561041c57600080fd5b5061035861092e565b34801561043157600080fd5b5061014e61093d565b34801561044657600080fd5b5061045b600160a060020a0360043516610943565b604080519115158252519081900360200190f35b34801561047b57600080fd5b50610180610973565b60065460a060020a900460ff165b90565b60025481565b6104a433610943565b1561051057604080517f08c379a000000000000000000000000000000000000000000000000000000000815260206004820152601860248201527f55736572206861732062696464656420616c72656164792e0000000000000000604482015290519081900360640190fd5b600254421061051e57600080fd5b3360009081526004602052604090206105389083836109e3565b506040805133815290517f417bd604b82c3fa277680a27ba0a50c43772789bdafa274544181c0a2b1e8ab59181900360200190a15050565b606060058054806020026020016040519081016040528092919081815260200182805480156105c857602002820191906000526020600020905b8154600160a060020a031681526001909101906020018083116105aa575b5050505050905090565b6000808080805b865181101561063e578186828151811015156105f157fe5b90602001906020020151111561063657858181518110151561060f57fe5b906020019060200201519150868181518110151561062957fe5b9060200190602002015192505b6001016105d9565b50909590945092505050565b60046020908152600091825260409182902080548351601f6002600019610100600186161502019093169290920491820184900484028101840190945280845290918301828280156106dd5780601f106106b2576101008083540402835291602001916106dd565b820191906000526020600020905b8154815290600101906020018083116106c057829003601f168201915b505050505081565b60015481565b600054600160a060020a031681565b6000600260065460a060020a900460ff16600281111561071657fe5b1461072057600080fd5b50600354600160a060020a031690565b600654600160a060020a031681565b60065460a060020a900460ff1681565b6003805473ffffffffffffffffffffffffffffffffffffffff1916600160a060020a038416179055600680546002919074ff0000000000000000000000000000000000000000191660a060020a83021790555060035460408051600160a060020a039092168252517f745c90b656b4aafe296c8ca35aeacfe56cb96c90e1d320e5da643fff1051b6c09181900360200190a15050565b60058054829081106107f357fe5b600091825260209091200154600160a060020a0316905081565b606061081882610943565b151561088557604080517f08c379a000000000000000000000000000000000000000000000000000000000815260206004820152601860248201527f5573657220686173206e6f7420626964646564207965742e0000000000000000604482015290519081900360640190fd5b600160a060020a03821660009081526004602090815260409182902080548351601f6002600019610100600186161502019093169290920491820184900484028101840190945280845290918301828280156109225780601f106108f757610100808354040283529160200191610922565b820191906000526020600020905b81548152906001019060200180831161090557829003601f168201915b50505050509050919050565b600354600160a060020a031681565b60025490565b600160a060020a031660009081526004602052604090205460026001821615610100026000190190911604151590565b600054600160a060020a0316331461098a57600080fd5b600060065460a060020a900460ff1660028111156109a457fe5b146109ae57600080fd5b6002544210156109bd57600080fd5b6006805474ff0000000000000000000000000000000000000000191660a060020a179055565b828054600181600116156101000203166002900490600052602060002090601f016020900481019282601f10610a245782800160ff19823516178555610a51565b82800160010185558215610a51579182015b82811115610a51578235825591602001919060010190610a36565b50610a5d929150610a61565b5090565b61049291905b80821115610a5d5760008155600101610a675600a165627a7a72305820ec5a6e3a07522fa232fbd074e12571b1ff1bc5df7318b14211b2d9faf5bf47390029",
  "source": "// Auction.sol, Andrew Tam\n// What happens when there is a tie?\n\npragma solidity ^0.4.24;\n\nimport \"./Enigma.sol\";\n\ncontract Auction {\n\n  enum AuctionState { IN_PROGRESS, CALCULATING, COMPLETED }\n\n  address public owner;\n  uint public startTime;\n  uint public endTime;\n  address public winner;\n  mapping(address => bytes) public bids;\n  address[] public bidders;\n  Enigma public enigma;\n  AuctionState public state;\n\n  event Bid(address bidder);\n  event Winner(address winner);\n\n  constructor(address _owner, uint _auctionLength, address _enigma) public {\n    owner = _owner;\n    startTime = now;\n    endTime = startTime + _auctionLength * 1 seconds;\n    enigma = Enigma(_enigma);\n    state = AuctionState.IN_PROGRESS;\n  }\n\n  function bid(bytes _bidAmount) external {\n    require(!hasBidded(msg.sender), \"User has bidded already.\");\n    require(now < endTime);\n    bids[msg.sender] = _bidAmount;\n    emit Bid(msg.sender);\n  }\n\n  function endAuction() external {\n    require(msg.sender == owner);\n    require(state == AuctionState.IN_PROGRESS);\n    require(now >= endTime);\n    state = AuctionState.CALCULATING;\n  }\n\n  //callable\n  // in the event of a tie, we're just taking the first bidder\n  function getHighestBidder(address[] _bidders, uint[] _bidAmounts) public pure returns (address, uint) {\n    address highestBidder;\n    uint highestBidAmount;\n    for (uint i = 0; i < _bidders.length; i++) {\n      if (_bidAmounts[i] > highestBidAmount) {\n        highestBidAmount = _bidAmounts[i];\n        highestBidder = _bidders[i];\n      }\n    }\n    return (highestBidder, highestBidAmount);\n  }\n\n  // callback\n  function updateWinner(address _highestBidder, uint _highestBidAmount) public\n    //onlyEnigma() comment this out for testing\n    {\n    winner = _highestBidder;\n    state = AuctionState.COMPLETED;\n    emit Winner(winner);\n  }\n\n  /*\n   * Modifier that checks that the contract caller is the Enigma contract.\n   */\n  modifier onlyEnigma() {\n    require(msg.sender == address(enigma));\n    _;\n  }\n\n  function hasBidded(address _bidder) public view returns (bool) {\n    return bids[_bidder].length != 0;\n  }\n\n  function getAllBidders() public view returns (address[]) {\n    return bidders;\n  }\n\n  function getExpirationTime() public view returns (uint) {\n    return endTime;\n  }\n\n  function getAuctionState() public view returns (AuctionState) {\n    return state;\n  }\n\n  function getBidValueForBidder(address _bidder) public view returns (bytes) {\n    require(hasBidded(_bidder), \"User has not bidded yet.\");\n    return bids[_bidder];\n  }\n\n  function getWinner() public view returns(address) {\n    require(state == AuctionState.COMPLETED);\n    return winner;\n  }\n\n}\n",
  "sourcePath": "/Users/andrew/Desktop/Andrew/secret-contracts/secret-contracts/contracts/Auction.sol",
  "compiler": {
    "name": "solc",
    "version": "0.4.24+commit.e67f0147.Emscripten.clang"
  },
  "schemaVersion": "2.0.1",
  "updatedAt": "2018-08-09T22:02:51.669Z"
}