{
  "contractName": "AuctionFactory",
  "abi": [
    {
      "constant": true,
      "inputs": [],
      "name": "enigmaAddress",
      "outputs": [
        {
          "name": "",
          "type": "address"
        }
      ],
      "payable": false,
      "stateMutability": "view",
      "type": "function"
    },
    {
      "constant": true,
      "inputs": [
        {
          "name": "",
          "type": "uint256"
        }
      ],
      "name": "auctions",
      "outputs": [
        {
          "name": "",
          "type": "address"
        }
      ],
      "payable": false,
      "stateMutability": "view",
      "type": "function"
    },
    {
      "inputs": [
        {
          "name": "_enigmaAddress",
          "type": "address"
        }
      ],
      "payable": false,
      "stateMutability": "nonpayable",
      "type": "constructor"
    },
    {
      "anonymous": false,
      "inputs": [
        {
          "indexed": false,
          "name": "auction",
          "type": "address"
        }
      ],
      "name": "newAuction",
      "type": "event"
    },
    {
      "anonymous": false,
      "inputs": [
        {
          "indexed": false,
          "name": "auction",
          "type": "address"
        }
      ],
      "name": "newActionAuction",
      "type": "event"
    },
    {
      "constant": false,
      "inputs": [
        {
          "name": "_auctionLength",
          "type": "uint256"
        },
        {
          "name": "_startingPrice",
          "type": "uint256"
        }
      ],
      "name": "createAuction",
      "outputs": [
        {
          "name": "",
          "type": "address"
        }
      ],
      "payable": false,
      "stateMutability": "nonpayable",
      "type": "function"
    },
    {
      "constant": true,
      "inputs": [],
      "name": "getAuctionAddresses",
      "outputs": [
        {
          "name": "",
          "type": "address[]"
        }
      ],
      "payable": false,
      "stateMutability": "view",
      "type": "function"
    }
  ],
  "bytecode": "0x608060405234801561001057600080fd5b5060405160208061106e8339810160405251600160a060020a038116158015906100435750600154600160a060020a0316155b151561004e57600080fd5b60018054600160a060020a031916600160a060020a0392909216919091179055610ff18061007d6000396000f3006080604052600436106100615763ffffffff7c01000000000000000000000000000000000000000000000000000000006000350416630121683f811461006657806344f979951461009d5780634802ae24146100b2578063571a26a014610117575b600080fd5b34801561007257600080fd5b5061008160043560243561012f565b60408051600160a060020a039092168252519081900360200190f35b3480156100a957600080fd5b5061008161022a565b3480156100be57600080fd5b506100c7610239565b60408051602080825283518183015283519192839290830191858101910280838360005b838110156101035781810151838201526020016100eb565b505050509050019250505060405180910390f35b34801561012357600080fd5b5061008160043561029b565b6001546000908190339085908590600160a060020a031661014e6102c3565b600160a060020a03948516815260208101939093526040808401929092529092166060820152905190819003608001906000f080158015610193573d6000803e3d6000fd5b50600080546001810182559080527f290decd9548b62a8d60345a988386fc84ba6bc95484008f6362f93160ef3e563018054600160a060020a03831673ffffffffffffffffffffffffffffffffffffffff19909116811790915560408051918252519192507f9dc2853fa05a54e1c31cb87878685b663faa3f2d8e0d88ea64903bfa5c4fa5af919081900360200190a15092915050565b600154600160a060020a031681565b6060600080548060200260200160405190810160405280929190818152602001828054801561029157602002820191906000526020600020905b8154600160a060020a03168152600190910190602001808311610273575b5050505050905090565b60008054829081106102a957fe5b600091825260209091200154600160a060020a0316905081565b604051610cf2806102d4833901905600608060405234801561001057600080fd5b50604051608080610cf2833981016040908152815160208301519183015160609093015160008054600160a060020a03938416600160a060020a03199182161782556004959095554260018190559093016002556009805492909116919093161760a060020a60ff021916909155610c6490819061008e90396000f30060806040526004361061011c5763ffffffff7c01000000000000000000000000000000000000000000000000000000006000350416632e1a7d4d81146101215780632fb3c48f1461013b5780633197cbb61461016f57806331e37530146101965780633a4b66f1146101b657806378e97925146101be57806388901205146101d35780638da5cb5b146102bd5780638e7ea5b2146102d2578063b24fd5c5146102e7578063b88a802f146102fc578063c19d93fb14610311578063c1f526041461034a578063cb1e17cf1461035f578063d390b2d114610383578063d6fbf20214610419578063dfbf53ae1461042e578063ef4cec1f14610443578063f7b6d1a814610478578063fcc8f79314610499578063fe67a54b1461053d575b600080fd5b34801561012d57600080fd5b50610139600435610552565b005b34801561014757600080fd5b506101536004356105fb565b60408051600160a060020a039092168252519081900360200190f35b34801561017b57600080fd5b50610184610623565b60408051918252519081900360200190f35b3480156101a257600080fd5b506101396004803560248101910135610629565b6101396106de565b3480156101ca57600080fd5b50610184610719565b3480156101df57600080fd5b506040805160206004803580820135838102808601850190965280855261029a95369593946024949385019291829185019084908082843750506040805187358901803560208181028481018201909552818452989b9a998901989297509082019550935083925085019084908082843750506040805187358901803560208181028481018201909552818452989b9a99890198929750908201955093508392508501908490808284375094975061071f9650505050505050565b60408051600160a060020a03909316835260208301919091528051918290030190f35b3480156102c957600080fd5b506101536107d2565b3480156102de57600080fd5b506101536107e1565b3480156102f357600080fd5b50610153610818565b34801561030857600080fd5b50610139610827565b34801561031d57600080fd5b50610326610864565b6040518082600281111561033657fe5b60ff16815260200191505060405180910390f35b34801561035657600080fd5b50610184610874565b34801561036b57600080fd5b50610139600160a060020a036004351660243561087a565b34801561038f57600080fd5b506103a4600160a060020a036004351661091d565b6040805160208082528351818301528351919283929083019185019080838360005b838110156103de5781810151838201526020016103c6565b50505050905090810190601f16801561040b5780820380516001836020036101000a031916815260200191505b509250505060405180910390f35b34801561042557600080fd5b50610184610a43565b34801561043a57600080fd5b50610153610a49565b34801561044f57600080fd5b50610464600160a060020a0360043516610a58565b604080519115158252519081900360200190f35b34801561048457600080fd5b50610184600160a060020a0360043516610a76565b3480156104a557600080fd5b506104ba600160a060020a0360043516610a91565b604051808315151515815260200180602001828103825283818151815260200191508051906020019080838360005b838110156105015781810151838201526020016104e9565b50505050905090810190601f16801561052e5780820380516001836020036101000a031916815260200191505b50935050505060405180910390f35b34801561054957600080fd5b50610139610b3f565b600260095460a060020a900460ff16600281111561056c57fe5b1461057657600080fd5b600354600160a060020a03163314156105ae5760055433600090815260076020526040902054038111156105a957600080fd5b6105ca565b336000908152600760205260409020548111156105ca57600080fd5b604051339082156108fc029083906000818181858888f193505050501580156105f7573d6000803e3d6000fd5b5050565b600880548290811061060957fe5b600091825260209091200154600160a060020a0316905081565b60025481565b600254421061063757600080fd5b60045433600090815260076020526040902054101561065557600080fd5b336000908152600660205260409020610672906001018383610ba0565b503360009081526006602052604090205460ff1615156106a757336000908152600660205260409020805460ff191660011790555b6040805133815290517f417bd604b82c3fa277680a27ba0a50c43772789bdafa274544181c0a2b1e8ab59181900360200190a15050565b600060095460a060020a900460ff1660028111156106f857fe5b1461070257600080fd5b336000908152600760205260409020805434019055565b60015481565b6000808080805b87518110156107c55781878281518110151561073e57fe5b906020019060200201511180156107835750858181518110151561075e57fe5b90602001906020020151878281518110151561077657fe5b9060200190602002015111155b156107bd57868181518110151561079657fe5b90602001906020020151915087818151811015156107b057fe5b9060200190602002015192505b600101610726565b5090969095509350505050565b600054600160a060020a031681565b6000600260095460a060020a900460ff1660028111156107fd57fe5b1461080757600080fd5b50600354600160a060020a03165b90565b600954600160a060020a031681565b600260095460a060020a900460ff16600281111561084157fe5b1461084b57600080fd5b600354600160a060020a0316331461086257600080fd5b565b60095460a060020a900460ff1681565b60055481565b6003805473ffffffffffffffffffffffffffffffffffffffff1916600160a060020a03841690811790915560058290556009805474ff0000000000000000000000000000000000000000191674020000000000000000000000000000000000000000179055604080519182526020820183905280517f9c2270628a9b29d30ae96b6c4c14ed646ee134febdce38a5b77f2bde9cea2e209281900390910190a15050565b606061092882610a58565b151561099557604080517f08c379a000000000000000000000000000000000000000000000000000000000815260206004820152601860248201527f5573657220686173206e6f7420626964646564207965742e0000000000000000604482015290519081900360640190fd5b600160a060020a038216600090815260066020908152604091829020600190810180548451600293821615610100026000190190911692909204601f810184900484028301840190945283825290929091830182828015610a375780601f10610a0c57610100808354040283529160200191610a37565b820191906000526020600020905b815481529060010190602001808311610a1a57829003601f168201915b50505050509050919050565b60045481565b600354600160a060020a031681565b600160a060020a031660009081526006602052604090205460ff1690565b600160a060020a031660009081526007602052604090205490565b6006602090815260009182526040918290208054600180830180548651600261010094831615949094026000190190911692909204601f810186900486028301860190965285825260ff909216949293909290830182828015610b355780601f10610b0a57610100808354040283529160200191610b35565b820191906000526020600020905b815481529060010190602001808311610b1857829003601f168201915b5050505050905082565b600054600160a060020a03163314610b5657600080fd5b600060095460a060020a900460ff166002811115610b7057fe5b14610b7a57600080fd5b6009805474ff0000000000000000000000000000000000000000191660a060020a179055565b828054600181600116156101000203166002900490600052602060002090601f016020900481019282601f10610be15782800160ff19823516178555610c0e565b82800160010185558215610c0e579182015b82811115610c0e578235825591602001919060010190610bf3565b50610c1a929150610c1e565b5090565b61081591905b80821115610c1a5760008155600101610c245600a165627a7a72305820d87ad296b3f53ab9a5f1f7a0bb72226dfea7c1410dd9c0132f4a7853b37fbd570029a165627a7a72305820d512606c23ef3c039fb02af4ba5f82526e7dd334f115e6999b8b6604230504740029",
  "source": "// AuctionFactory.sol, Andrew Tam\n\npragma solidity ^0.4.24;\n\nimport \"./Auction.sol\";\nimport \"./ActionAuction.sol\";\n\ncontract AuctionFactory {\n\n  /* EVENTS */\n  event newAuction(address auction);\n  event newActionAuction(address auction);\n\n  /* STATE VARIABLES */\n  address[] public auctions;\n  address public enigmaAddress;\n\n  /* CONSTRUCTOR */\n  constructor(address _enigmaAddress) public {\n    require(_enigmaAddress != 0 && address(enigmaAddress) == 0);\n    enigmaAddress = _enigmaAddress;\n  }\n\n  /*\n   * Creates a new auction.\n   * NOTE: _startingPrice must be specified in wei.\n   */\n  function createAuction(uint _auctionLength, uint _startingPrice) external returns (address) {\n    Auction auction = new Auction(msg.sender, _auctionLength, _startingPrice, enigmaAddress);\n    auctions.push(auction);\n    emit newAuction(auction);\n  }\n\n  function getAuctionAddresses() public view returns (address[]) {\n    return auctions;\n  }\n\n}\n",
  "sourcePath": "/Users/andrew/Desktop/Andrew/secret-contracts/secret-contracts/contracts/AuctionFactory.sol",
  "compiler": {
    "name": "solc",
    "version": "0.4.24+commit.e67f0147.Emscripten.clang"
  },
  "schemaVersion": "2.0.1",
  "updatedAt": "2018-08-17T20:03:03.295Z"
}