{
  "contractName": "Registry",
  "abi": [
    {
      "constant": true,
      "inputs": [],
      "name": "name",
      "outputs": [
        {
          "name": "",
          "type": "string"
        }
      ],
      "payable": false,
      "stateMutability": "view",
      "type": "function"
    },
    {
      "constant": true,
      "inputs": [],
      "name": "dispensationPct",
      "outputs": [
        {
          "name": "",
          "type": "uint256"
        }
      ],
      "payable": false,
      "stateMutability": "view",
      "type": "function"
    },
    {
      "constant": true,
      "inputs": [],
      "name": "minDeposit",
      "outputs": [
        {
          "name": "",
          "type": "uint256"
        }
      ],
      "payable": false,
      "stateMutability": "view",
      "type": "function"
    },
    {
      "constant": true,
      "inputs": [],
      "name": "voteQuorum",
      "outputs": [
        {
          "name": "",
          "type": "uint256"
        }
      ],
      "payable": false,
      "stateMutability": "view",
      "type": "function"
    },
    {
      "constant": true,
      "inputs": [
        {
          "name": "",
          "type": "uint256"
        }
      ],
      "name": "listingIndex",
      "outputs": [
        {
          "name": "",
          "type": "uint256"
        }
      ],
      "payable": false,
      "stateMutability": "view",
      "type": "function"
    },
    {
      "constant": true,
      "inputs": [],
      "name": "applyStageLen",
      "outputs": [
        {
          "name": "",
          "type": "uint256"
        }
      ],
      "payable": false,
      "stateMutability": "view",
      "type": "function"
    },
    {
      "constant": true,
      "inputs": [
        {
          "name": "",
          "type": "uint256"
        }
      ],
      "name": "challenges",
      "outputs": [
        {
          "name": "owner",
          "type": "address"
        },
        {
          "name": "pollID",
          "type": "uint256"
        },
        {
          "name": "listingHash",
          "type": "bytes32"
        },
        {
          "name": "stake",
          "type": "uint256"
        },
        {
          "name": "data",
          "type": "string"
        },
        {
          "name": "status",
          "type": "uint8"
        }
      ],
      "payable": false,
      "stateMutability": "view",
      "type": "function"
    },
    {
      "constant": true,
      "inputs": [
        {
          "name": "",
          "type": "bytes32"
        }
      ],
      "name": "listings",
      "outputs": [
        {
          "name": "owner",
          "type": "address"
        },
        {
          "name": "data",
          "type": "string"
        },
        {
          "name": "stake",
          "type": "uint256"
        },
        {
          "name": "status",
          "type": "uint8"
        },
        {
          "name": "applyExpire",
          "type": "uint256"
        },
        {
          "name": "challengeID",
          "type": "uint256"
        }
      ],
      "payable": false,
      "stateMutability": "view",
      "type": "function"
    },
    {
      "constant": true,
      "inputs": [],
      "name": "token",
      "outputs": [
        {
          "name": "",
          "type": "address"
        }
      ],
      "payable": false,
      "stateMutability": "view",
      "type": "function"
    },
    {
      "constant": true,
      "inputs": [],
      "name": "voting",
      "outputs": [
        {
          "name": "",
          "type": "address"
        }
      ],
      "payable": false,
      "stateMutability": "view",
      "type": "function"
    },
    {
      "inputs": [
        {
          "name": "_token",
          "type": "address"
        },
        {
          "name": "_voting",
          "type": "address"
        },
        {
          "name": "_name",
          "type": "string"
        }
      ],
      "payable": false,
      "stateMutability": "nonpayable",
      "type": "constructor"
    },
    {
      "anonymous": false,
      "inputs": [
        {
          "indexed": false,
          "name": "owner",
          "type": "address"
        },
        {
          "indexed": false,
          "name": "candidate",
          "type": "string"
        },
        {
          "indexed": false,
          "name": "stake",
          "type": "uint256"
        }
      ],
      "name": "Application",
      "type": "event"
    },
    {
      "anonymous": false,
      "inputs": [
        {
          "indexed": false,
          "name": "owner",
          "type": "address"
        },
        {
          "indexed": false,
          "name": "listingHash",
          "type": "bytes32"
        }
      ],
      "name": "newChallenge",
      "type": "event"
    },
    {
      "anonymous": false,
      "inputs": [
        {
          "indexed": false,
          "name": "listingHash",
          "type": "bytes32"
        }
      ],
      "name": "Whitelisted",
      "type": "event"
    },
    {
      "constant": false,
      "inputs": [
        {
          "name": "_amount",
          "type": "uint256"
        },
        {
          "name": "_candidate",
          "type": "string"
        }
      ],
      "name": "apply",
      "outputs": [
        {
          "name": "",
          "type": "bytes32"
        }
      ],
      "payable": false,
      "stateMutability": "nonpayable",
      "type": "function"
    },
    {
      "constant": false,
      "inputs": [
        {
          "name": "_listingHash",
          "type": "bytes32"
        }
      ],
      "name": "updateListingStatus",
      "outputs": [],
      "payable": false,
      "stateMutability": "nonpayable",
      "type": "function"
    },
    {
      "constant": false,
      "inputs": [
        {
          "name": "_listingHash",
          "type": "bytes32"
        }
      ],
      "name": "exit",
      "outputs": [],
      "payable": false,
      "stateMutability": "nonpayable",
      "type": "function"
    },
    {
      "constant": false,
      "inputs": [
        {
          "name": "_listingHash",
          "type": "bytes32"
        },
        {
          "name": "_data",
          "type": "string"
        }
      ],
      "name": "challenge",
      "outputs": [
        {
          "name": "",
          "type": "uint256"
        }
      ],
      "payable": false,
      "stateMutability": "nonpayable",
      "type": "function"
    },
    {
      "constant": false,
      "inputs": [
        {
          "name": "_pollID",
          "type": "uint256"
        }
      ],
      "name": "endChallengePoll",
      "outputs": [],
      "payable": false,
      "stateMutability": "nonpayable",
      "type": "function"
    },
    {
      "constant": false,
      "inputs": [
        {
          "name": "_pollID",
          "type": "uint256"
        }
      ],
      "name": "updateChallengeStatus",
      "outputs": [],
      "payable": false,
      "stateMutability": "nonpayable",
      "type": "function"
    },
    {
      "constant": false,
      "inputs": [
        {
          "name": "_listingHash",
          "type": "bytes32"
        }
      ],
      "name": "getListingStatus",
      "outputs": [
        {
          "name": "",
          "type": "uint8"
        }
      ],
      "payable": false,
      "stateMutability": "nonpayable",
      "type": "function"
    },
    {
      "constant": false,
      "inputs": [
        {
          "name": "_listingHash",
          "type": "bytes32"
        }
      ],
      "name": "getListingData",
      "outputs": [
        {
          "name": "",
          "type": "string"
        }
      ],
      "payable": false,
      "stateMutability": "nonpayable",
      "type": "function"
    },
    {
      "constant": false,
      "inputs": [
        {
          "name": "_challengeID",
          "type": "uint256"
        }
      ],
      "name": "getChallengeStatus",
      "outputs": [
        {
          "name": "",
          "type": "uint8"
        }
      ],
      "payable": false,
      "stateMutability": "nonpayable",
      "type": "function"
    }
  ],
  "bytecode": "0x6080604052600a600355600a6004556032600555603c6006553480156200002557600080fd5b5060405162001493380380620014938339810160409081528151602083015191830151909201600160a060020a038316158015906200006d5750600754600160a060020a0316155b15156200007957600080fd5b600160a060020a038216158015906200009b5750600854600160a060020a0316155b1515620000a757600080fd5b60078054600160a060020a03808616600160a060020a03199283161790925560088054928516929091169190911790558051620000ec906009906020840190620000f6565b505050506200019b565b828054600181600116156101000203166002900490600052602060002090601f016020900481019282601f106200013957805160ff191683800117855562000169565b8280016001018555821562000169579182015b82811115620001695782518255916020019190600101906200014c565b50620001779291506200017b565b5090565b6200019891905b8082111562000177576000815560010162000182565b90565b6112e880620001ab6000396000f3006080604052600436106101065763ffffffff7c010000000000000000000000000000000000000000000000000000000060003504166306fdde03811461010b5780630ca36263146101955780633b6d6dec146101af57806341b3d185146101d657806343cffefe146101eb5780634d4214011461020f5780635f6bd74b146102245780636a8ee1951461023c578063762ddcf5146102545780637f0733601461026c578063832c8bc6146102815780638f1d3776146102bd578063a3991fce1461038a578063c18b8db4146103a2578063e951ac8814610434578063fb63bcce14610458578063fc07eb9d14610470578063fc0c546a14610488578063fce1ccca146104b9575b600080fd5b34801561011757600080fd5b506101206104ce565b6040805160208082528351818301528351919283929083019185019080838360005b8381101561015a578181015183820152602001610142565b50505050905090810190601f1680156101875780820380516001836020036101000a031916815260200191505b509250505060405180910390f35b3480156101a157600080fd5b506101ad60043561055c565b005b3480156101bb57600080fd5b506101c46106b7565b60408051918252519081900360200190f35b3480156101e257600080fd5b506101c46106bd565b3480156101f757600080fd5b506101c46004803590602480359081019101356106c3565b34801561021b57600080fd5b506101c46109da565b34801561023057600080fd5b506101c46004356109e0565b34801561024857600080fd5b506101ad6004356109ff565b34801561026057600080fd5b50610120600435610aa3565b34801561027857600080fd5b506101c4610b48565b34801561028d57600080fd5b50610299600435610b4e565b604051808260028111156102a957fe5b60ff16815260200191505060405180910390f35b3480156102c957600080fd5b506102d5600435610b66565b60408051600160a060020a038816815260208101879052908101859052606081018490526080810160a0820183600281111561030d57fe5b60ff168152602001828103825284818151815260200191508051906020019080838360005b8381101561034a578181015183820152602001610332565b50505050905090810190601f1680156103775780820380516001836020036101000a031916815260200191505b5097505050505050505060405180910390f35b34801561039657600080fd5b506101ad600435610c32565b3480156103ae57600080fd5b506103ba600435610d4e565b6040518087600160a060020a0316600160a060020a03168152602001806020018681526020018560028111156103ec57fe5b60ff168152602001848152602001838152602001828103825287818151815260200191508051906020019080838360008381101561034a578181015183820152602001610332565b34801561044057600080fd5b506101c4600480359060248035908101910135610e1e565b34801561046457600080fd5b506101ad6004356110b5565b34801561047c57600080fd5b50610299600435611191565b34801561049457600080fd5b5061049d6111a9565b60408051600160a060020a039092168252519081900360200190f35b3480156104c557600080fd5b5061049d6111b8565b6009805460408051602060026001851615610100026000190190941693909304601f810184900484028201840190925281815292918301828280156105545780601f1061052957610100808354040283529160200191610554565b820191906000526020600020905b81548152906001019060200180831161053757829003601f168201915b505050505081565b600080600261056a84611191565b600281111561057557fe5b1461057f57600080fd5b60008381526001602052604090208054909250600160a060020a031633146105a657600080fd5b50600281015460008381526001602081905260408220805473ffffffffffffffffffffffffffffffffffffffff1916815591906105e5908301826111da565b5060006002820181905560038201805460ff1916905560048083018290556005909201819055600754604080517fa9059cbb00000000000000000000000000000000000000000000000000000000815233948101949094526024840185905251600160a060020a039091169263a9059cbb9260448083019360209390929083900390910190829087803b15801561067b57600080fd5b505af115801561068f573d6000803e3d6000fd5b505050506040513d60208110156106a557600080fd5b505115156106b257600080fd5b505050565b60045481565b60035481565b60008381526001602052604081208180600383015460ff1660028111156106e657fe5b14156106f157600080fd5b600582015415806107195750600261070c8360050154610b4e565b600281111561071757fe5b145b151561072457600080fd5b6008546005546006546040517f236e1b930000000000000000000000000000000000000000000000000000000081526004810183815260448201839052606060248301908152606483018a9052600160a060020a039095169463236e1b9394938b938b93919290608401858580828437820191505095505050505050602060405180830381600087803b1580156107ba57600080fd5b505af11580156107ce573d6000803e3d6000fd5b505050506040513d60208110156107e457600080fd5b50516040805160c08101825233815260208181018490528183018a9052600286015460608301528251601f8901829004820281018201909352878352929350916080830191908890889081908401838280828437505050928452505060209091019050600090526000828152600260208181526040928390208451815473ffffffffffffffffffffffffffffffffffffffff1916600160a060020a03909116178155848201516001820155928401519183019190915560608301516003830155608083015180516108bb9260048501920190611221565b5060a082015160058201805460ff191660018360028111156108d957fe5b02179055505050600582018190556007546002830154604080517f23b872dd000000000000000000000000000000000000000000000000000000008152336004820152306024820152604481019290925251600160a060020a03909216916323b872dd916064808201926020929091908290030181600087803b15801561095f57600080fd5b505af1158015610973573d6000803e3d6000fd5b505050506040513d602081101561098957600080fd5b5051151561099657600080fd5b604080513381526020810188905281517f329d3e1540469b182d0d532651a6745f93231accd7781b4111967d224a0efda8929181900390910190a195945050505050565b60055481565b60008054829081106109ee57fe5b600091825260209091200154905081565b600081815260026020526040902054600160a060020a03163314610a2257600080fd5b600854604080517ff43b8778000000000000000000000000000000000000000000000000000000008152600481018490529051600160a060020a039092169163f43b87789160248082019260009290919082900301818387803b158015610a8857600080fd5b505af1158015610a9c573d6000803e3d6000fd5b5050505050565b600081815260016020818152604092839020820180548451600260001995831615610100029590950190911693909304601f81018390048302840183019094528383526060939091830182828015610b3c5780601f10610b1157610100808354040283529160200191610b3c565b820191906000526020600020905b815481529060010190602001808311610b1f57829003601f168201915b50505050509050919050565b60065481565b60009081526002602052604090206005015460ff1690565b60026020818152600092835260409283902080546001808301548386015460038501546004860180548a516101009682161596909602600019011698909804601f8101889004880285018801909952888452600160a060020a039094169791969095939493909190830182828015610c1f5780601f10610bf457610100808354040283529160200191610c1f565b820191906000526020600020905b815481529060010190602001808311610c0257829003601f168201915b5050506005909301549192505060ff1686565b600080610c3e83610b4e565b6002811115610c4957fe5b14610c5357600080fd5b600854604080517fb0c095e3000000000000000000000000000000000000000000000000000000008152600481018590529051600160a060020a039092169163b0c095e3916024808201926020929091908290030181600087803b158015610cba57600080fd5b505af1158015610cce573d6000803e3d6000fd5b505050506040513d6020811015610ce457600080fd5b50516003811115610cf157fe5b905060018111610d0057600080fd5b8060021415610d2a576000828152600260205260409020600501805460ff19166001179055610d4a565b6000828152600260208190526040909120600501805460ff191690911790555b5050565b600160208181526000928352604092839020805481840180548651600261010097831615979097026000190190911695909504601f8101859004850286018501909652858552600160a060020a0390911694919392909190830182828015610df75780601f10610dcc57610100808354040283529160200191610df7565b820191906000526020600020905b815481529060010190602001808311610dda57829003601f168201915b505050506002830154600384015460048501546005909501549394919360ff909116925086565b6000806003548510151515610e3257600080fd5b8383604051808383808284376040519201829003909120945060009350610e5892505050565b610e6182611191565b6002811115610e6c57fe5b14610e7657600080fd5b60c06040519081016040528033600160a060020a0316815260200185858080601f0160208091040260200160405190810160405280939291908181526020018383808284375050509284525050506020810187905260400160018152602001610eea600654426111c790919063ffffffff16565b815260006020918201819052838152600180835260409091208351815473ffffffffffffffffffffffffffffffffffffffff1916600160a060020a039091161781558383015180519193610f4393850192910190611221565b506040820151816002015560608201518160030160006101000a81548160ff02191690836002811115610f7257fe5b0217905550608082015160048083019190915560a090920151600590910155600754604080517f23b872dd00000000000000000000000000000000000000000000000000000000815233938101939093523060248401526044830188905251600160a060020a03909116916323b872dd9160648083019260209291908290030181600087803b15801561100457600080fd5b505af1158015611018573d6000803e3d6000fd5b505050506040513d602081101561102e57600080fd5b5051151561103b57600080fd5b7f1f205fd534e8a92b8982f3c3a1658bac3d479ab2f489b870fb91dfe94a1efbaa338585886040518085600160a060020a0316600160a060020a03168152602001806020018381526020018281038252858582818152602001925080828437604051920182900397509095505050505050a1949350505050565b600081815260016020526040902060048101544210156110d457600080fd5b8054600160a060020a031633146110ea57600080fd5b6001600382015460ff1660028111156110ff57fe5b1461110957600080fd5b6005810154158061113f575060058181015460009081526002602081905260409091209091015460ff168181111561113d57fe5b145b151561114a57600080fd5b60038101805460ff191660021790556040805183815290517f80aa817a65875e86e2f717efafef526a1c7f66774d7eaba4f219a568b02b0616916020908290030190a15050565b60009081526001602052604090206003015460ff1690565b600754600160a060020a031681565b600854600160a060020a031681565b818101828110156111d457fe5b92915050565b50805460018160011615610100020316600290046000825580601f10611200575061121e565b601f01602090049060005260206000209081019061121e919061129f565b50565b828054600181600116156101000203166002900490600052602060002090601f016020900481019282601f1061126257805160ff191683800117855561128f565b8280016001018555821561128f579182015b8281111561128f578251825591602001919060010190611274565b5061129b92915061129f565b5090565b6112b991905b8082111561129b57600081556001016112a5565b905600a165627a7a7230582083c8e3356a45fe99be19bb9d505555002cc6ab078af5fd8524f8beba9ada9a820029",
  "source": "// Registry.sol, Andrew Tam\n// Heavily inspired from: https://github.com/skmgoldin/tcr/blob/master/contracts/Registry.sol\n// Notes:\n// -Currently no parameterizer\n// -Missing function for increasing stake(needed for touch and remove edge case)\n\npragma solidity ^0.4.24;\n\nimport \"openzeppelin-solidity/contracts/math/SafeMath.sol\";\nimport \"./VotingToken.sol\";\nimport \"./Voting.sol\";\n\ncontract Registry {\n\n  using SafeMath for uint;\n\n  event Application(address owner, string candidate, uint stake);\n  event newChallenge(address owner, bytes32 listingHash);\n  event Whitelisted(bytes32 listingHash);\n\n  enum ListingStatus { ABSENT, APPLYING, WHITELISTED }\n  enum ChallengeStatus { IN_PROGRESS, PASSED, REJECTED }\n\n  // need a way to end application status\n  struct Listing {\n    address owner;\n    string data;\n    uint stake;\n    ListingStatus status;\n    uint applyExpire;\n    uint challengeID;\n  }\n\n  struct Challenge {\n    address owner;\n    uint pollID;\n    bytes32 listingHash;\n    uint stake;\n    string data;\n    ChallengeStatus status;\n  }\n\n  // Store state of registry\n  uint[] public listingIndex;\n  mapping(bytes32 => Listing) public listings; // keys are the keccak hash of the candidate string\n  mapping(uint => Challenge) public challenges;\n\n  // Simulate the parameterizer for now\n  uint public minDeposit = 10;\n  uint public dispensationPct = 10;\n  uint public voteQuorum = 50;\n  uint public applyStageLen = 60; // 60 seconds -> 1 minute apply time\n\n  // Setup\n  VotingToken public token;\n  Voting public voting;\n  string public name;\n\n  /* CONSTRUCTOR */\n  constructor(address _token, address _voting, string _name) public {\n    require(_token != 0 && address(token) == 0);\n    require(_voting != 0 && address(voting) == 0);\n    token = VotingToken(_token);\n    voting = Voting(_voting);\n    name = _name;\n  }\n\n  /* LISTING RELATED FUNCTIONS */\n\n  // NOTE: User needs to approve token transfer beforehand.\n  function apply(uint _amount, string _candidate) external returns(bytes32) {\n    // make sure the applicant has enough stake\n    require(_amount >= minDeposit);\n    bytes32 listingHash = keccak256(_candidate);\n\n    // make sure that there isn't a duplicate application or that the candidate is already on the registry\n    require(getListingStatus(listingHash) == ListingStatus.ABSENT);\n\n    // create a new listing\n    listings[listingHash] = Listing({\n      owner: msg.sender,\n      data: _candidate,\n      stake: _amount,\n      status: ListingStatus.APPLYING,\n      applyExpire: block.timestamp.add(applyStageLen),\n      challengeID: 0\n    });\n\n    // transfer stake and emit event\n    require(token.transferFrom(msg.sender, this, _amount));\n    emit Application(msg.sender, _candidate, _amount);\n    return listingHash;\n  }\n\n  function updateListingStatus(bytes32 _listingHash) external {\n    Listing storage listing = listings[_listingHash];\n    require(now >= listing.applyExpire);\n    require(msg.sender == listing.owner);\n    require(listing.status == ListingStatus.APPLYING);\n    require(listing.challengeID == 0 || challenges[listing.challengeID].status == ChallengeStatus.REJECTED);\n    listing.status = ListingStatus.WHITELISTED;\n    emit Whitelisted(_listingHash);\n  }\n\n  function exit(bytes32 _listingHash) external {\n    require(getListingStatus(_listingHash) == ListingStatus.WHITELISTED);\n\n    Listing storage listing = listings[_listingHash];\n    require(msg.sender == listing.owner);\n\n    uint amount = listing.stake;\n    delete listings[_listingHash];\n\n    require(token.transfer(msg.sender, amount));\n  }\n\n\n  /* EVERYTHING UNDER HERE IS VERY UNTESTED */\n\n  /* CHALLENGE RELATED FUNCTIONS */\n  function challenge(bytes32 _listingHash, string _data) external returns (uint) {\n    Listing storage listing = listings[_listingHash];\n    require(listing.status != ListingStatus.ABSENT);\n    require(listing.challengeID == 0 || getChallengeStatus(listing.challengeID) == ChallengeStatus.REJECTED);\n\n    // create new poll\n    uint pollID = voting.createPoll(voteQuorum, _data, applyStageLen);\n\n    // create new challenge\n    challenges[pollID] = Challenge({\n      owner: msg.sender,\n      pollID: pollID,\n      listingHash: _listingHash,\n      stake: listing.stake,\n      data: _data,\n      status: ChallengeStatus.IN_PROGRESS\n    });\n\n    listing.challengeID = pollID;\n\n    // transfer stake from challenger\n    require(token.transferFrom(msg.sender, this, listing.stake));\n    emit newChallenge(msg.sender, _listingHash);\n    return pollID;\n  }\n\n  /* THIS IS TEMPORARY WHILE WE HAVE NO TIMED POLLS */\n  function endChallengePoll(uint _pollID) external {\n    require(msg.sender == challenges[_pollID].owner);\n    voting.endPoll(_pollID);\n  }\n\n  function updateChallengeStatus(uint _pollID) external {\n    require(getChallengeStatus(_pollID) == ChallengeStatus.IN_PROGRESS);\n    uint pollStatus = uint(voting.getPollStatus(_pollID));\n    require(pollStatus > 1);  // make sure poll has ended\n    if (pollStatus == 2) {\n      challenges[_pollID].status = ChallengeStatus.PASSED;\n    }\n    else {\n      challenges[_pollID].status = ChallengeStatus.REJECTED;\n    }\n  }\n\n  /* HELPERS */\n  function getListingStatus(bytes32 _listingHash) public returns (ListingStatus) {\n    return listings[_listingHash].status;\n  }\n\n  function getListingData(bytes32 _listingHash) public returns (string) {\n    return listings[_listingHash].data;\n  }\n\n  function getChallengeStatus(uint _challengeID) public returns (ChallengeStatus) {\n    return challenges[_challengeID].status;\n  }\n\n}\n",
  "sourcePath": "/Users/andrew/Desktop/Andrew/secret-contracts/secret-contracts/contracts/Registry.sol",
  "compiler": {
    "name": "solc",
    "version": "0.4.24+commit.e67f0147.Emscripten.clang"
  },
  "schemaVersion": "2.0.1",
  "updatedAt": "2018-08-06T22:43:12.275Z"
}