{
  "contractName": "TokenFactory",
  "abi": [
    {
      "constant": true,
      "inputs": [],
      "name": "totalMinted",
      "outputs": [
        {
          "name": "",
          "type": "uint256"
        }
      ],
      "payable": false,
      "stateMutability": "view",
      "type": "function"
    },
    {
      "constant": true,
      "inputs": [],
      "name": "token",
      "outputs": [
        {
          "name": "",
          "type": "address"
        }
      ],
      "payable": false,
      "stateMutability": "view",
      "type": "function"
    },
    {
      "inputs": [
        {
          "name": "_token",
          "type": "address"
        }
      ],
      "payable": false,
      "stateMutability": "nonpayable",
      "type": "constructor"
    },
    {
      "payable": true,
      "stateMutability": "payable",
      "type": "fallback"
    },
    {
      "anonymous": false,
      "inputs": [
        {
          "indexed": false,
          "name": "contributer",
          "type": "address"
        },
        {
          "indexed": false,
          "name": "amount",
          "type": "uint256"
        }
      ],
      "name": "Contribution",
      "type": "event"
    },
    {
      "constant": false,
      "inputs": [],
      "name": "contribute",
      "outputs": [],
      "payable": true,
      "stateMutability": "payable",
      "type": "function"
    }
  ],
  "bytecode": "0x608060405234801561001057600080fd5b5060405160208061046a83398101806040528101908080519060200190929190505050336000806101000a81548173ffffffffffffffffffffffffffffffffffffffff021916908373ffffffffffffffffffffffffffffffffffffffff16021790555080600260006101000a81548173ffffffffffffffffffffffffffffffffffffffff021916908373ffffffffffffffffffffffffffffffffffffffff160217905550506103a6806100c46000396000f300608060405260043610610057576000357c0100000000000000000000000000000000000000000000000000000000900463ffffffff168063a2309ff81461005c578063d7bb99ba14610087578063fc0c546a14610091575b600080fd5b34801561006857600080fd5b506100716100e8565b6040518082815260200191505060405180910390f35b61008f6100ee565b005b34801561009d57600080fd5b506100a6610354565b604051808273ffffffffffffffffffffffffffffffffffffffff1673ffffffffffffffffffffffffffffffffffffffff16815260200191505060405180910390f35b60015481565b60008034111515610167576040517f08c379a00000000000000000000000000000000000000000000000000000000081526004018080602001828103825260138152602001807f557365722073656e74206e6f2065746865722e0000000000000000000000000081525060200191505060405180910390fd5b6000809054906101000a900473ffffffffffffffffffffffffffffffffffffffff1673ffffffffffffffffffffffffffffffffffffffff166108fc349081150290604051600060405180830381858888f193505050501580156101ce573d6000803e3d6000fd5b50600a34029050600260009054906101000a900473ffffffffffffffffffffffffffffffffffffffff1673ffffffffffffffffffffffffffffffffffffffff166340c10f1933836040518363ffffffff167c0100000000000000000000000000000000000000000000000000000000028152600401808373ffffffffffffffffffffffffffffffffffffffff1673ffffffffffffffffffffffffffffffffffffffff16815260200182815260200192505050602060405180830381600087803b15801561029a57600080fd5b505af11580156102ae573d6000803e3d6000fd5b505050506040513d60208110156102c457600080fd5b810190808051906020019092919050505050806001600082825401925050819055507f4d154d4aae216bed6d0926db77c00df2b57c6b5ba4eee05775de20facede3a7b3382604051808373ffffffffffffffffffffffffffffffffffffffff1673ffffffffffffffffffffffffffffffffffffffff1681526020018281526020019250505060405180910390a150565b600260009054906101000a900473ffffffffffffffffffffffffffffffffffffffff16815600a165627a7a7230582095fa41871222e93a1fe389a0be4e09ce830ab376333620ded97087164c015f0b0029",
  "source": "// Andrew Tam, TokenFactory.sol\n// Allow the voting tokens to be minted from a simple crowdsale.\n\npragma solidity ^0.4.24;\n\nimport \"./VotingToken.sol\";\n\ncontract TokenFactory {\n  address owner;  // where the Ether contributions are sent to\n  uint256 public totalMinted;  // keep a tab on the number of voting tokens minted\n  VotingToken public token;\n\n  // NOTE: defines number of tokens minted, not ether spent\n  event Contribution(address contributer, uint256 amount);\n\n  /*\n   * The constructor intializes a VotingToken.\n   */\n  constructor(address _token) public {\n    owner = msg.sender;\n    token = VotingToken(_token);\n  }\n\n  /*\n   * Allow a user to pay for voting tokens.\n   */\n  function contribute() external payable {\n    require(msg.value > 0, \"User sent no ether.\");\n    owner.transfer(msg.value);  // transfer the Ether to the owner\n    uint256 amount = msg.value * 10;  // define an arbitrary exchange rate\n    token.mint(msg.sender, amount);  // mint tokens\n    totalMinted += amount;\n    emit Contribution(msg.sender, amount);\n  }\n\n  function() external payable {\n    revert();\n  }\n\n}\n",
  "sourcePath": "/Users/andrew/Desktop/Andrew/secret-contracts/secret-contracts/contracts/TokenFactory.sol",
  "compiler": {
    "name": "solc",
    "version": "0.4.24+commit.e67f0147.Emscripten.clang"
  },
  "schemaVersion": "2.0.1",
  "updatedAt": "2018-07-06T22:51:07.444Z"
}