{
  "contractName": "Voting",
  "abi": [
    {
      "constant": true,
      "inputs": [],
      "name": "pollCount",
      "outputs": [
        {
          "name": "",
          "type": "uint256"
        }
      ],
      "payable": false,
      "stateMutability": "view",
      "type": "function"
    },
    {
      "constant": true,
      "inputs": [
        {
          "name": "",
          "type": "uint256"
        }
      ],
      "name": "polls",
      "outputs": [
        {
          "name": "creator",
          "type": "address"
        },
        {
          "name": "status",
          "type": "uint8"
        },
        {
          "name": "quorumPercentage",
          "type": "uint256"
        },
        {
          "name": "yeaVotes",
          "type": "uint256"
        },
        {
          "name": "nayVotes",
          "type": "uint256"
        },
        {
          "name": "numVoters",
          "type": "uint256"
        },
        {
          "name": "description",
          "type": "string"
        }
      ],
      "payable": false,
      "stateMutability": "view",
      "type": "function"
    },
    {
      "constant": true,
      "inputs": [],
      "name": "enigma",
      "outputs": [
        {
          "name": "",
          "type": "address"
        }
      ],
      "payable": false,
      "stateMutability": "view",
      "type": "function"
    },
    {
      "constant": true,
      "inputs": [],
      "name": "token",
      "outputs": [
        {
          "name": "",
          "type": "address"
        }
      ],
      "payable": false,
      "stateMutability": "view",
      "type": "function"
    },
    {
      "inputs": [
        {
          "name": "_token",
          "type": "address"
        },
        {
          "name": "_enigmaAddress",
          "type": "address"
        }
      ],
      "payable": false,
      "stateMutability": "nonpayable",
      "type": "constructor"
    },
    {
      "anonymous": false,
      "inputs": [
        {
          "indexed": false,
          "name": "voter",
          "type": "address"
        },
        {
          "indexed": false,
          "name": "pollId",
          "type": "uint256"
        },
        {
          "indexed": false,
          "name": "vote",
          "type": "uint256"
        },
        {
          "indexed": false,
          "name": "weight",
          "type": "uint256"
        }
      ],
      "name": "voteCasted",
      "type": "event"
    },
    {
      "anonymous": false,
      "inputs": [
        {
          "indexed": false,
          "name": "pollId",
          "type": "uint256"
        },
        {
          "indexed": false,
          "name": "quorumPercentage",
          "type": "uint256"
        },
        {
          "indexed": false,
          "name": "creator",
          "type": "address"
        },
        {
          "indexed": false,
          "name": "description",
          "type": "string"
        }
      ],
      "name": "pollCreated",
      "type": "event"
    },
    {
      "anonymous": false,
      "inputs": [
        {
          "indexed": false,
          "name": "status",
          "type": "bool"
        }
      ],
      "name": "pollPassed",
      "type": "event"
    },
    {
      "constant": false,
      "inputs": [
        {
          "name": "_quorumPct",
          "type": "uint256"
        },
        {
          "name": "_description",
          "type": "string"
        }
      ],
      "name": "createPoll",
      "outputs": [],
      "payable": false,
      "stateMutability": "nonpayable",
      "type": "function"
    },
    {
      "constant": false,
      "inputs": [
        {
          "name": "_pollId",
          "type": "uint256"
        }
      ],
      "name": "endPoll",
      "outputs": [],
      "payable": false,
      "stateMutability": "nonpayable",
      "type": "function"
    },
    {
      "constant": false,
      "inputs": [
        {
          "name": "_pollId",
          "type": "uint256"
        },
        {
          "name": "_yeaVotes",
          "type": "uint256"
        },
        {
          "name": "_nayVotes",
          "type": "uint256"
        }
      ],
      "name": "updatePollStatus",
      "outputs": [],
      "payable": false,
      "stateMutability": "nonpayable",
      "type": "function"
    },
    {
      "constant": true,
      "inputs": [
        {
          "name": "_pollId",
          "type": "uint256"
        }
      ],
      "name": "getPollStatus",
      "outputs": [
        {
          "name": "status",
          "type": "uint8"
        }
      ],
      "payable": false,
      "stateMutability": "view",
      "type": "function"
    },
    {
      "constant": true,
      "inputs": [
        {
          "name": "_pollId",
          "type": "uint256"
        },
        {
          "name": "votes",
          "type": "uint256[]"
        },
        {
          "name": "weights",
          "type": "uint256[]"
        }
      ],
      "name": "countVotes",
      "outputs": [
        {
          "name": "pollId",
          "type": "uint256"
        },
        {
          "name": "yeaVotes",
          "type": "uint256"
        },
        {
          "name": "nayVotes",
          "type": "uint256"
        }
      ],
      "payable": false,
      "stateMutability": "pure",
      "type": "function"
    },
    {
      "constant": false,
      "inputs": [
        {
          "name": "_pollId",
          "type": "uint256"
        },
        {
          "name": "_encryptedVote",
          "type": "uint256"
        },
        {
          "name": "_weight",
          "type": "uint256"
        }
      ],
      "name": "castVote",
      "outputs": [],
      "payable": false,
      "stateMutability": "nonpayable",
      "type": "function"
    },
    {
      "constant": true,
      "inputs": [
        {
          "name": "_pollId",
          "type": "uint256"
        },
        {
          "name": "_user",
          "type": "address"
        }
      ],
      "name": "userHasVoted",
      "outputs": [
        {
          "name": "hasVoted",
          "type": "bool"
        }
      ],
      "payable": false,
      "stateMutability": "view",
      "type": "function"
    },
    {
      "constant": false,
      "inputs": [
        {
          "name": "_numTokens",
          "type": "uint256"
        },
        {
          "name": "_pollId",
          "type": "uint256"
        }
      ],
      "name": "withdrawTokens",
      "outputs": [],
      "payable": false,
      "stateMutability": "nonpayable",
      "type": "function"
    }
  ],
  "bytecode": "0x608060405234801561001057600080fd5b50604051604080611b65833981018060405281019080805190602001909291908051906020019092919050505081600260006101000a81548173ffffffffffffffffffffffffffffffffffffffff021916908373ffffffffffffffffffffffffffffffffffffffff16021790555080600360006101000a81548173ffffffffffffffffffffffffffffffffffffffff021916908373ffffffffffffffffffffffffffffffffffffffff1602179055505050611a95806100d06000396000f3006080604052600436106100ba576000357c0100000000000000000000000000000000000000000000000000000000900463ffffffff1680634e0e931a146100bf5780635be5e3ec146101005780635fc48d7e1461014157806365847632146101a65780639207891d146101eb578063ac2f007414610216578063b0c095e314610320578063b24fd5c51461036f578063ba7bd2aa146103c6578063d2025b1d146103fd578063f43b8778146104d2578063fc0c546a146104ff575b600080fd5b3480156100cb57600080fd5b506100fe600480360381019080803590602001909291908035906020019092919080359060200190929190505050610556565b005b34801561010c57600080fd5b5061013f600480360381019080803590602001909291908035906020019092919080359060200190929190505050610783565b005b34801561014d57600080fd5b5061018c60048036038101908080359060200190929190803573ffffffffffffffffffffffffffffffffffffffff169060200190929190505050610a6c565b604051808215151515815260200191505060405180910390f35b3480156101b257600080fd5b506101e960048036038101908080359060200190929190803590602001908201803590602001919091929391929390505050610b61565b005b3480156101f757600080fd5b50610200610d4d565b6040518082815260200191505060405180910390f35b34801561022257600080fd5b5061024160048036038101908080359060200190929190505050610d53565b604051808873ffffffffffffffffffffffffffffffffffffffff1673ffffffffffffffffffffffffffffffffffffffff16815260200187600381111561028357fe5b60ff16815260200186815260200185815260200184815260200183815260200180602001828103825283818151815260200191508051906020019080838360005b838110156102df5780820151818401526020810190506102c4565b50505050905090810190601f16801561030c5780820380516001836020036101000a031916815260200191505b509850505050505050505060405180910390f35b34801561032c57600080fd5b5061034b60048036038101908080359060200190929190505050610e5a565b6040518082600381111561035b57fe5b60ff16815260200191505060405180910390f35b34801561037b57600080fd5b50610384610f0e565b604051808273ffffffffffffffffffffffffffffffffffffffff1673ffffffffffffffffffffffffffffffffffffffff16815260200191505060405180910390f35b3480156103d257600080fd5b506103fb6004803603810190808035906020019092919080359060200190929190505050610f34565b005b34801561040957600080fd5b506104ae6004803603810190808035906020019092919080359060200190820180359060200190808060200260200160405190810160405280939291908181526020018383602002808284378201915050505050509192919290803590602001908201803590602001908080602002602001604051908101604052809392919081815260200183836020028082843782019150505050505091929192905050506112fa565b60405180848152602001838152602001828152602001935050505060405180910390f35b3480156104de57600080fd5b506104fd60048036038101908080359060200190929190505050611399565b005b34801561050b57600080fd5b50610514611609565b604051808273ffffffffffffffffffffffffffffffffffffffff1673ffffffffffffffffffffffffffffffffffffffff16815260200191505060405180910390f35b6000808460008111801561056c57506001548111155b15156105e0576040517f08c379a00000000000000000000000000000000000000000000000000000000081526004018080602001828103825260148152602001807f4e6f7420612076616c696420706f6c6c2049642e00000000000000000000000081525060200191505060405180910390fd5b600160038111156105ed57fe5b6105f687610e5a565b600381111561060157fe5b141515610676576040517f08c379a00000000000000000000000000000000000000000000000000000000081526004018080602001828103825260198152602001807f506f6c6c20686173206e6f742065787069726564207965742e0000000000000081525060200191505060405180910390fd5b60008087815260200190815260200160002092508483600201819055508383600301819055506106cd6106ba8460030154856002015461162f90919063ffffffff16565b846001015461164b90919063ffffffff16565b6106e56064856002015461164b90919063ffffffff16565b11915081156107195760028360000160146101000a81548160ff0219169083600381111561070f57fe5b0217905550610740565b60038360000160146101000a81548160ff0219169083600381111561073a57fe5b02179055505b7f6d159032c96b1814e4098508b3ee8411d61418775de83eca0ae80972a779b63e82604051808215151515815260200191505060405180910390a1505050505050565b60008360008111801561079857506001548111155b151561080c576040517f08c379a00000000000000000000000000000000000000000000000000000000081526004018080602001828103825260148152602001807f4e6f7420612076616c696420706f6c6c2049642e00000000000000000000000081525060200191505060405180910390fd5b6000600381111561081957fe5b61082286610e5a565b600381111561082d57fe5b1415156108a2576040517f08c379a00000000000000000000000000000000000000000000000000000000081526004018080602001828103825260118152602001807f506f6c6c2068617320657870697265642e00000000000000000000000000000081525060200191505060405180910390fd5b6108ac8533610a6c565b151515610921576040517f08c379a00000000000000000000000000000000000000000000000000000000081526004018080602001828103825260178152602001807f557365722068617320616c726561647920766f7465642e00000000000000000081525060200191505060405180910390fd5b61092b3384611683565b6000808681526020019081526020016000209150606060405190810160405280600115158152602001858152602001848152508260060160003373ffffffffffffffffffffffffffffffffffffffff1673ffffffffffffffffffffffffffffffffffffffff16815260200190815260200160002060008201518160000160006101000a81548160ff021916908315150217905550602082015181600101556040820151816002015590505081600401600081548092919060010191905055507f24e8f28bcf1dbc2f2cbdaf38b4ed8c435d3ac3b055bd15be18b06645b29dba1d33868686604051808573ffffffffffffffffffffffffffffffffffffffff1673ffffffffffffffffffffffffffffffffffffffff16815260200184815260200183815260200182815260200194505050505060405180910390a15050505050565b600082600081118015610a8157506001548111155b1515610af5576040517f08c379a00000000000000000000000000000000000000000000000000000000081526004018080602001828103825260148152602001807f4e6f7420612076616c696420706f6c6c2049642e00000000000000000000000081525060200191505060405180910390fd5b60008085815260200190815260200160002060060160008473ffffffffffffffffffffffffffffffffffffffff1673ffffffffffffffffffffffffffffffffffffffff16815260200190815260200160002060000160009054906101000a900460ff1691505092915050565b600060648411151515610c02576040517f08c379a00000000000000000000000000000000000000000000000000000000081526004018080602001828103825260348152602001807f51756f72756d2050657263656e74616765206d757374206265206c657373207481526020017f68616e206f7220657175616c20746f203130302500000000000000000000000081525060400191505060405180910390fd5b60016000815480929190600101919050555060008060015481526020019081526020016000209050338160000160006101000a81548173ffffffffffffffffffffffffffffffffffffffff021916908373ffffffffffffffffffffffffffffffffffffffff16021790555060008160000160146101000a81548160ff02191690836003811115610c8e57fe5b02179055508381600101819055508282826005019190610caf9291906119c4565b507fc504d9ec32644c55801c38afe2a56cc0b06be98d7fe9debdab0fcf28fa99cf7d60015485338686604051808681526020018581526020018473ffffffffffffffffffffffffffffffffffffffff1673ffffffffffffffffffffffffffffffffffffffff1681526020018060200182810382528484828181526020019250808284378201915050965050505050505060405180910390a150505050565b60015481565b60006020528060005260406000206000915090508060000160009054906101000a900473ffffffffffffffffffffffffffffffffffffffff16908060000160149054906101000a900460ff1690806001015490806002015490806003015490806004015490806005018054600181600116156101000203166002900480601f016020809104026020016040519081016040528092919081815260200182805460018160011615610100020316600290048015610e505780601f10610e2557610100808354040283529160200191610e50565b820191906000526020600020905b815481529060010190602001808311610e3357829003601f168201915b5050505050905087565b600081600081118015610e6f57506001548111155b1515610ee3576040517f08c379a00000000000000000000000000000000000000000000000000000000081526004018080602001828103825260148152602001807f4e6f7420612076616c696420706f6c6c2049642e00000000000000000000000081525060200191505060405180910390fd5b60008084815260200190815260200160002060000160149054906101000a900460ff16915050919050565b600360009054906101000a900473ffffffffffffffffffffffffffffffffffffffff1681565b80600081118015610f4757506001548111155b1515610fbb576040517f08c379a00000000000000000000000000000000000000000000000000000000081526004018080602001828103825260148152602001807f4e6f7420612076616c696420706f6c6c2049642e00000000000000000000000081525060200191505060405180910390fd5b600380811115610fc757fe5b610fd083610e5a565b6003811115610fdb57fe5b1480611005575060026003811115610fef57fe5b610ff883610e5a565b600381111561100357fe5b145b1515611079576040517f08c379a00000000000000000000000000000000000000000000000000000000081526004018080602001828103825260158152602001807f506f6c6c20686173206e6f7420657870697265642e000000000000000000000081525060200191505060405180910390fd5b6110838233610a6c565b15156110f7576040517f08c379a000000000000000000000000000000000000000000000000000000000815260040180806020018281038252601e8152602001807f5573657220646964206e6f7420766f746520696e2074686520706f6c6c2e000081525060200191505060405180910390fd5b60008083815260200190815260200160002060060160003373ffffffffffffffffffffffffffffffffffffffff1673ffffffffffffffffffffffffffffffffffffffff1681526020019081526020016000206002015483111515156111ea576040517f08c379a000000000000000000000000000000000000000000000000000000000815260040180806020018281038252602b8152602001807f5573657220697320747279696e6720746f20776974686472617720746f6f206d81526020017f616e7920746f6b656e732e00000000000000000000000000000000000000000081525060400191505060405180910390fd5b600260009054906101000a900473ffffffffffffffffffffffffffffffffffffffff1673ffffffffffffffffffffffffffffffffffffffff1663a9059cbb33856040518363ffffffff167c0100000000000000000000000000000000000000000000000000000000028152600401808373ffffffffffffffffffffffffffffffffffffffff1673ffffffffffffffffffffffffffffffffffffffff16815260200182815260200192505050602060405180830381600087803b1580156112af57600080fd5b505af11580156112c3573d6000803e3d6000fd5b505050506040513d60208110156112d957600080fd5b810190808051906020019092919050505015156112f557600080fd5b505050565b6000806000808451865114151561130d57fe5b600090505b8551811015611386576000868281518110151561132b57fe5b90602001906020020151141561135c57848181518110151561134957fe5b9060200190602002015182019150611379565b848181518110151561136a57fe5b90602001906020020151830192505b8080600101915050611312565b8683839350935093505093509350939050565b806000811180156113ac57506001548111155b1515611420576040517f08c379a00000000000000000000000000000000000000000000000000000000081526004018080602001828103825260148152602001807f4e6f7420612076616c696420706f6c6c2049642e00000000000000000000000081525060200191505060405180910390fd5b60008083815260200190815260200160002060000160009054906101000a900473ffffffffffffffffffffffffffffffffffffffff1673ffffffffffffffffffffffffffffffffffffffff163373ffffffffffffffffffffffffffffffffffffffff1614151561151e576040517f08c379a00000000000000000000000000000000000000000000000000000000081526004018080602001828103825260248152602001807f55736572206973206e6f74207468652063726561746f72206f6620746865207081526020017f6f6c6c2e0000000000000000000000000000000000000000000000000000000081525060400191505060405180910390fd5b6000600381111561152b57fe5b60008084815260200190815260200160002060000160149054906101000a900460ff16600381111561155957fe5b1415156115ce576040517f08c379a00000000000000000000000000000000000000000000000000000000081526004018080602001828103825260188152602001807f566f7465206973206e6f7420696e2070726f67726573732e000000000000000081525060200191505060405180910390fd5b600160008084815260200190815260200160002060000160146101000a81548160ff0219169083600381111561160057fe5b02179055505050565b600260009054906101000a900473ffffffffffffffffffffffffffffffffffffffff1681565b6000818301905082811015151561164257fe5b80905092915050565b60008083141561165e576000905061167d565b818302905081838281151561166f57fe5b0414151561167957fe5b8090505b92915050565b80600260009054906101000a900473ffffffffffffffffffffffffffffffffffffffff1673ffffffffffffffffffffffffffffffffffffffff166370a08231846040518263ffffffff167c0100000000000000000000000000000000000000000000000000000000028152600401808273ffffffffffffffffffffffffffffffffffffffff1673ffffffffffffffffffffffffffffffffffffffff168152602001915050602060405180830381600087803b15801561174157600080fd5b505af1158015611755573d6000803e3d6000fd5b505050506040513d602081101561176b57600080fd5b8101908080519060200190929190505050101515156117f2576040517f08c379a00000000000000000000000000000000000000000000000000000000081526004018080602001828103825260208152602001807f5573657220646f6573206e6f74206861766520656e6f75676820746f6b656e7381525060200191505060405180910390fd5b600260009054906101000a900473ffffffffffffffffffffffffffffffffffffffff1673ffffffffffffffffffffffffffffffffffffffff166323b872dd8330846040518463ffffffff167c0100000000000000000000000000000000000000000000000000000000028152600401808473ffffffffffffffffffffffffffffffffffffffff1673ffffffffffffffffffffffffffffffffffffffff1681526020018373ffffffffffffffffffffffffffffffffffffffff1673ffffffffffffffffffffffffffffffffffffffff1681526020018281526020019350505050602060405180830381600087803b1580156118eb57600080fd5b505af11580156118ff573d6000803e3d6000fd5b505050506040513d602081101561191557600080fd5b810190808051906020019092919050505015156119c0576040517f08c379a00000000000000000000000000000000000000000000000000000000081526004018080602001828103825260248152602001807f5573657220646964206e6f7420617070726f766520746f6b656e207472616e7381526020017f6665722e0000000000000000000000000000000000000000000000000000000081525060400191505060405180910390fd5b5050565b828054600181600116156101000203166002900490600052602060002090601f016020900481019282601f10611a0557803560ff1916838001178555611a33565b82800160010185558215611a33579182015b82811115611a32578235825591602001919060010190611a17565b5b509050611a409190611a44565b5090565b611a6691905b80821115611a62576000816000905550600101611a4a565b5090565b905600a165627a7a72305820ac38439af3b3bcdeda02bf185b0d286539ba077de24a543eaa49e065c9ea105e0029",
  "source": "// Voting.sol, Andrew Tam\n// NOTE: Anyone can vote and create a poll, prone to Sybil attacks.\n// Also, note that the creator of a poll can vote in the poll itself.\npragma solidity ^0.4.24;\n\nimport \"openzeppelin-solidity/contracts/math/SafeMath.sol\";\nimport \"./VotingToken.sol\";\nimport \"./Enigma.sol\";\n\ncontract Voting {\n  using SafeMath for uint256;\n\n  /* EVENTS */\n  event voteCasted(address voter, uint256 pollId, uint256 vote, uint256 weight);\n  event pollCreated(uint256 pollId, uint256 quorumPercentage, address creator, string description);\n  event pollPassed(bool status);\n\n  /* Determine the current state of a poll */\n  enum PollStatus { IN_PROGRESS, TALLY, PASSED, REJECTED }\n\n  /* POLL */\n  struct Poll {\n    address creator;\n    PollStatus status;\n    uint256 quorumPercentage;\n    uint256 yeaVotes;\n    uint256 nayVotes;\n    uint256 numVoters;  // Currently not used\n    string description;\n    mapping(address => Voter) voters;\n  }\n\n  /* VOTER */\n  struct Voter {\n    bool hasVoted;\n    // vote will be encrypted in the future\n    uint256 vote;\n    uint256 weight;\n  }\n\n  mapping(uint256 => Poll) public polls;\n  uint256 public pollCount;\n  VotingToken public token;\n  Enigma public enigma;\n\n  /* CONSTRUCTOR */\n  constructor(address _token, address _enigmaAddress) public {\n    token = VotingToken(_token);\n    enigma = Enigma(_enigmaAddress);\n  }\n\n  /*\n   * Creates a new poll with a specified quorum percentage. Returns the poll ID of the new poll.\n   */\n  function createPoll(uint256 _quorumPct, string _description) external {\n    require(_quorumPct <= 100, \"Quorum Percentage must be less than or equal to 100%\");\n    pollCount++;\n\n    Poll storage curPoll = polls[pollCount];\n    curPoll.creator = msg.sender;\n    curPoll.status = PollStatus.IN_PROGRESS;\n    curPoll.quorumPercentage = _quorumPct;\n    curPoll.description = _description;\n\n    emit pollCreated(pollCount, _quorumPct, msg.sender, _description);\n  }\n\n  function endPoll(uint256 _pollId) public validPoll(_pollId) {\n    require(msg.sender == polls[_pollId].creator, \"User is not the creator of the poll.\");\n    require(polls[_pollId].status == PollStatus.IN_PROGRESS, \"Vote is not in progress.\");\n    polls[_pollId].status = PollStatus.TALLY;\n  }\n\n  /*\n   * Modifier that checks for a valid poll ID.\n   */\n  modifier validPoll(uint256 _pollId) {\n    require(_pollId > 0 && _pollId <= pollCount, \"Not a valid poll Id.\");\n    _;\n  }\n\n  /*\n   * Checks if a poll was approved given the quorum percentage.\n   * URGENT NOTE: The onlyEnigma modifier is currently commented out.\n   */\n  function updatePollStatus(uint256 _pollId, uint256 _yeaVotes, uint256 _nayVotes) public validPoll(_pollId)\n    // onlyEnigma() /* Add back for final launch */\n      {\n    require(getPollStatus(_pollId) == PollStatus.TALLY, \"Poll has not expired yet.\");\n    Poll storage curPoll = polls[_pollId];\n    curPoll.yeaVotes = _yeaVotes;\n    curPoll.nayVotes = _nayVotes;\n\n    bool pollStatus = (curPoll.yeaVotes.mul(100)) > curPoll.quorumPercentage.mul(curPoll.yeaVotes.add(curPoll.nayVotes));\n    if (pollStatus) {\n      curPoll.status = PollStatus.PASSED;\n    }\n    else {\n      curPoll.status = PollStatus.REJECTED;\n    }\n\n    emit pollPassed(pollStatus);\n  }\n\n  /*\n   * Gets the status of a poll.\n   */\n  function getPollStatus(uint256 _pollId) public view validPoll(_pollId) returns (PollStatus status) {\n    return polls[_pollId].status;\n  }\n\n  /*\n   * Modifier that checks that the contract caller is the Enigma contract.\n   */\n  modifier onlyEnigma() {\n    require(msg.sender == address(enigma));\n    _;\n  }\n\n  /*\n   * The callable function that is computed by the SGX node.\n   */\n  function countVotes(uint256 _pollId, uint256[] votes, uint256[] weights) public pure returns (uint256 pollId, uint256 yeaVotes, uint256 nayVotes) {\n    assert(votes.length == weights.length);\n    for (uint256 i = 0; i < votes.length; i++) {\n      if (votes[i] == 0) nayVotes += weights[i];\n      else yeaVotes += weights[i];\n    }\n    return (_pollId, yeaVotes, nayVotes);\n  }\n\n  /*\n   * Casts a vote for a given poll. Stakes ERC20 tokens as votes.\n   * NOTE: _weight is denominated in *wei*.\n   */\n  function castVote(uint256 _pollId, uint256 _encryptedVote, uint256 _weight) external validPoll(_pollId) {\n    require(getPollStatus(_pollId) == PollStatus.IN_PROGRESS, \"Poll has expired.\");\n    require(!userHasVoted(_pollId, msg.sender), \"User has already voted.\");\n    stakeVotingTokens(msg.sender, _weight);\n\n    Poll storage curPoll = polls[_pollId];\n\n    curPoll.voters[msg.sender] = Voter({\n        hasVoted: true,\n        vote: _encryptedVote,\n        weight: _weight\n    });\n\n    curPoll.numVoters++;\n    emit voteCasted(msg.sender, _pollId, _encryptedVote, _weight);\n  }\n\n  /*\n   * Checks if a user has voted for a specific poll.\n   */\n  function userHasVoted(uint256 _pollId, address _user) public view validPoll(_pollId) returns (bool hasVoted) {\n    return (polls[_pollId].voters[_user].hasVoted);\n  }\n\n  /*\n   * Internal function that stakes tokens for a given voter.\n   * NOTE:\n   *  User must approve transfer of tokens.\n   *  _numTokens is denominated in *wei*.\n   *  Might add support for staking more tokens.\n   */\n  function stakeVotingTokens(address _voter, uint256 _numTokens) internal {\n    require(token.balanceOf(_voter) >= _numTokens, \"User does not have enough tokens\");\n    require(token.transferFrom(_voter, this, _numTokens), \"User did not approve token transfer.\");\n  }\n\n  /*\n   * Allows a voter to withdraw voting tokens after a poll has ended.\n   * NOTE: _numTokens is denominated in *wei*.\n   */\n  function withdrawTokens(uint256 _numTokens, uint256 _pollId) external validPoll(_pollId) {\n    require(getPollStatus(_pollId) == PollStatus.REJECTED ||  getPollStatus(_pollId) == PollStatus.PASSED, \"Poll has not expired.\");\n    require(userHasVoted(_pollId, msg.sender), \"User did not vote in the poll.\");\n    require(_numTokens <= polls[_pollId].voters[msg.sender].weight, \"User is trying to withdraw too many tokens.\");\n    require(token.transfer(msg.sender, _numTokens));\n  }\n\n\n}\n",
  "sourcePath": "/Users/andrew/Desktop/Andrew/secret-contracts/secret-contracts/contracts/Voting.sol",
  "compiler": {
    "name": "solc",
    "version": "0.4.24+commit.e67f0147.Emscripten.clang"
  },
  "schemaVersion": "2.0.1",
  "updatedAt": "2018-07-16T18:06:08.046Z"
}