{
  "contractName": "Voting",
  "abi": [
    {
      "constant": true,
      "inputs": [],
      "name": "pollCount",
      "outputs": [
        {
          "name": "",
          "type": "uint256"
        }
      ],
      "payable": false,
      "stateMutability": "view",
      "type": "function"
    },
    {
      "constant": true,
      "inputs": [
        {
          "name": "",
          "type": "uint256"
        }
      ],
      "name": "polls",
      "outputs": [
        {
          "name": "creator",
          "type": "address"
        },
        {
          "name": "status",
          "type": "uint8"
        },
        {
          "name": "quorumPercentage",
          "type": "uint256"
        },
        {
          "name": "yeaVotes",
          "type": "uint256"
        },
        {
          "name": "nayVotes",
          "type": "uint256"
        },
        {
          "name": "description",
          "type": "string"
        }
      ],
      "payable": false,
      "stateMutability": "view",
      "type": "function"
    },
    {
      "constant": true,
      "inputs": [],
      "name": "enigma",
      "outputs": [
        {
          "name": "",
          "type": "address"
        }
      ],
      "payable": false,
      "stateMutability": "view",
      "type": "function"
    },
    {
      "constant": true,
      "inputs": [],
      "name": "token",
      "outputs": [
        {
          "name": "",
          "type": "address"
        }
      ],
      "payable": false,
      "stateMutability": "view",
      "type": "function"
    },
    {
      "inputs": [
        {
          "name": "_token",
          "type": "address"
        },
        {
          "name": "_enigma",
          "type": "address"
        }
      ],
      "payable": false,
      "stateMutability": "nonpayable",
      "type": "constructor"
    },
    {
      "anonymous": false,
      "inputs": [
        {
          "indexed": false,
          "name": "voter",
          "type": "address"
        },
        {
          "indexed": false,
          "name": "pollID",
          "type": "uint256"
        },
        {
          "indexed": false,
          "name": "vote",
          "type": "uint256"
        },
        {
          "indexed": false,
          "name": "weight",
          "type": "uint256"
        }
      ],
      "name": "voteCasted",
      "type": "event"
    },
    {
      "anonymous": false,
      "inputs": [
        {
          "indexed": false,
          "name": "pollID",
          "type": "uint256"
        },
        {
          "indexed": false,
          "name": "quorumPercentage",
          "type": "uint256"
        },
        {
          "indexed": false,
          "name": "creator",
          "type": "address"
        },
        {
          "indexed": false,
          "name": "description",
          "type": "string"
        }
      ],
      "name": "pollCreated",
      "type": "event"
    },
    {
      "anonymous": false,
      "inputs": [
        {
          "indexed": false,
          "name": "status",
          "type": "bool"
        }
      ],
      "name": "pollStatusUpdate",
      "type": "event"
    },
    {
      "constant": false,
      "inputs": [
        {
          "name": "_quorumPct",
          "type": "uint256"
        },
        {
          "name": "_description",
          "type": "string"
        }
      ],
      "name": "createPoll",
      "outputs": [
        {
          "name": "",
          "type": "uint256"
        }
      ],
      "payable": false,
      "stateMutability": "nonpayable",
      "type": "function"
    },
    {
      "constant": false,
      "inputs": [
        {
          "name": "_pollID",
          "type": "uint256"
        }
      ],
      "name": "endPoll",
      "outputs": [],
      "payable": false,
      "stateMutability": "nonpayable",
      "type": "function"
    },
    {
      "constant": false,
      "inputs": [
        {
          "name": "_pollID",
          "type": "uint256"
        },
        {
          "name": "_yeaVotes",
          "type": "uint256"
        },
        {
          "name": "_nayVotes",
          "type": "uint256"
        }
      ],
      "name": "updatePollStatus",
      "outputs": [],
      "payable": false,
      "stateMutability": "nonpayable",
      "type": "function"
    },
    {
      "constant": true,
      "inputs": [
        {
          "name": "_pollID",
          "type": "uint256"
        }
      ],
      "name": "getPollStatus",
      "outputs": [
        {
          "name": "",
          "type": "uint8"
        }
      ],
      "payable": false,
      "stateMutability": "view",
      "type": "function"
    },
    {
      "constant": false,
      "inputs": [
        {
          "name": "_pollID",
          "type": "uint256"
        }
      ],
      "name": "getInfoForPoll",
      "outputs": [
        {
          "name": "",
          "type": "uint256[]"
        },
        {
          "name": "",
          "type": "uint256[]"
        }
      ],
      "payable": false,
      "stateMutability": "nonpayable",
      "type": "function"
    },
    {
      "constant": false,
      "inputs": [
        {
          "name": "_pollID",
          "type": "uint256"
        },
        {
          "name": "_encryptedVote",
          "type": "uint256"
        },
        {
          "name": "_weight",
          "type": "uint256"
        }
      ],
      "name": "castVote",
      "outputs": [],
      "payable": false,
      "stateMutability": "nonpayable",
      "type": "function"
    },
    {
      "constant": true,
      "inputs": [
        {
          "name": "_pollID",
          "type": "uint256"
        },
        {
          "name": "_votes",
          "type": "uint256[]"
        },
        {
          "name": "_weights",
          "type": "uint256[]"
        }
      ],
      "name": "countVotes",
      "outputs": [
        {
          "name": "pollID",
          "type": "uint256"
        },
        {
          "name": "yeaVotes",
          "type": "uint256"
        },
        {
          "name": "nayVotes",
          "type": "uint256"
        }
      ],
      "payable": false,
      "stateMutability": "pure",
      "type": "function"
    },
    {
      "constant": true,
      "inputs": [
        {
          "name": "_pollID",
          "type": "uint256"
        },
        {
          "name": "_user",
          "type": "address"
        }
      ],
      "name": "userHasVoted",
      "outputs": [
        {
          "name": "",
          "type": "bool"
        }
      ],
      "payable": false,
      "stateMutability": "view",
      "type": "function"
    },
    {
      "constant": false,
      "inputs": [
        {
          "name": "_pollID",
          "type": "uint256"
        }
      ],
      "name": "withdrawTokens",
      "outputs": [
        {
          "name": "",
          "type": "uint256"
        }
      ],
      "payable": false,
      "stateMutability": "nonpayable",
      "type": "function"
    }
  ],
  "bytecode": "0x608060405234801561001057600080fd5b506040516040806115cb833981016040528051602090910151600160a060020a0382161580159061004a5750600254600160a060020a0316155b151561005557600080fd5b600160a060020a038116158015906100765750600354600160a060020a0316155b151561008157600080fd5b60028054600160a060020a03938416600160a060020a0319918216179091556003805492909316911617905561150f806100bc6000396000f3006080604052600436106100c45763ffffffff7c0100000000000000000000000000000000000000000000000000000000600035041663315a095d81146100c95780634e0e931a146100f35780635be5e3ec146101135780635fc48d7e1461013157806365847632146101695780639207891d1461018d578063a23cec14146101a2578063ac2f007414610253578063b0c095e31461031d578063b24fd5c514610359578063d2025b1d1461038a578063f43b87781461043b578063fc0c546a14610453575b600080fd5b3480156100d557600080fd5b506100e1600435610468565b60408051918252519081900360200190f35b3480156100ff57600080fd5b5061011160043560243560443561067c565b005b34801561011f57600080fd5b50610111600435602435604435610862565b34801561013d57600080fd5b50610155600435600160a060020a0360243516610a63565b604080519115158252519081900360200190f35b34801561017557600080fd5b506100e1600480359060248035908101910135610aeb565b34801561019957600080fd5b506100e1610c57565b3480156101ae57600080fd5b506101ba600435610c5d565b604051808060200180602001838103835285818151815260200191508051906020019060200280838360005b838110156101fe5781810151838201526020016101e6565b50505050905001838103825284818151815260200191508051906020019060200280838360005b8381101561023d578181015183820152602001610225565b5050505090500194505050505060405180910390f35b34801561025f57600080fd5b5061026b600435610e0a565b604051600160a060020a03871681526020810186600381111561028a57fe5b60ff16815260200185815260200184815260200183815260200180602001828103825283818151815260200191508051906020019080838360005b838110156102dd5781810151838201526020016102c5565b50505050905090810190601f16801561030a5780820380516001836020036101000a031916815260200191505b5097505050505050505060405180910390f35b34801561032957600080fd5b50610335600435610eeb565b6040518082600381111561034557fe5b60ff16815260200191505060405180910390f35b34801561036557600080fd5b5061036e610f73565b60408051600160a060020a039092168252519081900360200190f35b34801561039657600080fd5b5060408051602060046024803582810135848102808701860190975280865261041d96843596369660449591949091019291829185019084908082843750506040805187358901803560208181028481018201909552818452989b9a998901989297509082019550935083925085019084908082843750949750610f829650505050505050565b60408051938452602084019290925282820152519081900360600190f35b34801561044757600080fd5b50610111600435611017565b34801561045f57600080fd5b5061036e6111d0565b6000808260008111801561047e57506001548111155b15156104c2576040805160e560020a62461bcd02815260206004820152601460248201526000805160206114c4833981519152604482015290519081900360640190fd5b60036104cd85610eeb565b60038111156104d857fe5b14806104f7575060026104ea85610eeb565b60038111156104f557fe5b145b151561054d576040805160e560020a62461bcd02815260206004820152601560248201527f506f6c6c20686173206e6f7420657870697265642e0000000000000000000000604482015290519081900360640190fd5b6105578433610a63565b15156105ad576040805160e560020a62461bcd02815260206004820152601e60248201527f5573657220646964206e6f7420766f746520696e2074686520706f6c6c2e0000604482015290519081900360640190fd5b6000848152602081815260408083203380855260069091018352818420600290810154905483517fa9059cbb0000000000000000000000000000000000000000000000000000000081526004810193909352602483018290529251909650600160a060020a039092169363a9059cbb9360448084019491939192918390030190829087803b15801561063e57600080fd5b505af1158015610652573d6000803e3d6000fd5b505050506040513d602081101561066857600080fd5b5051151561067557600080fd5b5092915050565b6000808460008111801561069257506001548111155b15156106d6576040805160e560020a62461bcd02815260206004820152601460248201526000805160206114c4833981519152604482015290519081900360640190fd5b600354600160a060020a031633146106ed57600080fd5b60016106f887610eeb565b600381111561070357fe5b14610758576040805160e560020a62461bcd02815260206004820152601960248201527f506f6c6c20686173206e6f742065787069726564207965742e00000000000000604482015290519081900360640190fd5b60008681526020819052604090206002810186905560038101859055925061079a610789868663ffffffff6111df16565b60018501549063ffffffff6111f216565b60028401546107b090606463ffffffff6111f216565b11915081156107f157825474ff0000000000000000000000000000000000000000191674020000000000000000000000000000000000000000178355610825565b825474ff00000000000000000000000000000000000000001916740300000000000000000000000000000000000000001783555b60408051831515815290517fa09418b9290be8509b4127e8df442ca7ca9aa4be676367d2a5c6586ab14253449181900360200190a1505050505050565b60008360008111801561087757506001548111155b15156108bb576040805160e560020a62461bcd02815260206004820152601460248201526000805160206114c4833981519152604482015290519081900360640190fd5b60006108c686610eeb565b60038111156108d157fe5b14610926576040805160e560020a62461bcd02815260206004820152601160248201527f506f6c6c2068617320657870697265642e000000000000000000000000000000604482015290519081900360640190fd5b6109308533610a63565b15610985576040805160e560020a62461bcd02815260206004820152601760248201527f557365722068617320616c726561647920766f7465642e000000000000000000604482015290519081900360640190fd5b61098f338461121b565b60008581526020818152604080832081516060818101845260018083528286018b81528386018b815233808a52600687018952878a209551865490151560ff19909116178655915185840155516002909401939093556005840180549182018155875295859020909501805473ffffffffffffffffffffffffffffffffffffffff1916821790558251908152928301899052828201889052928201869052519193507f24e8f28bcf1dbc2f2cbdaf38b4ed8c435d3ac3b055bd15be18b06645b29dba1d919081900360800190a15050505050565b600082600081118015610a7857506001548111155b1515610abc576040805160e560020a62461bcd02815260206004820152601460248201526000805160206114c4833981519152604482015290519081900360640190fd5b5050600091825260208281526040808420600160a060020a039390931684526006909201905290205460ff1690565b6000806064851115610b6d576040805160e560020a62461bcd02815260206004820152603460248201527f51756f72756d2050657263656e74616765206d757374206265206c657373207460448201527f68616e206f7220657175616c20746f2031303025000000000000000000000000606482015290519081900360840190fd5b506001805481018082556000908152602081905260409020805473ffffffffffffffffffffffffffffffffffffffff1916331774ff000000000000000000000000000000000000000019168155908101859055610bce600482018585611428565b507fc504d9ec32644c55801c38afe2a56cc0b06be98d7fe9debdab0fcf28fa99cf7d600154863387876040518086815260200185815260200184600160a060020a0316600160a060020a0316815260200180602001828103825284848281815260200192508082843760405192018290039850909650505050505050a150506001549392505050565b60015481565b60608060008060608060008088600081118015610c7c57506001548111155b1515610cc0576040805160e560020a62461bcd02815260206004820152601460248201526000805160206114c4833981519152604482015290519081900360640190fd5b6000610ccb8b610eeb565b6003811115610cd657fe5b1415610ce157600080fd5b60008a815260208181526040918290206005810154835181815281840281019093019093529850909650868015610d22578160200160208202803883390190505b50945085604051908082528060200260200182016040528015610d4f578160200160208202803883390190505b509350600092505b85831015610dfa5760058701805484908110610d6f57fe5b6000918252602080832090910154600160a060020a031680835260068a01909152604090912060010154865191935090869085908110610dab57fe5b6020908102909101810191909152600160a060020a03831660009081526006890190915260409020600201548451859085908110610de557fe5b60209081029091010152600190920191610d57565b5092989197509095505050505050565b600060208181529181526040908190208054600180830154600280850154600386015460048701805489516101009782161597909702600019011693909304601f81018a90048a0286018a01909852878552600160a060020a038616987401000000000000000000000000000000000000000090960460ff1697939691959094919391929190830182828015610ee15780601f10610eb657610100808354040283529160200191610ee1565b820191906000526020600020905b815481529060010190602001808311610ec457829003601f168201915b5050505050905086565b600081600081118015610f0057506001548111155b1515610f44576040805160e560020a62461bcd02815260206004820152601460248201526000805160206114c4833981519152604482015290519081900360640190fd5b505060009081526020819052604090205474010000000000000000000000000000000000000000900460ff1690565b600354600160a060020a031681565b60008060008084518651141515610f9857600080fd5b5060005b855181101561100b578581815181101515610fb357fe5b9060200190602002015160001415610fe6578481815181101515610fd357fe5b9060200190602002015182019150611003565b8481815181101515610ff457fe5b90602001906020020151830192505b600101610f9c565b50949590949350915050565b8060008111801561102a57506001548111155b151561106e576040805160e560020a62461bcd02815260206004820152601460248201526000805160206114c4833981519152604482015290519081900360640190fd5b600082815260208190526040902054600160a060020a03163314611101576040805160e560020a62461bcd028152602060048201526024808201527f55736572206973206e6f74207468652063726561746f72206f6620746865207060448201527f6f6c6c2e00000000000000000000000000000000000000000000000000000000606482015290519081900360840190fd5b6000808381526020819052604090205474010000000000000000000000000000000000000000900460ff16600381111561113757fe5b1461118c576040805160e560020a62461bcd02815260206004820152601860248201527f566f7465206973206e6f7420696e2070726f67726573732e0000000000000000604482015290519081900360640190fd5b506000908152602081905260409020805474ff0000000000000000000000000000000000000000191674010000000000000000000000000000000000000000179055565b600254600160a060020a031681565b818101828110156111ec57fe5b92915050565b6000821515611203575060006111ec565b5081810281838281151561121357fe5b04146111ec57fe5b600254604080517f70a08231000000000000000000000000000000000000000000000000000000008152600160a060020a0385811660048301529151849392909216916370a08231916024808201926020929091908290030181600087803b15801561128657600080fd5b505af115801561129a573d6000803e3d6000fd5b505050506040513d60208110156112b057600080fd5b50511015611308576040805160e560020a62461bcd02815260206004820181905260248201527f5573657220646f6573206e6f74206861766520656e6f75676820746f6b656e73604482015290519081900360640190fd5b600254604080517f23b872dd000000000000000000000000000000000000000000000000000000008152600160a060020a03858116600483015230602483015260448201859052915191909216916323b872dd9160648083019260209291908290030181600087803b15801561137d57600080fd5b505af1158015611391573d6000803e3d6000fd5b505050506040513d60208110156113a757600080fd5b50511515611424576040805160e560020a62461bcd028152602060048201526024808201527f5573657220646964206e6f7420617070726f766520746f6b656e207472616e7360448201527f6665722e00000000000000000000000000000000000000000000000000000000606482015290519081900360840190fd5b5050565b828054600181600116156101000203166002900490600052602060002090601f016020900481019282601f106114695782800160ff19823516178555611496565b82800160010185558215611496579182015b8281111561149657823582559160200191906001019061147b565b506114a29291506114a6565b5090565b6114c091905b808211156114a257600081556001016114ac565b9056004e6f7420612076616c696420706f6c6c2049642e000000000000000000000000a165627a7a72305820eab5412ce63676858d1e5f1613ad4963bba84807695569fe67cba1fb8a03e4690029",
  "source": "// Voting.sol, Andrew Tam\n// TODO:\n//  -Separate token staking from voting\n//  -Timed polls\n\npragma solidity ^0.4.24;\n\nimport \"openzeppelin-solidity/contracts/math/SafeMath.sol\";\nimport \"./VotingToken.sol\";\nimport \"./Enigma.sol\";\n\ncontract Voting {\n  using SafeMath for uint256;\n\n  /* EVENTS */\n  event voteCasted(address voter, uint256 pollID, uint256 vote, uint256 weight);\n  event pollCreated(uint256 pollID, uint256 quorumPercentage, address creator, string description);\n  event pollStatusUpdate(bool status);\n\n  /* Determine the current state of a poll */\n  enum PollStatus { IN_PROGRESS, TALLY, PASSED, REJECTED }\n\n  /* POLL */\n  struct Poll {\n    address creator;\n    PollStatus status;\n    uint256 quorumPercentage;\n    uint256 yeaVotes;\n    uint256 nayVotes;\n    string description;\n    address[] voters;\n    mapping(address => Voter) voterInfo;\n  }\n\n  /* VOTER */\n  struct Voter {\n    bool hasVoted;\n    uint256 vote;\n    uint256 weight;\n  }\n\n  mapping(uint256 => Poll) public polls;\n  uint256 public pollCount;\n  VotingToken public token;\n  Enigma public enigma;\n\n  /* CONSTRUCTOR */\n  constructor(address _token, address _enigma) public {\n    require(_token != 0 && address(token) == 0);\n    require(_enigma != 0 && address(enigma) == 0);\n    token = VotingToken(_token);\n    enigma = Enigma(_enigma);\n  }\n\n  /* POLL OPERATIONS */\n\n  /*\n   * Creates a new poll with a specified quorum percentage. Returns the poll ID of the new poll.\n   */\n  function createPoll(uint256 _quorumPct, string _description) external returns(uint256) {\n    require(_quorumPct <= 100, \"Quorum Percentage must be less than or equal to 100%\");\n    pollCount++;\n\n    Poll storage curPoll = polls[pollCount];\n    curPoll.creator = msg.sender;\n    curPoll.status = PollStatus.IN_PROGRESS;\n    curPoll.quorumPercentage = _quorumPct;\n    curPoll.description = _description;\n\n    emit pollCreated(pollCount, _quorumPct, msg.sender, _description);\n    return pollCount;\n  }\n\n  /*\n   * Ends a poll. Only the creator of a given poll can end that poll.\n   */\n  function endPoll(uint256 _pollID) public validPoll(_pollID) {\n    require(msg.sender == polls[_pollID].creator, \"User is not the creator of the poll.\");\n    require(polls[_pollID].status == PollStatus.IN_PROGRESS, \"Vote is not in progress.\");\n    polls[_pollID].status = PollStatus.TALLY;\n  }\n\n  /*\n   * Modifier that checks for a valid poll ID.\n   */\n  modifier validPoll(uint256 _pollID) {\n    require(_pollID > 0 && _pollID <= pollCount, \"Not a valid poll Id.\");\n    _;\n  }\n\n  /*\n   * Checks if a poll was approved given the quorum percentage.\n   * URGENT NOTE: The onlyEnigma modifier is currently commented out.\n   */\n  function updatePollStatus(uint256 _pollID, uint256 _yeaVotes, uint256 _nayVotes) public validPoll(_pollID)\n    onlyEnigma() /* Add back for final launch */\n    {\n    require(getPollStatus(_pollID) == PollStatus.TALLY, \"Poll has not expired yet.\");\n    Poll storage curPoll = polls[_pollID];\n    curPoll.yeaVotes = _yeaVotes;\n    curPoll.nayVotes = _nayVotes;\n\n    bool pollStatus = (curPoll.yeaVotes.mul(100)) > curPoll.quorumPercentage.mul(curPoll.yeaVotes.add(curPoll.nayVotes));\n    if (pollStatus) {\n      curPoll.status = PollStatus.PASSED;\n    }\n    else {\n      curPoll.status = PollStatus.REJECTED;\n    }\n\n    emit pollStatusUpdate(pollStatus);\n  }\n\n  /*\n   * Gets the status of a poll.\n   */\n  function getPollStatus(uint256 _pollID) public view validPoll(_pollID) returns (PollStatus) {\n    return polls[_pollID].status;\n  }\n\n  /*\n   * Modifier that checks that the contract caller is the Enigma contract.\n   */\n  modifier onlyEnigma() {\n    require(msg.sender == address(enigma));\n    _;\n  }\n\n  /*\n   * Gets the encrypted votes and weights for a given poll after it has ended.\n   */\n  function getInfoForPoll(uint256 _pollID) public validPoll(_pollID) returns (uint256[], uint256[]) {\n    require(getPollStatus(_pollID) != PollStatus.IN_PROGRESS);\n    Poll storage curPoll = polls[_pollID];\n    uint256 numVoters = curPoll.voters.length;\n    uint256[] memory votes = new uint256[](numVoters);\n    uint256[] memory weights = new uint256[](numVoters);\n    for (uint256 i = 0; i < numVoters; i++) {\n      address curVoter = curPoll.voters[i];\n      votes[i] = curPoll.voterInfo[curVoter].vote;\n      weights[i] = curPoll.voterInfo[curVoter].weight;\n    }\n    return (votes, weights);\n  }\n\n  /* VOTE OPERATIONS */\n\n  /*\n   * Casts a vote for a given poll. Stakes ERC20 tokens as votes.\n   * NOTE: _weight is denominated in *wei*.\n   */\n  function castVote(uint256 _pollID, uint256 _encryptedVote, uint256 _weight) external validPoll(_pollID) {\n    require(getPollStatus(_pollID) == PollStatus.IN_PROGRESS, \"Poll has expired.\");\n    require(!userHasVoted(_pollID, msg.sender), \"User has already voted.\");\n    stakeVotingTokens(msg.sender, _weight);\n\n    Poll storage curPoll = polls[_pollID];\n\n    curPoll.voterInfo[msg.sender] = Voter({\n        hasVoted: true,\n        vote: _encryptedVote,\n        weight: _weight\n    });\n\n    curPoll.voters.push(msg.sender);\n\n    emit voteCasted(msg.sender, _pollID, _encryptedVote, _weight);\n  }\n\n  /*\n   * The callable function that is computed by the SGX node.\n   */\n  function countVotes(uint256 _pollID, uint256[] _votes, uint256[] _weights) public pure returns (uint256 pollID, uint256 yeaVotes, uint256 nayVotes) {\n    require(_votes.length == _weights.length);\n    for (uint256 i = 0; i < _votes.length; i++) {\n      if (_votes[i] == 0) nayVotes += _weights[i];\n      else yeaVotes += _weights[i];\n    }\n    return (_pollID, yeaVotes, nayVotes);\n  }\n\n  /*\n   * Checks if a user has voted for a specific poll.\n   */\n  function userHasVoted(uint256 _pollID, address _user) public view validPoll(_pollID) returns (bool) {\n    return (polls[_pollID].voterInfo[_user].hasVoted);\n  }\n\n  /* TOKEN OPERATIONS */\n\n  /*\n   * Internal function that stakes tokens for a given voter.\n   * NOTE:\n   *  User must approve transfer of tokens.\n   *  _numTokens is denominated in *wei*.\n   *  Might add support for staking more tokens.\n   */\n  function stakeVotingTokens(address _voter, uint256 _numTokens) internal {\n    require(token.balanceOf(_voter) >= _numTokens, \"User does not have enough tokens\");\n    require(token.transferFrom(_voter, this, _numTokens), \"User did not approve token transfer.\");\n  }\n\n  /*\n   * Allows a voter to withdraw voting tokens after a poll has ended.\n   * NOTE: _numTokens is denominated in *wei*.\n   */\n  function withdrawTokens(uint256 _pollID) external validPoll(_pollID) returns(uint256) {\n    require(getPollStatus(_pollID) == PollStatus.REJECTED ||  getPollStatus(_pollID) == PollStatus.PASSED, \"Poll has not expired.\");\n    require(userHasVoted(_pollID, msg.sender), \"User did not vote in the poll.\");\n    uint256 weight = polls[_pollID].voterInfo[msg.sender].weight;\n    require(token.transfer(msg.sender, weight));\n    return weight;\n  }\n\n}\n",
  "sourcePath": "/Users/andrew/Desktop/Andrew/secret-contracts/secret-contracts/contracts/Voting.sol",
  "compiler": {
    "name": "solc",
    "version": "0.4.24+commit.e67f0147.Emscripten.clang"
  },
  "schemaVersion": "2.0.1",
  "updatedAt": "2018-08-01T01:51:28.224Z"
}