{
  "contractName": "Voting",
  "abi": [
    {
      "constant": true,
      "inputs": [],
      "name": "pollCount",
      "outputs": [
        {
          "name": "",
          "type": "uint256"
        }
      ],
      "payable": false,
      "stateMutability": "view",
      "type": "function"
    },
    {
      "constant": true,
      "inputs": [
        {
          "name": "",
          "type": "uint256"
        }
      ],
      "name": "polls",
      "outputs": [
        {
          "name": "creator",
          "type": "address"
        },
        {
          "name": "status",
          "type": "uint8"
        },
        {
          "name": "quorumPercentage",
          "type": "uint256"
        },
        {
          "name": "yeaVotes",
          "type": "uint256"
        },
        {
          "name": "nayVotes",
          "type": "uint256"
        },
        {
          "name": "numVoters",
          "type": "uint256"
        },
        {
          "name": "description",
          "type": "string"
        }
      ],
      "payable": false,
      "stateMutability": "view",
      "type": "function"
    },
    {
      "constant": true,
      "inputs": [],
      "name": "enigma",
      "outputs": [
        {
          "name": "",
          "type": "address"
        }
      ],
      "payable": false,
      "stateMutability": "view",
      "type": "function"
    },
    {
      "constant": true,
      "inputs": [],
      "name": "token",
      "outputs": [
        {
          "name": "",
          "type": "address"
        }
      ],
      "payable": false,
      "stateMutability": "view",
      "type": "function"
    },
    {
      "inputs": [
        {
          "name": "_token",
          "type": "address"
        },
        {
          "name": "_enigmaAddress",
          "type": "address"
        }
      ],
      "payable": false,
      "stateMutability": "nonpayable",
      "type": "constructor"
    },
    {
      "anonymous": false,
      "inputs": [
        {
          "indexed": false,
          "name": "voter",
          "type": "address"
        },
        {
          "indexed": false,
          "name": "pollId",
          "type": "uint256"
        },
        {
          "indexed": false,
          "name": "vote",
          "type": "uint256"
        },
        {
          "indexed": false,
          "name": "weight",
          "type": "uint256"
        }
      ],
      "name": "voteCasted",
      "type": "event"
    },
    {
      "anonymous": false,
      "inputs": [
        {
          "indexed": false,
          "name": "pollId",
          "type": "uint256"
        },
        {
          "indexed": false,
          "name": "quorumPercentage",
          "type": "uint256"
        },
        {
          "indexed": false,
          "name": "creator",
          "type": "address"
        },
        {
          "indexed": false,
          "name": "description",
          "type": "string"
        }
      ],
      "name": "pollCreated",
      "type": "event"
    },
    {
      "anonymous": false,
      "inputs": [
        {
          "indexed": false,
          "name": "status",
          "type": "bool"
        }
      ],
      "name": "pollPassed",
      "type": "event"
    },
    {
      "constant": false,
      "inputs": [
        {
          "name": "_quorumPct",
          "type": "uint256"
        },
        {
          "name": "_description",
          "type": "string"
        }
      ],
      "name": "createPoll",
      "outputs": [],
      "payable": false,
      "stateMutability": "nonpayable",
      "type": "function"
    },
    {
      "constant": false,
      "inputs": [
        {
          "name": "_pollId",
          "type": "uint256"
        }
      ],
      "name": "endPoll",
      "outputs": [],
      "payable": false,
      "stateMutability": "nonpayable",
      "type": "function"
    },
    {
      "constant": false,
      "inputs": [
        {
          "name": "_pollId",
          "type": "uint256"
        },
        {
          "name": "_yeaVotes",
          "type": "uint256"
        },
        {
          "name": "_nayVotes",
          "type": "uint256"
        }
      ],
      "name": "updatePollStatus",
      "outputs": [
        {
          "name": "",
          "type": "bool"
        }
      ],
      "payable": false,
      "stateMutability": "nonpayable",
      "type": "function"
    },
    {
      "constant": true,
      "inputs": [
        {
          "name": "_pollId",
          "type": "uint256"
        }
      ],
      "name": "getPollStatus",
      "outputs": [
        {
          "name": "status",
          "type": "uint8"
        }
      ],
      "payable": false,
      "stateMutability": "view",
      "type": "function"
    },
    {
      "constant": true,
      "inputs": [
        {
          "name": "_pollId",
          "type": "uint256"
        },
        {
          "name": "_votes",
          "type": "uint256[]"
        },
        {
          "name": "_weights",
          "type": "uint256[]"
        }
      ],
      "name": "countVotes",
      "outputs": [
        {
          "name": "pollId",
          "type": "uint256"
        },
        {
          "name": "yeaVotes",
          "type": "uint256"
        },
        {
          "name": "nayVotes",
          "type": "uint256"
        }
      ],
      "payable": false,
      "stateMutability": "pure",
      "type": "function"
    },
    {
      "constant": false,
      "inputs": [
        {
          "name": "_pollId",
          "type": "uint256"
        },
        {
          "name": "_encryptedVote",
          "type": "uint256"
        },
        {
          "name": "_weight",
          "type": "uint256"
        }
      ],
      "name": "castVote",
      "outputs": [],
      "payable": false,
      "stateMutability": "nonpayable",
      "type": "function"
    },
    {
      "constant": true,
      "inputs": [
        {
          "name": "_pollId",
          "type": "uint256"
        },
        {
          "name": "_user",
          "type": "address"
        }
      ],
      "name": "userHasVoted",
      "outputs": [
        {
          "name": "hasVoted",
          "type": "bool"
        }
      ],
      "payable": false,
      "stateMutability": "view",
      "type": "function"
    },
    {
      "constant": false,
      "inputs": [
        {
          "name": "_numTokens",
          "type": "uint256"
        },
        {
          "name": "_pollId",
          "type": "uint256"
        }
      ],
      "name": "withdrawTokens",
      "outputs": [],
      "payable": false,
      "stateMutability": "nonpayable",
      "type": "function"
    }
  ],
  "bytecode": "0x608060405234801561001057600080fd5b5060405160408061135083398101604052805160209091015160028054600160a060020a03938416600160a060020a031991821617909155600380549390921692169190911790556112e9806100676000396000f3006080604052600436106100b95763ffffffff7c01000000000000000000000000000000000000000000000000000000006000350416634e0e931a81146100be5780635be5e3ec146100f05780635fc48d7e1461011057806365847632146101345780639207891d14610158578063ac2f00741461017f578063b0c095e314610250578063b24fd5c51461028c578063ba7bd2aa146102bd578063d2025b1d146102d8578063f43b877814610389578063fc0c546a146103a1575b600080fd5b3480156100ca57600080fd5b506100dc6004356024356044356103b6565b604080519115158252519081900360200190f35b3480156100fc57600080fd5b5061010e600435602435604435610589565b005b34801561011c57600080fd5b506100dc600435600160a060020a0360243516610764565b34801561014057600080fd5b5061010e6004803590602480359081019101356107ec565b34801561016457600080fd5b5061016d610951565b60408051918252519081900360200190f35b34801561018b57600080fd5b50610197600435610957565b604051600160a060020a0388168152602081018760038111156101b657fe5b60ff16815260200186815260200185815260200184815260200183815260200180602001828103825283818151815260200191508051906020019080838360005b8381101561020f5781810151838201526020016101f7565b50505050905090810190601f16801561023c5780820380516001836020036101000a031916815260200191505b509850505050505050505060405180910390f35b34801561025c57600080fd5b50610268600435610a3f565b6040518082600381111561027857fe5b60ff16815260200191505060405180910390f35b34801561029857600080fd5b506102a1610ac7565b60408051600160a060020a039092168252519081900360200190f35b3480156102c957600080fd5b5061010e600435602435610ad6565b3480156102e457600080fd5b5060408051602060046024803582810135848102808701860190975280865261036b96843596369660449591949091019291829185019084908082843750506040805187358901803560208181028481018201909552818452989b9a998901989297509082019550935083925085019084908082843750949750610d5c9650505050505050565b60408051938452602084019290925282820152519081900360600190f35b34801561039557600080fd5b5061010e600435610df1565b3480156103ad57600080fd5b506102a1610faa565b6000806000856000811180156103ce57506001548111155b1515610412576040805160e560020a62461bcd028152602060048201526014602482015260008051602061129e833981519152604482015290519081900360640190fd5b600161041d88610a3f565b600381111561042857fe5b1461047d576040805160e560020a62461bcd02815260206004820152601960248201527f506f6c6c20686173206e6f742065787069726564207965742e00000000000000604482015290519081900360640190fd5b6000878152602081905260409020600281018790556003810186905592506104bf6104ae878763ffffffff610fb916565b60018501549063ffffffff610fcc16565b60028401546104d590606463ffffffff610fcc16565b119150811561051657825474ff000000000000000000000000000000000000000019167402000000000000000000000000000000000000000017835561054a565b825474ff00000000000000000000000000000000000000001916740300000000000000000000000000000000000000001783555b60408051831515815290517f6d159032c96b1814e4098508b3ee8411d61418775de83eca0ae80972a779b63e9181900360200190a15095945050505050565b60008360008111801561059e57506001548111155b15156105e2576040805160e560020a62461bcd028152602060048201526014602482015260008051602061129e833981519152604482015290519081900360640190fd5b60006105ed86610a3f565b60038111156105f857fe5b1461064d576040805160e560020a62461bcd02815260206004820152601160248201527f506f6c6c2068617320657870697265642e000000000000000000000000000000604482015290519081900360640190fd5b6106578533610764565b156106ac576040805160e560020a62461bcd02815260206004820152601760248201527f557365722068617320616c726561647920766f7465642e000000000000000000604482015290519081900360640190fd5b6106b63384610ff5565b60008581526020818152604080832081516060808201845260018083528286018b81528386018b815233808a52600687018952988790209451855460ff1916901515178555905184830155516002909301929092556004830180549092019091558251948552928401899052838201889052918301869052519093507f24e8f28bcf1dbc2f2cbdaf38b4ed8c435d3ac3b055bd15be18b06645b29dba1d916080908290030190a15050505050565b60008260008111801561077957506001548111155b15156107bd576040805160e560020a62461bcd028152602060048201526014602482015260008051602061129e833981519152604482015290519081900360640190fd5b5050600091825260208281526040808420600160a060020a039390931684526006909201905290205460ff1690565b6000606484111561086d576040805160e560020a62461bcd02815260206004820152603460248201527f51756f72756d2050657263656e74616765206d757374206265206c657373207460448201527f68616e206f7220657175616c20746f2031303025000000000000000000000000606482015290519081900360840190fd5b506001805481018082556000908152602081905260409020805473ffffffffffffffffffffffffffffffffffffffff1916331774ff0000000000000000000000000000000000000000191681559081018490556108ce600582018484611202565b507fc504d9ec32644c55801c38afe2a56cc0b06be98d7fe9debdab0fcf28fa99cf7d600154853386866040518086815260200185815260200184600160a060020a0316600160a060020a0316815260200180602001828103825284848281815260200192508082843760405192018290039850909650505050505050a150505050565b60015481565b600060208181529181526040908190208054600180830154600280850154600386015460048701546005880180548a516101009882161598909802600019011694909404601f81018b90048b0287018b01909952888652600160a060020a038716997401000000000000000000000000000000000000000090970460ff16989497929691959094929390929091830182828015610a355780601f10610a0a57610100808354040283529160200191610a35565b820191906000526020600020905b815481529060010190602001808311610a1857829003601f168201915b5050505050905087565b600081600081118015610a5457506001548111155b1515610a98576040805160e560020a62461bcd028152602060048201526014602482015260008051602061129e833981519152604482015290519081900360640190fd5b505060009081526020819052604090205474010000000000000000000000000000000000000000900460ff1690565b600354600160a060020a031681565b80600081118015610ae957506001548111155b1515610b2d576040805160e560020a62461bcd028152602060048201526014602482015260008051602061129e833981519152604482015290519081900360640190fd5b6003610b3883610a3f565b6003811115610b4357fe5b1480610b6257506002610b5583610a3f565b6003811115610b6057fe5b145b1515610bb8576040805160e560020a62461bcd02815260206004820152601560248201527f506f6c6c20686173206e6f7420657870697265642e0000000000000000000000604482015290519081900360640190fd5b610bc28233610764565b1515610c18576040805160e560020a62461bcd02815260206004820152601e60248201527f5573657220646964206e6f7420766f746520696e2074686520706f6c6c2e0000604482015290519081900360640190fd5b600082815260208181526040808320338452600601909152902060020154831115610cb3576040805160e560020a62461bcd02815260206004820152602b60248201527f5573657220697320747279696e6720746f20776974686472617720746f6f206d60448201527f616e7920746f6b656e732e000000000000000000000000000000000000000000606482015290519081900360840190fd5b600254604080517fa9059cbb000000000000000000000000000000000000000000000000000000008152336004820152602481018690529051600160a060020a039092169163a9059cbb916044808201926020929091908290030181600087803b158015610d2057600080fd5b505af1158015610d34573d6000803e3d6000fd5b505050506040513d6020811015610d4a57600080fd5b50511515610d5757600080fd5b505050565b60008060008084518651141515610d7257600080fd5b5060005b8551811015610de5578581815181101515610d8d57fe5b9060200190602002015160001415610dc0578481815181101515610dad57fe5b9060200190602002015182019150610ddd565b8481815181101515610dce57fe5b90602001906020020151830192505b600101610d76565b50949590949350915050565b80600081118015610e0457506001548111155b1515610e48576040805160e560020a62461bcd028152602060048201526014602482015260008051602061129e833981519152604482015290519081900360640190fd5b600082815260208190526040902054600160a060020a03163314610edb576040805160e560020a62461bcd028152602060048201526024808201527f55736572206973206e6f74207468652063726561746f72206f6620746865207060448201527f6f6c6c2e00000000000000000000000000000000000000000000000000000000606482015290519081900360840190fd5b6000808381526020819052604090205474010000000000000000000000000000000000000000900460ff166003811115610f1157fe5b14610f66576040805160e560020a62461bcd02815260206004820152601860248201527f566f7465206973206e6f7420696e2070726f67726573732e0000000000000000604482015290519081900360640190fd5b506000908152602081905260409020805474ff0000000000000000000000000000000000000000191674010000000000000000000000000000000000000000179055565b600254600160a060020a031681565b81810182811015610fc657fe5b92915050565b6000821515610fdd57506000610fc6565b50818102818382811515610fed57fe5b0414610fc657fe5b600254604080517f70a08231000000000000000000000000000000000000000000000000000000008152600160a060020a0385811660048301529151849392909216916370a08231916024808201926020929091908290030181600087803b15801561106057600080fd5b505af1158015611074573d6000803e3d6000fd5b505050506040513d602081101561108a57600080fd5b505110156110e2576040805160e560020a62461bcd02815260206004820181905260248201527f5573657220646f6573206e6f74206861766520656e6f75676820746f6b656e73604482015290519081900360640190fd5b600254604080517f23b872dd000000000000000000000000000000000000000000000000000000008152600160a060020a03858116600483015230602483015260448201859052915191909216916323b872dd9160648083019260209291908290030181600087803b15801561115757600080fd5b505af115801561116b573d6000803e3d6000fd5b505050506040513d602081101561118157600080fd5b505115156111fe576040805160e560020a62461bcd028152602060048201526024808201527f5573657220646964206e6f7420617070726f766520746f6b656e207472616e7360448201527f6665722e00000000000000000000000000000000000000000000000000000000606482015290519081900360840190fd5b5050565b828054600181600116156101000203166002900490600052602060002090601f016020900481019282601f106112435782800160ff19823516178555611270565b82800160010185558215611270579182015b82811115611270578235825591602001919060010190611255565b5061127c929150611280565b5090565b61129a91905b8082111561127c5760008155600101611286565b9056004e6f7420612076616c696420706f6c6c2049642e000000000000000000000000a165627a7a723058205b8449d94080ad446fc8a82bd684bf2212d4fa7132d44d750bdca6c3b0d56d4f0029",
  "source": "// Voting.sol, Andrew Tam\n// NOTE: Anyone can vote and create a poll, prone to Sybil attacks.\n// Also, note that the creator of a poll can vote in the poll itself. Maybe\n// add functionality for having a cost to creating a poll.\npragma solidity ^0.4.24;\n\nimport \"openzeppelin-solidity/contracts/math/SafeMath.sol\";\nimport \"./VotingToken.sol\";\nimport \"./Enigma.sol\";\n\ncontract Voting {\n  using SafeMath for uint256;\n\n  /* EVENTS */\n  event voteCasted(address voter, uint256 pollId, uint256 vote, uint256 weight);\n  event pollCreated(uint256 pollId, uint256 quorumPercentage, address creator, string description);\n  event pollPassed(bool status);\n\n  /* Determine the current state of a poll */\n  enum PollStatus { IN_PROGRESS, TALLY, PASSED, REJECTED }\n\n  /* POLL */\n  struct Poll {\n    address creator;\n    PollStatus status;\n    uint256 quorumPercentage;\n    uint256 yeaVotes;\n    uint256 nayVotes;\n    uint256 numVoters;  // Currently not used\n    string description;\n    mapping(address => Voter) voters;\n  }\n\n  /* VOTER */\n  struct Voter {\n    bool hasVoted;\n    // vote will be encrypted in the future\n    uint256 vote;\n    uint256 weight;\n  }\n\n  mapping(uint256 => Poll) public polls;\n  uint256 public pollCount;\n  VotingToken public token;\n  Enigma public enigma;\n\n  /* CONSTRUCTOR */\n  constructor(address _token, address _enigmaAddress) public {\n    token = VotingToken(_token);\n    enigma = Enigma(_enigmaAddress);\n  }\n\n  /*\n   * Creates a new poll with a specified quorum percentage. Returns the poll ID of the new poll.\n   */\n  function createPoll(uint256 _quorumPct, string _description) external {\n    require(_quorumPct <= 100, \"Quorum Percentage must be less than or equal to 100%\");\n    pollCount++;\n\n    Poll storage curPoll = polls[pollCount];\n    curPoll.creator = msg.sender;\n    curPoll.status = PollStatus.IN_PROGRESS;\n    curPoll.quorumPercentage = _quorumPct;\n    curPoll.description = _description;\n\n    emit pollCreated(pollCount, _quorumPct, msg.sender, _description);\n  }\n\n  function endPoll(uint256 _pollId) public validPoll(_pollId) {\n    require(msg.sender == polls[_pollId].creator, \"User is not the creator of the poll.\");\n    require(polls[_pollId].status == PollStatus.IN_PROGRESS, \"Vote is not in progress.\");\n    polls[_pollId].status = PollStatus.TALLY;\n  }\n\n  /*\n   * Modifier that checks for a valid poll ID.\n   */\n  modifier validPoll(uint256 _pollId) {\n    require(_pollId > 0 && _pollId <= pollCount, \"Not a valid poll Id.\");\n    _;\n  }\n\n  /*\n   * Checks if a poll was approved given the quorum percentage.\n   * URGENT NOTE: The onlyEnigma modifier is currently commented out.\n   */\n  function updatePollStatus(uint256 _pollId, uint256 _yeaVotes, uint256 _nayVotes) public validPoll(_pollId)\n    // onlyEnigma() /* Add back for final launch */\n    returns (bool)\n    {\n    require(getPollStatus(_pollId) == PollStatus.TALLY, \"Poll has not expired yet.\");\n    Poll storage curPoll = polls[_pollId];\n    curPoll.yeaVotes = _yeaVotes;\n    curPoll.nayVotes = _nayVotes;\n\n    bool pollStatus = (curPoll.yeaVotes.mul(100)) > curPoll.quorumPercentage.mul(curPoll.yeaVotes.add(curPoll.nayVotes));\n    if (pollStatus) {\n      curPoll.status = PollStatus.PASSED;\n    }\n    else {\n      curPoll.status = PollStatus.REJECTED;\n    }\n\n    emit pollPassed(pollStatus);\n    return pollStatus;\n  }\n\n  /*\n   * Gets the status of a poll.\n   */\n  function getPollStatus(uint256 _pollId) public view validPoll(_pollId) returns (PollStatus status) {\n    return polls[_pollId].status;\n  }\n\n  /*\n   * Modifier that checks that the contract caller is the Enigma contract.\n   */\n  modifier onlyEnigma() {\n    require(msg.sender == address(enigma));\n    _;\n  }\n\n  /*\n   * The callable function that is computed by the SGX node.\n   */\n  function countVotes(uint256 _pollId, uint256[] _votes, uint256[] _weights) public pure returns (uint256 pollId, uint256 yeaVotes, uint256 nayVotes) {\n    require(_votes.length == _weights.length);\n    for (uint256 i = 0; i < _votes.length; i++) {\n      if (_votes[i] == 0) nayVotes += _weights[i];\n      else yeaVotes += _weights[i];\n    }\n    return (_pollId, yeaVotes, nayVotes);\n  }\n\n  /*\n   * Casts a vote for a given poll. Stakes ERC20 tokens as votes.\n   * NOTE: _weight is denominated in *wei*.\n   */\n  function castVote(uint256 _pollId, uint256 _encryptedVote, uint256 _weight) external validPoll(_pollId) {\n    require(getPollStatus(_pollId) == PollStatus.IN_PROGRESS, \"Poll has expired.\");\n    require(!userHasVoted(_pollId, msg.sender), \"User has already voted.\");\n    stakeVotingTokens(msg.sender, _weight);\n\n    Poll storage curPoll = polls[_pollId];\n\n    curPoll.voters[msg.sender] = Voter({\n        hasVoted: true,\n        vote: _encryptedVote,\n        weight: _weight\n    });\n\n    curPoll.numVoters++;\n    emit voteCasted(msg.sender, _pollId, _encryptedVote, _weight);\n  }\n\n  /*\n   * Checks if a user has voted for a specific poll.\n   */\n  function userHasVoted(uint256 _pollId, address _user) public view validPoll(_pollId) returns (bool hasVoted) {\n    return (polls[_pollId].voters[_user].hasVoted);\n  }\n\n  /*\n   * Internal function that stakes tokens for a given voter.\n   * NOTE:\n   *  User must approve transfer of tokens.\n   *  _numTokens is denominated in *wei*.\n   *  Might add support for staking more tokens.\n   */\n  function stakeVotingTokens(address _voter, uint256 _numTokens) internal {\n    require(token.balanceOf(_voter) >= _numTokens, \"User does not have enough tokens\");\n    require(token.transferFrom(_voter, this, _numTokens), \"User did not approve token transfer.\");\n  }\n\n  /*\n   * Allows a voter to withdraw voting tokens after a poll has ended.\n   * NOTE: _numTokens is denominated in *wei*.\n   */\n  function withdrawTokens(uint256 _numTokens, uint256 _pollId) external validPoll(_pollId) {\n    require(getPollStatus(_pollId) == PollStatus.REJECTED ||  getPollStatus(_pollId) == PollStatus.PASSED, \"Poll has not expired.\");\n    require(userHasVoted(_pollId, msg.sender), \"User did not vote in the poll.\");\n    require(_numTokens <= polls[_pollId].voters[msg.sender].weight, \"User is trying to withdraw too many tokens.\");\n    require(token.transfer(msg.sender, _numTokens));\n  }\n\n\n}\n",
  "sourcePath": "/Users/andrew/Desktop/Andrew/secret-contracts/secret-contracts/contracts/Voting.sol",
  "compiler": {
    "name": "solc",
    "version": "0.4.24+commit.e67f0147.Emscripten.clang"
  },
  "schemaVersion": "2.0.1",
  "updatedAt": "2018-07-19T21:51:06.071Z"
}