{
  "contractName": "Voting",
  "abi": [
    {
      "constant": true,
      "inputs": [],
      "name": "pollCount",
      "outputs": [
        {
          "name": "",
          "type": "uint256"
        }
      ],
      "payable": false,
      "stateMutability": "view",
      "type": "function"
    },
    {
      "constant": true,
      "inputs": [
        {
          "name": "",
          "type": "uint256"
        }
      ],
      "name": "polls",
      "outputs": [
        {
          "name": "revealDate",
          "type": "uint256"
        },
        {
          "name": "quorumPercentage",
          "type": "uint256"
        },
        {
          "name": "yeaVotes",
          "type": "uint256"
        },
        {
          "name": "nayVotes",
          "type": "uint256"
        },
        {
          "name": "numVoters",
          "type": "uint256"
        },
        {
          "name": "description",
          "type": "string"
        }
      ],
      "payable": false,
      "stateMutability": "view",
      "type": "function"
    },
    {
      "constant": true,
      "inputs": [],
      "name": "token",
      "outputs": [
        {
          "name": "",
          "type": "address"
        }
      ],
      "payable": false,
      "stateMutability": "view",
      "type": "function"
    },
    {
      "inputs": [
        {
          "name": "_token",
          "type": "address"
        }
      ],
      "payable": false,
      "stateMutability": "nonpayable",
      "type": "constructor"
    },
    {
      "anonymous": false,
      "inputs": [
        {
          "indexed": false,
          "name": "voter",
          "type": "address"
        },
        {
          "indexed": false,
          "name": "pollId",
          "type": "uint256"
        },
        {
          "indexed": false,
          "name": "vote",
          "type": "bool"
        },
        {
          "indexed": false,
          "name": "weight",
          "type": "uint256"
        }
      ],
      "name": "voteCasted",
      "type": "event"
    },
    {
      "anonymous": false,
      "inputs": [
        {
          "indexed": false,
          "name": "pollId",
          "type": "uint256"
        },
        {
          "indexed": false,
          "name": "quorumPercentage",
          "type": "uint256"
        },
        {
          "indexed": false,
          "name": "votingTime",
          "type": "uint256"
        },
        {
          "indexed": false,
          "name": "description",
          "type": "string"
        }
      ],
      "name": "pollCreated",
      "type": "event"
    },
    {
      "constant": false,
      "inputs": [
        {
          "name": "_quorumPct",
          "type": "uint256"
        },
        {
          "name": "_votingTime",
          "type": "uint256"
        },
        {
          "name": "_description",
          "type": "string"
        }
      ],
      "name": "createPoll",
      "outputs": [
        {
          "name": "pollId",
          "type": "uint256"
        }
      ],
      "payable": false,
      "stateMutability": "nonpayable",
      "type": "function"
    },
    {
      "constant": true,
      "inputs": [
        {
          "name": "_pollId",
          "type": "uint256"
        }
      ],
      "name": "isPollPassed",
      "outputs": [
        {
          "name": "pollStatus",
          "type": "bool"
        }
      ],
      "payable": false,
      "stateMutability": "view",
      "type": "function"
    },
    {
      "constant": true,
      "inputs": [
        {
          "name": "_pollId",
          "type": "uint256"
        }
      ],
      "name": "isPollExpired",
      "outputs": [
        {
          "name": "pollExpired",
          "type": "bool"
        }
      ],
      "payable": false,
      "stateMutability": "view",
      "type": "function"
    },
    {
      "constant": false,
      "inputs": [
        {
          "name": "_pollId",
          "type": "uint256"
        },
        {
          "name": "_voteStatus",
          "type": "bool"
        },
        {
          "name": "_weight",
          "type": "uint256"
        }
      ],
      "name": "castVote",
      "outputs": [],
      "payable": false,
      "stateMutability": "nonpayable",
      "type": "function"
    },
    {
      "constant": true,
      "inputs": [
        {
          "name": "_pollId",
          "type": "uint256"
        },
        {
          "name": "_user",
          "type": "address"
        }
      ],
      "name": "userHasVoted",
      "outputs": [
        {
          "name": "hasVoted",
          "type": "bool"
        }
      ],
      "payable": false,
      "stateMutability": "view",
      "type": "function"
    },
    {
      "constant": false,
      "inputs": [
        {
          "name": "_numTokens",
          "type": "uint256"
        },
        {
          "name": "_pollId",
          "type": "uint256"
        }
      ],
      "name": "withdrawTokens",
      "outputs": [],
      "payable": false,
      "stateMutability": "nonpayable",
      "type": "function"
    }
  ],
  "bytecode": "0x608060405234801561001057600080fd5b5060405160208061134d8339810180604052810190808051906020019092919050505080600260006101000a81548173ffffffffffffffffffffffffffffffffffffffff021916908373ffffffffffffffffffffffffffffffffffffffff160217905550506112c9806100846000396000f300608060405260043610610099576000357c0100000000000000000000000000000000000000000000000000000000900463ffffffff1680635fc48d7e1461009e5780636036e9e01461010357806381b4d5ec146101465780639207891d146101a9578063ac2f0074146101d4578063ae1203c01461029d578063ba7bd2aa146102e2578063eedb518914610319578063fc0c546a1461035e575b600080fd5b3480156100aa57600080fd5b506100e960048036038101908080359060200190929190803573ffffffffffffffffffffffffffffffffffffffff1690602001909291905050506103b5565b604051808215151515815260200191505060405180910390f35b34801561010f57600080fd5b5061014460048036038101908080359060200190929190803515159060200190929190803590602001909291905050506104aa565b005b34801561015257600080fd5b5061019360048036038101908080359060200190929190803590602001909291908035906020019082018035906020019190919293919293905050506107e1565b6040518082815260200191505060405180910390f35b3480156101b557600080fd5b506101be61095c565b6040518082815260200191505060405180910390f35b3480156101e057600080fd5b506101ff60048036038101908080359060200190929190505050610962565b6040518087815260200186815260200185815260200184815260200183815260200180602001828103825283818151815260200191508051906020019080838360005b8381101561025d578082015181840152602081019050610242565b50505050905090810190601f16801561028a5780820380516001836020036101000a031916815260200191505b5097505050505050505060405180910390f35b3480156102a957600080fd5b506102c860048036038101908080359060200190929190505050610a36565b604051808215151515815260200191505060405180910390f35b3480156102ee57600080fd5b506103176004803603810190808035906020019092919080359060200190929190505050610ae0565b005b34801561032557600080fd5b5061034460048036038101908080359060200190929190505050610e1f565b604051808215151515815260200191505060405180910390f35b34801561036a57600080fd5b50610373611074565b604051808273ffffffffffffffffffffffffffffffffffffffff1673ffffffffffffffffffffffffffffffffffffffff16815260200191505060405180910390f35b6000826000811180156103ca57506001548111155b151561043e576040517f08c379a00000000000000000000000000000000000000000000000000000000081526004018080602001828103825260148152602001807f4e6f7420612076616c696420706f6c6c2049642e00000000000000000000000081525060200191505060405180910390fd5b60008085815260200190815260200160002060060160008473ffffffffffffffffffffffffffffffffffffffff1673ffffffffffffffffffffffffffffffffffffffff16815260200190815260200160002060000160009054906101000a900460ff1691505092915050565b6000836000811180156104bf57506001548111155b1515610533576040517f08c379a00000000000000000000000000000000000000000000000000000000081526004018080602001828103825260148152602001807f4e6f7420612076616c696420706f6c6c2049642e00000000000000000000000081525060200191505060405180910390fd5b61053c85610a36565b1515156105b1576040517f08c379a00000000000000000000000000000000000000000000000000000000081526004018080602001828103825260118152602001807f506f6c6c2068617320657870697265642e00000000000000000000000000000081525060200191505060405180910390fd5b6105bb85336103b5565b151515610630576040517f08c379a00000000000000000000000000000000000000000000000000000000081526004018080602001828103825260178152602001807f557365722068617320616c726561647920766f7465642e00000000000000000081525060200191505060405180910390fd5b61063a338461109a565b600080868152602001908152602001600020915083156106785761066b83836002015461116d90919063ffffffff16565b8260020181905550610698565b61068f83836003015461116d90919063ffffffff16565b82600301819055505b6060604051908101604052806001151581526020018515158152602001848152508260060160003373ffffffffffffffffffffffffffffffffffffffff1673ffffffffffffffffffffffffffffffffffffffff16815260200190815260200160002060008201518160000160006101000a81548160ff02191690831515021790555060208201518160000160016101000a81548160ff0219169083151502179055506040820151816001015590505081600401600081548092919060010191905055507f34aff50c58deebd8d23ecffc26650f66429040f9e246733ac69e7fe1479d200133868686604051808573ffffffffffffffffffffffffffffffffffffffff1673ffffffffffffffffffffffffffffffffffffffff1681526020018481526020018315151515815260200182815260200194505050505060405180910390a15050505050565b60008060648611151515610883576040517f08c379a00000000000000000000000000000000000000000000000000000000081526004018080602001828103825260348152602001807f51756f72756d2050657263656e74616765206d757374206265206c657373207481526020017f68616e206f7220657175616c20746f203130302500000000000000000000000081525060400191505060405180910390fd5b600160008154809291906001019190505550600080600154815260200190815260200160002090506108be854261116d90919063ffffffff16565b816000018190555085816001018190555083838260050191906108e29291906111c1565b507f0899c67b93886ded76218352a9f9d1ea357941dd72919b99261846fd4ee7f70060015487878787604051808681526020018581526020018481526020018060200182810382528484828181526020019250808284378201915050965050505050505060405180910390a1600154915050949350505050565b60015481565b6000602052806000526040600020600091509050806000015490806001015490806002015490806003015490806004015490806005018054600181600116156101000203166002900480601f016020809104026020016040519081016040528092919081815260200182805460018160011615610100020316600290048015610a2c5780601f10610a0157610100808354040283529160200191610a2c565b820191906000526020600020905b815481529060010190602001808311610a0f57829003601f168201915b5050505050905086565b600081600081118015610a4b57506001548111155b1515610abf576040517f08c379a00000000000000000000000000000000000000000000000000000000081526004018080602001828103825260148152602001807f4e6f7420612076616c696420706f6c6c2049642e00000000000000000000000081525060200191505060405180910390fd5b60008084815260200190815260200160002060000154421015915050919050565b80600081118015610af357506001548111155b1515610b67576040517f08c379a00000000000000000000000000000000000000000000000000000000081526004018080602001828103825260148152602001807f4e6f7420612076616c696420706f6c6c2049642e00000000000000000000000081525060200191505060405180910390fd5b610b7082610a36565b8015610b825750610b8182336103b5565b5b1515610c1c576040517f08c379a00000000000000000000000000000000000000000000000000000000081526004018080602001828103825260368152602001807f506f6c6c20686173206e6f742065787069726564206f7220757365722064696481526020017f206e6f7420766f746520696e2074686520706f6c6c2e0000000000000000000081525060400191505060405180910390fd5b60008083815260200190815260200160002060060160003373ffffffffffffffffffffffffffffffffffffffff1673ffffffffffffffffffffffffffffffffffffffff168152602001908152602001600020600101548311151515610d0f576040517f08c379a000000000000000000000000000000000000000000000000000000000815260040180806020018281038252602b8152602001807f5573657220697320747279696e6720746f20776974686472617720746f6f206d81526020017f616e7920746f6b656e732e00000000000000000000000000000000000000000081525060400191505060405180910390fd5b600260009054906101000a900473ffffffffffffffffffffffffffffffffffffffff1673ffffffffffffffffffffffffffffffffffffffff1663a9059cbb33856040518363ffffffff167c0100000000000000000000000000000000000000000000000000000000028152600401808373ffffffffffffffffffffffffffffffffffffffff1673ffffffffffffffffffffffffffffffffffffffff16815260200182815260200192505050602060405180830381600087803b158015610dd457600080fd5b505af1158015610de8573d6000803e3d6000fd5b505050506040513d6020811015610dfe57600080fd5b81019080805190602001909291905050501515610e1a57600080fd5b505050565b6000610e29611241565b82600081118015610e3c57506001548111155b1515610eb0576040517f08c379a00000000000000000000000000000000000000000000000000000000081526004018080602001828103825260148152602001807f4e6f7420612076616c696420706f6c6c2049642e00000000000000000000000081525060200191505060405180910390fd5b610eb984610a36565b1515610f2d576040517f08c379a00000000000000000000000000000000000000000000000000000000081526004018080602001828103825260198152602001807f506f6c6c20686173206e6f742065787069726564207965742e0000000000000081525060200191505060405180910390fd5b60008085815260200190815260200160002060c060405190810160405290816000820154815260200160018201548152602001600282015481526020016003820154815260200160048201548152602001600582018054600181600116156101000203166002900480601f0160208091040260200160405190810160405280929190818152602001828054600181600116156101000203166002900480156110165780601f10610feb57610100808354040283529160200191611016565b820191906000526020600020905b815481529060010190602001808311610ff957829003601f168201915b505050505081525050915061105261103f8360600151846040015161116d90919063ffffffff16565b836020015161118990919063ffffffff16565b61106a6064846040015161118990919063ffffffff16565b1192505050919050565b600260009054906101000a900473ffffffffffffffffffffffffffffffffffffffff1681565b6000600260009054906101000a900473ffffffffffffffffffffffffffffffffffffffff1673ffffffffffffffffffffffffffffffffffffffff166318160ddd6040518163ffffffff167c0100000000000000000000000000000000000000000000000000000000028152600401602060405180830381600087803b15801561112257600080fd5b505af1158015611136573d6000803e3d6000fd5b505050506040513d602081101561114c57600080fd5b810190808051906020019092919050505011151561116957600080fd5b5050565b6000818301905082811015151561118057fe5b80905092915050565b60008083141561119c57600090506111bb565b81830290508183828115156111ad57fe5b041415156111b757fe5b8090505b92915050565b828054600181600116156101000203166002900490600052602060002090601f016020900481019282601f1061120257803560ff1916838001178555611230565b82800160010185558215611230579182015b8281111561122f578235825591602001919060010190611214565b5b50905061123d9190611278565b5090565b60c0604051908101604052806000815260200160008152602001600081526020016000815260200160008152602001606081525090565b61129a91905b8082111561129657600081600090555060010161127e565b5090565b905600a165627a7a72305820e251a229c442b4f24d138a90174cba04cfa02af202254c195a909dae293131950029",
  "source": "// Voting.sol, Andrew Tam\n// NOTE: Anyone can vote and create a poll, prone to Sybil attacks.\npragma solidity ^0.4.24;\n\nimport \"openzeppelin-solidity/contracts/math/SafeMath.sol\";\nimport \"./VotingToken.sol\";\n\ncontract Voting {\n  using SafeMath for uint256;\n\n  /* EVENTS */\n  event voteCasted(address voter, uint256 pollId, bool vote, uint256 weight);\n  event pollCreated(uint256 pollId, uint256 quorumPercentage, uint256 votingTime, string description);\n\n  /* POLL */\n  struct Poll {\n    uint256 revealDate;\n    uint256 quorumPercentage;\n    uint256 yeaVotes;\n    uint256 nayVotes;\n    uint256 numVoters;  // Currently not used\n    string description;\n    mapping(address => Voter) voters;\n  }\n\n  /* VOTER */\n  struct Voter {\n    bool hasVoted;\n    // vote will be encrypted in the future\n    bool vote;  // false = no, true = yes\n    uint256 weight;\n  }\n\n  mapping(uint256 => Poll) public polls;\n  uint256 public pollCount;\n  VotingToken public token;\n\n  /* CONSTRUCTOR */\n  constructor(address _token) public {\n    token = VotingToken(_token);\n  }\n\n  /*\n   * Creates a new timed poll with a specified quorum percentage. Returns the poll ID of the new poll.\n   */\n  function createPoll(uint256 _quorumPct, uint256 _votingTime, string _description) external returns (uint256 pollId) {\n    require(_quorumPct <= 100, \"Quorum Percentage must be less than or equal to 100%\");\n    pollCount++;\n\n    Poll storage curPoll = polls[pollCount];\n    curPoll.revealDate = now.add(_votingTime);\n    curPoll.quorumPercentage = _quorumPct;\n    curPoll.description = _description;\n\n    emit pollCreated(pollCount, _quorumPct, _votingTime, _description);\n    return pollCount;\n  }\n\n  /*\n   * Modifier that checks for a valid poll ID.\n   */\n  modifier validPoll(uint256 _pollId) {\n    require(_pollId > 0 && _pollId <= pollCount, \"Not a valid poll Id.\");\n    _;\n  }\n\n  /*\n   * Checks if a poll was approved given the quorum percentage.\n   */\n  function isPollPassed(uint256 _pollId) public view validPoll(_pollId) returns (bool pollStatus) {\n    require(isPollExpired(_pollId), \"Poll has not expired yet.\");\n    Poll memory curPoll = polls[_pollId];\n    return (curPoll.yeaVotes.mul(100)) > curPoll.quorumPercentage.mul(curPoll.yeaVotes.add(curPoll.nayVotes));\n  }\n\n  /*\n   * Checks if a poll has expired.\n   */\n  function isPollExpired(uint256 _pollId) public view validPoll(_pollId) returns (bool pollExpired) {\n    return (now >= polls[_pollId].revealDate);\n  }\n\n  /*\n   * Casts a vote for a given poll. Stakes ERC20 tokens as votes.\n   */\n  function castVote(uint256 _pollId, bool _voteStatus, uint256 _weight) external validPoll(_pollId) {\n    require(!isPollExpired(_pollId), \"Poll has expired.\");\n    require(!userHasVoted(_pollId, msg.sender), \"User has already voted.\");\n    stakeVotingTokens(msg.sender, _weight);\n\n    Poll storage curPoll = polls[_pollId];\n    if (_voteStatus) {\n      curPoll.yeaVotes = curPoll.yeaVotes.add(_weight);\n    }\n    else {\n      curPoll.nayVotes = curPoll.nayVotes.add(_weight);\n    }\n\n    curPoll.voters[msg.sender] = Voter({\n        hasVoted: true,\n        vote: _voteStatus,\n        weight: _weight\n    });\n\n    curPoll.numVoters++;\n    emit voteCasted(msg.sender, _pollId, _voteStatus, _weight);\n  }\n\n  /*\n   * Checks if a user has voted for a specific poll.\n   */\n  function userHasVoted(uint256 _pollId, address _user) public view validPoll(_pollId) returns (bool hasVoted) {\n    return (polls[_pollId].voters[_user].hasVoted);\n  }\n\n  /* Need to figure out token dynamics. */\n\n  /*\n   * Internal function that stakes tokens for a given voter.\n   * NOTE:\n   *  -User must approve transfer of tokens.\n   *  -Might add support for staking more tokens.\n   */\n  function stakeVotingTokens(address _voter, uint256 _numTokens) internal {\n    require(token.totalSupply() > 0);\n    //require(token.balanceOf(_voter) >= _numTokens, \"User does not have enough tokens\");\n    //require(token.transferFrom(_voter, this, _numTokens), \"User did not approve token transfer.\");\n  }\n\n  /*\n   * Allows a voter to withdraw voting tokens after a poll has ended.\n   */\n  function withdrawTokens(uint256 _numTokens, uint256 _pollId) external validPoll(_pollId) {\n    require(isPollExpired(_pollId) && userHasVoted(_pollId, msg.sender), \"Poll has not expired or user did not vote in the poll.\");\n    require(_numTokens <= polls[_pollId].voters[msg.sender].weight, \"User is trying to withdraw too many tokens.\");\n    require(token.transfer(msg.sender, _numTokens));\n  }\n\n\n}\n",
  "sourcePath": "/Users/andrew/Desktop/Andrew/secret-contracts/secret-contracts/contracts/Voting.sol",
  "compiler": {
    "name": "solc",
    "version": "0.4.24+commit.e67f0147.Emscripten.clang"
  },
  "schemaVersion": "2.0.1",
  "updatedAt": "2018-07-06T22:51:07.450Z"
}