{
  "contractName": "Voting",
  "abi": [
    {
      "inputs": [
        {
          "name": "_token",
          "type": "address"
        }
      ],
      "payable": false,
      "stateMutability": "nonpayable",
      "type": "constructor"
    },
    {
      "anonymous": false,
      "inputs": [
        {
          "indexed": false,
          "name": "voter",
          "type": "address"
        },
        {
          "indexed": false,
          "name": "pollId",
          "type": "uint256"
        },
        {
          "indexed": false,
          "name": "vote",
          "type": "bool"
        },
        {
          "indexed": false,
          "name": "weight",
          "type": "uint256"
        }
      ],
      "name": "voteCasted",
      "type": "event"
    },
    {
      "anonymous": false,
      "inputs": [
        {
          "indexed": false,
          "name": "pollId",
          "type": "uint256"
        },
        {
          "indexed": false,
          "name": "quorumPercentage",
          "type": "uint256"
        },
        {
          "indexed": false,
          "name": "votingTime",
          "type": "uint256"
        },
        {
          "indexed": false,
          "name": "description",
          "type": "string"
        }
      ],
      "name": "pollCreated",
      "type": "event"
    },
    {
      "constant": false,
      "inputs": [
        {
          "name": "_quorumPct",
          "type": "uint256"
        },
        {
          "name": "_votingTime",
          "type": "uint256"
        },
        {
          "name": "_description",
          "type": "string"
        }
      ],
      "name": "createPoll",
      "outputs": [
        {
          "name": "pollId",
          "type": "uint256"
        }
      ],
      "payable": false,
      "stateMutability": "nonpayable",
      "type": "function"
    },
    {
      "constant": true,
      "inputs": [
        {
          "name": "_pollId",
          "type": "uint256"
        }
      ],
      "name": "isPollPassed",
      "outputs": [
        {
          "name": "pollStatus",
          "type": "bool"
        }
      ],
      "payable": false,
      "stateMutability": "view",
      "type": "function"
    },
    {
      "constant": true,
      "inputs": [
        {
          "name": "_pollId",
          "type": "uint256"
        }
      ],
      "name": "isPollExpired",
      "outputs": [
        {
          "name": "pollExpired",
          "type": "bool"
        }
      ],
      "payable": false,
      "stateMutability": "view",
      "type": "function"
    },
    {
      "constant": false,
      "inputs": [
        {
          "name": "_pollId",
          "type": "uint256"
        },
        {
          "name": "_voteStatus",
          "type": "bool"
        },
        {
          "name": "_weight",
          "type": "uint256"
        }
      ],
      "name": "castVote",
      "outputs": [],
      "payable": false,
      "stateMutability": "nonpayable",
      "type": "function"
    },
    {
      "constant": true,
      "inputs": [
        {
          "name": "_pollId",
          "type": "uint256"
        },
        {
          "name": "_user",
          "type": "address"
        }
      ],
      "name": "userHasVoted",
      "outputs": [
        {
          "name": "hasVoted",
          "type": "bool"
        }
      ],
      "payable": false,
      "stateMutability": "view",
      "type": "function"
    },
    {
      "constant": false,
      "inputs": [
        {
          "name": "_numTokens",
          "type": "uint256"
        },
        {
          "name": "_pollId",
          "type": "uint256"
        }
      ],
      "name": "withdrawTokens",
      "outputs": [],
      "payable": false,
      "stateMutability": "nonpayable",
      "type": "function"
    }
  ],
  "bytecode": "0x608060405234801561001057600080fd5b506040516020806113758339810180604052810190808051906020019092919050505080600260006101000a81548173ffffffffffffffffffffffffffffffffffffffff021916908373ffffffffffffffffffffffffffffffffffffffff160217905550506112f1806100846000396000f300608060405260043610610078576000357c0100000000000000000000000000000000000000000000000000000000900463ffffffff1680635fc48d7e1461007d5780636036e9e0146100e257806381b4d5ec14610125578063ae1203c014610188578063ba7bd2aa146101cd578063eedb518914610204575b600080fd5b34801561008957600080fd5b506100c860048036038101908080359060200190929190803573ffffffffffffffffffffffffffffffffffffffff169060200190929190505050610249565b604051808215151515815260200191505060405180910390f35b3480156100ee57600080fd5b50610123600480360381019080803590602001909291908035151590602001909291908035906020019092919050505061033e565b005b34801561013157600080fd5b506101726004803603810190808035906020019092919080359060200190929190803590602001908201803590602001919091929391929390505050610675565b6040518082815260200191505060405180910390f35b34801561019457600080fd5b506101b3600480360381019080803590602001909291905050506107f0565b604051808215151515815260200191505060405180910390f35b3480156101d957600080fd5b50610202600480360381019080803590602001909291908035906020019092919050505061089a565b005b34801561021057600080fd5b5061022f60048036038101908080359060200190929190505050610bd9565b604051808215151515815260200191505060405180910390f35b60008260008111801561025e57506001548111155b15156102d2576040517f08c379a00000000000000000000000000000000000000000000000000000000081526004018080602001828103825260148152602001807f4e6f7420612076616c696420706f6c6c2049642e00000000000000000000000081525060200191505060405180910390fd5b60008085815260200190815260200160002060060160008473ffffffffffffffffffffffffffffffffffffffff1673ffffffffffffffffffffffffffffffffffffffff16815260200190815260200160002060000160009054906101000a900460ff1691505092915050565b60008360008111801561035357506001548111155b15156103c7576040517f08c379a00000000000000000000000000000000000000000000000000000000081526004018080602001828103825260148152602001807f4e6f7420612076616c696420706f6c6c2049642e00000000000000000000000081525060200191505060405180910390fd5b6103d0856107f0565b151515610445576040517f08c379a00000000000000000000000000000000000000000000000000000000081526004018080602001828103825260118152602001807f506f6c6c2068617320657870697265642e00000000000000000000000000000081525060200191505060405180910390fd5b61044f8533610249565b1515156104c4576040517f08c379a00000000000000000000000000000000000000000000000000000000081526004018080602001828103825260178152602001807f557365722068617320616c726561647920766f7465642e00000000000000000081525060200191505060405180910390fd5b6104ce3384610e2e565b6000808681526020019081526020016000209150831561050c576104ff83836002015461119590919063ffffffff16565b826002018190555061052c565b61052383836003015461119590919063ffffffff16565b82600301819055505b6060604051908101604052806001151581526020018515158152602001848152508260060160003373ffffffffffffffffffffffffffffffffffffffff1673ffffffffffffffffffffffffffffffffffffffff16815260200190815260200160002060008201518160000160006101000a81548160ff02191690831515021790555060208201518160000160016101000a81548160ff0219169083151502179055506040820151816001015590505081600401600081548092919060010191905055507f34aff50c58deebd8d23ecffc26650f66429040f9e246733ac69e7fe1479d200133868686604051808573ffffffffffffffffffffffffffffffffffffffff1673ffffffffffffffffffffffffffffffffffffffff1681526020018481526020018315151515815260200182815260200194505050505060405180910390a15050505050565b60008060648611151515610717576040517f08c379a00000000000000000000000000000000000000000000000000000000081526004018080602001828103825260348152602001807f51756f72756d2050657263656e74616765206d757374206265206c657373207481526020017f68616e206f7220657175616c20746f203130302500000000000000000000000081525060400191505060405180910390fd5b60016000815480929190600101919050555060008060015481526020019081526020016000209050610752854261119590919063ffffffff16565b816000018190555085816001018190555083838260050191906107769291906111e9565b507f0899c67b93886ded76218352a9f9d1ea357941dd72919b99261846fd4ee7f70060015487878787604051808681526020018581526020018481526020018060200182810382528484828181526020019250808284378201915050965050505050505060405180910390a1600154915050949350505050565b60008160008111801561080557506001548111155b1515610879576040517f08c379a00000000000000000000000000000000000000000000000000000000081526004018080602001828103825260148152602001807f4e6f7420612076616c696420706f6c6c2049642e00000000000000000000000081525060200191505060405180910390fd5b60008084815260200190815260200160002060000154421015915050919050565b806000811180156108ad57506001548111155b1515610921576040517f08c379a00000000000000000000000000000000000000000000000000000000081526004018080602001828103825260148152602001807f4e6f7420612076616c696420706f6c6c2049642e00000000000000000000000081525060200191505060405180910390fd5b61092a826107f0565b801561093c575061093b8233610249565b5b15156109d6576040517f08c379a00000000000000000000000000000000000000000000000000000000081526004018080602001828103825260368152602001807f506f6c6c20686173206e6f742065787069726564206f7220757365722064696481526020017f206e6f7420766f746520696e2074686520706f6c6c2e0000000000000000000081525060400191505060405180910390fd5b60008083815260200190815260200160002060060160003373ffffffffffffffffffffffffffffffffffffffff1673ffffffffffffffffffffffffffffffffffffffff168152602001908152602001600020600101548311151515610ac9576040517f08c379a000000000000000000000000000000000000000000000000000000000815260040180806020018281038252602b8152602001807f5573657220697320747279696e6720746f20776974686472617720746f6f206d81526020017f616e7920746f6b656e732e00000000000000000000000000000000000000000081525060400191505060405180910390fd5b600260009054906101000a900473ffffffffffffffffffffffffffffffffffffffff1673ffffffffffffffffffffffffffffffffffffffff1663a9059cbb33856040518363ffffffff167c0100000000000000000000000000000000000000000000000000000000028152600401808373ffffffffffffffffffffffffffffffffffffffff1673ffffffffffffffffffffffffffffffffffffffff16815260200182815260200192505050602060405180830381600087803b158015610b8e57600080fd5b505af1158015610ba2573d6000803e3d6000fd5b505050506040513d6020811015610bb857600080fd5b81019080805190602001909291905050501515610bd457600080fd5b505050565b6000610be3611269565b82600081118015610bf657506001548111155b1515610c6a576040517f08c379a00000000000000000000000000000000000000000000000000000000081526004018080602001828103825260148152602001807f4e6f7420612076616c696420706f6c6c2049642e00000000000000000000000081525060200191505060405180910390fd5b610c73846107f0565b1515610ce7576040517f08c379a00000000000000000000000000000000000000000000000000000000081526004018080602001828103825260198152602001807f506f6c6c20686173206e6f742065787069726564207965742e0000000000000081525060200191505060405180910390fd5b60008085815260200190815260200160002060c060405190810160405290816000820154815260200160018201548152602001600282015481526020016003820154815260200160048201548152602001600582018054600181600116156101000203166002900480601f016020809104026020016040519081016040528092919081815260200182805460018160011615610100020316600290048015610dd05780601f10610da557610100808354040283529160200191610dd0565b820191906000526020600020905b815481529060010190602001808311610db357829003601f168201915b5050505050815250509150610e0c610df98360600151846040015161119590919063ffffffff16565b83602001516111b190919063ffffffff16565b610e24606484604001516111b190919063ffffffff16565b1192505050919050565b80600260009054906101000a900473ffffffffffffffffffffffffffffffffffffffff1673ffffffffffffffffffffffffffffffffffffffff166370a08231846040518263ffffffff167c0100000000000000000000000000000000000000000000000000000000028152600401808273ffffffffffffffffffffffffffffffffffffffff1673ffffffffffffffffffffffffffffffffffffffff168152602001915050602060405180830381600087803b158015610eec57600080fd5b505af1158015610f00573d6000803e3d6000fd5b505050506040513d6020811015610f1657600080fd5b810190808051906020019092919050505010151515610fc3576040517f08c379a00000000000000000000000000000000000000000000000000000000081526004018080602001828103825260218152602001807f5573657220646f6573206e6f74206861766520656e6f75676820746f6b656e7381526020017f2e0000000000000000000000000000000000000000000000000000000000000081525060400191505060405180910390fd5b600260009054906101000a900473ffffffffffffffffffffffffffffffffffffffff1673ffffffffffffffffffffffffffffffffffffffff166323b872dd8330846040518463ffffffff167c0100000000000000000000000000000000000000000000000000000000028152600401808473ffffffffffffffffffffffffffffffffffffffff1673ffffffffffffffffffffffffffffffffffffffff1681526020018373ffffffffffffffffffffffffffffffffffffffff1673ffffffffffffffffffffffffffffffffffffffff1681526020018281526020019350505050602060405180830381600087803b1580156110bc57600080fd5b505af11580156110d0573d6000803e3d6000fd5b505050506040513d60208110156110e657600080fd5b81019080805190602001909291905050501515611191576040517f08c379a00000000000000000000000000000000000000000000000000000000081526004018080602001828103825260248152602001807f5573657220646964206e6f7420617070726f766520746f6b656e207472616e7381526020017f6665722e0000000000000000000000000000000000000000000000000000000081525060400191505060405180910390fd5b5050565b600081830190508281101515156111a857fe5b80905092915050565b6000808314156111c457600090506111e3565b81830290508183828115156111d557fe5b041415156111df57fe5b8090505b92915050565b828054600181600116156101000203166002900490600052602060002090601f016020900481019282601f1061122a57803560ff1916838001178555611258565b82800160010185558215611258579182015b8281111561125757823582559160200191906001019061123c565b5b50905061126591906112a0565b5090565b60c0604051908101604052806000815260200160008152602001600081526020016000815260200160008152602001606081525090565b6112c291905b808211156112be5760008160009055506001016112a6565b5090565b905600a165627a7a72305820b1b4c2fb188fa8b5bdea7f995038017d6e0a009a7af717ac7b2aec3bcb44b9080029",
  "source": "// Voting.sol, Andrew Tam\n// NOTE: Anyone can vote and create a poll, prone to Sybil attacks.\npragma solidity ^0.4.24;\n\nimport \"openzeppelin-solidity/contracts/math/SafeMath.sol\";\nimport \"openzeppelin-solidity/contracts/token/ERC20/StandardToken.sol\";\n\ncontract Voting {\n  using SafeMath for uint256;\n\n  /* EVENTS */\n  event voteCasted(address voter, uint256 pollId, bool vote, uint256 weight);\n  event pollCreated(uint256 pollId, uint256 quorumPercentage, uint256 votingTime, string description);\n\n  /* POLL */\n  struct Poll {\n    uint256 revealDate;\n    uint256 quorumPercentage;\n    uint256 yeaVotes;\n    uint256 nayVotes;\n    uint256 numVoters;  // Currently not used\n    string description;\n    mapping(address => Voter) voters;\n  }\n\n  /* VOTER */\n  struct Voter {\n    bool hasVoted;\n    // vote will be encrypted in the future\n    bool vote;  // false = no, true = yes\n    uint256 weight;\n  }\n\n  mapping(uint256 => Poll) polls;\n  uint256 pollCount;\n  StandardToken token;\n\n  /* CONSTRUCTOR */\n  constructor(address _token) public {\n    token = StandardToken(_token);\n  }\n\n  /*\n   * Creates a new timed poll with a specified quorum percentage. Returns the poll ID of the new poll.\n   */\n  function createPoll(uint256 _quorumPct, uint256 _votingTime, string _description) external returns (uint256 pollId) {\n    require(_quorumPct <= 100, \"Quorum Percentage must be less than or equal to 100%\");\n    pollCount++;\n\n    Poll storage curPoll = polls[pollCount];\n    curPoll.revealDate = now.add(_votingTime);\n    curPoll.quorumPercentage = _quorumPct;\n    curPoll.description = _description;\n\n    emit pollCreated(pollCount, _quorumPct, _votingTime, _description);\n    return pollCount;\n  }\n\n  /*\n   * Modifier that checks for a valid poll ID.\n   */\n  modifier validPoll(uint256 _pollId) {\n    require(_pollId > 0 && _pollId <= pollCount, \"Not a valid poll Id.\");\n    _;\n  }\n\n  /*\n   * Checks if a poll was approved given the quorum percentage.\n   */\n  function isPollPassed(uint256 _pollId) public view validPoll(_pollId) returns (bool pollStatus) {\n    require(isPollExpired(_pollId), \"Poll has not expired yet.\");\n    Poll memory curPoll = polls[_pollId];\n    return (curPoll.yeaVotes.mul(100)) > curPoll.quorumPercentage.mul(curPoll.yeaVotes.add(curPoll.nayVotes));\n  }\n\n  /*\n   * Checks if a poll has expired.\n   */\n  function isPollExpired(uint256 _pollId) public view validPoll(_pollId) returns (bool pollExpired) {\n    return (now >= polls[_pollId].revealDate);\n  }\n\n  /*\n   * Casts a vote for a given poll. Stakes ERC20 token as votes.\n   */\n  function castVote(uint256 _pollId, bool _voteStatus, uint256 _weight) external validPoll(_pollId) {\n    require(!isPollExpired(_pollId), \"Poll has expired.\");\n    require(!userHasVoted(_pollId, msg.sender), \"User has already voted.\");\n    stakeVotingTokens(msg.sender, _weight);\n\n    Poll storage curPoll = polls[_pollId];\n    if (_voteStatus) {\n      curPoll.yeaVotes = curPoll.yeaVotes.add(_weight);\n    }\n    else {\n      curPoll.nayVotes = curPoll.nayVotes.add(_weight);\n    }\n\n    curPoll.voters[msg.sender] = Voter({\n        hasVoted: true,\n        vote: _voteStatus,\n        weight: _weight\n    });\n\n    curPoll.numVoters++;\n    emit voteCasted(msg.sender, _pollId, _voteStatus, _weight);\n  }\n\n  /*\n   * Checks if a user has voted for a specific poll.\n   */\n  function userHasVoted(uint256 _pollId, address _user) public view validPoll(_pollId) returns (bool hasVoted) {\n    return (polls[_pollId].voters[_user].hasVoted);\n  }\n\n  /* Need to figure out token dynamics. */\n\n  /*\n   * Internal function that stakes tokens for a given voter.\n   * NOTE:\n   *  -User must approve transfer of tokens.\n   *  -Might add support for staking more tokens.\n   */\n  function stakeVotingTokens(address _voter, uint256 _numTokens) internal {\n    require(token.balanceOf(_voter) >= _numTokens, \"User does not have enough tokens.\");\n    require(token.transferFrom(_voter, this, _numTokens), \"User did not approve token transfer.\");\n  }\n\n  /*\n   * Allows a voter to withdraw voting tokens after a poll has ended.\n   */\n  function withdrawTokens(uint256 _numTokens, uint256 _pollId) external validPoll(_pollId) {\n    require(isPollExpired(_pollId) && userHasVoted(_pollId, msg.sender), \"Poll has not expired or user did not vote in the poll.\");\n    require(_numTokens <= polls[_pollId].voters[msg.sender].weight, \"User is trying to withdraw too many tokens.\");\n    require(token.transfer(msg.sender, _numTokens));\n  }\n\n\n}\n",
  "sourcePath": "/Users/andrew/Desktop/Andrew/secret-contracts/secret-contracts/contracts/Voting.sol",
  "compiler": {
    "name": "solc",
    "version": "0.4.24+commit.e67f0147.Emscripten.clang"
  },
  "schemaVersion": "2.0.1",
  "updatedAt": "2018-07-02T23:00:51.557Z"
}