{
  "contractName": "Voting",
  "abi": [
    {
      "constant": true,
      "inputs": [
        {
          "name": "",
          "type": "address"
        }
      ],
      "name": "bank",
      "outputs": [
        {
          "name": "tokenBalance",
          "type": "uint256"
        }
      ],
      "payable": false,
      "stateMutability": "view",
      "type": "function"
    },
    {
      "constant": true,
      "inputs": [],
      "name": "pollCount",
      "outputs": [
        {
          "name": "",
          "type": "uint256"
        }
      ],
      "payable": false,
      "stateMutability": "view",
      "type": "function"
    },
    {
      "constant": true,
      "inputs": [
        {
          "name": "",
          "type": "uint256"
        }
      ],
      "name": "polls",
      "outputs": [
        {
          "name": "creator",
          "type": "address"
        },
        {
          "name": "status",
          "type": "uint8"
        },
        {
          "name": "quorumPercentage",
          "type": "uint256"
        },
        {
          "name": "yeaVotes",
          "type": "uint256"
        },
        {
          "name": "nayVotes",
          "type": "uint256"
        },
        {
          "name": "description",
          "type": "string"
        },
        {
          "name": "expirationTime",
          "type": "uint256"
        }
      ],
      "payable": false,
      "stateMutability": "view",
      "type": "function"
    },
    {
      "constant": true,
      "inputs": [],
      "name": "enigma",
      "outputs": [
        {
          "name": "",
          "type": "address"
        }
      ],
      "payable": false,
      "stateMutability": "view",
      "type": "function"
    },
    {
      "constant": true,
      "inputs": [],
      "name": "token",
      "outputs": [
        {
          "name": "",
          "type": "address"
        }
      ],
      "payable": false,
      "stateMutability": "view",
      "type": "function"
    },
    {
      "inputs": [
        {
          "name": "_token",
          "type": "address"
        },
        {
          "name": "_enigma",
          "type": "address"
        }
      ],
      "payable": false,
      "stateMutability": "nonpayable",
      "type": "constructor"
    },
    {
      "anonymous": false,
      "inputs": [
        {
          "indexed": false,
          "name": "voter",
          "type": "address"
        },
        {
          "indexed": false,
          "name": "pollID",
          "type": "uint256"
        },
        {
          "indexed": false,
          "name": "vote",
          "type": "bytes"
        },
        {
          "indexed": false,
          "name": "weight",
          "type": "uint256"
        }
      ],
      "name": "voteCasted",
      "type": "event"
    },
    {
      "anonymous": false,
      "inputs": [
        {
          "indexed": false,
          "name": "creator",
          "type": "address"
        },
        {
          "indexed": false,
          "name": "pollID",
          "type": "uint256"
        },
        {
          "indexed": false,
          "name": "quorumPercentage",
          "type": "uint256"
        },
        {
          "indexed": false,
          "name": "description",
          "type": "string"
        },
        {
          "indexed": false,
          "name": "votingLength",
          "type": "uint256"
        }
      ],
      "name": "pollCreated",
      "type": "event"
    },
    {
      "anonymous": false,
      "inputs": [
        {
          "indexed": false,
          "name": "status",
          "type": "bool"
        }
      ],
      "name": "pollStatusUpdate",
      "type": "event"
    },
    {
      "constant": false,
      "inputs": [
        {
          "name": "_quorumPct",
          "type": "uint256"
        },
        {
          "name": "_description",
          "type": "string"
        },
        {
          "name": "_voteLength",
          "type": "uint256"
        }
      ],
      "name": "createPoll",
      "outputs": [
        {
          "name": "",
          "type": "uint256"
        }
      ],
      "payable": false,
      "stateMutability": "nonpayable",
      "type": "function"
    },
    {
      "constant": false,
      "inputs": [
        {
          "name": "_pollID",
          "type": "uint256"
        }
      ],
      "name": "endPoll",
      "outputs": [],
      "payable": false,
      "stateMutability": "nonpayable",
      "type": "function"
    },
    {
      "constant": false,
      "inputs": [
        {
          "name": "_pollID",
          "type": "uint256"
        },
        {
          "name": "_yeaVotes",
          "type": "uint256"
        },
        {
          "name": "_nayVotes",
          "type": "uint256"
        }
      ],
      "name": "updatePollStatus",
      "outputs": [],
      "payable": false,
      "stateMutability": "nonpayable",
      "type": "function"
    },
    {
      "constant": true,
      "inputs": [
        {
          "name": "_pollID",
          "type": "uint256"
        }
      ],
      "name": "getPollStatus",
      "outputs": [
        {
          "name": "",
          "type": "uint8"
        }
      ],
      "payable": false,
      "stateMutability": "view",
      "type": "function"
    },
    {
      "constant": true,
      "inputs": [
        {
          "name": "_pollID",
          "type": "uint256"
        },
        {
          "name": "_voter",
          "type": "address"
        }
      ],
      "name": "getPollInfoForVoter",
      "outputs": [
        {
          "name": "",
          "type": "bytes"
        },
        {
          "name": "",
          "type": "uint256"
        }
      ],
      "payable": false,
      "stateMutability": "view",
      "type": "function"
    },
    {
      "constant": true,
      "inputs": [
        {
          "name": "_pollID",
          "type": "uint256"
        }
      ],
      "name": "getVotersForPoll",
      "outputs": [
        {
          "name": "",
          "type": "address[]"
        }
      ],
      "payable": false,
      "stateMutability": "view",
      "type": "function"
    },
    {
      "constant": false,
      "inputs": [
        {
          "name": "_pollID",
          "type": "uint256"
        },
        {
          "name": "_encryptedVote",
          "type": "bytes"
        },
        {
          "name": "_weight",
          "type": "uint256"
        }
      ],
      "name": "castVote",
      "outputs": [],
      "payable": false,
      "stateMutability": "nonpayable",
      "type": "function"
    },
    {
      "constant": true,
      "inputs": [
        {
          "name": "_pollID",
          "type": "uint256"
        },
        {
          "name": "_votes",
          "type": "uint256[]"
        },
        {
          "name": "_weights",
          "type": "uint256[]"
        }
      ],
      "name": "countVotes",
      "outputs": [
        {
          "name": "",
          "type": "uint256"
        },
        {
          "name": "",
          "type": "uint256"
        },
        {
          "name": "",
          "type": "uint256"
        }
      ],
      "payable": false,
      "stateMutability": "pure",
      "type": "function"
    },
    {
      "constant": true,
      "inputs": [
        {
          "name": "_pollID",
          "type": "uint256"
        },
        {
          "name": "_user",
          "type": "address"
        }
      ],
      "name": "userHasVoted",
      "outputs": [
        {
          "name": "",
          "type": "bool"
        }
      ],
      "payable": false,
      "stateMutability": "view",
      "type": "function"
    },
    {
      "constant": false,
      "inputs": [
        {
          "name": "_numTokens",
          "type": "uint256"
        }
      ],
      "name": "stakeVotingTokens",
      "outputs": [],
      "payable": false,
      "stateMutability": "nonpayable",
      "type": "function"
    },
    {
      "constant": false,
      "inputs": [
        {
          "name": "_numTokens",
          "type": "uint256"
        }
      ],
      "name": "withdrawTokens",
      "outputs": [
        {
          "name": "",
          "type": "uint256"
        }
      ],
      "payable": false,
      "stateMutability": "nonpayable",
      "type": "function"
    },
    {
      "constant": true,
      "inputs": [
        {
          "name": "_voter",
          "type": "address"
        }
      ],
      "name": "getLockedAmount",
      "outputs": [
        {
          "name": "",
          "type": "uint256"
        }
      ],
      "payable": false,
      "stateMutability": "view",
      "type": "function"
    },
    {
      "constant": true,
      "inputs": [
        {
          "name": "_voter",
          "type": "address"
        }
      ],
      "name": "getTokenStake",
      "outputs": [
        {
          "name": "",
          "type": "uint256"
        }
      ],
      "payable": false,
      "stateMutability": "view",
      "type": "function"
    },
    {
      "constant": true,
      "inputs": [
        {
          "name": "_voter",
          "type": "address"
        }
      ],
      "name": "getPollHistory",
      "outputs": [
        {
          "name": "",
          "type": "uint256[]"
        }
      ],
      "payable": false,
      "stateMutability": "view",
      "type": "function"
    }
  ],
  "bytecode": "0x608060405234801561001057600080fd5b50604051604080611c51833981016040528051602090910151600160a060020a0382161580159061004a5750600354600160a060020a0316155b151561005557600080fd5b600160a060020a038116158015906100765750600454600160a060020a0316155b151561008157600080fd5b60038054600160a060020a03938416600160a060020a03199182161790915560048054929093169116179055611b95806100bc6000396000f3006080604052600436106101065763ffffffff7c01000000000000000000000000000000000000000000000000000000006000350416630da65600811461010b5780630de88fd8146101255780630ed70ed114610196578063236e1b93146101c9578063291ae9b3146101f0578063315a095d146102175780634e0e931a1461022f578063529a1baf1461024d5780635fc48d7e1461026e5780636cee7be5146102a65780639207891d14610349578063929ec5371461035e578063ac2f00741461037f578063b0c095e314610450578063b24fd5c51461048c578063d2025b1d146104bd578063df78b81c1461056e578063f43b877814610586578063fc0c546a1461059e575b600080fd5b34801561011757600080fd5b506101236004356105b3565b005b34801561013157600080fd5b50610146600160a060020a03600435166107cc565b60408051602080825283518183015283519192839290830191858101910280838360005b8381101561018257818101518382015260200161016a565b505050509050019250505060405180910390f35b3480156101a257600080fd5b506101b7600160a060020a036004351661083b565b60408051918252519081900360200190f35b3480156101d557600080fd5b506101b7600480359060248035908101910135604435610856565b3480156101fc57600080fd5b506101236004803590602480359081019101356044356109d8565b34801561022357600080fd5b506101b7600435610cf6565b34801561023b57600080fd5b50610123600435602435604435610e4c565b34801561025957600080fd5b506101b7600160a060020a036004351661103b565b34801561027a57600080fd5b50610292600435600160a060020a036024351661104d565b604080519115158252519081900360200190f35b3480156102b257600080fd5b506102ca600435600160a060020a03602435166110d5565b6040518080602001838152602001828103825284818151815260200191508051906020019080838360005b8381101561030d5781810151838201526020016102f5565b50505050905090810190601f16801561033a5780820380516001836020036101000a031916815260200191505b50935050505060405180910390f35b34801561035557600080fd5b506101b7611239565b34801561036a57600080fd5b506101b7600160a060020a036004351661123f565b34801561038b57600080fd5b506103976004356112ca565b604051600160a060020a0388168152602081018760038111156103b657fe5b60ff16815260200186815260200185815260200184815260200180602001838152602001828103825284818151815260200191508051906020019080838360005b8381101561040f5781810151838201526020016103f7565b50505050905090810190601f16801561043c5780820380516001836020036101000a031916815260200191505b509850505050505050505060405180910390f35b34801561045c57600080fd5b506104686004356113a0565b6040518082600381111561047857fe5b60ff16815260200191505060405180910390f35b34801561049857600080fd5b506104a1611417565b60408051600160a060020a039092168252519081900360200190f35b3480156104c957600080fd5b5060408051602060046024803582810135848102808701860190975280865261055096843596369660449591949091019291829185019084908082843750506040805187358901803560208181028481018201909552818452989b9a9989019892975090820195509350839250850190849080828437509497506114269650505050505050565b60408051938452602084019290925282820152519081900360600190f35b34801561057a57600080fd5b506101466004356114e0565b34801561059257600080fd5b506101236004356115c6565b3480156105aa57600080fd5b506104a16117c6565b600354604080517f70a0823100000000000000000000000000000000000000000000000000000000815233600482015290518392600160a060020a0316916370a082319160248083019260209291908290030181600087803b15801561061857600080fd5b505af115801561062c573d6000803e3d6000fd5b505050506040513d602081101561064257600080fd5b5051101561069a576040805160e560020a62461bcd02815260206004820181905260248201527f5573657220646f6573206e6f74206861766520656e6f75676820746f6b656e73604482015290519081900360640190fd5b600354604080517f23b872dd000000000000000000000000000000000000000000000000000000008152336004820152306024820152604481018490529051600160a060020a03909216916323b872dd916064808201926020929091908290030181600087803b15801561070d57600080fd5b505af1158015610721573d6000803e3d6000fd5b505050506040513d602081101561073757600080fd5b505115156107b4576040805160e560020a62461bcd028152602060048201526024808201527f5573657220646964206e6f7420617070726f766520746f6b656e207472616e7360448201527f6665722e00000000000000000000000000000000000000000000000000000000606482015290519081900360840190fd5b33600090815260016020526040902080549091019055565b600160a060020a03811660009081526001602090815260409182902060020180548351818402810184019094528084526060939283018282801561082f57602002820191906000526020600020905b81548152602001906001019080831161081b575b50505050509050919050565b600160a060020a031660009081526001602052604090205490565b60008060648611156108d8576040805160e560020a62461bcd02815260206004820152603460248201527f51756f72756d2050657263656e74616765206d757374206265206c657373207460448201527f68616e206f7220657175616c20746f2031303025000000000000000000000000606482015290519081900360840190fd5b5060028054600190810191829055600091825260208290526040909120805473ffffffffffffffffffffffffffffffffffffffff1916331774ff00000000000000000000000000000000000000001916815590810186905542830160068201556109466004820186866119fa565b507f45e74d302a4ed9fd7b7b46e4ac6ff1a3459046b18fcb30923f8af6f11ebdc26e33600254888888886040518087600160a060020a0316600160a060020a031681526020018681526020018581526020018060200183815260200182810382528585828181526020019250808284376040519201829003995090975050505050505050a15050600254949350505050565b6000846000811180156109ed57506002548111155b1515610a31576040805160e560020a62461bcd0281526020600482015260146024820152600080516020611b4a833981519152604482015290519081900360640190fd5b6000610a3c876113a0565b6003811115610a4757fe5b14610a9c576040805160e560020a62461bcd02815260206004820152601160248201527f506f6c6c2068617320657870697265642e000000000000000000000000000000604482015290519081900360640190fd5b610aa6863361104d565b15610afb576040805160e560020a62461bcd02815260206004820152601760248201527f557365722068617320616c726561647920766f7465642e000000000000000000604482015290519081900360640190fd5b82610b053361083b565b1015610b81576040805160e560020a62461bcd02815260206004820152602860248201527f5573657220646f6573206e6f74206861766520656e6f756768207374616b656460448201527f20746f6b656e732e000000000000000000000000000000000000000000000000606482015290519081900360840190fd5b3360009081526001602081815260408084208a8552808401835281852088905560020180548085018255908552828520018a90558984528382529283902083516060810185529283528351601f8901839004830281018301909452878452945090918282019188908890819084018382808284375050509284525050506020908101859052336000908152600785018252604090208251815460ff19169015151781558282015180519192610c3e92600185019290910190611a78565b50604091820151600290910155600583018054600181018255600091825260209182902001805473ffffffffffffffffffffffffffffffffffffffff19163390811790915582518181529182018990526060820186905260809282018381529282018790527fe95eb7d43e66fe71c9e83b9d854df9bbf195378b75da7c121b7910630d75387192909189918991899189919060a0820185858082843760405192018290039850909650505050505050a1505050505050565b600080610d023361123f565b90508281610d0f3361083b565b031015610d8c576040805160e560020a62461bcd02815260206004820152602b60248201527f5573657220697320747279696e6720746f20776974686472617720746f6f206d60448201527f616e7920746f6b656e732e000000000000000000000000000000000000000000606482015290519081900360840190fd5b3360008181526001602090815260408083208054889003905560035481517fa9059cbb0000000000000000000000000000000000000000000000000000000081526004810195909552602485018890529051600160a060020a039091169363a9059cbb9360448083019493928390030190829087803b158015610e0e57600080fd5b505af1158015610e22573d6000803e3d6000fd5b505050506040513d6020811015610e3857600080fd5b50511515610e4557600080fd5b5090919050565b60008084600081118015610e6257506002548111155b1515610ea6576040805160e560020a62461bcd0281526020600482015260146024820152600080516020611b4a833981519152604482015290519081900360640190fd5b600454600160a060020a03163314610ebd57600080fd5b6001610ec8876113a0565b6003811115610ed357fe5b14610f28576040805160e560020a62461bcd02815260206004820152601960248201527f506f6c6c20686173206e6f742065787069726564207965742e00000000000000604482015290519081900360640190fd5b600086815260208190526040902060028101869055600381018590559250610f6a610f59868663ffffffff6117d516565b60018501549063ffffffff6117e816565b6002840154610f8090606463ffffffff6117e816565b1191508115610fc157825474ff0000000000000000000000000000000000000000191674020000000000000000000000000000000000000000178355610ff5565b825474ff00000000000000000000000000000000000000001916740300000000000000000000000000000000000000001783555b610ffe86611811565b60408051831515815290517fa09418b9290be8509b4127e8df442ca7ca9aa4be676367d2a5c6586ab14253449181900360200190a1505050505050565b60016020526000908152604090205481565b60008260008111801561106257506002548111155b15156110a6576040805160e560020a62461bcd0281526020600482015260146024820152600080516020611b4a833981519152604482015290519081900360640190fd5b5050600091825260208281526040808420600160a060020a039390931684526007909201905290205460ff1690565b6060600080600080866000811180156110f057506002548111155b1515611134576040805160e560020a62461bcd0281526020600482015260146024820152600080516020611b4a833981519152604482015290519081900360640190fd5b600061113f896113a0565b600381111561114a57fe5b141561115557600080fd5b61115f888861104d565b151561116a57600080fd5b600088815260208181526040808320600160a060020a038b168452600781018352928190206002808201546001928301805485519481161561010002600019011692909204601f8101869004860284018601909452838352949850965092945085928592909184918301828280156112235780601f106111f857610100808354040283529160200191611223565b820191906000526020600020905b81548152906001019060200180831161120657829003601f168201915b5050505050915095509550505050509250929050565b60025481565b600160a060020a03811660009081526001602052604081208180805b60028401548210156112c0576002840180548390811061127757fe5b90600052602060002001549050828460010160008381526020019081526020016000205411156112b557600081815260018501602052604090205492505b60019091019061125b565b5090949350505050565b600060208181529181526040908190208054600180830154600280850154600386015460048701805489516101009782161597909702600019011693909304601f81018a90048a0286018a01909852878552600160a060020a0386169860a060020a90960460ff16979396919590949193919291908301828280156113905780601f1061136557610100808354040283529160200191611390565b820191906000526020600020905b81548152906001019060200180831161137357829003601f168201915b5050505050908060060154905087565b6000816000811180156113b557506002548111155b15156113f9576040805160e560020a62461bcd0281526020600482015260146024820152600080516020611b4a833981519152604482015290519081900360640190fd5b505060009081526020819052604090205460a060020a900460ff1690565b600454600160a060020a031681565b6000806000806000808651885114151561143f57600080fd5b5060005b87518110156114d257878181518110151561145a57fe5b906020019060200201516000141561148d57868181518110151561147a57fe5b90602001906020020151820191506114ca565b878181518110151561149b57fe5b90602001906020020151600114156114ca5786818151811015156114bb57fe5b90602001906020020151830192505b600101611443565b509697909695509350505050565b6060816000811180156114f557506002548111155b1515611539576040805160e560020a62461bcd0281526020600482015260146024820152600080516020611b4a833981519152604482015290519081900360640190fd5b6000611544846113a0565b600381111561154f57fe5b141561155a57600080fd5b60008381526020818152604091829020600501805483518184028101840190945280845290918301828280156115b957602002820191906000526020600020905b8154600160a060020a0316815260019091019060200180831161159b575b5050505050915050919050565b806000811180156115d957506002548111155b151561161d576040805160e560020a62461bcd0281526020600482015260146024820152600080516020611b4a833981519152604482015290519081900360640190fd5b600082815260208190526040902054600160a060020a031633146116b0576040805160e560020a62461bcd028152602060048201526024808201527f55736572206973206e6f74207468652063726561746f72206f6620746865207060448201527f6f6c6c2e00000000000000000000000000000000000000000000000000000000606482015290519081900360840190fd5b6000808381526020819052604090205460a060020a900460ff1660038111156116d557fe5b1461172a576040805160e560020a62461bcd02815260206004820152601860248201527f566f7465206973206e6f7420696e2070726f67726573732e0000000000000000604482015290519081900360640190fd5b600082815260208190526040902060060154421015611793576040805160e560020a62461bcd02815260206004820152601d60248201527f566f74696e6720706572696f6420686173206e6f742065787069726564000000604482015290519081900360640190fd5b506000908152602081905260409020805474ff0000000000000000000000000000000000000000191660a060020a179055565b600354600160a060020a031681565b818101828110156117e257fe5b92915050565b60008215156117f9575060006117e2565b5081810281838281151561180957fe5b04146117e257fe5b611819611ae6565b600082815260208181526040808320815161010081019092528054600160a060020a0381168352849383019060a060020a900460ff16600381111561185a57fe5b600381111561186557fe5b8152602001600182015481526020016002820154815260200160038201548152602001600482018054600181600116156101000203166002900480601f0160208091040260200160405190810160405280929190818152602001828054600181600116156101000203166002900480156119205780601f106118f557610100808354040283529160200191611920565b820191906000526020600020905b81548152906001019060200180831161190357829003601f168201915b505050505081526020016005820180548060200260200160405190810160405280929190818152602001828054801561198257602002820191906000526020600020905b8154600160a060020a03168152600190910190602001808311611964575b505050505081526020016006820154815250509250600091505b8260c00151518210156119f45760c08301518051839081106119ba57fe5b6020908102909101810151600160a060020a038116600090815260018084526040808320898452820190945292812055920191905061199c565b50505050565b828054600181600116156101000203166002900490600052602060002090601f016020900481019282601f10611a3b5782800160ff19823516178555611a68565b82800160010185558215611a68579182015b82811115611a68578235825591602001919060010190611a4d565b50611a74929150611b2c565b5090565b828054600181600116156101000203166002900490600052602060002090601f016020900481019282601f10611ab957805160ff1916838001178555611a68565b82800160010185558215611a68579182015b82811115611a68578251825591602001919060010190611acb565b6040805161010081019091526000808252602082019081526020016000815260200160008152602001600081526020016060815260200160608152602001600081525090565b611b4691905b80821115611a745760008155600101611b32565b9056004e6f7420612076616c696420706f6c6c2049642e000000000000000000000000a165627a7a7230582030c1bfc9af7d42f7af804164747ecf0c965697d87a5fb98d42a5912ec7ebea890029",
  "source": "// Voting.sol, Andrew Tam\n// TODO:\n//  -Separate token staking from voting\n//  -Timed polls\n\npragma solidity ^0.4.24;\n\nimport \"openzeppelin-solidity/contracts/math/SafeMath.sol\";\nimport \"./VotingToken.sol\";\nimport \"./Enigma.sol\";\n\ncontract Voting {\n  using SafeMath for uint;\n\n  /* EVENTS */\n  event voteCasted(address voter, uint pollID, bytes vote, uint weight);\n  event pollCreated(address creator, uint pollID, uint quorumPercentage, string description, uint votingLength);\n  event pollStatusUpdate(bool status);\n\n  /* Determine the current state of a poll */\n  enum PollStatus { IN_PROGRESS, TALLY, PASSED, REJECTED }\n\n  /* POLL */\n  struct Poll {\n    address creator;\n    PollStatus status;\n    uint quorumPercentage;\n    uint yeaVotes;\n    uint nayVotes;\n    string description;\n    address[] voters;\n    uint expirationTime;\n    mapping(address => Voter) voterInfo;\n  }\n\n  /* VOTER */\n  struct Voter {\n    bool hasVoted;\n    bytes vote;\n    uint weight;\n  }\n\n  struct TokenManager {\n    uint tokenBalance;\n    mapping(uint => uint) lockedTokens;\n    uint[] participatedPolls;\n  }\n\n  mapping(uint => Poll) public polls;\n  mapping(address => TokenManager) public bank;\n  uint public pollCount;\n  VotingToken public token;\n  Enigma public enigma;\n\n  /* CONSTRUCTOR */\n  constructor(address _token, address _enigma) public {\n    require(_token != 0 && address(token) == 0);\n    require(_enigma != 0 && address(enigma) == 0);\n    token = VotingToken(_token);\n    enigma = Enigma(_enigma);\n  }\n\n  /* POLL OPERATIONS */\n\n  /*\n   * Creates a new poll with a specified quorum percentage. Returns the poll ID of the new poll.\n   */\n  function createPoll(uint _quorumPct, string _description, uint _voteLength) external returns(uint) {\n    require(_quorumPct <= 100, \"Quorum Percentage must be less than or equal to 100%\");\n    pollCount++;\n\n    Poll storage curPoll = polls[pollCount];\n    curPoll.creator = msg.sender;\n    curPoll.status = PollStatus.IN_PROGRESS;\n    curPoll.quorumPercentage = _quorumPct;\n    curPoll.expirationTime = now + _voteLength * 1 seconds;\n    curPoll.description = _description;\n\n    emit pollCreated(msg.sender, pollCount, _quorumPct, _description, _voteLength);\n    return pollCount;\n  }\n\n  /*\n   * Ends a poll. Only the creator of a given poll can end that poll.\n   */\n  function endPoll(uint _pollID) public validPoll(_pollID) {\n    require(msg.sender == polls[_pollID].creator, \"User is not the creator of the poll.\");\n    require(polls[_pollID].status == PollStatus.IN_PROGRESS, \"Vote is not in progress.\");\n    require(now >= polls[_pollID].expirationTime, \"Voting period has not expired\");\n    polls[_pollID].status = PollStatus.TALLY;\n  }\n\n  /*\n   * Modifier that checks for a valid poll ID.\n   */\n  modifier validPoll(uint _pollID) {\n    require(_pollID > 0 && _pollID <= pollCount, \"Not a valid poll Id.\");\n    _;\n  }\n\n  /*\n   * Checks if a poll was approved given the quorum percentage.\n   */\n  function updatePollStatus(uint _pollID, uint _yeaVotes, uint _nayVotes) public validPoll(_pollID) onlyEnigma() {\n    require(getPollStatus(_pollID) == PollStatus.TALLY, \"Poll has not expired yet.\");\n    Poll storage curPoll = polls[_pollID];\n    curPoll.yeaVotes = _yeaVotes;\n    curPoll.nayVotes = _nayVotes;\n\n    bool pollStatus = (curPoll.yeaVotes.mul(100)) > curPoll.quorumPercentage.mul(curPoll.yeaVotes.add(curPoll.nayVotes));\n    if (pollStatus) {\n      curPoll.status = PollStatus.PASSED;\n    }\n    else {\n      curPoll.status = PollStatus.REJECTED;\n    }\n\n    updateTokenBank(_pollID);\n\n    emit pollStatusUpdate(pollStatus);\n  }\n\n  function updateTokenBank(uint _pollID) internal {\n    Poll memory curPoll = polls[_pollID];\n    for (uint i = 0; i < curPoll.voters.length; i++) {\n      address voter = curPoll.voters[i];\n      bank[voter].lockedTokens[_pollID] = 0;\n    }\n  }\n\n  /*\n   * Gets the status of a poll.\n   */\n  function getPollStatus(uint _pollID) public view validPoll(_pollID) returns (PollStatus) {\n    return polls[_pollID].status;\n  }\n\n  /*\n   * Modifier that checks that the contract caller is the Enigma contract.\n   */\n  modifier onlyEnigma() {\n    require(msg.sender == address(enigma));\n    _;\n  }\n\n  /*\n   * Gets the encrypted vote and weight for a voter and a given ended poll.\n   */\n  function getPollInfoForVoter(uint _pollID, address _voter) public view validPoll(_pollID) returns (bytes, uint) {\n    require(getPollStatus(_pollID) != PollStatus.IN_PROGRESS);\n    require(userHasVoted(_pollID, _voter));\n    Poll storage curPoll = polls[_pollID];\n    bytes vote = curPoll.voterInfo[_voter].vote;\n    uint weight = curPoll.voterInfo[_voter].weight;\n    return (vote, weight);\n  }\n\n  function getVotersForPoll(uint _pollID) public view validPoll(_pollID) returns(address[]) {\n    require(getPollStatus(_pollID) != PollStatus.IN_PROGRESS);\n    return polls[_pollID].voters;\n  }\n\n\n  /* VOTE OPERATIONS */\n\n  /*\n   * Casts a vote for a given poll. Stakes ERC20 tokens as votes.\n   * NOTE: _weight is denominated in *wei*.\n   */\n  function castVote(uint _pollID, bytes _encryptedVote, uint _weight) external validPoll(_pollID) {\n    require(getPollStatus(_pollID) == PollStatus.IN_PROGRESS, \"Poll has expired.\");\n    require(!userHasVoted(_pollID, msg.sender), \"User has already voted.\");\n    require(getTokenStake(msg.sender) >= _weight, \"User does not have enough staked tokens.\");\n\n    // update token bank\n    bank[msg.sender].lockedTokens[_pollID] = _weight;\n    bank[msg.sender].participatedPolls.push(_pollID);\n\n    Poll storage curPoll = polls[_pollID];\n\n    curPoll.voterInfo[msg.sender] = Voter({\n        hasVoted: true,\n        vote: _encryptedVote,\n        weight: _weight\n    });\n\n    curPoll.voters.push(msg.sender);\n\n    emit voteCasted(msg.sender, _pollID, _encryptedVote, _weight);\n  }\n\n\n  /*\n   * The callable function that is computed by the SGX node.\n   */\n  function countVotes(uint _pollID, uint[] _votes, uint[] _weights) public pure returns (uint, uint, uint) {\n    require(_votes.length == _weights.length);\n    uint yeaVotes;\n    uint nayVotes;\n    for (uint i = 0; i < _votes.length; i++) {\n      if (_votes[i] == 0) nayVotes += _weights[i];\n      else if (_votes[i] == 1) yeaVotes += _weights[i];\n    }\n    return (_pollID, yeaVotes, nayVotes);\n  }\n\n  /*\n   * Checks if a user has voted for a specific poll.\n   */\n  function userHasVoted(uint _pollID, address _user) public view validPoll(_pollID) returns (bool) {\n    return (polls[_pollID].voterInfo[_user].hasVoted);\n  }\n  /* TOKEN OPERATIONS */\n\n  /*\n   * Stakes tokens for a given voter.\n   * NOTE:\n   *  User must approve transfer of tokens.\n   *  _numTokens is denominated in *wei*.\n   */\n  function stakeVotingTokens(uint _numTokens) external {\n    require(token.balanceOf(msg.sender) >= _numTokens, \"User does not have enough tokens\");\n    require(token.transferFrom(msg.sender, this, _numTokens), \"User did not approve token transfer.\");\n    bank[msg.sender].tokenBalance += _numTokens;\n  }\n\n  /*\n   * Allows a voter to withdraw voting tokens after a poll has ended.\n   * NOTE: _numTokens is denominated in *wei*.\n   */\n  function withdrawTokens(uint _numTokens) external returns(uint) {\n    uint largest = getLockedAmount(msg.sender);\n    require(getTokenStake(msg.sender) - largest >= _numTokens, \"User is trying to withdraw too many tokens.\");\n    bank[msg.sender].tokenBalance -= _numTokens;\n    require(token.transfer(msg.sender, _numTokens));\n    return _numTokens;\n  }\n\n  function getLockedAmount(address _voter) public view returns (uint) {\n    TokenManager storage manager = bank[_voter];\n    uint largest;\n    for (uint i = 0; i < manager.participatedPolls.length; i++) {\n      uint curPollID = manager.participatedPolls[i];\n      if (manager.lockedTokens[curPollID] > largest) largest = manager.lockedTokens[curPollID];\n    }\n    return largest;\n  }\n\n  function getTokenStake(address _voter) public view returns(uint) {\n    return bank[_voter].tokenBalance;\n  }\n\n  function getPollHistory(address _voter) public view returns(uint[]) {\n    return bank[_voter].participatedPolls;\n  }\n\n\n}\n",
  "sourcePath": "/Users/andrew/Desktop/Andrew/secret-contracts/secret-contracts/contracts/Voting.sol",
  "compiler": {
    "name": "solc",
    "version": "0.4.24+commit.e67f0147.Emscripten.clang"
  },
  "schemaVersion": "2.0.1",
  "updatedAt": "2018-08-06T22:43:12.241Z"
}