{
  "contractName": "Voting",
  "abi": [
    {
      "constant": true,
      "inputs": [
        {
          "name": "",
          "type": "address"
        }
      ],
      "name": "bank",
      "outputs": [
        {
          "name": "tokenBalance",
          "type": "uint256"
        }
      ],
      "payable": false,
      "stateMutability": "view",
      "type": "function"
    },
    {
      "constant": true,
      "inputs": [],
      "name": "pollCount",
      "outputs": [
        {
          "name": "",
          "type": "uint256"
        }
      ],
      "payable": false,
      "stateMutability": "view",
      "type": "function"
    },
    {
      "constant": true,
      "inputs": [
        {
          "name": "",
          "type": "uint256"
        }
      ],
      "name": "polls",
      "outputs": [
        {
          "name": "creator",
          "type": "address"
        },
        {
          "name": "status",
          "type": "uint8"
        },
        {
          "name": "quorumPercentage",
          "type": "uint256"
        },
        {
          "name": "yeaVotes",
          "type": "uint256"
        },
        {
          "name": "nayVotes",
          "type": "uint256"
        },
        {
          "name": "description",
          "type": "string"
        }
      ],
      "payable": false,
      "stateMutability": "view",
      "type": "function"
    },
    {
      "constant": true,
      "inputs": [],
      "name": "enigma",
      "outputs": [
        {
          "name": "",
          "type": "address"
        }
      ],
      "payable": false,
      "stateMutability": "view",
      "type": "function"
    },
    {
      "constant": true,
      "inputs": [],
      "name": "token",
      "outputs": [
        {
          "name": "",
          "type": "address"
        }
      ],
      "payable": false,
      "stateMutability": "view",
      "type": "function"
    },
    {
      "inputs": [
        {
          "name": "_token",
          "type": "address"
        },
        {
          "name": "_enigma",
          "type": "address"
        }
      ],
      "payable": false,
      "stateMutability": "nonpayable",
      "type": "constructor"
    },
    {
      "anonymous": false,
      "inputs": [
        {
          "indexed": false,
          "name": "voter",
          "type": "address"
        },
        {
          "indexed": false,
          "name": "pollID",
          "type": "uint256"
        },
        {
          "indexed": false,
          "name": "vote",
          "type": "bytes"
        },
        {
          "indexed": false,
          "name": "weight",
          "type": "uint256"
        }
      ],
      "name": "voteCasted",
      "type": "event"
    },
    {
      "anonymous": false,
      "inputs": [
        {
          "indexed": false,
          "name": "pollID",
          "type": "uint256"
        },
        {
          "indexed": false,
          "name": "quorumPercentage",
          "type": "uint256"
        },
        {
          "indexed": false,
          "name": "creator",
          "type": "address"
        },
        {
          "indexed": false,
          "name": "description",
          "type": "string"
        }
      ],
      "name": "pollCreated",
      "type": "event"
    },
    {
      "anonymous": false,
      "inputs": [
        {
          "indexed": false,
          "name": "status",
          "type": "bool"
        }
      ],
      "name": "pollStatusUpdate",
      "type": "event"
    },
    {
      "constant": false,
      "inputs": [
        {
          "name": "_quorumPct",
          "type": "uint256"
        },
        {
          "name": "_description",
          "type": "string"
        }
      ],
      "name": "createPoll",
      "outputs": [
        {
          "name": "",
          "type": "uint256"
        }
      ],
      "payable": false,
      "stateMutability": "nonpayable",
      "type": "function"
    },
    {
      "constant": false,
      "inputs": [
        {
          "name": "_pollID",
          "type": "uint256"
        }
      ],
      "name": "endPoll",
      "outputs": [],
      "payable": false,
      "stateMutability": "nonpayable",
      "type": "function"
    },
    {
      "constant": false,
      "inputs": [
        {
          "name": "_pollID",
          "type": "uint256"
        },
        {
          "name": "_yeaVotes",
          "type": "uint256"
        },
        {
          "name": "_nayVotes",
          "type": "uint256"
        }
      ],
      "name": "updatePollStatus",
      "outputs": [],
      "payable": false,
      "stateMutability": "nonpayable",
      "type": "function"
    },
    {
      "constant": true,
      "inputs": [
        {
          "name": "_pollID",
          "type": "uint256"
        }
      ],
      "name": "getPollStatus",
      "outputs": [
        {
          "name": "",
          "type": "uint8"
        }
      ],
      "payable": false,
      "stateMutability": "view",
      "type": "function"
    },
    {
      "constant": true,
      "inputs": [
        {
          "name": "_pollID",
          "type": "uint256"
        },
        {
          "name": "_voter",
          "type": "address"
        }
      ],
      "name": "getPollInfoForVoter",
      "outputs": [
        {
          "name": "",
          "type": "bytes"
        },
        {
          "name": "",
          "type": "uint256"
        }
      ],
      "payable": false,
      "stateMutability": "view",
      "type": "function"
    },
    {
      "constant": true,
      "inputs": [
        {
          "name": "_pollID",
          "type": "uint256"
        }
      ],
      "name": "getVotersForPoll",
      "outputs": [
        {
          "name": "",
          "type": "address[]"
        }
      ],
      "payable": false,
      "stateMutability": "view",
      "type": "function"
    },
    {
      "constant": false,
      "inputs": [
        {
          "name": "_pollID",
          "type": "uint256"
        },
        {
          "name": "_encryptedVote",
          "type": "bytes"
        },
        {
          "name": "_weight",
          "type": "uint256"
        }
      ],
      "name": "castVote",
      "outputs": [],
      "payable": false,
      "stateMutability": "nonpayable",
      "type": "function"
    },
    {
      "constant": true,
      "inputs": [
        {
          "name": "_pollID",
          "type": "uint256"
        },
        {
          "name": "_votes",
          "type": "uint256[]"
        },
        {
          "name": "_weights",
          "type": "uint256[]"
        }
      ],
      "name": "countVotes",
      "outputs": [
        {
          "name": "",
          "type": "uint256"
        },
        {
          "name": "",
          "type": "uint256"
        },
        {
          "name": "",
          "type": "uint256"
        }
      ],
      "payable": false,
      "stateMutability": "pure",
      "type": "function"
    },
    {
      "constant": true,
      "inputs": [
        {
          "name": "_pollID",
          "type": "uint256"
        },
        {
          "name": "_user",
          "type": "address"
        }
      ],
      "name": "userHasVoted",
      "outputs": [
        {
          "name": "",
          "type": "bool"
        }
      ],
      "payable": false,
      "stateMutability": "view",
      "type": "function"
    },
    {
      "constant": false,
      "inputs": [
        {
          "name": "_numTokens",
          "type": "uint256"
        }
      ],
      "name": "stakeVotingTokens",
      "outputs": [],
      "payable": false,
      "stateMutability": "nonpayable",
      "type": "function"
    },
    {
      "constant": false,
      "inputs": [
        {
          "name": "_numTokens",
          "type": "uint256"
        }
      ],
      "name": "withdrawTokens",
      "outputs": [
        {
          "name": "",
          "type": "uint256"
        }
      ],
      "payable": false,
      "stateMutability": "nonpayable",
      "type": "function"
    },
    {
      "constant": true,
      "inputs": [
        {
          "name": "_voter",
          "type": "address"
        }
      ],
      "name": "getLockedAmount",
      "outputs": [
        {
          "name": "",
          "type": "uint256"
        }
      ],
      "payable": false,
      "stateMutability": "view",
      "type": "function"
    },
    {
      "constant": true,
      "inputs": [
        {
          "name": "_voter",
          "type": "address"
        }
      ],
      "name": "getTokenStake",
      "outputs": [
        {
          "name": "",
          "type": "uint256"
        }
      ],
      "payable": false,
      "stateMutability": "view",
      "type": "function"
    },
    {
      "constant": true,
      "inputs": [
        {
          "name": "_voter",
          "type": "address"
        }
      ],
      "name": "getPollHistory",
      "outputs": [
        {
          "name": "",
          "type": "uint256[]"
        }
      ],
      "payable": false,
      "stateMutability": "view",
      "type": "function"
    }
  ],
  "bytecode": "0x608060405234801561001057600080fd5b50604051604080611bb4833981016040528051602090910151600160a060020a0382161580159061004a5750600354600160a060020a0316155b151561005557600080fd5b600160a060020a038116158015906100765750600454600160a060020a0316155b151561008157600080fd5b60038054600160a060020a03938416600160a060020a03199182161790915560048054929093169116179055611af8806100bc6000396000f3006080604052600436106101065763ffffffff7c01000000000000000000000000000000000000000000000000000000006000350416630da65600811461010b5780630de88fd8146101255780630ed70ed114610196578063291ae9b3146101c9578063315a095d146101f05780634e0e931a14610208578063529a1baf146102265780635fc48d7e14610247578063658476321461027f5780636cee7be5146102a35780639207891d14610346578063929ec5371461035b578063ac2f00741461037c578063b0c095e314610446578063b24fd5c514610482578063d2025b1d146104b3578063df78b81c14610564578063f43b87781461057c578063fc0c546a14610594575b600080fd5b34801561011757600080fd5b506101236004356105a9565b005b34801561013157600080fd5b50610146600160a060020a03600435166107c2565b60408051602080825283518183015283519192839290830191858101910280838360005b8381101561018257818101518382015260200161016a565b505050509050019250505060405180910390f35b3480156101a257600080fd5b506101b7600160a060020a0360043516610831565b60408051918252519081900360200190f35b3480156101d557600080fd5b5061012360048035906024803590810191013560443561084c565b3480156101fc57600080fd5b506101b7600435610b6a565b34801561021457600080fd5b50610123600435602435604435610cc0565b34801561023257600080fd5b506101b7600160a060020a0360043516610eaf565b34801561025357600080fd5b5061026b600435600160a060020a0360243516610ec1565b604080519115158252519081900360200190f35b34801561028b57600080fd5b506101b7600480359060248035908101910135610f49565b3480156102af57600080fd5b506102c7600435600160a060020a03602435166110ba565b6040518080602001838152602001828103825284818151815260200191508051906020019080838360005b8381101561030a5781810151838201526020016102f2565b50505050905090810190601f1680156103375780820380516001836020036101000a031916815260200191505b50935050505060405180910390f35b34801561035257600080fd5b506101b761121e565b34801561036757600080fd5b506101b7600160a060020a0360043516611224565b34801561038857600080fd5b506103946004356112af565b604051600160a060020a0387168152602081018660038111156103b357fe5b60ff16815260200185815260200184815260200183815260200180602001828103825283818151815260200191508051906020019080838360005b838110156104065781810151838201526020016103ee565b50505050905090810190601f1680156104335780820380516001836020036101000a031916815260200191505b5097505050505050505060405180910390f35b34801561045257600080fd5b5061045e60043561137f565b6040518082600381111561046e57fe5b60ff16815260200191505060405180910390f35b34801561048e57600080fd5b506104976113f6565b60408051600160a060020a039092168252519081900360200190f35b3480156104bf57600080fd5b5060408051602060046024803582810135848102808701860190975280865261054696843596369660449591949091019291829185019084908082843750506040805187358901803560208181028481018201909552818452989b9a9989019892975090820195509350839250850190849080828437509497506114059650505050505050565b60408051938452602084019290925282820152519081900360600190f35b34801561057057600080fd5b506101466004356114bf565b34801561058857600080fd5b506101236004356115a5565b3480156105a057600080fd5b5061049761173c565b600354604080517f70a0823100000000000000000000000000000000000000000000000000000000815233600482015290518392600160a060020a0316916370a082319160248083019260209291908290030181600087803b15801561060e57600080fd5b505af1158015610622573d6000803e3d6000fd5b505050506040513d602081101561063857600080fd5b50511015610690576040805160e560020a62461bcd02815260206004820181905260248201527f5573657220646f6573206e6f74206861766520656e6f75676820746f6b656e73604482015290519081900360640190fd5b600354604080517f23b872dd000000000000000000000000000000000000000000000000000000008152336004820152306024820152604481018490529051600160a060020a03909216916323b872dd916064808201926020929091908290030181600087803b15801561070357600080fd5b505af1158015610717573d6000803e3d6000fd5b505050506040513d602081101561072d57600080fd5b505115156107aa576040805160e560020a62461bcd028152602060048201526024808201527f5573657220646964206e6f7420617070726f766520746f6b656e207472616e7360448201527f6665722e00000000000000000000000000000000000000000000000000000000606482015290519081900360840190fd5b33600090815260016020526040902080549091019055565b600160a060020a03811660009081526001602090815260409182902060020180548351818402810184019094528084526060939283018282801561082557602002820191906000526020600020905b815481526020019060010190808311610811575b50505050509050919050565b600160a060020a031660009081526001602052604090205490565b60008460008111801561086157506002548111155b15156108a5576040805160e560020a62461bcd0281526020600482015260146024820152600080516020611aad833981519152604482015290519081900360640190fd5b60006108b08761137f565b60038111156108bb57fe5b14610910576040805160e560020a62461bcd02815260206004820152601160248201527f506f6c6c2068617320657870697265642e000000000000000000000000000000604482015290519081900360640190fd5b61091a8633610ec1565b1561096f576040805160e560020a62461bcd02815260206004820152601760248201527f557365722068617320616c726561647920766f7465642e000000000000000000604482015290519081900360640190fd5b8261097933610831565b10156109f5576040805160e560020a62461bcd02815260206004820152602860248201527f5573657220646f6573206e6f74206861766520656e6f756768207374616b656460448201527f20746f6b656e732e000000000000000000000000000000000000000000000000606482015290519081900360840190fd5b3360009081526001602081815260408084208a8552808401835281852088905560020180548085018255908552828520018a90558984528382529283902083516060810185529283528351601f8901839004830281018301909452878452945090918282019188908890819084018382808284375050509284525050506020908101859052336000908152600685018252604090208251815460ff19169015151781558282015180519192610ab292600185019290910190611965565b50604091820151600290910155600583018054600181018255600091825260209182902001805473ffffffffffffffffffffffffffffffffffffffff19163390811790915582518181529182018990526060820186905260809282018381529282018790527fe95eb7d43e66fe71c9e83b9d854df9bbf195378b75da7c121b7910630d75387192909189918991899189919060a0820185858082843760405192018290039850909650505050505050a1505050505050565b600080610b7633611224565b90508281610b8333610831565b031015610c00576040805160e560020a62461bcd02815260206004820152602b60248201527f5573657220697320747279696e6720746f20776974686472617720746f6f206d60448201527f616e7920746f6b656e732e000000000000000000000000000000000000000000606482015290519081900360840190fd5b3360008181526001602090815260408083208054889003905560035481517fa9059cbb0000000000000000000000000000000000000000000000000000000081526004810195909552602485018890529051600160a060020a039091169363a9059cbb9360448083019493928390030190829087803b158015610c8257600080fd5b505af1158015610c96573d6000803e3d6000fd5b505050506040513d6020811015610cac57600080fd5b50511515610cb957600080fd5b5090919050565b60008084600081118015610cd657506002548111155b1515610d1a576040805160e560020a62461bcd0281526020600482015260146024820152600080516020611aad833981519152604482015290519081900360640190fd5b600454600160a060020a03163314610d3157600080fd5b6001610d3c8761137f565b6003811115610d4757fe5b14610d9c576040805160e560020a62461bcd02815260206004820152601960248201527f506f6c6c20686173206e6f742065787069726564207965742e00000000000000604482015290519081900360640190fd5b600086815260208190526040902060028101869055600381018590559250610dde610dcd868663ffffffff61174b16565b60018501549063ffffffff61175e16565b6002840154610df490606463ffffffff61175e16565b1191508115610e3557825474ff0000000000000000000000000000000000000000191674020000000000000000000000000000000000000000178355610e69565b825474ff00000000000000000000000000000000000000001916740300000000000000000000000000000000000000001783555b610e7286611787565b60408051831515815290517fa09418b9290be8509b4127e8df442ca7ca9aa4be676367d2a5c6586ab14253449181900360200190a1505050505050565b60016020526000908152604090205481565b600082600081118015610ed657506002548111155b1515610f1a576040805160e560020a62461bcd0281526020600482015260146024820152600080516020611aad833981519152604482015290519081900360640190fd5b5050600091825260208281526040808420600160a060020a039390931684526006909201905290205460ff1690565b6000806064851115610fcb576040805160e560020a62461bcd02815260206004820152603460248201527f51756f72756d2050657263656e74616765206d757374206265206c657373207460448201527f68616e206f7220657175616c20746f2031303025000000000000000000000000606482015290519081900360840190fd5b5060028054600190810191829055600091825260208290526040909120805473ffffffffffffffffffffffffffffffffffffffff1916331774ff0000000000000000000000000000000000000000191681559081018590556110316004820185856119e3565b507fc504d9ec32644c55801c38afe2a56cc0b06be98d7fe9debdab0fcf28fa99cf7d600254863387876040518086815260200185815260200184600160a060020a0316600160a060020a0316815260200180602001828103825284848281815260200192508082843760405192018290039850909650505050505050a150506002549392505050565b6060600080600080866000811180156110d557506002548111155b1515611119576040805160e560020a62461bcd0281526020600482015260146024820152600080516020611aad833981519152604482015290519081900360640190fd5b60006111248961137f565b600381111561112f57fe5b141561113a57600080fd5b6111448888610ec1565b151561114f57600080fd5b600088815260208181526040808320600160a060020a038b168452600681018352928190206002808201546001928301805485519481161561010002600019011692909204601f8101869004860284018601909452838352949850965092945085928592909184918301828280156112085780601f106111dd57610100808354040283529160200191611208565b820191906000526020600020905b8154815290600101906020018083116111eb57829003601f168201915b5050505050915095509550505050509250929050565b60025481565b600160a060020a03811660009081526001602052604081208180805b60028401548210156112a5576002840180548390811061125c57fe5b906000526020600020015490508284600101600083815260200190815260200160002054111561129a57600081815260018501602052604090205492505b600190910190611240565b5090949350505050565b600060208181529181526040908190208054600180830154600280850154600386015460048701805489516101009782161597909702600019011693909304601f81018a90048a0286018a01909852878552600160a060020a0386169860a060020a90960460ff16979396919590949193919291908301828280156113755780601f1061134a57610100808354040283529160200191611375565b820191906000526020600020905b81548152906001019060200180831161135857829003601f168201915b5050505050905086565b60008160008111801561139457506002548111155b15156113d8576040805160e560020a62461bcd0281526020600482015260146024820152600080516020611aad833981519152604482015290519081900360640190fd5b505060009081526020819052604090205460a060020a900460ff1690565b600454600160a060020a031681565b6000806000806000808651885114151561141e57600080fd5b5060005b87518110156114b157878181518110151561143957fe5b906020019060200201516000141561146c57868181518110151561145957fe5b90602001906020020151820191506114a9565b878181518110151561147a57fe5b90602001906020020151600114156114a957868181518110151561149a57fe5b90602001906020020151830192505b600101611422565b509697909695509350505050565b6060816000811180156114d457506002548111155b1515611518576040805160e560020a62461bcd0281526020600482015260146024820152600080516020611aad833981519152604482015290519081900360640190fd5b60006115238461137f565b600381111561152e57fe5b141561153957600080fd5b600083815260208181526040918290206005018054835181840281018401909452808452909183018282801561159857602002820191906000526020600020905b8154600160a060020a0316815260019091019060200180831161157a575b5050505050915050919050565b806000811180156115b857506002548111155b15156115fc576040805160e560020a62461bcd0281526020600482015260146024820152600080516020611aad833981519152604482015290519081900360640190fd5b600082815260208190526040902054600160a060020a0316331461168f576040805160e560020a62461bcd028152602060048201526024808201527f55736572206973206e6f74207468652063726561746f72206f6620746865207060448201527f6f6c6c2e00000000000000000000000000000000000000000000000000000000606482015290519081900360840190fd5b6000808381526020819052604090205460a060020a900460ff1660038111156116b457fe5b14611709576040805160e560020a62461bcd02815260206004820152601860248201527f566f7465206973206e6f7420696e2070726f67726573732e0000000000000000604482015290519081900360640190fd5b506000908152602081905260409020805474ff0000000000000000000000000000000000000000191660a060020a179055565b600354600160a060020a031681565b8181018281101561175857fe5b92915050565b600082151561176f57506000611758565b5081810281838281151561177f57fe5b041461175857fe5b61178f611a51565b600082815260208181526040808320815160e081019092528054600160a060020a0381168352849383019060a060020a900460ff1660038111156117cf57fe5b60038111156117da57fe5b8152602001600182015481526020016002820154815260200160038201548152602001600482018054600181600116156101000203166002900480601f0160208091040260200160405190810160405280929190818152602001828054600181600116156101000203166002900480156118955780601f1061186a57610100808354040283529160200191611895565b820191906000526020600020905b81548152906001019060200180831161187857829003601f168201915b50505050508152602001600582018054806020026020016040519081016040528092919081815260200182805480156118f757602002820191906000526020600020905b8154600160a060020a031681526001909101906020018083116118d9575b5050505050815250509250600091505b8260c001515182101561195f5760c083015180518390811061192557fe5b6020908102909101810151600160a060020a0381166000908152600180845260408083208984528201909452928120559201919050611907565b50505050565b828054600181600116156101000203166002900490600052602060002090601f016020900481019282601f106119a657805160ff19168380011785556119d3565b828001600101855582156119d3579182015b828111156119d35782518255916020019190600101906119b8565b506119df929150611a8f565b5090565b828054600181600116156101000203166002900490600052602060002090601f016020900481019282601f10611a245782800160ff198235161785556119d3565b828001600101855582156119d3579182015b828111156119d3578235825591602001919060010190611a36565b6040805160e0810190915260008082526020820190815260200160008152602001600081526020016000815260200160608152602001606081525090565b611aa991905b808211156119df5760008155600101611a95565b9056004e6f7420612076616c696420706f6c6c2049642e000000000000000000000000a165627a7a72305820a607fc4f5f7c96039144f1532fe8df7fed1dd98e42526f51a5a186fe07d4477f0029",
  "source": "// Voting.sol, Andrew Tam\n// TODO:\n//  -Separate token staking from voting\n//  -Timed polls\n\npragma solidity ^0.4.24;\n\nimport \"openzeppelin-solidity/contracts/math/SafeMath.sol\";\nimport \"./VotingToken.sol\";\nimport \"./Enigma.sol\";\n\ncontract Voting {\n  using SafeMath for uint;\n\n  /* EVENTS */\n  event voteCasted(address voter, uint pollID, bytes vote, uint weight);\n  event pollCreated(uint pollID, uint quorumPercentage, address creator, string description);\n  event pollStatusUpdate(bool status);\n\n  /* Determine the current state of a poll */\n  enum PollStatus { IN_PROGRESS, TALLY, PASSED, REJECTED }\n\n  /* POLL */\n  struct Poll {\n    address creator;\n    PollStatus status;\n    uint quorumPercentage;\n    uint yeaVotes;\n    uint nayVotes;\n    string description;\n    address[] voters;\n    mapping(address => Voter) voterInfo;\n  }\n\n  /* VOTER */\n  struct Voter {\n    bool hasVoted;\n    bytes vote;\n    uint weight;\n  }\n\n  struct TokenManager {\n    uint tokenBalance;\n    mapping(uint => uint) lockedTokens;\n    uint[] participatedPolls;\n  }\n\n  mapping(uint => Poll) public polls;\n  mapping(address => TokenManager) public bank;\n  uint public pollCount;\n  VotingToken public token;\n  Enigma public enigma;\n\n  /* CONSTRUCTOR */\n  constructor(address _token, address _enigma) public {\n    require(_token != 0 && address(token) == 0);\n    require(_enigma != 0 && address(enigma) == 0);\n    token = VotingToken(_token);\n    enigma = Enigma(_enigma);\n  }\n\n  /* POLL OPERATIONS */\n\n  /*\n   * Creates a new poll with a specified quorum percentage. Returns the poll ID of the new poll.\n   */\n  function createPoll(uint _quorumPct, string _description) external returns(uint) {\n    require(_quorumPct <= 100, \"Quorum Percentage must be less than or equal to 100%\");\n    pollCount++;\n\n    Poll storage curPoll = polls[pollCount];\n    curPoll.creator = msg.sender;\n    curPoll.status = PollStatus.IN_PROGRESS;\n    curPoll.quorumPercentage = _quorumPct;\n    curPoll.description = _description;\n\n    emit pollCreated(pollCount, _quorumPct, msg.sender, _description);\n    return pollCount;\n  }\n\n  /*\n   * Ends a poll. Only the creator of a given poll can end that poll.\n   */\n  function endPoll(uint _pollID) public validPoll(_pollID) {\n    require(msg.sender == polls[_pollID].creator, \"User is not the creator of the poll.\");\n    require(polls[_pollID].status == PollStatus.IN_PROGRESS, \"Vote is not in progress.\");\n    polls[_pollID].status = PollStatus.TALLY;\n  }\n\n  /*\n   * Modifier that checks for a valid poll ID.\n   */\n  modifier validPoll(uint _pollID) {\n    require(_pollID > 0 && _pollID <= pollCount, \"Not a valid poll Id.\");\n    _;\n  }\n\n  /*\n   * Checks if a poll was approved given the quorum percentage.\n   */\n  function updatePollStatus(uint _pollID, uint _yeaVotes, uint _nayVotes) public validPoll(_pollID) onlyEnigma() {\n    require(getPollStatus(_pollID) == PollStatus.TALLY, \"Poll has not expired yet.\");\n    Poll storage curPoll = polls[_pollID];\n    curPoll.yeaVotes = _yeaVotes;\n    curPoll.nayVotes = _nayVotes;\n\n    bool pollStatus = (curPoll.yeaVotes.mul(100)) > curPoll.quorumPercentage.mul(curPoll.yeaVotes.add(curPoll.nayVotes));\n    if (pollStatus) {\n      curPoll.status = PollStatus.PASSED;\n    }\n    else {\n      curPoll.status = PollStatus.REJECTED;\n    }\n\n    updateTokenBank(_pollID);\n\n    emit pollStatusUpdate(pollStatus);\n  }\n\n  function updateTokenBank(uint _pollID) internal {\n    Poll memory curPoll = polls[_pollID];\n    for (uint i = 0; i < curPoll.voters.length; i++) {\n      address voter = curPoll.voters[i];\n      bank[voter].lockedTokens[_pollID] = 0;\n    }\n  }\n\n  /*\n   * Gets the status of a poll.\n   */\n  function getPollStatus(uint _pollID) public view validPoll(_pollID) returns (PollStatus) {\n    return polls[_pollID].status;\n  }\n\n  /*\n   * Modifier that checks that the contract caller is the Enigma contract.\n   */\n  modifier onlyEnigma() {\n    require(msg.sender == address(enigma));\n    _;\n  }\n\n  /*\n   * Gets the encrypted vote and weight for a voter and a given ended poll.\n   */\n  function getPollInfoForVoter(uint _pollID, address _voter) public view validPoll(_pollID) returns (bytes, uint) {\n    require(getPollStatus(_pollID) != PollStatus.IN_PROGRESS);\n    require(userHasVoted(_pollID, _voter));\n    Poll storage curPoll = polls[_pollID];\n    bytes vote = curPoll.voterInfo[_voter].vote;\n    uint weight = curPoll.voterInfo[_voter].weight;\n    return (vote, weight);\n  }\n\n  function getVotersForPoll(uint _pollID) public view validPoll(_pollID) returns(address[]) {\n    require(getPollStatus(_pollID) != PollStatus.IN_PROGRESS);\n    return polls[_pollID].voters;\n  }\n\n\n  /* VOTE OPERATIONS */\n\n  /*\n   * Casts a vote for a given poll. Stakes ERC20 tokens as votes.\n   * NOTE: _weight is denominated in *wei*.\n   */\n  function castVote(uint _pollID, bytes _encryptedVote, uint _weight) external validPoll(_pollID) {\n    require(getPollStatus(_pollID) == PollStatus.IN_PROGRESS, \"Poll has expired.\");\n    require(!userHasVoted(_pollID, msg.sender), \"User has already voted.\");\n    require(getTokenStake(msg.sender) >= _weight, \"User does not have enough staked tokens.\");\n\n    // update token bank\n    bank[msg.sender].lockedTokens[_pollID] = _weight;\n    bank[msg.sender].participatedPolls.push(_pollID);\n\n    Poll storage curPoll = polls[_pollID];\n\n    curPoll.voterInfo[msg.sender] = Voter({\n        hasVoted: true,\n        vote: _encryptedVote,\n        weight: _weight\n    });\n\n    curPoll.voters.push(msg.sender);\n\n    emit voteCasted(msg.sender, _pollID, _encryptedVote, _weight);\n  }\n\n\n  /*\n   * The callable function that is computed by the SGX node.\n   */\n  function countVotes(uint _pollID, uint[] _votes, uint[] _weights) public pure returns (uint, uint, uint) {\n    require(_votes.length == _weights.length);\n    uint yeaVotes;\n    uint nayVotes;\n    for (uint i = 0; i < _votes.length; i++) {\n      if (_votes[i] == 0) nayVotes += _weights[i];\n      else if (_votes[i] == 1) yeaVotes += _weights[i];\n    }\n    return (_pollID, yeaVotes, nayVotes);\n  }\n\n  /*\n   * Checks if a user has voted for a specific poll.\n   */\n  function userHasVoted(uint _pollID, address _user) public view validPoll(_pollID) returns (bool) {\n    return (polls[_pollID].voterInfo[_user].hasVoted);\n  }\n  /* TOKEN OPERATIONS */\n\n  /*\n   * Stakes tokens for a given voter.\n   * NOTE:\n   *  User must approve transfer of tokens.\n   *  _numTokens is denominated in *wei*.\n   */\n  function stakeVotingTokens(uint _numTokens) external {\n    require(token.balanceOf(msg.sender) >= _numTokens, \"User does not have enough tokens\");\n    require(token.transferFrom(msg.sender, this, _numTokens), \"User did not approve token transfer.\");\n    bank[msg.sender].tokenBalance += _numTokens;\n  }\n\n  /*\n   * Allows a voter to withdraw voting tokens after a poll has ended.\n   * NOTE: _numTokens is denominated in *wei*.\n   */\n  function withdrawTokens(uint _numTokens) external returns(uint) {\n    uint largest = getLockedAmount(msg.sender);\n    require(getTokenStake(msg.sender) - largest >= _numTokens, \"User is trying to withdraw too many tokens.\");\n    bank[msg.sender].tokenBalance -= _numTokens;\n    require(token.transfer(msg.sender, _numTokens));\n    return _numTokens;\n  }\n\n  function getLockedAmount(address _voter) public view returns (uint) {\n    TokenManager storage manager = bank[_voter];\n    uint largest;\n    for (uint i = 0; i < manager.participatedPolls.length; i++) {\n      uint curPollID = manager.participatedPolls[i];\n      if (manager.lockedTokens[curPollID] > largest) largest = manager.lockedTokens[curPollID];\n    }\n    return largest;\n  }\n\n  function getTokenStake(address _voter) public view returns(uint) {\n    return bank[_voter].tokenBalance;\n  }\n\n  function getPollHistory(address _voter) public view returns(uint[]) {\n    return bank[_voter].participatedPolls;\n  }\n\n\n}\n",
  "sourcePath": "/Users/andrew/Desktop/Andrew/secret-contracts/secret-contracts/contracts/Voting.sol",
  "compiler": {
    "name": "solc",
    "version": "0.4.24+commit.e67f0147.Emscripten.clang"
  },
  "schemaVersion": "2.0.1",
  "updatedAt": "2018-08-06T21:22:04.833Z"
}