{
  "contractName": "Voting",
  "abi": [
    {
      "constant": true,
      "inputs": [],
      "name": "pollCount",
      "outputs": [
        {
          "name": "",
          "type": "uint256"
        }
      ],
      "payable": false,
      "stateMutability": "view",
      "type": "function"
    },
    {
      "constant": true,
      "inputs": [
        {
          "name": "",
          "type": "uint256"
        }
      ],
      "name": "polls",
      "outputs": [
        {
          "name": "revealDate",
          "type": "uint256"
        },
        {
          "name": "quorumPercentage",
          "type": "uint256"
        },
        {
          "name": "yeaVotes",
          "type": "uint256"
        },
        {
          "name": "nayVotes",
          "type": "uint256"
        },
        {
          "name": "numVoters",
          "type": "uint256"
        },
        {
          "name": "description",
          "type": "string"
        }
      ],
      "payable": false,
      "stateMutability": "view",
      "type": "function"
    },
    {
      "constant": true,
      "inputs": [],
      "name": "enigma",
      "outputs": [
        {
          "name": "",
          "type": "address"
        }
      ],
      "payable": false,
      "stateMutability": "view",
      "type": "function"
    },
    {
      "constant": true,
      "inputs": [],
      "name": "token",
      "outputs": [
        {
          "name": "",
          "type": "address"
        }
      ],
      "payable": false,
      "stateMutability": "view",
      "type": "function"
    },
    {
      "inputs": [
        {
          "name": "_token",
          "type": "address"
        },
        {
          "name": "_enigmaAddress",
          "type": "address"
        }
      ],
      "payable": false,
      "stateMutability": "nonpayable",
      "type": "constructor"
    },
    {
      "anonymous": false,
      "inputs": [
        {
          "indexed": false,
          "name": "voter",
          "type": "address"
        },
        {
          "indexed": false,
          "name": "pollId",
          "type": "uint256"
        },
        {
          "indexed": false,
          "name": "vote",
          "type": "uint256"
        },
        {
          "indexed": false,
          "name": "weight",
          "type": "uint256"
        }
      ],
      "name": "voteCasted",
      "type": "event"
    },
    {
      "anonymous": false,
      "inputs": [
        {
          "indexed": false,
          "name": "pollId",
          "type": "uint256"
        },
        {
          "indexed": false,
          "name": "quorumPercentage",
          "type": "uint256"
        },
        {
          "indexed": false,
          "name": "votingTime",
          "type": "uint256"
        },
        {
          "indexed": false,
          "name": "description",
          "type": "string"
        }
      ],
      "name": "pollCreated",
      "type": "event"
    },
    {
      "anonymous": false,
      "inputs": [
        {
          "indexed": false,
          "name": "status",
          "type": "bool"
        }
      ],
      "name": "pollPassed",
      "type": "event"
    },
    {
      "constant": false,
      "inputs": [
        {
          "name": "_quorumPct",
          "type": "uint256"
        },
        {
          "name": "_votingTime",
          "type": "uint256"
        },
        {
          "name": "_description",
          "type": "string"
        }
      ],
      "name": "createPoll",
      "outputs": [
        {
          "name": "pollId",
          "type": "uint256"
        }
      ],
      "payable": false,
      "stateMutability": "nonpayable",
      "type": "function"
    },
    {
      "constant": false,
      "inputs": [
        {
          "name": "_pollId",
          "type": "uint256"
        },
        {
          "name": "_yeaVotes",
          "type": "uint256"
        },
        {
          "name": "_nayVotes",
          "type": "uint256"
        }
      ],
      "name": "isPollPassed",
      "outputs": [
        {
          "name": "pollStatus",
          "type": "bool"
        }
      ],
      "payable": false,
      "stateMutability": "nonpayable",
      "type": "function"
    },
    {
      "constant": true,
      "inputs": [
        {
          "name": "_pollId",
          "type": "uint256"
        }
      ],
      "name": "isPollExpired",
      "outputs": [
        {
          "name": "pollExpired",
          "type": "bool"
        }
      ],
      "payable": false,
      "stateMutability": "view",
      "type": "function"
    },
    {
      "constant": true,
      "inputs": [
        {
          "name": "_pollId",
          "type": "uint256"
        },
        {
          "name": "votes",
          "type": "uint256[]"
        },
        {
          "name": "weights",
          "type": "uint256[]"
        }
      ],
      "name": "countVotes",
      "outputs": [
        {
          "name": "pollId",
          "type": "uint256"
        },
        {
          "name": "yeaVotes",
          "type": "uint256"
        },
        {
          "name": "nayVotes",
          "type": "uint256"
        }
      ],
      "payable": false,
      "stateMutability": "pure",
      "type": "function"
    },
    {
      "constant": false,
      "inputs": [
        {
          "name": "_pollId",
          "type": "uint256"
        },
        {
          "name": "_encryptedVote",
          "type": "uint256"
        },
        {
          "name": "_weight",
          "type": "uint256"
        }
      ],
      "name": "castVote",
      "outputs": [],
      "payable": false,
      "stateMutability": "nonpayable",
      "type": "function"
    },
    {
      "constant": true,
      "inputs": [
        {
          "name": "_pollId",
          "type": "uint256"
        },
        {
          "name": "_user",
          "type": "address"
        }
      ],
      "name": "userHasVoted",
      "outputs": [
        {
          "name": "hasVoted",
          "type": "bool"
        }
      ],
      "payable": false,
      "stateMutability": "view",
      "type": "function"
    },
    {
      "constant": false,
      "inputs": [
        {
          "name": "_numTokens",
          "type": "uint256"
        },
        {
          "name": "_pollId",
          "type": "uint256"
        }
      ],
      "name": "withdrawTokens",
      "outputs": [],
      "payable": false,
      "stateMutability": "nonpayable",
      "type": "function"
    }
  ],
  "bytecode": "0x608060405234801561001057600080fd5b50604051604080611860833981018060405281019080805190602001909291908051906020019092919050505081600260006101000a81548173ffffffffffffffffffffffffffffffffffffffff021916908373ffffffffffffffffffffffffffffffffffffffff16021790555080600360006101000a81548173ffffffffffffffffffffffffffffffffffffffff021916908373ffffffffffffffffffffffffffffffffffffffff1602179055505050611790806100d06000396000f3006080604052600436106100af576000357c0100000000000000000000000000000000000000000000000000000000900463ffffffff1680635be5e3ec146100b45780635fc48d7e146100f557806381b4d5ec1461015a5780639207891d146101bd578063ac2f0074146101e8578063ae1203c0146102b1578063b24fd5c5146102f6578063ba7bd2aa1461034d578063cac4de9414610384578063d2025b1d146103dd578063fc0c546a146104b2575b600080fd5b3480156100c057600080fd5b506100f3600480360381019080803590602001909291908035906020019092919080359060200190929190505050610509565b005b34801561010157600080fd5b5061014060048036038101908080359060200190929190803573ffffffffffffffffffffffffffffffffffffffff1690602001909291905050506107da565b604051808215151515815260200191505060405180910390f35b34801561016657600080fd5b506101a760048036038101908080359060200190929190803590602001909291908035906020019082018035906020019190919293919293905050506108cf565b6040518082815260200191505060405180910390f35b3480156101c957600080fd5b506101d2610a4a565b6040518082815260200191505060405180910390f35b3480156101f457600080fd5b5061021360048036038101908080359060200190929190505050610a50565b6040518087815260200186815260200185815260200184815260200183815260200180602001828103825283818151815260200191508051906020019080838360005b83811015610271578082015181840152602081019050610256565b50505050905090810190601f16801561029e5780820380516001836020036101000a031916815260200191505b5097505050505050505060405180910390f35b3480156102bd57600080fd5b506102dc60048036038101908080359060200190929190505050610b24565b604051808215151515815260200191505060405180910390f35b34801561030257600080fd5b5061030b610bce565b604051808273ffffffffffffffffffffffffffffffffffffffff1673ffffffffffffffffffffffffffffffffffffffff16815260200191505060405180910390f35b34801561035957600080fd5b506103826004803603810190808035906020019092919080359060200190929190505050610bf4565b005b34801561039057600080fd5b506103c3600480360381019080803590602001909291908035906020019092919080359060200190929190505050610f33565b604051808215151515815260200191505060405180910390f35b3480156103e957600080fd5b5061048e60048036038101908080359060200190929190803590602001908201803590602001908080602002602001604051908101604052809392919081815260200183836020028082843782019150505050505091929192908035906020019082018035906020019080806020026020016040519081016040528093929190818152602001838360200280828437820191505050505050919291929050505061123b565b60405180848152602001838152602001828152602001935050505060405180910390f35b3480156104be57600080fd5b506104c76112cd565b604051808273ffffffffffffffffffffffffffffffffffffffff1673ffffffffffffffffffffffffffffffffffffffff16815260200191505060405180910390f35b60008360008111801561051e57506001548111155b1515610592576040517f08c379a00000000000000000000000000000000000000000000000000000000081526004018080602001828103825260148152602001807f4e6f7420612076616c696420706f6c6c2049642e00000000000000000000000081525060200191505060405180910390fd5b61059b85610b24565b151515610610576040517f08c379a00000000000000000000000000000000000000000000000000000000081526004018080602001828103825260118152602001807f506f6c6c2068617320657870697265642e00000000000000000000000000000081525060200191505060405180910390fd5b61061a85336107da565b15151561068f576040517f08c379a00000000000000000000000000000000000000000000000000000000081526004018080602001828103825260178152602001807f557365722068617320616c726561647920766f7465642e00000000000000000081525060200191505060405180910390fd5b61069933846112f3565b6000808681526020019081526020016000209150606060405190810160405280600115158152602001858152602001848152508260060160003373ffffffffffffffffffffffffffffffffffffffff1673ffffffffffffffffffffffffffffffffffffffff16815260200190815260200160002060008201518160000160006101000a81548160ff021916908315150217905550602082015181600101556040820151816002015590505081600401600081548092919060010191905055507f24e8f28bcf1dbc2f2cbdaf38b4ed8c435d3ac3b055bd15be18b06645b29dba1d33868686604051808573ffffffffffffffffffffffffffffffffffffffff1673ffffffffffffffffffffffffffffffffffffffff16815260200184815260200183815260200182815260200194505050505060405180910390a15050505050565b6000826000811180156107ef57506001548111155b1515610863576040517f08c379a00000000000000000000000000000000000000000000000000000000081526004018080602001828103825260148152602001807f4e6f7420612076616c696420706f6c6c2049642e00000000000000000000000081525060200191505060405180910390fd5b60008085815260200190815260200160002060060160008473ffffffffffffffffffffffffffffffffffffffff1673ffffffffffffffffffffffffffffffffffffffff16815260200190815260200160002060000160009054906101000a900460ff1691505092915050565b60008060648611151515610971576040517f08c379a00000000000000000000000000000000000000000000000000000000081526004018080602001828103825260348152602001807f51756f72756d2050657263656e74616765206d757374206265206c657373207481526020017f68616e206f7220657175616c20746f203130302500000000000000000000000081525060400191505060405180910390fd5b600160008154809291906001019190505550600080600154815260200190815260200160002090506109ac854261163490919063ffffffff16565b816000018190555085816001018190555083838260050191906109d0929190611688565b507f0899c67b93886ded76218352a9f9d1ea357941dd72919b99261846fd4ee7f70060015487878787604051808681526020018581526020018481526020018060200182810382528484828181526020019250808284378201915050965050505050505060405180910390a1600154915050949350505050565b60015481565b6000602052806000526040600020600091509050806000015490806001015490806002015490806003015490806004015490806005018054600181600116156101000203166002900480601f016020809104026020016040519081016040528092919081815260200182805460018160011615610100020316600290048015610b1a5780601f10610aef57610100808354040283529160200191610b1a565b820191906000526020600020905b815481529060010190602001808311610afd57829003601f168201915b5050505050905086565b600081600081118015610b3957506001548111155b1515610bad576040517f08c379a00000000000000000000000000000000000000000000000000000000081526004018080602001828103825260148152602001807f4e6f7420612076616c696420706f6c6c2049642e00000000000000000000000081525060200191505060405180910390fd5b60008084815260200190815260200160002060000154421015915050919050565b600360009054906101000a900473ffffffffffffffffffffffffffffffffffffffff1681565b80600081118015610c0757506001548111155b1515610c7b576040517f08c379a00000000000000000000000000000000000000000000000000000000081526004018080602001828103825260148152602001807f4e6f7420612076616c696420706f6c6c2049642e00000000000000000000000081525060200191505060405180910390fd5b610c8482610b24565b8015610c965750610c9582336107da565b5b1515610d30576040517f08c379a00000000000000000000000000000000000000000000000000000000081526004018080602001828103825260368152602001807f506f6c6c20686173206e6f742065787069726564206f7220757365722064696481526020017f206e6f7420766f746520696e2074686520706f6c6c2e0000000000000000000081525060400191505060405180910390fd5b60008083815260200190815260200160002060060160003373ffffffffffffffffffffffffffffffffffffffff1673ffffffffffffffffffffffffffffffffffffffff168152602001908152602001600020600201548311151515610e23576040517f08c379a000000000000000000000000000000000000000000000000000000000815260040180806020018281038252602b8152602001807f5573657220697320747279696e6720746f20776974686472617720746f6f206d81526020017f616e7920746f6b656e732e00000000000000000000000000000000000000000081525060400191505060405180910390fd5b600260009054906101000a900473ffffffffffffffffffffffffffffffffffffffff1673ffffffffffffffffffffffffffffffffffffffff1663a9059cbb33856040518363ffffffff167c0100000000000000000000000000000000000000000000000000000000028152600401808373ffffffffffffffffffffffffffffffffffffffff1673ffffffffffffffffffffffffffffffffffffffff16815260200182815260200192505050602060405180830381600087803b158015610ee857600080fd5b505af1158015610efc573d6000803e3d6000fd5b505050506040513d6020811015610f1257600080fd5b81019080805190602001909291905050501515610f2e57600080fd5b505050565b6000610f3d611708565b600085600081118015610f5257506001548111155b1515610fc6576040517f08c379a00000000000000000000000000000000000000000000000000000000081526004018080602001828103825260148152602001807f4e6f7420612076616c696420706f6c6c2049642e00000000000000000000000081525060200191505060405180910390fd5b600360009054906101000a900473ffffffffffffffffffffffffffffffffffffffff1673ffffffffffffffffffffffffffffffffffffffff163373ffffffffffffffffffffffffffffffffffffffff1614151561102257600080fd5b61102b87610b24565b151561109f576040517f08c379a00000000000000000000000000000000000000000000000000000000081526004018080602001828103825260198152602001807f506f6c6c20686173206e6f742065787069726564207965742e0000000000000081525060200191505060405180910390fd5b60008088815260200190815260200160002060c060405190810160405290816000820154815260200160018201548152602001600282015481526020016003820154815260200160048201548152602001600582018054600181600116156101000203166002900480601f0160208091040260200160405190810160405280929190818152602001828054600181600116156101000203166002900480156111885780601f1061115d57610100808354040283529160200191611188565b820191906000526020600020905b81548152906001019060200180831161116b57829003601f168201915b505050505081525050925085836040018181525050848360600181815250506111d86111c58460600151856040015161163490919063ffffffff16565b846020015161165090919063ffffffff16565b6111f06064856040015161165090919063ffffffff16565b1191507f6d159032c96b1814e4098508b3ee8411d61418775de83eca0ae80972a779b63e82604051808215151515815260200191505060405180910390a18193505050509392505050565b600080600080600090505b85518110156112ba576000868281518110151561125f57fe5b90602001906020020151141561129057848181518110151561127d57fe5b90602001906020020151820191506112ad565b848181518110151561129e57fe5b90602001906020020151830192505b8080600101915050611246565b8683839350935093505093509350939050565b600260009054906101000a900473ffffffffffffffffffffffffffffffffffffffff1681565b80600260009054906101000a900473ffffffffffffffffffffffffffffffffffffffff1673ffffffffffffffffffffffffffffffffffffffff166370a08231846040518263ffffffff167c0100000000000000000000000000000000000000000000000000000000028152600401808273ffffffffffffffffffffffffffffffffffffffff1673ffffffffffffffffffffffffffffffffffffffff168152602001915050602060405180830381600087803b1580156113b157600080fd5b505af11580156113c5573d6000803e3d6000fd5b505050506040513d60208110156113db57600080fd5b810190808051906020019092919050505010151515611462576040517f08c379a00000000000000000000000000000000000000000000000000000000081526004018080602001828103825260208152602001807f5573657220646f6573206e6f74206861766520656e6f75676820746f6b656e7381525060200191505060405180910390fd5b600260009054906101000a900473ffffffffffffffffffffffffffffffffffffffff1673ffffffffffffffffffffffffffffffffffffffff166323b872dd8330846040518463ffffffff167c0100000000000000000000000000000000000000000000000000000000028152600401808473ffffffffffffffffffffffffffffffffffffffff1673ffffffffffffffffffffffffffffffffffffffff1681526020018373ffffffffffffffffffffffffffffffffffffffff1673ffffffffffffffffffffffffffffffffffffffff1681526020018281526020019350505050602060405180830381600087803b15801561155b57600080fd5b505af115801561156f573d6000803e3d6000fd5b505050506040513d602081101561158557600080fd5b81019080805190602001909291905050501515611630576040517f08c379a00000000000000000000000000000000000000000000000000000000081526004018080602001828103825260248152602001807f5573657220646964206e6f7420617070726f766520746f6b656e207472616e7381526020017f6665722e0000000000000000000000000000000000000000000000000000000081525060400191505060405180910390fd5b5050565b6000818301905082811015151561164757fe5b80905092915050565b6000808314156116635760009050611682565b818302905081838281151561167457fe5b0414151561167e57fe5b8090505b92915050565b828054600181600116156101000203166002900490600052602060002090601f016020900481019282601f106116c957803560ff19168380011785556116f7565b828001600101855582156116f7579182015b828111156116f65782358255916020019190600101906116db565b5b509050611704919061173f565b5090565b60c0604051908101604052806000815260200160008152602001600081526020016000815260200160008152602001606081525090565b61176191905b8082111561175d576000816000905550600101611745565b5090565b905600a165627a7a72305820917285b2d252fe001f598e0c8c0e2b62a63fc6b7e598588a716e4c653aed51780029",
  "source": "// Voting.sol, Andrew Tam\n// NOTE: Anyone can vote and create a poll, prone to Sybil attacks.\npragma solidity ^0.4.24;\n\nimport \"openzeppelin-solidity/contracts/math/SafeMath.sol\";\nimport \"./VotingToken.sol\";\nimport \"./Enigma.sol\";\n\ncontract Voting {\n  using SafeMath for uint256;\n\n  /* EVENTS */\n  event voteCasted(address voter, uint256 pollId, uint256 vote, uint256 weight);\n  event pollCreated(uint256 pollId, uint256 quorumPercentage, uint256 votingTime, string description);\n  event pollPassed(bool status);\n\n  /* POLL */\n  struct Poll {\n    uint256 revealDate;\n    uint256 quorumPercentage;\n    uint256 yeaVotes;\n    uint256 nayVotes;\n    uint256 numVoters;  // Currently not used\n    string description;\n    mapping(address => Voter) voters;\n  }\n\n  /* VOTER */\n  struct Voter {\n    bool hasVoted;\n    // vote will be encrypted in the future\n    uint256 vote;  // false = no, true = yes\n    uint256 weight;\n  }\n\n  mapping(uint256 => Poll) public polls;\n  uint256 public pollCount;\n  VotingToken public token;\n  Enigma public enigma;\n\n  /* CONSTRUCTOR */\n  constructor(address _token, address _enigmaAddress) public {\n    token = VotingToken(_token);\n    enigma = Enigma(_enigmaAddress);\n  }\n\n  /*\n   * Creates a new timed poll with a specified quorum percentage. Returns the poll ID of the new poll.\n   */\n  function createPoll(uint256 _quorumPct, uint256 _votingTime, string _description) external returns (uint256 pollId) {\n    require(_quorumPct <= 100, \"Quorum Percentage must be less than or equal to 100%\");\n    pollCount++;\n\n    Poll storage curPoll = polls[pollCount];\n    curPoll.revealDate = now.add(_votingTime);\n    curPoll.quorumPercentage = _quorumPct;\n    curPoll.description = _description;\n\n    emit pollCreated(pollCount, _quorumPct, _votingTime, _description);\n    return pollCount;\n  }\n\n  /*\n   * Modifier that checks for a valid poll ID.\n   */\n  modifier validPoll(uint256 _pollId) {\n    require(_pollId > 0 && _pollId <= pollCount, \"Not a valid poll Id.\");\n    _;\n  }\n\n  modifier onlyEnigma() {\n    require(msg.sender == address(enigma));\n    _;\n  }\n\n  /*\n   * Checks if a poll was approved given the quorum percentage.\n   */\n  function isPollPassed(uint256 _pollId, uint256 _yeaVotes, uint256 _nayVotes) public validPoll(_pollId) onlyEnigma() returns (bool pollStatus) {\n    require(isPollExpired(_pollId), \"Poll has not expired yet.\");\n    Poll memory curPoll = polls[_pollId];\n    curPoll.yeaVotes = _yeaVotes;\n    curPoll.nayVotes = _nayVotes;\n\n    bool status = (curPoll.yeaVotes.mul(100)) > curPoll.quorumPercentage.mul(curPoll.yeaVotes.add(curPoll.nayVotes));\n\n    emit pollPassed(status);\n    return status;\n  }\n\n  /*\n   * Checks if a poll has expired.\n   */\n  function isPollExpired(uint256 _pollId) public view validPoll(_pollId) returns (bool pollExpired) {\n    return (now >= polls[_pollId].revealDate);\n  }\n\n  /*\n   * The callable function that is computed by the SGX node.\n   */\n  function countVotes(uint256 _pollId, uint256[] votes, uint256[] weights) public pure returns (uint256 pollId, uint256 yeaVotes, uint256 nayVotes) {\n    for (uint256 i = 0; i < votes.length; i++) {\n      if (votes[i] == 0) nayVotes += weights[i];\n      else yeaVotes += weights[i];\n    }\n    return (_pollId, yeaVotes, nayVotes);\n  }\n\n  /*\n   * Casts a vote for a given poll. Stakes ERC20 tokens as votes.\n   * NOTE: _weight is denominated in *wei*.\n   */\n  function castVote(uint256 _pollId, uint256 _encryptedVote, uint256 _weight) external validPoll(_pollId) {\n    require(!isPollExpired(_pollId), \"Poll has expired.\");\n    require(!userHasVoted(_pollId, msg.sender), \"User has already voted.\");\n    stakeVotingTokens(msg.sender, _weight);\n\n    Poll storage curPoll = polls[_pollId];\n\n    curPoll.voters[msg.sender] = Voter({\n        hasVoted: true,\n        vote: _encryptedVote,\n        weight: _weight\n    });\n\n    curPoll.numVoters++;\n    emit voteCasted(msg.sender, _pollId, _encryptedVote, _weight);\n  }\n\n  /*\n   * Checks if a user has voted for a specific poll.\n   */\n  function userHasVoted(uint256 _pollId, address _user) public view validPoll(_pollId) returns (bool hasVoted) {\n    return (polls[_pollId].voters[_user].hasVoted);\n  }\n\n  /*\n   * Internal function that stakes tokens for a given voter.\n   * NOTE:\n   *  User must approve transfer of tokens.\n   *  _numTokens is denominated in *wei*.\n   *  Might add support for staking more tokens.\n   */\n  function stakeVotingTokens(address _voter, uint256 _numTokens) internal {\n    require(token.balanceOf(_voter) >= _numTokens, \"User does not have enough tokens\");\n    require(token.transferFrom(_voter, this, _numTokens), \"User did not approve token transfer.\");\n  }\n\n  /*\n   * Allows a voter to withdraw voting tokens after a poll has ended.\n   * NOTE: _numTokens is denominated in *wei*.\n   */\n  function withdrawTokens(uint256 _numTokens, uint256 _pollId) external validPoll(_pollId) {\n    require(isPollExpired(_pollId) && userHasVoted(_pollId, msg.sender), \"Poll has not expired or user did not vote in the poll.\");\n    require(_numTokens <= polls[_pollId].voters[msg.sender].weight, \"User is trying to withdraw too many tokens.\");\n    require(token.transfer(msg.sender, _numTokens));\n  }\n\n\n}\n",
  "sourcePath": "/Users/andrew/Desktop/Andrew/secret-contracts/secret-contracts/contracts/Voting.sol",
  "compiler": {
    "name": "solc",
    "version": "0.4.24+commit.e67f0147.Emscripten.clang"
  },
  "schemaVersion": "2.0.1",
  "updatedAt": "2018-07-12T20:45:13.204Z"
}