{
  "contractName": "Voting",
  "abi": [
    {
      "constant": true,
      "inputs": [
        {
          "name": "",
          "type": "address"
        }
      ],
      "name": "bank",
      "outputs": [
        {
          "name": "tokenBalance",
          "type": "uint256"
        }
      ],
      "payable": false,
      "stateMutability": "view",
      "type": "function"
    },
    {
      "constant": true,
      "inputs": [],
      "name": "pollCount",
      "outputs": [
        {
          "name": "",
          "type": "uint256"
        }
      ],
      "payable": false,
      "stateMutability": "view",
      "type": "function"
    },
    {
      "constant": true,
      "inputs": [
        {
          "name": "",
          "type": "uint256"
        }
      ],
      "name": "polls",
      "outputs": [
        {
          "name": "creator",
          "type": "address"
        },
        {
          "name": "status",
          "type": "uint8"
        },
        {
          "name": "quorumPercentage",
          "type": "uint256"
        },
        {
          "name": "yeaVotes",
          "type": "uint256"
        },
        {
          "name": "nayVotes",
          "type": "uint256"
        },
        {
          "name": "description",
          "type": "string"
        }
      ],
      "payable": false,
      "stateMutability": "view",
      "type": "function"
    },
    {
      "constant": true,
      "inputs": [],
      "name": "enigma",
      "outputs": [
        {
          "name": "",
          "type": "address"
        }
      ],
      "payable": false,
      "stateMutability": "view",
      "type": "function"
    },
    {
      "constant": true,
      "inputs": [],
      "name": "token",
      "outputs": [
        {
          "name": "",
          "type": "address"
        }
      ],
      "payable": false,
      "stateMutability": "view",
      "type": "function"
    },
    {
      "inputs": [
        {
          "name": "_token",
          "type": "address"
        },
        {
          "name": "_enigma",
          "type": "address"
        }
      ],
      "payable": false,
      "stateMutability": "nonpayable",
      "type": "constructor"
    },
    {
      "anonymous": false,
      "inputs": [
        {
          "indexed": false,
          "name": "voter",
          "type": "address"
        },
        {
          "indexed": false,
          "name": "pollID",
          "type": "uint256"
        },
        {
          "indexed": false,
          "name": "vote",
          "type": "uint256"
        },
        {
          "indexed": false,
          "name": "weight",
          "type": "uint256"
        }
      ],
      "name": "voteCasted",
      "type": "event"
    },
    {
      "anonymous": false,
      "inputs": [
        {
          "indexed": false,
          "name": "pollID",
          "type": "uint256"
        },
        {
          "indexed": false,
          "name": "quorumPercentage",
          "type": "uint256"
        },
        {
          "indexed": false,
          "name": "creator",
          "type": "address"
        },
        {
          "indexed": false,
          "name": "description",
          "type": "string"
        }
      ],
      "name": "pollCreated",
      "type": "event"
    },
    {
      "anonymous": false,
      "inputs": [
        {
          "indexed": false,
          "name": "status",
          "type": "bool"
        }
      ],
      "name": "pollStatusUpdate",
      "type": "event"
    },
    {
      "constant": false,
      "inputs": [
        {
          "name": "_quorumPct",
          "type": "uint256"
        },
        {
          "name": "_description",
          "type": "string"
        }
      ],
      "name": "createPoll",
      "outputs": [
        {
          "name": "",
          "type": "uint256"
        }
      ],
      "payable": false,
      "stateMutability": "nonpayable",
      "type": "function"
    },
    {
      "constant": false,
      "inputs": [
        {
          "name": "_pollID",
          "type": "uint256"
        }
      ],
      "name": "endPoll",
      "outputs": [],
      "payable": false,
      "stateMutability": "nonpayable",
      "type": "function"
    },
    {
      "constant": false,
      "inputs": [
        {
          "name": "_pollID",
          "type": "uint256"
        },
        {
          "name": "_yeaVotes",
          "type": "uint256"
        },
        {
          "name": "_nayVotes",
          "type": "uint256"
        }
      ],
      "name": "updatePollStatus",
      "outputs": [],
      "payable": false,
      "stateMutability": "nonpayable",
      "type": "function"
    },
    {
      "constant": true,
      "inputs": [
        {
          "name": "_pollID",
          "type": "uint256"
        }
      ],
      "name": "getPollStatus",
      "outputs": [
        {
          "name": "",
          "type": "uint8"
        }
      ],
      "payable": false,
      "stateMutability": "view",
      "type": "function"
    },
    {
      "constant": false,
      "inputs": [
        {
          "name": "_pollID",
          "type": "uint256"
        }
      ],
      "name": "getInfoForPoll",
      "outputs": [
        {
          "name": "",
          "type": "uint256[]"
        },
        {
          "name": "",
          "type": "uint256[]"
        }
      ],
      "payable": false,
      "stateMutability": "nonpayable",
      "type": "function"
    },
    {
      "constant": false,
      "inputs": [
        {
          "name": "_pollID",
          "type": "uint256"
        },
        {
          "name": "_encryptedVote",
          "type": "uint256"
        },
        {
          "name": "_weight",
          "type": "uint256"
        }
      ],
      "name": "castVote",
      "outputs": [],
      "payable": false,
      "stateMutability": "nonpayable",
      "type": "function"
    },
    {
      "constant": true,
      "inputs": [
        {
          "name": "_pollID",
          "type": "uint256"
        },
        {
          "name": "_votes",
          "type": "uint256[]"
        },
        {
          "name": "_weights",
          "type": "uint256[]"
        }
      ],
      "name": "countVotes",
      "outputs": [
        {
          "name": "pollID",
          "type": "uint256"
        },
        {
          "name": "yeaVotes",
          "type": "uint256"
        },
        {
          "name": "nayVotes",
          "type": "uint256"
        }
      ],
      "payable": false,
      "stateMutability": "pure",
      "type": "function"
    },
    {
      "constant": true,
      "inputs": [
        {
          "name": "_pollID",
          "type": "uint256"
        },
        {
          "name": "_user",
          "type": "address"
        }
      ],
      "name": "userHasVoted",
      "outputs": [
        {
          "name": "",
          "type": "bool"
        }
      ],
      "payable": false,
      "stateMutability": "view",
      "type": "function"
    },
    {
      "constant": false,
      "inputs": [
        {
          "name": "_numTokens",
          "type": "uint256"
        }
      ],
      "name": "stakeVotingTokens",
      "outputs": [],
      "payable": false,
      "stateMutability": "nonpayable",
      "type": "function"
    },
    {
      "constant": false,
      "inputs": [
        {
          "name": "_numTokens",
          "type": "uint256"
        }
      ],
      "name": "withdrawTokens",
      "outputs": [
        {
          "name": "",
          "type": "uint256"
        }
      ],
      "payable": false,
      "stateMutability": "nonpayable",
      "type": "function"
    },
    {
      "constant": true,
      "inputs": [
        {
          "name": "_voter",
          "type": "address"
        }
      ],
      "name": "getLockedAmount",
      "outputs": [
        {
          "name": "",
          "type": "uint256"
        }
      ],
      "payable": false,
      "stateMutability": "view",
      "type": "function"
    },
    {
      "constant": true,
      "inputs": [
        {
          "name": "_voter",
          "type": "address"
        }
      ],
      "name": "getTokenStake",
      "outputs": [
        {
          "name": "",
          "type": "uint256"
        }
      ],
      "payable": false,
      "stateMutability": "view",
      "type": "function"
    },
    {
      "constant": true,
      "inputs": [
        {
          "name": "_voter",
          "type": "address"
        }
      ],
      "name": "getPollHistory",
      "outputs": [
        {
          "name": "",
          "type": "uint256[]"
        }
      ],
      "payable": false,
      "stateMutability": "view",
      "type": "function"
    }
  ],
  "bytecode": "0x608060405234801561001057600080fd5b506040516040806119d5833981016040528051602090910151600160a060020a0382161580159061004a5750600354600160a060020a0316155b151561005557600080fd5b600160a060020a038116158015906100765750600454600160a060020a0316155b151561008157600080fd5b60038054600160a060020a03938416600160a060020a03199182161790915560048054929093169116179055611919806100bc6000396000f3006080604052600436106100fb5763ffffffff7c01000000000000000000000000000000000000000000000000000000006000350416630da6560081146101005780630de88fd81461011a5780630ed70ed11461018b578063315a095d146101be5780634e0e931a146101d6578063529a1baf146101f45780635be5e3ec146102155780635fc48d7e14610233578063658476321461026b5780639207891d1461028f578063929ec537146102a4578063a23cec14146102c5578063ac2f007414610376578063b0c095e314610440578063b24fd5c51461047c578063d2025b1d146104ad578063f43b87781461055e578063fc0c546a14610576575b600080fd5b34801561010c57600080fd5b5061011860043561058b565b005b34801561012657600080fd5b5061013b600160a060020a03600435166107a4565b60408051602080825283518183015283519192839290830191858101910280838360005b8381101561017757818101518382015260200161015f565b505050509050019250505060405180910390f35b34801561019757600080fd5b506101ac600160a060020a0360043516610813565b60408051918252519081900360200190f35b3480156101ca57600080fd5b506101ac60043561082e565b3480156101e257600080fd5b50610118600435602435604435610984565b34801561020057600080fd5b506101ac600160a060020a0360043516610b5c565b34801561022157600080fd5b50610118600435602435604435610b6e565b34801561023f57600080fd5b50610257600435600160a060020a0360243516610e12565b604080519115158252519081900360200190f35b34801561027757600080fd5b506101ac600480359060248035908101910135610e9a565b34801561029b57600080fd5b506101ac61100b565b3480156102b057600080fd5b506101ac600160a060020a0360043516611011565b3480156102d157600080fd5b506102dd60043561109c565b604051808060200180602001838103835285818151815260200191508051906020019060200280838360005b83811015610321578181015183820152602001610309565b50505050905001838103825284818151815260200191508051906020019060200280838360005b83811015610360578181015183820152602001610348565b5050505090500194505050505060405180910390f35b34801561038257600080fd5b5061038e600435611249565b604051600160a060020a0387168152602081018660038111156103ad57fe5b60ff16815260200185815260200184815260200183815260200180602001828103825283818151815260200191508051906020019080838360005b838110156104005781810151838201526020016103e8565b50505050905090810190601f16801561042d5780820380516001836020036101000a031916815260200191505b5097505050505050505060405180910390f35b34801561044c57600080fd5b50610458600435611319565b6040518082600381111561046857fe5b60ff16815260200191505060405180910390f35b34801561048857600080fd5b50610491611390565b60408051600160a060020a039092168252519081900360200190f35b3480156104b957600080fd5b5060408051602060046024803582810135848102808701860190975280865261054096843596369660449591949091019291829185019084908082843750506040805187358901803560208181028481018201909552818452989b9a99890198929750908201955093508392508501908490808284375094975061139f9650505050505050565b60408051938452602084019290925282820152519081900360600190f35b34801561056a57600080fd5b50610118600435611434565b34801561058257600080fd5b506104916115cb565b600354604080517f70a0823100000000000000000000000000000000000000000000000000000000815233600482015290518392600160a060020a0316916370a082319160248083019260209291908290030181600087803b1580156105f057600080fd5b505af1158015610604573d6000803e3d6000fd5b505050506040513d602081101561061a57600080fd5b50511015610672576040805160e560020a62461bcd02815260206004820181905260248201527f5573657220646f6573206e6f74206861766520656e6f75676820746f6b656e73604482015290519081900360640190fd5b600354604080517f23b872dd000000000000000000000000000000000000000000000000000000008152336004820152306024820152604481018490529051600160a060020a03909216916323b872dd916064808201926020929091908290030181600087803b1580156106e557600080fd5b505af11580156106f9573d6000803e3d6000fd5b505050506040513d602081101561070f57600080fd5b5051151561078c576040805160e560020a62461bcd028152602060048201526024808201527f5573657220646964206e6f7420617070726f766520746f6b656e207472616e7360448201527f6665722e00000000000000000000000000000000000000000000000000000000606482015290519081900360840190fd5b33600090815260016020526040902080549091019055565b600160a060020a03811660009081526001602090815260409182902060020180548351818402810184019094528084526060939283018282801561080757602002820191906000526020600020905b8154815260200190600101908083116107f3575b50505050509050919050565b600160a060020a031660009081526001602052604090205490565b60008061083a33611011565b9050828161084733610813565b0310156108c4576040805160e560020a62461bcd02815260206004820152602b60248201527f5573657220697320747279696e6720746f20776974686472617720746f6f206d60448201527f616e7920746f6b656e732e000000000000000000000000000000000000000000606482015290519081900360840190fd5b3360008181526001602090815260408083208054889003905560035481517fa9059cbb0000000000000000000000000000000000000000000000000000000081526004810195909552602485018890529051600160a060020a039091169363a9059cbb9360448083019493928390030190829087803b15801561094657600080fd5b505af115801561095a573d6000803e3d6000fd5b505050506040513d602081101561097057600080fd5b5051151561097d57600080fd5b5090919050565b6000808460008111801561099a57506002548111155b15156109de576040805160e560020a62461bcd02815260206004820152601460248201526000805160206118ce833981519152604482015290519081900360640190fd5b60016109e987611319565b60038111156109f457fe5b14610a49576040805160e560020a62461bcd02815260206004820152601960248201527f506f6c6c20686173206e6f742065787069726564207965742e00000000000000604482015290519081900360640190fd5b600086815260208190526040902060028101869055600381018590559250610a8b610a7a868663ffffffff6115da16565b60018501549063ffffffff6115ed16565b6002840154610aa190606463ffffffff6115ed16565b1191508115610ae257825474ff0000000000000000000000000000000000000000191674020000000000000000000000000000000000000000178355610b16565b825474ff00000000000000000000000000000000000000001916740300000000000000000000000000000000000000001783555b610b1f86611616565b60408051831515815290517fa09418b9290be8509b4127e8df442ca7ca9aa4be676367d2a5c6586ab14253449181900360200190a1505050505050565b60016020526000908152604090205481565b600083600081118015610b8357506002548111155b1515610bc7576040805160e560020a62461bcd02815260206004820152601460248201526000805160206118ce833981519152604482015290519081900360640190fd5b6000610bd286611319565b6003811115610bdd57fe5b14610c32576040805160e560020a62461bcd02815260206004820152601160248201527f506f6c6c2068617320657870697265642e000000000000000000000000000000604482015290519081900360640190fd5b610c3c8533610e12565b15610c91576040805160e560020a62461bcd02815260206004820152601760248201527f557365722068617320616c726561647920766f7465642e000000000000000000604482015290519081900360640190fd5b82610c9b33610813565b1015610d17576040805160e560020a62461bcd02815260206004820152602860248201527f5573657220646f6573206e6f74206861766520656e6f756768207374616b656460448201527f20746f6b656e732e000000000000000000000000000000000000000000000000606482015290519081900360840190fd5b3360008181526001602081815260408084208a85528084018352818520899055600290810180548086018255908652838620018b90558a85528483528185208251606080820185528682528186018d81528286018d81528a8a52600685018852868a209351845460ff19169015151784559051838901555191909301556005810180549586018155865294839020909301805473ffffffffffffffffffffffffffffffffffffffff1916861790558051948552908401899052838101889052908301869052519093507f24e8f28bcf1dbc2f2cbdaf38b4ed8c435d3ac3b055bd15be18b06645b29dba1d916080908290030190a15050505050565b600082600081118015610e2757506002548111155b1515610e6b576040805160e560020a62461bcd02815260206004820152601460248201526000805160206118ce833981519152604482015290519081900360640190fd5b5050600091825260208281526040808420600160a060020a039390931684526006909201905290205460ff1690565b6000806064851115610f1c576040805160e560020a62461bcd02815260206004820152603460248201527f51756f72756d2050657263656e74616765206d757374206265206c657373207460448201527f68616e206f7220657175616c20746f2031303025000000000000000000000000606482015290519081900360840190fd5b5060028054600190810191829055600091825260208290526040909120805473ffffffffffffffffffffffffffffffffffffffff1916331774ff000000000000000000000000000000000000000019168155908101859055610f826004820185856117f4565b507fc504d9ec32644c55801c38afe2a56cc0b06be98d7fe9debdab0fcf28fa99cf7d600254863387876040518086815260200185815260200184600160a060020a0316600160a060020a0316815260200180602001828103825284848281815260200192508082843760405192018290039850909650505050505050a150506002549392505050565b60025481565b600160a060020a03811660009081526001602052604081208180805b6002840154821015611092576002840180548390811061104957fe5b906000526020600020015490508284600101600083815260200190815260200160002054111561108757600081815260018501602052604090205492505b60019091019061102d565b5090949350505050565b606080600080606080600080886000811180156110bb57506002548111155b15156110ff576040805160e560020a62461bcd02815260206004820152601460248201526000805160206118ce833981519152604482015290519081900360640190fd5b600061110a8b611319565b600381111561111557fe5b141561112057600080fd5b60008a815260208181526040918290206005810154835181815281840281019093019093529850909650868015611161578160200160208202803883390190505b5094508560405190808252806020026020018201604052801561118e578160200160208202803883390190505b509350600092505b8583101561123957600587018054849081106111ae57fe5b6000918252602080832090910154600160a060020a031680835260068a019091526040909120600101548651919350908690859081106111ea57fe5b6020908102909101810191909152600160a060020a0383166000908152600689019091526040902060020154845185908590811061122457fe5b60209081029091010152600190920191611196565b5092989197509095505050505050565b600060208181529181526040908190208054600180830154600280850154600386015460048701805489516101009782161597909702600019011693909304601f81018a90048a0286018a01909852878552600160a060020a0386169860a060020a90960460ff169793969195909491939192919083018282801561130f5780601f106112e45761010080835404028352916020019161130f565b820191906000526020600020905b8154815290600101906020018083116112f257829003601f168201915b5050505050905086565b60008160008111801561132e57506002548111155b1515611372576040805160e560020a62461bcd02815260206004820152601460248201526000805160206118ce833981519152604482015290519081900360640190fd5b505060009081526020819052604090205460a060020a900460ff1690565b600454600160a060020a031681565b600080600080845186511415156113b557600080fd5b5060005b85518110156114285785818151811015156113d057fe5b90602001906020020151600014156114035784818151811015156113f057fe5b9060200190602002015182019150611420565b848181518110151561141157fe5b90602001906020020151830192505b6001016113b9565b50949590949350915050565b8060008111801561144757506002548111155b151561148b576040805160e560020a62461bcd02815260206004820152601460248201526000805160206118ce833981519152604482015290519081900360640190fd5b600082815260208190526040902054600160a060020a0316331461151e576040805160e560020a62461bcd028152602060048201526024808201527f55736572206973206e6f74207468652063726561746f72206f6620746865207060448201527f6f6c6c2e00000000000000000000000000000000000000000000000000000000606482015290519081900360840190fd5b6000808381526020819052604090205460a060020a900460ff16600381111561154357fe5b14611598576040805160e560020a62461bcd02815260206004820152601860248201527f566f7465206973206e6f7420696e2070726f67726573732e0000000000000000604482015290519081900360640190fd5b506000908152602081905260409020805474ff0000000000000000000000000000000000000000191660a060020a179055565b600354600160a060020a031681565b818101828110156115e757fe5b92915050565b60008215156115fe575060006115e7565b5081810281838281151561160e57fe5b04146115e757fe5b61161e611872565b600082815260208181526040808320815160e081019092528054600160a060020a0381168352849383019060a060020a900460ff16600381111561165e57fe5b600381111561166957fe5b8152602001600182015481526020016002820154815260200160038201548152602001600482018054600181600116156101000203166002900480601f0160208091040260200160405190810160405280929190818152602001828054600181600116156101000203166002900480156117245780601f106116f957610100808354040283529160200191611724565b820191906000526020600020905b81548152906001019060200180831161170757829003601f168201915b505050505081526020016005820180548060200260200160405190810160405280929190818152602001828054801561178657602002820191906000526020600020905b8154600160a060020a03168152600190910190602001808311611768575b5050505050815250509250600091505b8260c00151518210156117ee5760c08301518051839081106117b457fe5b6020908102909101810151600160a060020a0381166000908152600180845260408083208984528201909452928120559201919050611796565b50505050565b828054600181600116156101000203166002900490600052602060002090601f016020900481019282601f106118355782800160ff19823516178555611862565b82800160010185558215611862579182015b82811115611862578235825591602001919060010190611847565b5061186e9291506118b0565b5090565b6040805160e0810190915260008082526020820190815260200160008152602001600081526020016000815260200160608152602001606081525090565b6118ca91905b8082111561186e57600081556001016118b6565b9056004e6f7420612076616c696420706f6c6c2049642e000000000000000000000000a165627a7a723058209b96ea2feaf59133c45312cc61665ba9e451a5148084410316684602e50373f20029",
  "source": "// Voting.sol, Andrew Tam\n// TODO:\n//  -Separate token staking from voting\n//  -Timed polls\n\npragma solidity ^0.4.24;\n\nimport \"openzeppelin-solidity/contracts/math/SafeMath.sol\";\nimport \"./VotingToken.sol\";\nimport \"./Enigma.sol\";\n\ncontract Voting {\n  using SafeMath for uint;\n\n  /* EVENTS */\n  event voteCasted(address voter, uint pollID, uint vote, uint weight);\n  event pollCreated(uint pollID, uint quorumPercentage, address creator, string description);\n  event pollStatusUpdate(bool status);\n\n  /* Determine the current state of a poll */\n  enum PollStatus { IN_PROGRESS, TALLY, PASSED, REJECTED }\n\n  /* POLL */\n  struct Poll {\n    address creator;\n    PollStatus status;\n    uint quorumPercentage;\n    uint yeaVotes;\n    uint nayVotes;\n    string description;\n    address[] voters;\n    mapping(address => Voter) voterInfo;\n  }\n\n  /* VOTER */\n  struct Voter {\n    bool hasVoted;\n    uint vote;\n    uint weight;\n  }\n\n  struct TokenManager {\n    uint tokenBalance;\n    mapping(uint => uint) lockedTokens;\n    uint[] participatedPolls;\n  }\n\n  mapping(uint => Poll) public polls;\n  mapping(address => TokenManager) public bank;\n  uint public pollCount;\n  VotingToken public token;\n  Enigma public enigma;\n\n  /* CONSTRUCTOR */\n  constructor(address _token, address _enigma) public {\n    require(_token != 0 && address(token) == 0);\n    require(_enigma != 0 && address(enigma) == 0);\n    token = VotingToken(_token);\n    enigma = Enigma(_enigma);\n  }\n\n  /* POLL OPERATIONS */\n\n  /*\n   * Creates a new poll with a specified quorum percentage. Returns the poll ID of the new poll.\n   */\n  function createPoll(uint _quorumPct, string _description) external returns(uint) {\n    require(_quorumPct <= 100, \"Quorum Percentage must be less than or equal to 100%\");\n    pollCount++;\n\n    Poll storage curPoll = polls[pollCount];\n    curPoll.creator = msg.sender;\n    curPoll.status = PollStatus.IN_PROGRESS;\n    curPoll.quorumPercentage = _quorumPct;\n    curPoll.description = _description;\n\n    emit pollCreated(pollCount, _quorumPct, msg.sender, _description);\n    return pollCount;\n  }\n\n  /*\n   * Ends a poll. Only the creator of a given poll can end that poll.\n   */\n  function endPoll(uint _pollID) public validPoll(_pollID) {\n    require(msg.sender == polls[_pollID].creator, \"User is not the creator of the poll.\");\n    require(polls[_pollID].status == PollStatus.IN_PROGRESS, \"Vote is not in progress.\");\n    polls[_pollID].status = PollStatus.TALLY;\n  }\n\n  /*\n   * Modifier that checks for a valid poll ID.\n   */\n  modifier validPoll(uint _pollID) {\n    require(_pollID > 0 && _pollID <= pollCount, \"Not a valid poll Id.\");\n    _;\n  }\n\n  /*\n   * Checks if a poll was approved given the quorum percentage.\n   */\n  function updatePollStatus(uint _pollID, uint _yeaVotes, uint _nayVotes) public validPoll(_pollID)\n    //onlyEnigma()\n    {\n    require(getPollStatus(_pollID) == PollStatus.TALLY, \"Poll has not expired yet.\");\n    Poll storage curPoll = polls[_pollID];\n    curPoll.yeaVotes = _yeaVotes;\n    curPoll.nayVotes = _nayVotes;\n\n    bool pollStatus = (curPoll.yeaVotes.mul(100)) > curPoll.quorumPercentage.mul(curPoll.yeaVotes.add(curPoll.nayVotes));\n    if (pollStatus) {\n      curPoll.status = PollStatus.PASSED;\n    }\n    else {\n      curPoll.status = PollStatus.REJECTED;\n    }\n\n    updateTokenBank(_pollID);\n\n    emit pollStatusUpdate(pollStatus);\n  }\n\n  function updateTokenBank(uint _pollID) internal {\n    Poll memory curPoll = polls[_pollID];\n    for (uint i = 0; i < curPoll.voters.length; i++) {\n      address voter = curPoll.voters[i];\n      bank[voter].lockedTokens[_pollID] = 0;\n    }\n  }\n\n  /*\n   * Gets the status of a poll.\n   */\n  function getPollStatus(uint _pollID) public view validPoll(_pollID) returns (PollStatus) {\n    return polls[_pollID].status;\n  }\n\n  /*\n   * Modifier that checks that the contract caller is the Enigma contract.\n   */\n  modifier onlyEnigma() {\n    require(msg.sender == address(enigma));\n    _;\n  }\n\n  /*\n   * Gets the encrypted votes and weights for a given poll after it has ended.\n   */\n  function getInfoForPoll(uint _pollID) public validPoll(_pollID) returns (uint[], uint[]) {\n    require(getPollStatus(_pollID) != PollStatus.IN_PROGRESS);\n    Poll storage curPoll = polls[_pollID];\n    uint numVoters = curPoll.voters.length;\n    uint[] memory votes = new uint[](numVoters);\n    uint[] memory weights = new uint[](numVoters);\n    for (uint i = 0; i < numVoters; i++) {\n      address curVoter = curPoll.voters[i];\n      votes[i] = curPoll.voterInfo[curVoter].vote;\n      weights[i] = curPoll.voterInfo[curVoter].weight;\n    }\n    return (votes, weights);\n  }\n\n  /* VOTE OPERATIONS */\n\n  /*\n   * Casts a vote for a given poll. Stakes ERC20 tokens as votes.\n   * NOTE: _weight is denominated in *wei*.\n   */\n  function castVote(uint _pollID, uint _encryptedVote, uint _weight) external validPoll(_pollID) {\n    require(getPollStatus(_pollID) == PollStatus.IN_PROGRESS, \"Poll has expired.\");\n    require(!userHasVoted(_pollID, msg.sender), \"User has already voted.\");\n    require(getTokenStake(msg.sender) >= _weight, \"User does not have enough staked tokens.\");\n\n    // update token bank\n    bank[msg.sender].lockedTokens[_pollID] = _weight;\n    bank[msg.sender].participatedPolls.push(_pollID);\n\n    Poll storage curPoll = polls[_pollID];\n\n    curPoll.voterInfo[msg.sender] = Voter({\n        hasVoted: true,\n        vote: _encryptedVote,\n        weight: _weight\n    });\n\n    curPoll.voters.push(msg.sender);\n\n    emit voteCasted(msg.sender, _pollID, _encryptedVote, _weight);\n  }\n\n\n  /*\n   * The callable function that is computed by the SGX node.\n   */\n  function countVotes(uint _pollID, uint[] _votes, uint[] _weights) public pure returns (uint pollID, uint yeaVotes, uint nayVotes) {\n    require(_votes.length == _weights.length);\n    for (uint i = 0; i < _votes.length; i++) {\n      if (_votes[i] == 0) nayVotes += _weights[i];\n      else yeaVotes += _weights[i];\n    }\n    return (_pollID, yeaVotes, nayVotes);\n  }\n\n  /*\n   * Checks if a user has voted for a specific poll.\n   */\n  function userHasVoted(uint _pollID, address _user) public view validPoll(_pollID) returns (bool) {\n    return (polls[_pollID].voterInfo[_user].hasVoted);\n  }\n  /* TOKEN OPERATIONS */\n\n  /*\n   * Stakes tokens for a given voter.\n   * NOTE:\n   *  User must approve transfer of tokens.\n   *  _numTokens is denominated in *wei*.\n   */\n  function stakeVotingTokens(uint _numTokens) external {\n    require(token.balanceOf(msg.sender) >= _numTokens, \"User does not have enough tokens\");\n    require(token.transferFrom(msg.sender, this, _numTokens), \"User did not approve token transfer.\");\n    bank[msg.sender].tokenBalance += _numTokens;\n  }\n\n  /*\n   * Allows a voter to withdraw voting tokens after a poll has ended.\n   * NOTE: _numTokens is denominated in *wei*.\n   */\n  function withdrawTokens(uint _numTokens) external returns(uint) {\n    uint largest = getLockedAmount(msg.sender);\n    require(getTokenStake(msg.sender) - largest >= _numTokens, \"User is trying to withdraw too many tokens.\");\n    bank[msg.sender].tokenBalance -= _numTokens;\n    require(token.transfer(msg.sender, _numTokens));\n    return _numTokens;\n  }\n\n  function getLockedAmount(address _voter) public view returns (uint) {\n    TokenManager storage manager = bank[_voter];\n    uint largest;\n    for (uint i = 0; i < manager.participatedPolls.length; i++) {\n      uint curPollID = manager.participatedPolls[i];\n      if (manager.lockedTokens[curPollID] > largest) largest = manager.lockedTokens[curPollID];\n    }\n    return largest;\n  }\n\n  function getTokenStake(address _voter) public view returns(uint) {\n    return bank[_voter].tokenBalance;\n  }\n\n  function getPollHistory(address _voter) public view returns(uint[]) {\n    return bank[_voter].participatedPolls;\n  }\n\n\n}\n",
  "sourcePath": "/Users/andrew/Desktop/Andrew/secret-contracts/secret-contracts/contracts/Voting.sol",
  "compiler": {
    "name": "solc",
    "version": "0.4.24+commit.e67f0147.Emscripten.clang"
  },
  "schemaVersion": "2.0.1",
  "updatedAt": "2018-08-02T22:07:40.571Z"
}