{
  "contractName": "Voting",
  "abi": [
    {
      "constant": true,
      "inputs": [],
      "name": "pollCount",
      "outputs": [
        {
          "name": "",
          "type": "uint256"
        }
      ],
      "payable": false,
      "stateMutability": "view",
      "type": "function"
    },
    {
      "constant": true,
      "inputs": [
        {
          "name": "",
          "type": "uint256"
        }
      ],
      "name": "polls",
      "outputs": [
        {
          "name": "creator",
          "type": "address"
        },
        {
          "name": "status",
          "type": "uint8"
        },
        {
          "name": "quorumPercentage",
          "type": "uint256"
        },
        {
          "name": "yeaVotes",
          "type": "uint256"
        },
        {
          "name": "nayVotes",
          "type": "uint256"
        },
        {
          "name": "description",
          "type": "string"
        }
      ],
      "payable": false,
      "stateMutability": "view",
      "type": "function"
    },
    {
      "constant": true,
      "inputs": [],
      "name": "enigma",
      "outputs": [
        {
          "name": "",
          "type": "address"
        }
      ],
      "payable": false,
      "stateMutability": "view",
      "type": "function"
    },
    {
      "constant": true,
      "inputs": [],
      "name": "token",
      "outputs": [
        {
          "name": "",
          "type": "address"
        }
      ],
      "payable": false,
      "stateMutability": "view",
      "type": "function"
    },
    {
      "inputs": [
        {
          "name": "_token",
          "type": "address"
        },
        {
          "name": "_enigmaAddress",
          "type": "address"
        }
      ],
      "payable": false,
      "stateMutability": "nonpayable",
      "type": "constructor"
    },
    {
      "anonymous": false,
      "inputs": [
        {
          "indexed": false,
          "name": "voter",
          "type": "address"
        },
        {
          "indexed": false,
          "name": "pollId",
          "type": "uint256"
        },
        {
          "indexed": false,
          "name": "vote",
          "type": "uint256"
        },
        {
          "indexed": false,
          "name": "weight",
          "type": "uint256"
        }
      ],
      "name": "voteCasted",
      "type": "event"
    },
    {
      "anonymous": false,
      "inputs": [
        {
          "indexed": false,
          "name": "pollId",
          "type": "uint256"
        },
        {
          "indexed": false,
          "name": "quorumPercentage",
          "type": "uint256"
        },
        {
          "indexed": false,
          "name": "creator",
          "type": "address"
        },
        {
          "indexed": false,
          "name": "description",
          "type": "string"
        }
      ],
      "name": "pollCreated",
      "type": "event"
    },
    {
      "anonymous": false,
      "inputs": [
        {
          "indexed": false,
          "name": "status",
          "type": "bool"
        }
      ],
      "name": "pollPassed",
      "type": "event"
    },
    {
      "constant": false,
      "inputs": [
        {
          "name": "_quorumPct",
          "type": "uint256"
        },
        {
          "name": "_description",
          "type": "string"
        }
      ],
      "name": "createPoll",
      "outputs": [],
      "payable": false,
      "stateMutability": "nonpayable",
      "type": "function"
    },
    {
      "constant": false,
      "inputs": [
        {
          "name": "_pollId",
          "type": "uint256"
        }
      ],
      "name": "endPoll",
      "outputs": [],
      "payable": false,
      "stateMutability": "nonpayable",
      "type": "function"
    },
    {
      "constant": false,
      "inputs": [
        {
          "name": "_pollId",
          "type": "uint256"
        },
        {
          "name": "_yeaVotes",
          "type": "uint256"
        },
        {
          "name": "_nayVotes",
          "type": "uint256"
        }
      ],
      "name": "updatePollStatus",
      "outputs": [],
      "payable": false,
      "stateMutability": "nonpayable",
      "type": "function"
    },
    {
      "constant": true,
      "inputs": [
        {
          "name": "_pollId",
          "type": "uint256"
        }
      ],
      "name": "getPollStatus",
      "outputs": [
        {
          "name": "status",
          "type": "uint8"
        }
      ],
      "payable": false,
      "stateMutability": "view",
      "type": "function"
    },
    {
      "constant": true,
      "inputs": [
        {
          "name": "_pollId",
          "type": "uint256"
        },
        {
          "name": "_votes",
          "type": "uint256[]"
        },
        {
          "name": "_weights",
          "type": "uint256[]"
        }
      ],
      "name": "countVotes",
      "outputs": [
        {
          "name": "pollId",
          "type": "uint256"
        },
        {
          "name": "yeaVotes",
          "type": "uint256"
        },
        {
          "name": "nayVotes",
          "type": "uint256"
        }
      ],
      "payable": false,
      "stateMutability": "pure",
      "type": "function"
    },
    {
      "constant": false,
      "inputs": [
        {
          "name": "_pollId",
          "type": "uint256"
        },
        {
          "name": "_encryptedVote",
          "type": "uint256"
        },
        {
          "name": "_weight",
          "type": "uint256"
        }
      ],
      "name": "castVote",
      "outputs": [],
      "payable": false,
      "stateMutability": "nonpayable",
      "type": "function"
    },
    {
      "constant": true,
      "inputs": [
        {
          "name": "_pollId",
          "type": "uint256"
        },
        {
          "name": "_user",
          "type": "address"
        }
      ],
      "name": "userHasVoted",
      "outputs": [
        {
          "name": "hasVoted",
          "type": "bool"
        }
      ],
      "payable": false,
      "stateMutability": "view",
      "type": "function"
    },
    {
      "constant": false,
      "inputs": [
        {
          "name": "_numTokens",
          "type": "uint256"
        },
        {
          "name": "_pollId",
          "type": "uint256"
        }
      ],
      "name": "withdrawTokens",
      "outputs": [],
      "payable": false,
      "stateMutability": "nonpayable",
      "type": "function"
    },
    {
      "constant": false,
      "inputs": [
        {
          "name": "_pollId",
          "type": "uint256"
        }
      ],
      "name": "getInfoForPoll",
      "outputs": [
        {
          "name": "",
          "type": "uint256[]"
        },
        {
          "name": "",
          "type": "uint256[]"
        }
      ],
      "payable": false,
      "stateMutability": "nonpayable",
      "type": "function"
    }
  ],
  "bytecode": "0x608060405234801561001057600080fd5b506040516040806115e483398101604052805160209091015160028054600160a060020a03938416600160a060020a0319918216179091556003805493909216921691909117905561157d806100676000396000f3006080604052600436106100c45763ffffffff7c01000000000000000000000000000000000000000000000000000000006000350416634e0e931a81146100c95780635be5e3ec146100e95780635fc48d7e14610107578063658476321461013f5780639207891d14610163578063a23cec141461018a578063ac2f00741461023b578063b0c095e314610305578063b24fd5c514610341578063ba7bd2aa14610372578063d2025b1d1461038d578063f43b87781461043e578063fc0c546a14610456575b600080fd5b3480156100d557600080fd5b506100e760043560243560443561046b565b005b3480156100f557600080fd5b506100e7600435602435604435610651565b34801561011357600080fd5b5061012b600435600160a060020a0360243516610852565b604080519115158252519081900360200190f35b34801561014b57600080fd5b506100e76004803590602480359081019101356108da565b34801561016f57600080fd5b50610178610a3f565b60408051918252519081900360200190f35b34801561019657600080fd5b506101a2600435610a45565b604051808060200180602001838103835285818151815260200191508051906020019060200280838360005b838110156101e65781810151838201526020016101ce565b50505050905001838103825284818151815260200191508051906020019060200280838360005b8381101561022557818101518382015260200161020d565b5050505090500194505050505060405180910390f35b34801561024757600080fd5b50610253600435610bf2565b604051600160a060020a03871681526020810186600381111561027257fe5b60ff16815260200185815260200184815260200183815260200180602001828103825283818151815260200191508051906020019080838360005b838110156102c55781810151838201526020016102ad565b50505050905090810190601f1680156102f25780820380516001836020036101000a031916815260200191505b5097505050505050505060405180910390f35b34801561031157600080fd5b5061031d600435610cd3565b6040518082600381111561032d57fe5b60ff16815260200191505060405180910390f35b34801561034d57600080fd5b50610356610d5b565b60408051600160a060020a039092168252519081900360200190f35b34801561037e57600080fd5b506100e7600435602435610d6a565b34801561039957600080fd5b5060408051602060046024803582810135848102808701860190975280865261042096843596369660449591949091019291829185019084908082843750506040805187358901803560208181028481018201909552818452989b9a998901989297509082019550935083925085019084908082843750949750610ff09650505050505050565b60408051938452602084019290925282820152519081900360600190f35b34801561044a57600080fd5b506100e7600435611085565b34801561046257600080fd5b5061035661123e565b6000808460008111801561048157506001548111155b15156104c5576040805160e560020a62461bcd0281526020600482015260146024820152600080516020611532833981519152604482015290519081900360640190fd5b600354600160a060020a031633146104dc57600080fd5b60016104e787610cd3565b60038111156104f257fe5b14610547576040805160e560020a62461bcd02815260206004820152601960248201527f506f6c6c20686173206e6f742065787069726564207965742e00000000000000604482015290519081900360640190fd5b600086815260208190526040902060028101869055600381018590559250610589610578868663ffffffff61124d16565b60018501549063ffffffff61126016565b600284015461059f90606463ffffffff61126016565b11915081156105e057825474ff0000000000000000000000000000000000000000191674020000000000000000000000000000000000000000178355610614565b825474ff00000000000000000000000000000000000000001916740300000000000000000000000000000000000000001783555b60408051831515815290517f6d159032c96b1814e4098508b3ee8411d61418775de83eca0ae80972a779b63e9181900360200190a1505050505050565b60008360008111801561066657506001548111155b15156106aa576040805160e560020a62461bcd0281526020600482015260146024820152600080516020611532833981519152604482015290519081900360640190fd5b60006106b586610cd3565b60038111156106c057fe5b14610715576040805160e560020a62461bcd02815260206004820152601160248201527f506f6c6c2068617320657870697265642e000000000000000000000000000000604482015290519081900360640190fd5b61071f8533610852565b15610774576040805160e560020a62461bcd02815260206004820152601760248201527f557365722068617320616c726561647920766f7465642e000000000000000000604482015290519081900360640190fd5b61077e3384611289565b60008581526020818152604080832081516060818101845260018083528286018b81528386018b815233808a52600687018952878a209551865490151560ff19909116178655915185840155516002909401939093556005840180549182018155875295859020909501805473ffffffffffffffffffffffffffffffffffffffff1916821790558251908152928301899052828201889052928201869052519193507f24e8f28bcf1dbc2f2cbdaf38b4ed8c435d3ac3b055bd15be18b06645b29dba1d919081900360800190a15050505050565b60008260008111801561086757506001548111155b15156108ab576040805160e560020a62461bcd0281526020600482015260146024820152600080516020611532833981519152604482015290519081900360640190fd5b5050600091825260208281526040808420600160a060020a039390931684526006909201905290205460ff1690565b6000606484111561095b576040805160e560020a62461bcd02815260206004820152603460248201527f51756f72756d2050657263656e74616765206d757374206265206c657373207460448201527f68616e206f7220657175616c20746f2031303025000000000000000000000000606482015290519081900360840190fd5b506001805481018082556000908152602081905260409020805473ffffffffffffffffffffffffffffffffffffffff1916331774ff0000000000000000000000000000000000000000191681559081018490556109bc600482018484611496565b507fc504d9ec32644c55801c38afe2a56cc0b06be98d7fe9debdab0fcf28fa99cf7d600154853386866040518086815260200185815260200184600160a060020a0316600160a060020a0316815260200180602001828103825284848281815260200192508082843760405192018290039850909650505050505050a150505050565b60015481565b60608060008060608060008088600081118015610a6457506001548111155b1515610aa8576040805160e560020a62461bcd0281526020600482015260146024820152600080516020611532833981519152604482015290519081900360640190fd5b6000610ab38b610cd3565b6003811115610abe57fe5b1415610ac957600080fd5b60008a815260208181526040918290206005810154835181815281840281019093019093529850909650868015610b0a578160200160208202803883390190505b50945085604051908082528060200260200182016040528015610b37578160200160208202803883390190505b509350600092505b85831015610be25760058701805484908110610b5757fe5b6000918252602080832090910154600160a060020a031680835260068a01909152604090912060010154865191935090869085908110610b9357fe5b6020908102909101810191909152600160a060020a03831660009081526006890190915260409020600201548451859085908110610bcd57fe5b60209081029091010152600190920191610b3f565b5092989197509095505050505050565b600060208181529181526040908190208054600180830154600280850154600386015460048701805489516101009782161597909702600019011693909304601f81018a90048a0286018a01909852878552600160a060020a038616987401000000000000000000000000000000000000000090960460ff1697939691959094919391929190830182828015610cc95780601f10610c9e57610100808354040283529160200191610cc9565b820191906000526020600020905b815481529060010190602001808311610cac57829003601f168201915b5050505050905086565b600081600081118015610ce857506001548111155b1515610d2c576040805160e560020a62461bcd0281526020600482015260146024820152600080516020611532833981519152604482015290519081900360640190fd5b505060009081526020819052604090205474010000000000000000000000000000000000000000900460ff1690565b600354600160a060020a031681565b80600081118015610d7d57506001548111155b1515610dc1576040805160e560020a62461bcd0281526020600482015260146024820152600080516020611532833981519152604482015290519081900360640190fd5b6003610dcc83610cd3565b6003811115610dd757fe5b1480610df657506002610de983610cd3565b6003811115610df457fe5b145b1515610e4c576040805160e560020a62461bcd02815260206004820152601560248201527f506f6c6c20686173206e6f7420657870697265642e0000000000000000000000604482015290519081900360640190fd5b610e568233610852565b1515610eac576040805160e560020a62461bcd02815260206004820152601e60248201527f5573657220646964206e6f7420766f746520696e2074686520706f6c6c2e0000604482015290519081900360640190fd5b600082815260208181526040808320338452600601909152902060020154831115610f47576040805160e560020a62461bcd02815260206004820152602b60248201527f5573657220697320747279696e6720746f20776974686472617720746f6f206d60448201527f616e7920746f6b656e732e000000000000000000000000000000000000000000606482015290519081900360840190fd5b600254604080517fa9059cbb000000000000000000000000000000000000000000000000000000008152336004820152602481018690529051600160a060020a039092169163a9059cbb916044808201926020929091908290030181600087803b158015610fb457600080fd5b505af1158015610fc8573d6000803e3d6000fd5b505050506040513d6020811015610fde57600080fd5b50511515610feb57600080fd5b505050565b6000806000808451865114151561100657600080fd5b5060005b855181101561107957858181518110151561102157fe5b906020019060200201516000141561105457848181518110151561104157fe5b9060200190602002015182019150611071565b848181518110151561106257fe5b90602001906020020151830192505b60010161100a565b50949590949350915050565b8060008111801561109857506001548111155b15156110dc576040805160e560020a62461bcd0281526020600482015260146024820152600080516020611532833981519152604482015290519081900360640190fd5b600082815260208190526040902054600160a060020a0316331461116f576040805160e560020a62461bcd028152602060048201526024808201527f55736572206973206e6f74207468652063726561746f72206f6620746865207060448201527f6f6c6c2e00000000000000000000000000000000000000000000000000000000606482015290519081900360840190fd5b6000808381526020819052604090205474010000000000000000000000000000000000000000900460ff1660038111156111a557fe5b146111fa576040805160e560020a62461bcd02815260206004820152601860248201527f566f7465206973206e6f7420696e2070726f67726573732e0000000000000000604482015290519081900360640190fd5b506000908152602081905260409020805474ff0000000000000000000000000000000000000000191674010000000000000000000000000000000000000000179055565b600254600160a060020a031681565b8181018281101561125a57fe5b92915050565b60008215156112715750600061125a565b5081810281838281151561128157fe5b041461125a57fe5b600254604080517f70a08231000000000000000000000000000000000000000000000000000000008152600160a060020a0385811660048301529151849392909216916370a08231916024808201926020929091908290030181600087803b1580156112f457600080fd5b505af1158015611308573d6000803e3d6000fd5b505050506040513d602081101561131e57600080fd5b50511015611376576040805160e560020a62461bcd02815260206004820181905260248201527f5573657220646f6573206e6f74206861766520656e6f75676820746f6b656e73604482015290519081900360640190fd5b600254604080517f23b872dd000000000000000000000000000000000000000000000000000000008152600160a060020a03858116600483015230602483015260448201859052915191909216916323b872dd9160648083019260209291908290030181600087803b1580156113eb57600080fd5b505af11580156113ff573d6000803e3d6000fd5b505050506040513d602081101561141557600080fd5b50511515611492576040805160e560020a62461bcd028152602060048201526024808201527f5573657220646964206e6f7420617070726f766520746f6b656e207472616e7360448201527f6665722e00000000000000000000000000000000000000000000000000000000606482015290519081900360840190fd5b5050565b828054600181600116156101000203166002900490600052602060002090601f016020900481019282601f106114d75782800160ff19823516178555611504565b82800160010185558215611504579182015b828111156115045782358255916020019190600101906114e9565b50611510929150611514565b5090565b61152e91905b80821115611510576000815560010161151a565b9056004e6f7420612076616c696420706f6c6c2049642e000000000000000000000000a165627a7a723058206d826e35a79bd293fbf3d5f7619cf5af7bd3293c8cf0994722896bb47891d64f0029",
  "source": "// Voting.sol, Andrew Tam\n// NOTE: Anyone can vote and create a poll, prone to Sybil attacks.\n// Also, note that the creator of a poll can vote in the poll itself. Maybe\n// add functionality for having a cost to creating a poll.\npragma solidity ^0.4.24;\n\nimport \"openzeppelin-solidity/contracts/math/SafeMath.sol\";\nimport \"./VotingToken.sol\";\nimport \"./Enigma.sol\";\n\ncontract Voting {\n  using SafeMath for uint256;\n\n  /* EVENTS */\n  event voteCasted(address voter, uint256 pollId, uint256 vote, uint256 weight);\n  event pollCreated(uint256 pollId, uint256 quorumPercentage, address creator, string description);\n  event pollPassed(bool status);\n\n  /* Determine the current state of a poll */\n  enum PollStatus { IN_PROGRESS, TALLY, PASSED, REJECTED }\n\n  /* POLL */\n  struct Poll {\n    address creator;\n    PollStatus status;\n    uint256 quorumPercentage;\n    uint256 yeaVotes;\n    uint256 nayVotes;\n    string description;\n    address[] voters;\n    mapping(address => Voter) voterInfo;\n  }\n\n  /* VOTER */\n  struct Voter {\n    bool hasVoted;\n    // vote will be encrypted in the future\n    uint256 vote;\n    uint256 weight;\n  }\n\n  mapping(uint256 => Poll) public polls;\n  uint256 public pollCount;\n  VotingToken public token;\n  Enigma public enigma;\n\n  /* CONSTRUCTOR */\n  constructor(address _token, address _enigmaAddress) public {\n    token = VotingToken(_token);\n    enigma = Enigma(_enigmaAddress);\n  }\n\n  /*\n   * Creates a new poll with a specified quorum percentage. Returns the poll ID of the new poll.\n   */\n  function createPoll(uint256 _quorumPct, string _description) external {\n    require(_quorumPct <= 100, \"Quorum Percentage must be less than or equal to 100%\");\n    pollCount++;\n\n    Poll storage curPoll = polls[pollCount];\n    curPoll.creator = msg.sender;\n    curPoll.status = PollStatus.IN_PROGRESS;\n    curPoll.quorumPercentage = _quorumPct;\n    curPoll.description = _description;\n\n    emit pollCreated(pollCount, _quorumPct, msg.sender, _description);\n  }\n\n  function endPoll(uint256 _pollId) public validPoll(_pollId) {\n    require(msg.sender == polls[_pollId].creator, \"User is not the creator of the poll.\");\n    require(polls[_pollId].status == PollStatus.IN_PROGRESS, \"Vote is not in progress.\");\n    polls[_pollId].status = PollStatus.TALLY;\n  }\n\n  /*\n   * Modifier that checks for a valid poll ID.\n   */\n  modifier validPoll(uint256 _pollId) {\n    require(_pollId > 0 && _pollId <= pollCount, \"Not a valid poll Id.\");\n    _;\n  }\n\n  /*\n   * Checks if a poll was approved given the quorum percentage.\n   * URGENT NOTE: The onlyEnigma modifier is currently commented out.\n   */\n  function updatePollStatus(uint256 _pollId, uint256 _yeaVotes, uint256 _nayVotes) public validPoll(_pollId)\n    onlyEnigma() /* Add back for final launch */\n    {\n    require(getPollStatus(_pollId) == PollStatus.TALLY, \"Poll has not expired yet.\");\n    Poll storage curPoll = polls[_pollId];\n    curPoll.yeaVotes = _yeaVotes;\n    curPoll.nayVotes = _nayVotes;\n\n    bool pollStatus = (curPoll.yeaVotes.mul(100)) > curPoll.quorumPercentage.mul(curPoll.yeaVotes.add(curPoll.nayVotes));\n    if (pollStatus) {\n      curPoll.status = PollStatus.PASSED;\n    }\n    else {\n      curPoll.status = PollStatus.REJECTED;\n    }\n\n    emit pollPassed(pollStatus);\n  }\n\n  /*\n   * Gets the status of a poll.\n   */\n  function getPollStatus(uint256 _pollId) public view validPoll(_pollId) returns (PollStatus status) {\n    return polls[_pollId].status;\n  }\n\n  /*\n   * Modifier that checks that the contract caller is the Enigma contract.\n   */\n  modifier onlyEnigma() {\n    require(msg.sender == address(enigma));\n    _;\n  }\n\n  /*\n   * The callable function that is computed by the SGX node.\n   */\n  function countVotes(uint256 _pollId, uint256[] _votes, uint256[] _weights) public pure returns (uint256 pollId, uint256 yeaVotes, uint256 nayVotes) {\n    require(_votes.length == _weights.length);\n    for (uint256 i = 0; i < _votes.length; i++) {\n      if (_votes[i] == 0) nayVotes += _weights[i];\n      else yeaVotes += _weights[i];\n    }\n    return (_pollId, yeaVotes, nayVotes);\n  }\n\n  /*\n   * Casts a vote for a given poll. Stakes ERC20 tokens as votes.\n   * NOTE: _weight is denominated in *wei*.\n   */\n  function castVote(uint256 _pollId, uint256 _encryptedVote, uint256 _weight) external validPoll(_pollId) {\n    require(getPollStatus(_pollId) == PollStatus.IN_PROGRESS, \"Poll has expired.\");\n    require(!userHasVoted(_pollId, msg.sender), \"User has already voted.\");\n    stakeVotingTokens(msg.sender, _weight);\n\n    Poll storage curPoll = polls[_pollId];\n\n    curPoll.voterInfo[msg.sender] = Voter({\n        hasVoted: true,\n        vote: _encryptedVote,\n        weight: _weight\n    });\n\n    curPoll.voters.push(msg.sender);\n\n    emit voteCasted(msg.sender, _pollId, _encryptedVote, _weight);\n  }\n\n  /*\n   * Checks if a user has voted for a specific poll.\n   */\n  function userHasVoted(uint256 _pollId, address _user) public view validPoll(_pollId) returns (bool hasVoted) {\n    return (polls[_pollId].voterInfo[_user].hasVoted);\n  }\n\n  /*\n   * Internal function that stakes tokens for a given voter.\n   * NOTE:\n   *  User must approve transfer of tokens.\n   *  _numTokens is denominated in *wei*.\n   *  Might add support for staking more tokens.\n   */\n  function stakeVotingTokens(address _voter, uint256 _numTokens) internal {\n    require(token.balanceOf(_voter) >= _numTokens, \"User does not have enough tokens\");\n    require(token.transferFrom(_voter, this, _numTokens), \"User did not approve token transfer.\");\n  }\n\n  /*\n   * Allows a voter to withdraw voting tokens after a poll has ended.\n   * NOTE: _numTokens is denominated in *wei*.\n   */\n  function withdrawTokens(uint256 _numTokens, uint256 _pollId) external validPoll(_pollId) {\n    require(getPollStatus(_pollId) == PollStatus.REJECTED ||  getPollStatus(_pollId) == PollStatus.PASSED, \"Poll has not expired.\");\n    require(userHasVoted(_pollId, msg.sender), \"User did not vote in the poll.\");\n    require(_numTokens <= polls[_pollId].voterInfo[msg.sender].weight, \"User is trying to withdraw too many tokens.\");\n    require(token.transfer(msg.sender, _numTokens));\n  }\n\n  /*\n   * Gets the encrypted votes and weights for a given poll after it has ended.\n   */\n  function getInfoForPoll(uint256 _pollId) public validPoll(_pollId) returns (uint256[], uint256[]) {\n    require(getPollStatus(_pollId) != PollStatus.IN_PROGRESS);\n    Poll storage curPoll = polls[_pollId];\n    uint256 numVoters = curPoll.voters.length;\n    uint256[] memory votes = new uint256[](numVoters);\n    uint256[] memory weights = new uint256[](numVoters);\n    for (uint256 i = 0; i < numVoters; i++) {\n      address curVoter = curPoll.voters[i];\n      votes[i] = curPoll.voterInfo[curVoter].vote;\n      weights[i] = curPoll.voterInfo[curVoter].weight;\n    }\n    return (votes, weights);\n  }\n\n}\n",
  "sourcePath": "/Users/andrew/Desktop/Andrew/secret-contracts/secret-contracts/contracts/Voting.sol",
  "compiler": {
    "name": "solc",
    "version": "0.4.24+commit.e67f0147.Emscripten.clang"
  },
  "schemaVersion": "2.0.1",
  "updatedAt": "2018-07-24T21:11:35.832Z"
}