{
  "contractName": "Voting",
  "abi": [
    {
      "constant": true,
      "inputs": [
        {
          "name": "",
          "type": "address"
        }
      ],
      "name": "bank",
      "outputs": [
        {
          "name": "tokenBalance",
          "type": "uint256"
        }
      ],
      "payable": false,
      "stateMutability": "view",
      "type": "function"
    },
    {
      "constant": true,
      "inputs": [],
      "name": "pollCount",
      "outputs": [
        {
          "name": "",
          "type": "uint256"
        }
      ],
      "payable": false,
      "stateMutability": "view",
      "type": "function"
    },
    {
      "constant": true,
      "inputs": [
        {
          "name": "",
          "type": "uint256"
        }
      ],
      "name": "polls",
      "outputs": [
        {
          "name": "creator",
          "type": "address"
        },
        {
          "name": "status",
          "type": "uint8"
        },
        {
          "name": "quorumPercentage",
          "type": "uint256"
        },
        {
          "name": "yeaVotes",
          "type": "uint256"
        },
        {
          "name": "nayVotes",
          "type": "uint256"
        },
        {
          "name": "description",
          "type": "string"
        },
        {
          "name": "expirationTime",
          "type": "uint256"
        }
      ],
      "payable": false,
      "stateMutability": "view",
      "type": "function"
    },
    {
      "constant": true,
      "inputs": [],
      "name": "enigma",
      "outputs": [
        {
          "name": "",
          "type": "address"
        }
      ],
      "payable": false,
      "stateMutability": "view",
      "type": "function"
    },
    {
      "constant": true,
      "inputs": [],
      "name": "token",
      "outputs": [
        {
          "name": "",
          "type": "address"
        }
      ],
      "payable": false,
      "stateMutability": "view",
      "type": "function"
    },
    {
      "inputs": [
        {
          "name": "_token",
          "type": "address"
        },
        {
          "name": "_enigma",
          "type": "address"
        }
      ],
      "payable": false,
      "stateMutability": "nonpayable",
      "type": "constructor"
    },
    {
      "anonymous": false,
      "inputs": [
        {
          "indexed": false,
          "name": "voter",
          "type": "address"
        },
        {
          "indexed": false,
          "name": "pollID",
          "type": "uint256"
        },
        {
          "indexed": false,
          "name": "vote",
          "type": "bytes"
        },
        {
          "indexed": false,
          "name": "weight",
          "type": "uint256"
        }
      ],
      "name": "voteCasted",
      "type": "event"
    },
    {
      "anonymous": false,
      "inputs": [
        {
          "indexed": false,
          "name": "creator",
          "type": "address"
        },
        {
          "indexed": false,
          "name": "pollID",
          "type": "uint256"
        },
        {
          "indexed": false,
          "name": "quorumPercentage",
          "type": "uint256"
        },
        {
          "indexed": false,
          "name": "description",
          "type": "string"
        },
        {
          "indexed": false,
          "name": "votingLength",
          "type": "uint256"
        }
      ],
      "name": "pollCreated",
      "type": "event"
    },
    {
      "anonymous": false,
      "inputs": [
        {
          "indexed": false,
          "name": "status",
          "type": "bool"
        }
      ],
      "name": "pollStatusUpdate",
      "type": "event"
    },
    {
      "constant": false,
      "inputs": [
        {
          "name": "_quorumPct",
          "type": "uint256"
        },
        {
          "name": "_description",
          "type": "string"
        },
        {
          "name": "_voteLength",
          "type": "uint256"
        }
      ],
      "name": "createPoll",
      "outputs": [
        {
          "name": "",
          "type": "uint256"
        }
      ],
      "payable": false,
      "stateMutability": "nonpayable",
      "type": "function"
    },
    {
      "constant": false,
      "inputs": [
        {
          "name": "_pollID",
          "type": "uint256"
        }
      ],
      "name": "endPoll",
      "outputs": [],
      "payable": false,
      "stateMutability": "nonpayable",
      "type": "function"
    },
    {
      "constant": false,
      "inputs": [
        {
          "name": "_pollID",
          "type": "uint256"
        },
        {
          "name": "_yeaVotes",
          "type": "uint256"
        },
        {
          "name": "_nayVotes",
          "type": "uint256"
        }
      ],
      "name": "updatePollStatus",
      "outputs": [],
      "payable": false,
      "stateMutability": "nonpayable",
      "type": "function"
    },
    {
      "constant": true,
      "inputs": [
        {
          "name": "_pollID",
          "type": "uint256"
        }
      ],
      "name": "getPollStatus",
      "outputs": [
        {
          "name": "",
          "type": "uint8"
        }
      ],
      "payable": false,
      "stateMutability": "view",
      "type": "function"
    },
    {
      "constant": true,
      "inputs": [
        {
          "name": "_pollID",
          "type": "uint256"
        }
      ],
      "name": "getPollExpirationTime",
      "outputs": [
        {
          "name": "",
          "type": "uint256"
        }
      ],
      "payable": false,
      "stateMutability": "view",
      "type": "function"
    },
    {
      "constant": true,
      "inputs": [
        {
          "name": "_voter",
          "type": "address"
        }
      ],
      "name": "getPollHistory",
      "outputs": [
        {
          "name": "",
          "type": "uint256[]"
        }
      ],
      "payable": false,
      "stateMutability": "view",
      "type": "function"
    },
    {
      "constant": true,
      "inputs": [
        {
          "name": "_pollID",
          "type": "uint256"
        },
        {
          "name": "_voter",
          "type": "address"
        }
      ],
      "name": "getPollInfoForVoter",
      "outputs": [
        {
          "name": "",
          "type": "bytes"
        },
        {
          "name": "",
          "type": "uint256"
        }
      ],
      "payable": false,
      "stateMutability": "view",
      "type": "function"
    },
    {
      "constant": true,
      "inputs": [
        {
          "name": "_pollID",
          "type": "uint256"
        }
      ],
      "name": "getVotersForPoll",
      "outputs": [
        {
          "name": "",
          "type": "address[]"
        }
      ],
      "payable": false,
      "stateMutability": "view",
      "type": "function"
    },
    {
      "constant": false,
      "inputs": [
        {
          "name": "_pollID",
          "type": "uint256"
        },
        {
          "name": "_encryptedVote",
          "type": "bytes"
        },
        {
          "name": "_weight",
          "type": "uint256"
        }
      ],
      "name": "castVote",
      "outputs": [],
      "payable": false,
      "stateMutability": "nonpayable",
      "type": "function"
    },
    {
      "constant": true,
      "inputs": [
        {
          "name": "_pollID",
          "type": "uint256"
        },
        {
          "name": "_votes",
          "type": "uint256[]"
        },
        {
          "name": "_weights",
          "type": "uint256[]"
        }
      ],
      "name": "countVotes",
      "outputs": [
        {
          "name": "",
          "type": "uint256"
        },
        {
          "name": "",
          "type": "uint256"
        },
        {
          "name": "",
          "type": "uint256"
        }
      ],
      "payable": false,
      "stateMutability": "pure",
      "type": "function"
    },
    {
      "constant": true,
      "inputs": [
        {
          "name": "_pollID",
          "type": "uint256"
        },
        {
          "name": "_user",
          "type": "address"
        }
      ],
      "name": "userHasVoted",
      "outputs": [
        {
          "name": "",
          "type": "bool"
        }
      ],
      "payable": false,
      "stateMutability": "view",
      "type": "function"
    },
    {
      "constant": false,
      "inputs": [
        {
          "name": "_numTokens",
          "type": "uint256"
        }
      ],
      "name": "stakeVotingTokens",
      "outputs": [],
      "payable": false,
      "stateMutability": "nonpayable",
      "type": "function"
    },
    {
      "constant": false,
      "inputs": [
        {
          "name": "_numTokens",
          "type": "uint256"
        }
      ],
      "name": "withdrawTokens",
      "outputs": [],
      "payable": false,
      "stateMutability": "nonpayable",
      "type": "function"
    },
    {
      "constant": true,
      "inputs": [
        {
          "name": "_voter",
          "type": "address"
        }
      ],
      "name": "getLockedAmount",
      "outputs": [
        {
          "name": "",
          "type": "uint256"
        }
      ],
      "payable": false,
      "stateMutability": "view",
      "type": "function"
    },
    {
      "constant": true,
      "inputs": [
        {
          "name": "_voter",
          "type": "address"
        }
      ],
      "name": "getTokenStake",
      "outputs": [
        {
          "name": "",
          "type": "uint256"
        }
      ],
      "payable": false,
      "stateMutability": "view",
      "type": "function"
    }
  ],
  "bytecode": "0x608060405234801561001057600080fd5b50604051604080611d2f833981016040528051602090910151600160a060020a0382161580159061004a5750600354600160a060020a0316155b151561005557600080fd5b600160a060020a038116158015906100765750600454600160a060020a0316155b151561008157600080fd5b60038054600160a060020a03938416600160a060020a03199182161790915560048054929093169116179055611c73806100bc6000396000f3006080604052600436106101115763ffffffff7c01000000000000000000000000000000000000000000000000000000006000350416630da6560081146101165780630de88fd8146101305780630ed70ed1146101a1578063236e1b93146101d4578063291ae9b3146101fb578063315a095d146102225780634e0e931a1461023a578063529a1baf146102585780635fc48d7e146102795780636cee7be5146102b15780639207891d14610354578063929ec53714610369578063ac2f00741461038a578063b0c095e31461045b578063b24fd5c514610497578063d2025b1d146104c8578063df78b81c14610579578063e7f7661914610591578063f43b8778146105a9578063fc0c546a146105c1575b600080fd5b34801561012257600080fd5b5061012e6004356105d6565b005b34801561013c57600080fd5b50610151600160a060020a03600435166107ef565b60408051602080825283518183015283519192839290830191858101910280838360005b8381101561018d578181015183820152602001610175565b505050509050019250505060405180910390f35b3480156101ad57600080fd5b506101c2600160a060020a036004351661085e565b60408051918252519081900360200190f35b3480156101e057600080fd5b506101c2600480359060248035908101910135604435610879565b34801561020757600080fd5b5061012e600480359060248035908101910135604435610a53565b34801561022e57600080fd5b5061012e600435610d71565b34801561024657600080fd5b5061012e600435602435604435610ec3565b34801561026457600080fd5b506101c2600160a060020a03600435166110b2565b34801561028557600080fd5b5061029d600435600160a060020a03602435166110c4565b604080519115158252519081900360200190f35b3480156102bd57600080fd5b506102d5600435600160a060020a036024351661114c565b6040518080602001838152602001828103825284818151815260200191508051906020019080838360005b83811015610318578181015183820152602001610300565b50505050905090810190601f1680156103455780820380516001836020036101000a031916815260200191505b50935050505060405180910390f35b34801561036057600080fd5b506101c26112b0565b34801561037557600080fd5b506101c2600160a060020a03600435166112b6565b34801561039657600080fd5b506103a2600435611341565b604051600160a060020a0388168152602081018760038111156103c157fe5b60ff16815260200186815260200185815260200184815260200180602001838152602001828103825284818151815260200191508051906020019080838360005b8381101561041a578181015183820152602001610402565b50505050905090810190601f1680156104475780820380516001836020036101000a031916815260200191505b509850505050505050505060405180910390f35b34801561046757600080fd5b50610473600435611417565b6040518082600381111561048357fe5b60ff16815260200191505060405180910390f35b3480156104a357600080fd5b506104ac61148e565b60408051600160a060020a039092168252519081900360200190f35b3480156104d457600080fd5b5060408051602060046024803582810135848102808701860190975280865261055b96843596369660449591949091019291829185019084908082843750506040805187358901803560208181028481018201909552818452989b9a99890198929750908201955093508392508501908490808284375094975061149d9650505050505050565b60408051938452602084019290925282820152519081900360600190f35b34801561058557600080fd5b50610151600435611557565b34801561059d57600080fd5b506101c260043561163d565b3480156105b557600080fd5b5061012e6004356116ad565b3480156105cd57600080fd5b506104ac6118a4565b600354604080517f70a0823100000000000000000000000000000000000000000000000000000000815233600482015290518392600160a060020a0316916370a082319160248083019260209291908290030181600087803b15801561063b57600080fd5b505af115801561064f573d6000803e3d6000fd5b505050506040513d602081101561066557600080fd5b505110156106bd576040805160e560020a62461bcd02815260206004820181905260248201527f5573657220646f6573206e6f74206861766520656e6f75676820746f6b656e73604482015290519081900360640190fd5b600354604080517f23b872dd000000000000000000000000000000000000000000000000000000008152336004820152306024820152604481018490529051600160a060020a03909216916323b872dd916064808201926020929091908290030181600087803b15801561073057600080fd5b505af1158015610744573d6000803e3d6000fd5b505050506040513d602081101561075a57600080fd5b505115156107d7576040805160e560020a62461bcd028152602060048201526024808201527f5573657220646964206e6f7420617070726f766520746f6b656e207472616e7360448201527f6665722e00000000000000000000000000000000000000000000000000000000606482015290519081900360840190fd5b33600090815260016020526040902080549091019055565b600160a060020a03811660009081526001602090815260409182902060020180548351818402810184019094528084526060939283018282801561085257602002820191906000526020600020905b81548152602001906001019080831161083e575b50505050509050919050565b600160a060020a031660009081526001602052604090205490565b60008060648611156108fb576040805160e560020a62461bcd02815260206004820152603460248201527f51756f72756d2050657263656e74616765206d757374206265206c657373207460448201527f68616e206f7220657175616c20746f2031303025000000000000000000000000606482015290519081900360840190fd5b60008311610953576040805160e560020a62461bcd02815260206004820152601e60248201527f54686520766f74696e6720706572696f642063616e6e6f7420626520302e0000604482015290519081900360640190fd5b5060028054600190810191829055600091825260208290526040909120805473ffffffffffffffffffffffffffffffffffffffff1916331774ff00000000000000000000000000000000000000001916815590810186905542830160068201556109c1600482018686611ad8565b507f45e74d302a4ed9fd7b7b46e4ac6ff1a3459046b18fcb30923f8af6f11ebdc26e33600254888888886040518087600160a060020a0316600160a060020a031681526020018681526020018581526020018060200183815260200182810382528585828181526020019250808284376040519201829003995090975050505050505050a15050600254949350505050565b600084600081118015610a6857506002548111155b1515610aac576040805160e560020a62461bcd0281526020600482015260146024820152600080516020611c28833981519152604482015290519081900360640190fd5b6000610ab787611417565b6003811115610ac257fe5b14610b17576040805160e560020a62461bcd02815260206004820152601160248201527f506f6c6c2068617320657870697265642e000000000000000000000000000000604482015290519081900360640190fd5b610b2186336110c4565b15610b76576040805160e560020a62461bcd02815260206004820152601760248201527f557365722068617320616c726561647920766f7465642e000000000000000000604482015290519081900360640190fd5b82610b803361085e565b1015610bfc576040805160e560020a62461bcd02815260206004820152602860248201527f5573657220646f6573206e6f74206861766520656e6f756768207374616b656460448201527f20746f6b656e732e000000000000000000000000000000000000000000000000606482015290519081900360840190fd5b3360009081526001602081815260408084208a8552808401835281852088905560020180548085018255908552828520018a90558984528382529283902083516060810185529283528351601f8901839004830281018301909452878452945090918282019188908890819084018382808284375050509284525050506020908101859052336000908152600785018252604090208251815460ff19169015151781558282015180519192610cb992600185019290910190611b56565b50604091820151600290910155600583018054600181018255600091825260209182902001805473ffffffffffffffffffffffffffffffffffffffff19163390811790915582518181529182018990526060820186905260809282018381529282018790527fe95eb7d43e66fe71c9e83b9d854df9bbf195378b75da7c121b7910630d75387192909189918991899189919060a0820185858082843760405192018290039850909650505050505050a1505050505050565b6000610d7c336112b6565b90508181610d893361085e565b031015610e06576040805160e560020a62461bcd02815260206004820152602b60248201527f5573657220697320747279696e6720746f20776974686472617720746f6f206d60448201527f616e7920746f6b656e732e000000000000000000000000000000000000000000606482015290519081900360840190fd5b3360008181526001602090815260408083208054879003905560035481517fa9059cbb0000000000000000000000000000000000000000000000000000000081526004810195909552602485018790529051600160a060020a039091169363a9059cbb9360448083019493928390030190829087803b158015610e8857600080fd5b505af1158015610e9c573d6000803e3d6000fd5b505050506040513d6020811015610eb257600080fd5b50511515610ebf57600080fd5b5050565b60008084600081118015610ed957506002548111155b1515610f1d576040805160e560020a62461bcd0281526020600482015260146024820152600080516020611c28833981519152604482015290519081900360640190fd5b600454600160a060020a03163314610f3457600080fd5b6001610f3f87611417565b6003811115610f4a57fe5b14610f9f576040805160e560020a62461bcd02815260206004820152601960248201527f506f6c6c20686173206e6f742065787069726564207965742e00000000000000604482015290519081900360640190fd5b600086815260208190526040902060028101869055600381018590559250610fe1610fd0868663ffffffff6118b316565b60018501549063ffffffff6118c616565b6002840154610ff790606463ffffffff6118c616565b119150811561103857825474ff000000000000000000000000000000000000000019167402000000000000000000000000000000000000000017835561106c565b825474ff00000000000000000000000000000000000000001916740300000000000000000000000000000000000000001783555b611075866118ef565b60408051831515815290517fa09418b9290be8509b4127e8df442ca7ca9aa4be676367d2a5c6586ab14253449181900360200190a1505050505050565b60016020526000908152604090205481565b6000826000811180156110d957506002548111155b151561111d576040805160e560020a62461bcd0281526020600482015260146024820152600080516020611c28833981519152604482015290519081900360640190fd5b5050600091825260208281526040808420600160a060020a039390931684526007909201905290205460ff1690565b60606000806000808660008111801561116757506002548111155b15156111ab576040805160e560020a62461bcd0281526020600482015260146024820152600080516020611c28833981519152604482015290519081900360640190fd5b60006111b689611417565b60038111156111c157fe5b14156111cc57600080fd5b6111d688886110c4565b15156111e157600080fd5b600088815260208181526040808320600160a060020a038b168452600781018352928190206002808201546001928301805485519481161561010002600019011692909204601f81018690048602840186019094528383529498509650929450859285929091849183018282801561129a5780601f1061126f5761010080835404028352916020019161129a565b820191906000526020600020905b81548152906001019060200180831161127d57829003601f168201915b5050505050915095509550505050509250929050565b60025481565b600160a060020a03811660009081526001602052604081208180805b600284015482101561133757600284018054839081106112ee57fe5b906000526020600020015490508284600101600083815260200190815260200160002054111561132c57600081815260018501602052604090205492505b6001909101906112d2565b5090949350505050565b600060208181529181526040908190208054600180830154600280850154600386015460048701805489516101009782161597909702600019011693909304601f81018a90048a0286018a01909852878552600160a060020a0386169860a060020a90960460ff16979396919590949193919291908301828280156114075780601f106113dc57610100808354040283529160200191611407565b820191906000526020600020905b8154815290600101906020018083116113ea57829003601f168201915b5050505050908060060154905087565b60008160008111801561142c57506002548111155b1515611470576040805160e560020a62461bcd0281526020600482015260146024820152600080516020611c28833981519152604482015290519081900360640190fd5b505060009081526020819052604090205460a060020a900460ff1690565b600454600160a060020a031681565b600080600080600080865188511415156114b657600080fd5b5060005b87518110156115495787818151811015156114d157fe5b90602001906020020151600014156115045786818151811015156114f157fe5b9060200190602002015182019150611541565b878181518110151561151257fe5b906020019060200201516001141561154157868181518110151561153257fe5b90602001906020020151830192505b6001016114ba565b509697909695509350505050565b60608160008111801561156c57506002548111155b15156115b0576040805160e560020a62461bcd0281526020600482015260146024820152600080516020611c28833981519152604482015290519081900360640190fd5b60006115bb84611417565b60038111156115c657fe5b14156115d157600080fd5b600083815260208181526040918290206005018054835181840281018401909452808452909183018282801561163057602002820191906000526020600020905b8154600160a060020a03168152600190910190602001808311611612575b5050505050915050919050565b60008160008111801561165257506002548111155b1515611696576040805160e560020a62461bcd0281526020600482015260146024820152600080516020611c28833981519152604482015290519081900360640190fd5b505060009081526020819052604090206006015490565b806000811180156116c057506002548111155b1515611704576040805160e560020a62461bcd0281526020600482015260146024820152600080516020611c28833981519152604482015290519081900360640190fd5b600082815260208190526040902054600160a060020a03163314611797576040805160e560020a62461bcd028152602060048201526024808201527f55736572206973206e6f74207468652063726561746f72206f6620746865207060448201527f6f6c6c2e00000000000000000000000000000000000000000000000000000000606482015290519081900360840190fd5b6000808381526020819052604090205460a060020a900460ff1660038111156117bc57fe5b14611811576040805160e560020a62461bcd02815260206004820152601860248201527f566f7465206973206e6f7420696e2070726f67726573732e0000000000000000604482015290519081900360640190fd5b61181a8261163d565b421015611871576040805160e560020a62461bcd02815260206004820152601d60248201527f566f74696e6720706572696f6420686173206e6f742065787069726564000000604482015290519081900360640190fd5b506000908152602081905260409020805474ff0000000000000000000000000000000000000000191660a060020a179055565b600354600160a060020a031681565b818101828110156118c057fe5b92915050565b60008215156118d7575060006118c0565b508181028183828115156118e757fe5b04146118c057fe5b6118f7611bc4565b600082815260208181526040808320815161010081019092528054600160a060020a0381168352849383019060a060020a900460ff16600381111561193857fe5b600381111561194357fe5b8152602001600182015481526020016002820154815260200160038201548152602001600482018054600181600116156101000203166002900480601f0160208091040260200160405190810160405280929190818152602001828054600181600116156101000203166002900480156119fe5780601f106119d3576101008083540402835291602001916119fe565b820191906000526020600020905b8154815290600101906020018083116119e157829003601f168201915b5050505050815260200160058201805480602002602001604051908101604052809291908181526020018280548015611a6057602002820191906000526020600020905b8154600160a060020a03168152600190910190602001808311611a42575b505050505081526020016006820154815250509250600091505b8260c0015151821015611ad25760c0830151805183908110611a9857fe5b6020908102909101810151600160a060020a0381166000908152600180845260408083208984528201909452928120559201919050611a7a565b50505050565b828054600181600116156101000203166002900490600052602060002090601f016020900481019282601f10611b195782800160ff19823516178555611b46565b82800160010185558215611b46579182015b82811115611b46578235825591602001919060010190611b2b565b50611b52929150611c0a565b5090565b828054600181600116156101000203166002900490600052602060002090601f016020900481019282601f10611b9757805160ff1916838001178555611b46565b82800160010185558215611b46579182015b82811115611b46578251825591602001919060010190611ba9565b6040805161010081019091526000808252602082019081526020016000815260200160008152602001600081526020016060815260200160608152602001600081525090565b611c2491905b80821115611b525760008155600101611c10565b9056004e6f7420612076616c696420706f6c6c2049642e000000000000000000000000a165627a7a72305820276dfd8606694c21a8471ad73df8887a4d315ad1ae92fcbf726cbee1de1b1b1c0029",
  "source": "// Voting.sol\n// Author: Andrew Tam, 2018\n\npragma solidity ^0.4.24;\n\nimport \"openzeppelin-solidity/contracts/math/SafeMath.sol\";\nimport \"./VotingToken.sol\";\nimport \"./Enigma.sol\";\n\ncontract Voting {\n  using SafeMath for uint;\n\n  /* EVENTS */\n  event voteCasted(address voter, uint pollID, bytes vote, uint weight);\n  event pollCreated(address creator, uint pollID, uint quorumPercentage, string description, uint votingLength);\n  event pollStatusUpdate(bool status);\n\n  /* Determine the current state of a poll */\n  enum PollStatus { IN_PROGRESS, TALLY, PASSED, REJECTED }\n\n  /* POLL */\n  struct Poll {\n    address creator;\n    PollStatus status;\n    uint quorumPercentage;\n    uint yeaVotes;\n    uint nayVotes;\n    string description;\n    address[] voters;\n    uint expirationTime;\n    mapping(address => Voter) voterInfo;\n  }\n\n  /* VOTER */\n  struct Voter {\n    bool hasVoted;\n    bytes vote;\n    uint weight;\n  }\n\n  /* TOKEN MANAGER */\n  struct TokenManager {\n    uint tokenBalance;\n    mapping(uint => uint) lockedTokens;\n    uint[] participatedPolls;\n  }\n\n  /* STATE VARIABLES */\n  mapping(uint => Poll) public polls;\n  mapping(address => TokenManager) public bank;\n  uint public pollCount;\n  VotingToken public token;\n  Enigma public enigma;\n\n  /* CONSTRUCTOR */\n  constructor(address _token, address _enigma) public {\n    require(_token != 0 && address(token) == 0);\n    require(_enigma != 0 && address(enigma) == 0);\n    token = VotingToken(_token);\n    enigma = Enigma(_enigma);\n  }\n\n  /* POLL OPERATIONS */\n\n  /*\n   * Creates a new poll with a specified quorum percentage.\n   */\n  function createPoll(uint _quorumPct, string _description, uint _voteLength) external returns (uint){\n    require(_quorumPct <= 100, \"Quorum Percentage must be less than or equal to 100%\");\n    require(_voteLength > 0, \"The voting period cannot be 0.\");\n    pollCount++;\n\n    Poll storage curPoll = polls[pollCount];\n    curPoll.creator = msg.sender;\n    curPoll.status = PollStatus.IN_PROGRESS;\n    curPoll.quorumPercentage = _quorumPct;\n    curPoll.expirationTime = now + _voteLength * 1 seconds;\n    curPoll.description = _description;\n\n    emit pollCreated(msg.sender, pollCount, _quorumPct, _description, _voteLength);\n    return pollCount;\n  }\n\n  /*\n   * Ends a poll. Only the creator of a given poll can end that poll.\n   */\n  function endPoll(uint _pollID) external validPoll(_pollID) {\n    require(msg.sender == polls[_pollID].creator, \"User is not the creator of the poll.\");\n    require(polls[_pollID].status == PollStatus.IN_PROGRESS, \"Vote is not in progress.\");\n    require(now >= getPollExpirationTime(_pollID), \"Voting period has not expired\");\n    polls[_pollID].status = PollStatus.TALLY;\n  }\n\n  /*\n   * The callback function. Checks if a poll was passed given the quorum percentage and vote distribution.\n   * NOTE: Only the Enigma contract can call this function.\n   */\n  function updatePollStatus(uint _pollID, uint _yeaVotes, uint _nayVotes) public validPoll(_pollID) onlyEnigma() {\n    require(getPollStatus(_pollID) == PollStatus.TALLY, \"Poll has not expired yet.\");\n    Poll storage curPoll = polls[_pollID];\n    curPoll.yeaVotes = _yeaVotes;\n    curPoll.nayVotes = _nayVotes;\n\n    bool pollStatus = (curPoll.yeaVotes.mul(100)) > curPoll.quorumPercentage.mul(curPoll.yeaVotes.add(curPoll.nayVotes));\n    if (pollStatus) {\n      curPoll.status = PollStatus.PASSED;\n    }\n    else {\n      curPoll.status = PollStatus.REJECTED;\n    }\n\n    updateTokenBank(_pollID);\n\n    emit pollStatusUpdate(pollStatus);\n  }\n\n  /*\n   * Gets the status of a poll.\n   */\n  function getPollStatus(uint _pollID) public view validPoll(_pollID) returns (PollStatus) {\n    return polls[_pollID].status;\n  }\n\n  /*\n   * Gets the expiration date of a poll.\n   */\n  function getPollExpirationTime(uint _pollID) public view validPoll(_pollID) returns (uint) {\n    return polls[_pollID].expirationTime;\n  }\n\n  /*\n   * Gets the complete list of polls a user has voted in.\n   */\n  function getPollHistory(address _voter) public view returns(uint[]) {\n    return bank[_voter].participatedPolls;\n  }\n\n  /*\n   * Gets a voter's encrypted vote and weight for a given expired poll.\n   */\n  function getPollInfoForVoter(uint _pollID, address _voter) public view validPoll(_pollID) returns (bytes, uint) {\n    require(getPollStatus(_pollID) != PollStatus.IN_PROGRESS);\n    require(userHasVoted(_pollID, _voter));\n    Poll storage curPoll = polls[_pollID];\n    bytes vote = curPoll.voterInfo[_voter].vote;\n    uint weight = curPoll.voterInfo[_voter].weight;\n    return (vote, weight);\n  }\n\n  /*\n   * Gets all the voters of a poll.\n   */\n  function getVotersForPoll(uint _pollID) public view validPoll(_pollID) returns (address[]) {\n    require(getPollStatus(_pollID) != PollStatus.IN_PROGRESS);\n    return polls[_pollID].voters;\n  }\n\n  /*\n   * Modifier that checks for a valid poll ID.\n   */\n  modifier validPoll(uint _pollID) {\n    require(_pollID > 0 && _pollID <= pollCount, \"Not a valid poll Id.\");\n    _;\n  }\n\n  /*\n   * Modifier that checks that the contract caller is the Enigma contract.\n   */\n  modifier onlyEnigma() {\n    require(msg.sender == address(enigma));\n    _;\n  }\n\n  /* VOTE OPERATIONS */\n\n  /*\n   * Casts a vote for a given poll.\n   * NOTE: _weight is denominated in *wei*.\n   */\n  function castVote(uint _pollID, bytes _encryptedVote, uint _weight) external validPoll(_pollID) {\n    require(getPollStatus(_pollID) == PollStatus.IN_PROGRESS, \"Poll has expired.\");\n    require(!userHasVoted(_pollID, msg.sender), \"User has already voted.\");\n    //require(getPollExpirationTime(_pollID) > now);\n    require(getTokenStake(msg.sender) >= _weight, \"User does not have enough staked tokens.\");\n\n    // update token bank\n    bank[msg.sender].lockedTokens[_pollID] = _weight;\n    bank[msg.sender].participatedPolls.push(_pollID);\n\n    Poll storage curPoll = polls[_pollID];\n\n    curPoll.voterInfo[msg.sender] = Voter({\n        hasVoted: true,\n        vote: _encryptedVote,\n        weight: _weight\n    });\n\n    curPoll.voters.push(msg.sender);\n\n    emit voteCasted(msg.sender, _pollID, _encryptedVote, _weight);\n  }\n\n  /*\n   * The callable function that is computed by the SGX node. Tallies votes.\n   */\n  function countVotes(uint _pollID, uint[] _votes, uint[] _weights) public pure returns (uint, uint, uint) {\n    require(_votes.length == _weights.length);\n    uint yeaVotes;\n    uint nayVotes;\n    for (uint i = 0; i < _votes.length; i++) {\n      if (_votes[i] == 0) nayVotes += _weights[i];\n      else if (_votes[i] == 1) yeaVotes += _weights[i];\n    }\n    return (_pollID, yeaVotes, nayVotes);\n  }\n\n  /*\n   * Checks if a user has voted for a specific poll.\n   */\n  function userHasVoted(uint _pollID, address _user) public view validPoll(_pollID) returns (bool) {\n    return (polls[_pollID].voterInfo[_user].hasVoted);\n  }\n\n  /* TOKEN OPERATIONS */\n\n  /*\n   * Stakes tokens for a given voter in return for voting credits.\n   * NOTE:\n   *  User must approve transfer of tokens.\n   *  _numTokens is denominated in *wei*.\n   */\n  function stakeVotingTokens(uint _numTokens) external {\n    require(token.balanceOf(msg.sender) >= _numTokens, \"User does not have enough tokens\");\n    require(token.transferFrom(msg.sender, this, _numTokens), \"User did not approve token transfer.\");\n    bank[msg.sender].tokenBalance += _numTokens;\n  }\n\n  /*\n   * Allows a voter to withdraw voting tokens after a poll has ended.\n   * NOTE: _numTokens is denominated in *wei*.\n   */\n  function withdrawTokens(uint _numTokens) external {\n    uint largest = getLockedAmount(msg.sender);\n    require(getTokenStake(msg.sender) - largest >= _numTokens, \"User is trying to withdraw too many tokens.\");\n    bank[msg.sender].tokenBalance -= _numTokens;\n    require(token.transfer(msg.sender, _numTokens));\n  }\n\n  /*\n   * Gets the amount of Voting Tokens that are locked for a given voter.\n   */\n  function getLockedAmount(address _voter) public view returns (uint) {\n    TokenManager storage manager = bank[_voter];\n    uint largest;\n    for (uint i = 0; i < manager.participatedPolls.length; i++) {\n      uint curPollID = manager.participatedPolls[i];\n      if (manager.lockedTokens[curPollID] > largest) largest = manager.lockedTokens[curPollID];\n    }\n    return largest;\n  }\n\n  /*\n   * Gets the amount of Voting Credits for a given voter.\n   */\n  function getTokenStake(address _voter) public view returns(uint) {\n    return bank[_voter].tokenBalance;\n  }\n\n  /*\n   * Helper function that updates active token balances after a poll has ended.\n   */\n  function updateTokenBank(uint _pollID) internal {\n    Poll memory curPoll = polls[_pollID];\n    for (uint i = 0; i < curPoll.voters.length; i++) {\n      address voter = curPoll.voters[i];\n      bank[voter].lockedTokens[_pollID] = 0;\n    }\n  }\n\n}\n",
  "sourcePath": "/Users/andrew/Desktop/Andrew/secret-contracts/secret-contracts/contracts/Voting.sol",
  "compiler": {
    "name": "solc",
    "version": "0.4.24+commit.e67f0147.Emscripten.clang"
  },
  "schemaVersion": "2.0.1",
  "updatedAt": "2018-08-14T19:10:28.119Z"
}